:020000040000FA
:10000000F05E00203D330000ED860000113300005B
:1000100011330000113300001133000011330000D0
:10002000000000000000000000000000512E000051
:100030001133000000000000BD2D0000113300004E
:10004000F52E0000F52E0000F52E0000F52E000024
:10005000F52E0000F52E0000F52E0000F52E000014
:10006000F52E0000F52E0000F52E0000F52E000004
:10007000F52E0000F52E0000F52E0000F52E0000F4
:10008000F52E0000F52E0000F52E0000F52E0000E4
:10009000F52E0000F52E0000F52E0000F52E0000D4
:1000A000F52E0000F52E0000F52E0000F52E0000C4
:1000B000F52E0000F52E0000F52E0000F52E0000B4
:1000C000F52E0000F52E0000F52E0000F52E0000A4
:1000D000F52E0000F52E0000F52E0000F52E000094
:1000E000F52E0000F52E0000F52E0000F52E000084
:1000F000F52E0000F52E0000F52E0000F52E000074
:10010000F52E0000F52E0000F52E0000F52E000063
:10011000F52E0000F52E0000F52E0000F52E000053
:10012000F52E0000F52E0000F52E0000F52E000043
:10013000F52E0000F52E0000F52E0000F52E000033
:10014000F52E000053B94AB9002908BF00281CBF8A
:100150004FF0FF314FF0FF3000F00CB8ADF1080C5C
:100160006DE904CE00F008F8DDF804E0DDE90223D3
:1001700004B07047704700BF2DE9F04786468C46B3
:100180000846089E154674461946002B40F0C1806B
:100190008542B2FA82F245D94AB1C2F1200300FA8F
:1001A00002FC954094402EFA03F343EA0C0C4FEA0C
:1001B000154EA8B2230CBCFBFEF80EFB18CC08FBB6
:1001C00000F943EA0C43994528D9EB1808F1FF37A9
:1001D00004D2994502D9A8F102072B44A3EB0903E5
:1001E000A4B2B3FBFEFC0EFB1C330CFB00F044EA94
:1001F0000344A04214D92C190CF1FF3304D2A042BD
:1002000002D9ACF102032C44241A43EA07401EB180
:10021000D440002334607360BDE8F0874746DDE7D3
:100220006346F1E792BB431B01214FEA154EAFB283
:10023000200CB3FBFEFC0EFB1C330CFB07F840EA62
:100240000343984561D9EB180CF1FF3004D298456F
:1002500002D9ACF102002B44A3EB0803A4B2B3FB18
:10026000FEFC0EFB1C330CFB07F744EA0344A742D9
:100270004DD92C190CF1FF3304D2A74202D9ACF1AD
:1002800002032C44E41B43EA0040C0E7C2F1200310
:100290009540944020FA03F12EFA03F34FEA154EED
:1002A0009040AFB20343B1FBFEFC0EFB1C10190CD7
:1002B0000CFB07F841EA0041884522D969180CF186
:1002C000FF3004D2884502D9ACF102002944A1EBE9
:1002D00008019BB2B1FBFEFC0EFB1C110CFB07F7E7
:1002E00043EA01439F420ED9EB180CF1FF3104D2CF
:1002F0009F4202D9ACF102012B44DB1B41EA0041D1
:1003000093E76046E3E76146F7E76046A4E76346A4
:10031000B8E7834206D916B9002108467CE7C6E94A
:1003200000E0F9E7B3FA83F78FB9834201D372454E
:1003300008D8BEEB020460EB030301209C461EB903
:10034000002169E73846FAE7C6E9004CF8E7C7F14B
:10035000200CBB400EFA07F522FA0CF42EFA0CF131
:10036000BA401C4320FA0CF3B8404FEA1449014349
:100370001FFA84FEB3FBF9F809FB18300B0C08FBDD
:100380000EFA43EA00439A4540D9E31808F1FF30DA
:1003900004D29A4502D9A8F102002344A3EB0A0330
:1003A00089B2B3FBF9F809FB183308FB0EFE41EAEA
:1003B00003418E452CD9611808F1FF3304D28E45D4
:1003C00002D9A8F10203214443EA0040A1EB0E0147
:1003D000A0FB02984145CE46434602D306D14D4587
:1003E00004D20138B9EB020E68EB0403002EA7D04B
:1003F000B5EB0E0261EB030101FA0CFC22FA07F3E4
:10040000F9404CEA0303C6E9003199E74046C5E7E5
:100410004346D9E708B50B4808F065FE28B9BDE8A2
:1004200008404521084807F026BE4FF40031074830
:1004300007F08BF9BDE8084000220321014807F0CE
:1004400074B900BF789400009C9B0000A097000046
:100450002DE9FF41594B5A4A4921C3F80026594812
:10046000C3F80426C3F80826C3F80C26C3F81026E0
:10047000C3F81426C3F81826C3F81C2607F0FBFDA2
:10048000FFF7C8FF07F081F94F4808F02CFE00285D
:100490004ED04FF480314D4807F057F90C214A48AF
:1004A00007F02FF9002843D0002140F2676005F0E3
:1004B00045FB4FF47A7708F075FF3D46A0FB070334
:1004C00007FB0133C40B404E44EA43440C21304641
:1004D00007F017F9804608F065FFA0FB053207FB1F
:1004E0000122DB0B43EA42431B1BB3F5E17F07D23A
:1004F000B8F1000F1CD00021212005F01FFBE5E71B
:10050000B8F1000F14D04FF05023D3F800340BB1E2
:10051000DB070DD5012203212B4807F006F94921FD
:100520002B4807F0A8FD01F05DFE2A4802F0C6F94D
:1005300001A800F087FC284B1B68834204D04521AA
:10054000264807F098FDFEE7039A4921244807F062
:1005500092FD4921234807F08EFD4FF480310020A1
:1005600003F040FF044620B145211F4807F083FDFA
:10057000FEE769469DF8080000F03AF8009B039DED
:100580001D44019B1E8900F065FFAF1900F046FF76
:1005900002F016FF84F30B8884F30A88AB5983F3C7
:1005A000088884F31488BFF36F8FBFF36F8F7B6865
:1005B000984745210D4807F05EFDFEE70080015099
:1005C0003546526ED39B0000789400009897000047
:1005D000EC9B0000A897000038030020109C00004E
:1005E000339C0000629C0000879C0000BA9C0000C5
:1005F000024608B538B105480023452107F03BFD08
:100600006FF0150008BD0860FCE700BFDD9C00002E
:100610001FB50C46014601AA044808F01FFA18B994
:10062000019B2360029B636004B010BDA89400008E
:100630002DE9F04F1E46834BDBB01446DDE96657CB
:10064000D3F80080DDF8A0B100F0B2FE01227E4BAD
:100650003AA8C3F8002505F08DFF35B1002F04DD61
:100660003A4629463AA807F0E3FB4FF000096389B0
:1006700027891F44E3681F444F4525D80DA93AA890
:1006800005F0EAFF0022704BC3F80025C3F80025EF
:10069000BBF1000F04D0202258460DA908F05FF8E6
:1006A00000233246009321464FF6FF7307A807F058
:1006B0006DF80546D0B930460C9C00F083F98442B1
:1006C0001FD94FF0FF3511E0659BA7EB090A9A454A
:1006D00028BF9A46494653463046649A07F0D9FCEB
:1006E000054638B10022584BC3F8002528465BB0B8
:1006F000BDE8F08F524664993AA807F099FBD144BF
:10070000BAE74FF0FF37DFF84CB1DFF83C910DF15D
:10071000160305AA06A907A807F086F8041EC0F26A
:100720008F8040F08280BDF816A0BAF1100F18D16A
:10073000BDF81450202DC4D12B46304606993AAA54
:1007400007F0A7FC044600287AD12A463AA90DA84A
:1007500007F0E2F805463D4B1B688342C6D10125F0
:10076000D5E7BAF1010F3ED1BDF81430202BA8D83F
:10077000304606993AAA07F08CFC044600285FD15F
:100780009DF81430202B029309D8DBF80030304F4D
:100790000393039B9C4205DB0023C9F800354FF00F
:1007A000FF341CE000F004FEC9F800A51DA805F008
:1007B000E1FE7A681DA8126857F8081B07F038FB9D
:1007C00015A91DA805F048FF0022C9F80025029AC6
:1007D0003AA915A807F09CFF18B9C9F800052746E3
:1007E00095E70134D5E7BAF1220F90D17B1C8ED06A
:1007F000DBF80030BB4215DDBDF81430802B3FF62E
:1008000060AF304606993AAA07F043FC0446B8B9EF
:10081000FFB22021BDF8143000973AAA0DA800F0CD
:100820001BF880464FF0FF3771E745B1074B1B6857
:1008300043451CBF034BD3F80080454656E70124CF
:10084000254653E7000000200000845038030020B4
:10085000B4970000B09700002DE9F04196B017461C
:100860001D469DF87020354B0E4653F8321003EBB1
:10087000C2035B6801918046186802AA01443023D4
:1008800001A807F063FA20B14FF0FF3016B0BDE8C1
:10089000F081DDE901431C44214606AB03AA01A80F
:1008A00007F07CFA0028EFD1049A072AECD12449FA
:1008B000059807F02DFF0028E6D1079A082AE3D112
:1008C0002049089807F024FF0028DDD1214602AA1C
:1008D00001A807F04FFA0028D6D1DDE90132134410
:1008E0009C42D1D1412ACFD13D443023294603AA8D
:1008F00002A8029707F02AFA0028C5D1DDE90232E2
:1009000013449D42C0D32A4602A906A806F0D8FF88
:100910000028B9D12A4602A90EA806F0D1FF002866
:10092000B2D1202EB0D101990B78042BACD1334633
:10093000404606AA013100F053FDA7E7B497000036
:100940000C9D0000039D00002DE9F041032386B0BB
:100950000D466F460026DFF86880ADF8003017F8C6
:10096000010B01A901F052FA0446A0B90198102325
:10097000816802AA103907F08CFB0446019807F041
:1009800087FB44B91022414602A807F0C1FE40B1DE
:100990002EB14FF0FF34204606B0BDE8F0810126AD
:1009A000DDE7019808F02DFA0423A0F108012A469A
:1009B000019807F06EFB0446019807F069FBEAE72F
:1009C0008C9B000007B506F0BBFF6946FFF720FED1
:1009D00038B10548452107F04EFB002003B05DF813
:1009E00004FB0098FAE700BF149D00002DE9F041D8
:1009F000354B88B0064600200C461D6806F0BAFE4E
:100A000006A9C0B201F002FA002857D1214606F02B
:100A1000B1FE2C2507A9C0B205FB046501F0F6F96B
:100A2000002833D02C27674306EB0708D8F81010AE
:100A3000069B11F0100138D14FF480720192234AC5
:100A400008460092CDE903112A460291FFF7F0FD16
:100A500005461F4BF25906989A420CD1D8F80C2043
:100A6000B8F808309B1806D28268934203D2194B1B
:100A70001B68AB421FD02CB38268002107F033FB08
:100A8000154A4521154807F0F6FA13E0079807F0D4
:100A900047FB0746079807F0FBFA6B1EEA1C13F8A2
:100AA000011FB942BED19342F9D11CB1304606991B
:100AB00007F02BF80125069807F0EAFA284608B057
:100AC000BDE8F081064ADCE7000000200224002097
:100AD0003DB8F39638030020579D0000619D00004B
:100AE0004F9D000073B50D46002104462846CDE910
:100AF000001106F0C9FF30B3164E2368B34203D18C
:100B0000204601AA06F054FFE36AB34204D16A46C4
:100B10000121204606F04CFFDDE90032934288BFF8
:100B20000193019BAB60019A2946204600F036FBF9
:100B3000094B1A68002A03DD5721084807F09BFA81
:100B4000002002B070BD05F10801FFF7FDFEAB68A3
:100B50000193E8E73DB8F3969C170020899D0000BB
:100B60002DE9F84F884691469A460026DFF870B086
:100B7000194C1A4D0B9B9E4201D300200FE00B9B9A
:100B800040469F1BB7F5806F28BF4FF48067144A1B
:100B90003B4606EB0A0107F07CFA10B10120BDE8E4
:100BA000F88F0A993B465A464846711807F086FA6C
:100BB0000028F3D1C4F800563E44C4F80456C4F8E3
:100BC0000856C4F80C56C4F81056C4F81456C4F8A5
:100BD0001856C4F81C56CDE7008001503546526EB9
:100BE0003C1300202DE9FF410E4600218E4B0446A8
:100BF00043628E4B0365084606F0BCFD04F12001FC
:100C0000C0B201F003F90121002006F0B3FD04F1A8
:100C10004C01C0B201F0FAF80546204606F009FF83
:100C2000074668B900222046114606F0ABFE07468B
:100C300008B3002257217E4807F01DFA012390E0F7
:100C40004FF4807257217B4807F015FA01239F4229
:100C500084F85830E6D194F85830042B8DF80730DA
:100C600000F28280012B00F2858000F09C80FF233F
:100C700084F8583097E0204600F0A6F90028DDD02F
:100C8000684606F0F8FE6946204606F093FF18B164
:100C90003A4657216848CFE7684606F0F5FE80F0EF
:100CA00001016A462046C9B206F06CFE02460028E1
:100CB000BFD1684606F0E8FE074660BB694620469D
:100CC000FFF710FF9DF8073084F85830033B012BE5
:100CD00006D8384606F0BDFF10B1FF2384F858301F
:100CE0009DF80730023B022B0BD8002006F09FFF37
:100CF00038B1FF2384F858304521504807F0BBF93C
:100D0000FEE794F85830FF2BF6D06A4600212046C3
:100D100006F038FE92E79DF80780B8F1010F15D173
:100D2000104603F0FDFB831E022B07460BD84146FD
:100D30002046FFF75BFE424B1B68984203D0012818
:100D400014BF0527012784F8587084E70121204645
:100D5000FFF74CFE3A4B1B68984214BF05239DF8E1
:100D6000073084F8583076E7052B80D1002006F054
:100D700070FF13E069462046FFF7B4FE94F8583040
:100D80000546DA1E012A0CD8002006F062FF05464F
:100D900000287FF46CAF002006F049FF054610B133
:100DA00065E7022BF7D094F85830FF2B04D145218A
:100DB000224807F060F9FEE7012B10D06A460021B7
:100DC000204606F0DFFD054648B1E06C07F060F90B
:100DD000206A07F05DF9284604B0BDE8F0810021E3
:100DE0002046FFF703FE0746DFF85480D8F80030AE
:100DF00098420FD110220021684607F0BBFC206A00
:100E000006F0C1FC3071236A5B683460D8F800508A
:100E1000B360DAE7E06C07F03BF9206A07F038F9D5
:100E2000002D08BF3D46D6E73C0B00203C030020C8
:100E3000FA9D0000B89D0000269E0000509E000014
:100E40003803002038B5064D0446602200212846AC
:100E500007F090FC21462846FFF7C4FE38BD00BFCE
:100E60003C17002073B516461D4643B15B79012B34
:100E700007D121B9204B2A681B689A4217D8002451
:100E800018E0022BFBD12B68012B07D91A4A1268F4
:100E90009342F4D8B1FA81F14909F0E7EFD131B1C9
:100EA0000129ECD12979023918BF0121E7E7002196
:100EB000436A5C68002006F05DFC01A9C0B200F046
:100EC000A5FF30B10124019807F0E2F8204602B0F6
:100ED00070BD214620233246019807F0DAF8044617
:100EE0000028EFD1002DEED03468044BE41A18BF6F
:100EF0004FF0FF34E7E700BF040000203DB8F39651
:100F00002DE9F04F07460C4685B0014600201646F5
:100F100006F009FD051E51DB3846E46D06F010FDB4
:100F20005FFA84F94FF0000A4FF0010B4FF0FF34E5
:100F30006B1E09FB03089DB9BAF1010F03DD4521C2
:100F4000204807F098F8631C06D0FF2C2ADC40F2FA
:100F5000011301343460B380284605B0BDE8F08F3A
:100F60006B1E00934146012338460DF10F0207F036
:100F700090F8031E019323DB012238460DF10F0187
:100F800007F053FF019B40B15B4501D00AF1010A14
:100F90009B46009DA8EB0908CDE7B4F1FF3F08BFD1
:100FA0002C46F5E70223A4F580747371631004F0F6
:100FB00001040133013433603471CDE70725CBE7F9
:100FC0000125C9E75C9E000038B5816A426D9142F7
:100FD00008D0531C8B4205D05721144807F04BF81A
:100FE000002038BDB1F5807F1CD957211048F5E7A6
:100FF000446A056D04EBC30405EBC30564686D68C2
:10100000AC4202D057210B48E8E701339A42EFD1B6
:10101000914205D9436A03EBC2035B68A342F1D155
:101020000120DEE700231C46F0E700BF7F9E0000A2
:10103000B79E0000E69E000000B589B0032004A919
:1010400007F065FF9DF81020012A41D0254B264965
:10105000032A08BF0B469DF81320492102929DF8F0
:101060001220224801929DF811200092204A07F098
:1010700002F8092006A907F04AFF9DF81820012A66
:1010800028D0184B1849032A08BF0B469DF81B208F
:10109000492102929DF81A20144801929DF81920C6
:1010A0000092144A06F0E7FF9DF81030012B13D18F
:1010B0009DF81230032B0FD19DF81830012B0BD067
:1010C0000D48492106F0D7FF022009B05DF804FB66
:1010D0000A4BC0E7094BD9E70948492106F0CBFF85
:1010E0000020F2E7129F00001B9F00002F9F0000CE
:1010F000219F0000709F0000809F0000169F00004D
:101100009F9F000070B54B6814461E4A03F0FF23F2
:10111000934206460D4686B02FD10B68012B2CD189
:10112000204604A903F0A6F99DF81020012A26D034
:10113000154B1649032A08BF0B469DF81320492179
:1011400002929DF81220124801929DF811200092FF
:10115000104A06F090FF9DF81030032B0DD1214668
:10116000304606F0D2FC204607F0C4FE2046A968AF
:1011700006F0F9FB204603F05DF906B070BD064BA2
:10118000DBE700BF00010004129F00001B9F00006E
:101190002F9F0000709F0000169F00002DE9F04F68
:1011A00005460C467D48492189B0174606F063FF85
:1011B0006B6A01225E6800233344BB42114602F190
:1011C0000102F9D3764F2046396006F05DFC08B382
:1011D000E86D06F0A3FBAB6A03F1FF38002333444C
:1011E000834202D208F1FF38F9E73B68434511D347
:1011F00057216C4806F03FFF3A6808FB06F3572179
:1012000002FB0662684806F036FF0123E37109B06D
:10121000BDE8F08F06A9032000F0F8FD07A909201A
:1012200000F0F4FD21462846079AFFF76BFF63792B
:10123000012B0BD1D7F80080DFF870B13B68DDF8E7
:101240001890B8F1000F11D10123236002234FF051
:10125000010863713B68DDF818A0984549D95046EC
:1012600006F016FF079806F013FFD0E72268013357
:101270009B1A98453AD86B6A012A196853F83800C6
:1012800003EBC80353F8083CA0EB010AA3EB0103EE
:10129000049311D1079B0393E368022B08D04946BE
:1012A000284606F032FC22464946284606F063FCF2
:1012B0002846039906F029FC32465146484606F076
:1012C00022FC049B4A4649462846CDE900A6FFF782
:1012D00047FC2146284606F0E4FB236801332360DF
:1012E00020B1DBF800300133CBF8003008F1FF38D3
:1012F000A4E7236898454ED36A6A4FEAC80352F8B8
:101300003810083B04911168DDF81CB00391D158E6
:101310002A6DD0581368A0EB03092379012B38D12B
:10132000039B3246C91A5046059106F0ECFB05991D
:101330004B4652460091284659460196FFF710FC4D
:101340002146284606F0ADFB0223237118B1174A47
:1013500013680133136032464946584606F0D3FB02
:10136000DDE9032351469B1A28465A46CDE90096EB
:10137000FFF7F6FB2146284606F093FB236801336E
:1013800023600123237130B1084A136801331360CD
:1013900001E0022BDFD008F101085BE7B69F0000F7
:1013A00004000020DF9F00000EA000009C1700201A
:1013B00070B5094D2B780BB1002070BD0126074C8C
:1013C000C4F8006505F078F918B92E70C4F8000566
:1013D000F2E74FF0FF30F0E70225002000008450D4
:1013E0002DE9F041ACB01F4606460C461546FFF706
:1013F000DFFF0123DFF820802A46C8F800352146A8
:101400003346009703A807F0D3FF0023C8F8003540
:101410002CB0BDE8F08100BF00008450BFF36F8F97
:1014200072B600234FF0FF30094A03F12001013367
:10143000102B42F82100F8D100234FF0FF30044A6E
:1014400003F160010133102B42F82100F8D17047FD
:1014500000E100E038B501224FF0FF3400251A4BBF
:1014600029465A60C3F84843C3F8084303F580533C
:101470005A60C3F84843C3F80843A3F55043C3F880
:1014800000558022C3F80843104807F073F9802202
:1014900029460F4807F06EF90E4B8022C3F800551D
:1014A0002946C3F808430C4807F064F9802229460E
:1014B0000A4807F05FF90A4BC3F808454FF050237C
:1014C000C3F8084338BD00BF004001508080005081
:1014D000808100500090005080900050809100501A
:1014E000007001502DE9F043079D15B915600020EB
:1014F00012E00324B5FBF4F404EB4407BD4218BF2B
:101500000134B4F1804F09D2A40001348C4200D8D8
:1015100038B96FF00B001460BDE8F0834FF0FF3472
:10152000F7E704460021DFF8B4E0B94203F1030C09
:1015300004F104062BD3A942274623D201F1010C62
:10154000AC451F7828BF002324494FEAA70E38BFB7
:101550005B7811F80EE0AC4584F800E001EB131E57
:101560002EBF3D239B0003F03C034FEA071738BF13
:10157000CB5C07F030071EF80770A3703D2367703F
:101580003746E3700023381A10603B70AFE71CF851
:10159000034C1CF8023C4FEAA4091EF809902401F0
:1015A0001CF8018C04F0300406F8049C0EEB1319AF
:1015B00019F804409B0006F8034C03F03C030EEBC3
:1015C0009814E35C08F03F0806F8023C1EF8083067
:1015D000344606F8013C03316346A6E71AA1000031
:1015E0002DE9F04300273C463D46DDF81CE0DFF8DE
:1015F000288175451FD3E4BB00201460BDE8F0834B
:101600000136764533D013F806C0BCF1200FF7D071
:10161000AEEB0609B9F1010FA6EB05050DD0BCF143
:101620000D0F0AD103EB060999F80190B9F10A0FE1
:101630006ED1751CDDE72E46E3E7BCF10A0FF8D04A
:101640002DB9BCF13D0F05D10137022F0DD96FF037
:101650001500D3E71CF0800FF9D118F80C507F2D3E
:10166000F5D03F2D01D8002FF1D10134E1E7354607
:10167000C1E74FF0060C04F00706E4080CFB06F681
:101680000CFB04F40736E41B04EBD60470B18C4267
:101690000CD80027014603263C46DFF87CE0DFF843
:1016A0007C801D449D4205D10C1AA5E76FF00B000C
:1016B0001460A3E713F8019BA9F10A0C5FFA8CFCF4
:1016C000BCF1160F04D848FA0CFC1CF0010FE9D04D
:1016D0001EF809C00134BCF1400F08BF013E0CF0F8
:1016E0003F0C042C4CEA8717DCD17EB13C0C012E58
:1016F0000C7002D101310024D4E7022E4FEA1724E6
:101700004C7016BF8F7002310331F4E73446C9E7DD
:10171000002DA2D09BE700BF9AA00000F6FFBFFFFC
:10172000014B1B68184700BF0800002007B50B4697
:10173000002102460091034800F014F903B05DF85F
:1017400004FB00BF211700002DE9F047058B04467C
:101750002807904611D4022905F0070540F0CD80F6
:10176000204606F099FB78B10138218B042811D866
:10177000DFE800F0C3106D85950001290CBF45F02E
:10178000100545F02005258388F31188BFF36F8F7E
:10179000BDE8F08701F0070AAA4500F0A6800027FF
:1017A000B9463E46A368002B00F0BD8041F0080119
:1017B000218388F31188BFF36F8FA168002900F09F
:1017C000BB800D68002900F0B780334652462046A2
:1017D000D1F80480C047002D76D02B6829461D46DD
:1017E000F0E701F007035A1F012A1BD8002221F05D
:1017F0000701062B276889B2C4E9002209D13B46BC
:1018000003E0628B013262831B68002BF9D141F047
:1018100002012046218306F03FFB00287BD041F0E7
:10182000200177E0042B0AD121F0070189B220467C
:10183000218306F031FB10B141F020012183218B7F
:1018400001F0070AAA4550D00027B946AAE7236944
:1018500021F0070141F00601062DD3F80090218305
:101860002DD1B9F1000F40D041F00801218388F358
:101870001188BFF36F8F20463949C84729E021F00E
:101880000701236941F0040189B2042DD3F80490C3
:101890002183E6D000274FF0040A3E4682E721F07C
:1018A0000701236941F0050189B2052DD3F808909D
:1018B0002183D6D000274FF0050A3E4672E7002765
:1018C0004FF0060A3E466DE72B4687E7B9F1000F59
:1018D000D1D14FF02003EFF3118883F31288BFF3C7
:1018E0006F8F238B23F008032383258BEA062ED5E5
:1018F00025F01003238305F007056669218B002E70
:10190000BFF66FAF00232768C4E9003321F0070159
:1019100041F001012183218B4FF0000901F0070AFA
:10192000AA457FF43FAF002F9BD041F008012183EF
:1019300088F31188BFF36F8F002FC7D03D683946F9
:1019400033465246204606F0D3FA2F46F4E7AB065C
:101950007FF51AAF25F02003238305F00705FFE686
:101960001D7F00002DE9F04F82464FF000098DB039
:101970001D46531E01910393039B58785C1C252838
:1019800019D100204FF0FF381E4644460346023668
:10199000029031780396392955D81F2914D8002987
:1019A00000F0EE8101992520D04701993078D04789
:1019B00009F10209E0E7002800F0E2810199D0472F
:1019C00009F101090394D7E7A1F12002192AE9D806
:1019D00001A757F822F000BF411A0000A519000026
:1019E000A5190000411A0000A5190000C11A000045
:1019F000A5190000A5190000A5190000A5190000EF
:101A00000D1B0000411A0000A5190000211B000059
:101A1000CD1A0000A5190000DB1A0000FB1A000017
:101A2000FB1A0000FB1A0000FB1A0000FB1A000062
:101A3000FB1A0000FB1A0000FB1A0000FB1A000052
:101A400008460136A5E7582900F0EB80A1F16302B2
:101A5000D7B2172FA6D8172AA4D801A757F822F073
:101A6000C91C0000471B0000A5190000A5190000B3
:101A7000A5190000271B0000471B0000A519000046
:101A8000A5190000271B0000A5190000A5190000DA
:101A9000A5190000FD1B0000A5190000A5190000F4
:101AA0009D1C0000A5190000471B0000A51900009F
:101AB000A5190000FD1B0000A5190000271B000050
:101AC00025200199D04709F1010955E7029A4FF005
:101AD000000802F0FE020292B3E7002C0DDAB8F122
:101AE000000F0DDA029A002A00F042810A2224EA4D
:101AF000E47402FB0414303CA3E7B8F1000FF5DBFB
:101B00000A2202FB0812A2F130089AE7B8F1000F8E
:101B100055F8042B80F22E81002A80F22D81544248
:101B2000022202928DE7682903D1682B06D148234F
:101B300087E76C2902D16C2B00F02081002B7FF409
:101B400031AF0B467DE77A2B06D1752955F8046B2A
:101B500014D14FF0000B0CE06C2BF6D04C2BF4D1D1
:101B6000073525F00703752903F10805D3E9006B54
:101B700006D120283BD1844F013C09E04FEAE67BA7
:101B8000BBF1000FF5DA7642804F6BEB4B0B013C5B
:101B90000DF12D03059300230493304659460A2284
:101BA0000023FEF7CFFA049B8E46591E0491059937
:101BB000B446303201F8012D5A46BCF10A0F72F1D9
:101BC00000020646F3460591E7D2C3F1010B30331C
:101BD0000DEB0306B8F1000FA6F104066DDA029BC7
:101BE000D9077CD4A8EB0B03A4EB0B0413E02B2840
:101BF0000ABF674F674F04F1FF34C9E770290FD15F
:101C000055F8042B0023FAB96FF004034FF0050BCD
:101C1000614E053C5F4F029A92076FD4A04665E083
:101C200078216C2B03D1002355F8042B08E04C2BB2
:101C3000F9D1073525F007031D465B6855F8082BD9
:101C4000232825D1880621D5544F023C002601F0D7
:101C50006001A1F1390B0DF12D0E02F00F010929E0
:101C600088BF594430310EF8011D102A4FEA121175
:101C700041EA03714FEA131073F1000306F1FF3CD0
:101C800008D2C6F1010B06F13003A1E7444FDCE7AF
:101C9000404FDBE766460A460346DEE755F8046B2D
:101CA000304606F02EFDB8F1000F834602DB4045BA
:101CB000A8BFC3464FF00008364FA8EB0B03002B1C
:101CC00092DDA4EB0804A6E755F8043B4FF0010BA6
:101CD0008DF81830013C4FF0FF3306AE9AE7A0466E
:101CE000EBE7029320200199D047029BB8F101084D
:101CF000F7D524EAE472013C9144A41AB84606E000
:101D0000049302920199D047029A049B904642465E
:101D100012F8010B0028F3D11A46013A15D5002B11
:101D2000ACBFC7EB03077F425B46013B15D5BBF158
:101D3000000FA8BF5F4426464F44013E14D5002C37
:101D4000A8BF3F1907EB080916E60493029230205A
:101D50000199D047049B029ADFE70293019916F894
:101D6000010BD047029BE0E701992020D047E4E730
:101D70000122D6E6904664E6144662E64C2360E60D
:101D800048460DB0BDE8F08FE5A600006BA100004D
:101D90006DA10000D29B000075A100006FA10000A2
:101DA00072A1000008B54FF02002EFF3118382F317
:101DB0001288BFF36F8F01F0F1FA034806F055F86F
:101DC00000F0FEFEFCE700BF7BA100004FF0200208
:101DD000EFF3118382F31288BFF36F8F0121044A5E
:101DE000C2F8401583F31188BFF36F8F002070474E
:101DF0000090035020B1034B800143F001031847CA
:101E0000704700BF9097000002F000BC70B5114B06
:101E10000D461C68DCB1104B196800238B4202DBB5
:101E20006FF0010070BD224612F8106B864202D09E
:101E300014460133F2E7E06810B96FF01200F1E7E1
:101E400007F051F90028F8D000202C60EAE76FF085
:101E50000C00E7E70C000020C097000070B588B0C8
:101E600005460C46C0B269461646FFF7CFFF00286C
:101E70001BDB0098C8B14368226802938368019510
:101E8000CDE903360023CDE906230593C56806F0A6
:101E9000FFF86DB12846084901AA06F0E3FD07984E
:101EA00008B9059B236008B070BD6FF01500FAE714
:101EB0006FF01200F7E700BF2F810000014804F027
:101EC00067B800BF6498000038B5044618B90F4BD6
:101ED0000F485B6898476168B1F5683F0FD0B1F56E
:101EE000680F0CD00B4DA94209D011F4686107D0DE
:101EF0002146094807F02AF900232360656038BDB0
:101F00001422206806F036FCF8E700BFD00000205D
:101F1000A8A100002C5F5CA9A01C002008B500B39C
:101F20004368B3F5683F0CD101220368D3E8EF1F83
:101F3000002903D1C3E8E02F0028F7D10DD10020FC
:101F400008BD094A93420AD000684FF0FF324FF0B3
:101F5000FF3303F02DFA0028F1D00448F0E70448DD
:101F6000EEE76FF4E040EBE72C5F5CA9E98FFFFF41
:101F7000EA8FFFFF08B5B8B14368B3F5683F0CD1ED
:101F800000220368D3E8EF1F012903D1C3E8E02F43
:101F90000028F7D10BD1002008BD074A934208D092
:101FA000006803F07FFAF6E76FF4E040F4E70348D7
:101FB000F2E70348F0E700BF2C5F5CA9E98FFFFF61
:101FC000EA8FFFFF10B5044618B91D4B1D485B682A
:101FD00098476368B3F5683F2FD0B3F5680F2CD0EE
:101FE000194A934219D1236803BB4FF0FF324FF0D7
:101FF000FF332146154803F021F908B923681BB9BE
:102000000F4B13485B68984714220021206806F0A4
:10201000B1FB4FF46863636008E0B3F5683F0DD827
:102020003A2B03D040F6BA629342DED1206807F023
:10203000D2F8636843F03A03636010BD054AF3E7E2
:10204000D0000020A8A100002C5F5CA9A01C0020EB
:10205000CEA100003A00003A08B5064940231422F8
:10206000054807F065F8BDE808400449044804F055
:1020700001B800BFA0170020A01C00206C98000031
:1020800080980000F7B5254E306883685B6C03B11B
:102090009847306883685B6B002B32D1204C214D10
:1020A000306883689B69002B2ED001220DF1070157
:1020B0009847012828D1236843B92B6833B369684E
:1020C0001A688B422A6000D16A602360164A9DF824
:1020D00007001188B1F5007F04D223684F1C0B4420
:1020E000178018720A28DBD1002023681188186035
:1020F00059600E494D6875B9C1E900331080206000
:10210000CDE798470028C9D103B0F0BD4521084864
:1021100005F0B1FFF8E72B604B60EFE7E42000200B
:10212000BC1C0020CC1C002000240020C41C00206B
:10213000FBA1000010B5044B044618688368E1B2A7
:102140005B689847204610BDE42000202DE9F0414F
:102150000546904608464FF02003EFF3118783F3BE
:102160001288BFF36F8F1C490B684BB11B4C626820
:102170009A4205D000221A60626872B9C4E900333D
:10218000174A136863B987F31188BFF36F8F184636
:102190000B60C8F80030BDE8F08113606360EFE7C2
:1021A00056681C68B342146008BF546087F31188F6
:1021B000BFF36F8F5C680B60A042D8BF00F1FF34A3
:1021C00003F108012246284606F0C9FA0023601CE4
:1021D0002B550123DDE700BFC01C0020CC1C0020D4
:1021E000C41C002037B500251B4B1C4AC3E9005511
:1021F0001B4B1C4C1C4803F502711360C3F80852BA
:1022000019605160206006F06EFF10B3206883688B
:1022100023B19B6C13B12A46144998472068836800
:102220005B6B0BB1984748B1206883689B69002BB2
:10223000FAD001220DF107019847F4E700220C4B78
:1022400020681A8083689B6A03B19847002003B016
:1022500030BD4FF0FF30FAE7C41C0020CC1C00203A
:10226000D41C0020E4200020909400008520000071
:102270000024002040F6061300202DE9F043D9B0D9
:10228000ADF80830DFF8FC90394BD9F800101B6826
:10229000384E0822A3EB06080B78487001330B7008
:1022A00098FA98F34B808B8802275BBA8B8005F0F5
:1022B000CDFE42463146ADF80C0005F0C7FE2E4D6E
:1022C00040BA2B681FFA88F4ADF80C00022102A86E
:1022D0005B68984704F10A035BBA0DF10E01022214
:1022E00005A8ADF80E3006F03AFAD9F80010082229
:1022F0000DF11600ADF80E7006F031FABDF80E00C3
:1023000005AB083080B242463146ADF80E001844A5
:1023100006F025FABDF80E303A46E01880B205AB5B
:10232000ADF80E0003A9184406F019FABDF80E30F6
:1023300004AA3B449BB2ADF80E300093BD2105AB1F
:1023400028A8FFF7CFF804992B68ADF80E1028A83D
:102350005B6889B298472B6801215B6807489847FA
:102360004921074805F087FE59B0BDE8F08300BF5A
:10237000FC2000200325002030210020D19B0000FC
:1023800039A200002C210020F0B50646B3680C46A7
:102390009A42104685B01DD291421DDC02A9FEF77B
:1023A00037F9B8B9DDE902531D446B1ECDE90030A1
:1023B000224649210B48E3172F1B05F05CFE3A46E5
:1023C0002146304605F08FFE024640B145210648C1
:1023D00005F051FE6FF01504204605B0F0BD2C4607
:1023E000FAE700BF41A2000060A20000F0B50C684F
:1023F000164F85B002380D46C4F580610090144B2D
:10240000381903AA0131FFF7EBF80446D0B92B685D
:10241000039A1344022B2B6011D93E88023B76BAF3
:10242000B6B29E420BD13246B91C05F00FFE30B950
:10243000022E04D92B689A1E2A60FC5401242046DF
:1024400005B0F0BD4FF0FF34F9E700BF8425002050
:102450008729002007B5CDE900016946024806F04A
:102460008BF803B05DF804FBFC20002038B505466E
:102470000A4C0A21204606F091F802210848FFF78D
:10248000E9FF2946204606F067F820460A2106F0B3
:10249000A3F8BDE83840FFF7EDBE00BFFC200020E8
:1024A00082A20000002307B5054A0093022102F131
:1024B0008003044806F092F803B05DF804FB00BF07
:1024C00003250020FC2000202DE9F04707290446C1
:1024D000A8B040F29480037813F0FD0640F08F809E
:1024E0004388A1F108055BBA9BB2AB42C0F087807C
:1024F000A64B186083885BBA8380FFF7D3FFA08860
:10250000012840F0C181E7793FB1012F7CD008203C
:1025100028B0BDE8F047FFF7A9BF01469C4806F088
:102520003DF806219B48FFF795FF0521984806F0E6
:1025300026F83C46DFF89482974FDFF894922146C4
:10254000002005F017F907A9C0B2FFF75FFC0546A8
:10255000002849D1202301460DEB0302079805F01E
:1025600098FD089B3E6843450DD14023019318AB6D
:10257000009329462846CDE90355079B029508AAF2
:10258000FEF756F80646079805F082FDD9F80030A8
:10259000B34229D114217E4806F000F804217F4877
:1025A000FFF758FF21467A4805F0DAFF07217C48FB
:1025B000FFF750FF0E9B40210293BDF83630794A59
:1025C00001939DF8353018A800939DF8343000F041
:1025D00045FF18A806F095F8014618A8FFF73AFF3E
:1025E00014216B4805F0F8FF64B10521684805F037
:1025F000E4FF0121664805F0EFFFFFF73BFE28B03E
:10260000BDE8F08701249AE7294607AB08AA04F140
:102610000800069600F02CFA28B30324224649212C
:10262000614805F028FD0A21594805F0B7FF02214D
:102630005E48FFF70FFF2146554805F08DFF44B96E
:1026400003215B48FFF706FF5A4B5148196805F014
:1026500087FF0A214E4805F0BFFFFFF70BFE0698E3
:1026600005F016FDCBE7079B9D42D6D14FF0FF3911
:102670000146C84605460746179C08AAA14222D132
:10268000B8F1FF3FC9D0002FC7D0002105F072F884
:1026900006A9C0B2FFF7BAFB04460028BDD1454EDB
:1026A000B8F1000F66D106983460D0F8088005F0C4
:1026B00047F94149FDF7ACFFC8B145213F4805F056
:1026C000DAFC0124AAE7137A032B04D8DFE803F02D
:1026D0000206090C106801310C32CFE7D2E900750F
:1026E000F9E7D2F80090F6E7D2F80080F3E7C845A2
:1026F00093D3334B1C60334BC3F800903268DFF840
:10270000C080013AD8F8001006982A44FFF73CFE32
:102710000028C8F8000080DB069805F0FAFCB5FB3D
:10272000F0F303FB10503268C1B2DFF89890A5EBCC
:10273000010808EB0203D9F800501944A94238BF38
:1027400000204921C5B2204805F095FC069805F007
:10275000E0FC012805D9069805F0DBFC01380742AA
:102760006FD143463A463168069805F0A7FC002829
:1027700055D052E7336843457FF450AF114A05EB1B
:10278000080312689342B9D947E700BF2C21002003
:10279000FC20002085A20000000000208CA2000088
:1027A00091A2000099A20000C8A2000082A200002D
:1027B000D6A20000F8200020F0200020149D000088
:1027C000EC200020E8200020A8A200003DB8F396ED
:1027D00038030020C245069888BF5FFA88FA05F0E2
:1027E0009FFC4022014618A805F0C4FF5246394616
:1027F00018A805F0B4FF53463168069818AA05F0EA
:102800005DFC00287FF409AF3368574453443360BC
:10281000A8EB0A08069805F07CFC8045DAD29DB941
:102820003368D9F800202B444344934233607FF44B
:10283000F5AE214B06981A681146FFF7A5FDC40FA7
:10284000ECE64FF0400AE5E7069805F069FC08223F
:10285000014618A805F08EFF2A4607EB080118A8C4
:1028600005F07DFFDDF818A03168504608EB010740
:1028700005F04FFC3946034618AA504605F01EFCE9
:1028800000287FF4CAAECBE700287FF440AEE3799E
:10289000012B3FF43DAE052B03D0002B7FF437AE68
:1028A000ADE6FFF7E3FD4FF40050002103F046F9D9
:1028B0000120FFF777FA00BFF020002001232DE967
:1028C000F34100240546264FDFF8A8803B70254BD6
:1028D000254E009418603B7813B902B0BDE8F08132
:1028E000224BC4F58061C3F80086C3F80486C3F8A0
:1028F0000886C3F80C86C3F81086C3F81486C3F89C
:102900001886C3F81C862B6801AA01313019984734
:102910000028019B01DC002BDDD004442BB940F2E0
:1029200001439C42D7D10024D5E73378062B09D147
:102930007378092B0BD1002300936946A01EFFF783
:1029400055FD04E0042B02D17378142BF5D0012837
:10295000E9D1009906480239FFF7B6FDE3E700BF69
:10296000832500203021002085290020008001508F
:10297000862500203546526E73B504460D4605F097
:1029800080FE002868D0354B694600930523204619
:10299000019305F04CFD60B12946204605F028FD65
:1029A00038B100232B72204605F072FE012002B0E0
:1029B00070BD204605F068FE78B1294B694600934A
:1029C00004232046019305F032FD30B1294620460C
:1029D00005F02AFD08B10123E4E7204605F054FE86
:1029E00078B1204B6946009303232046019305F0FC
:1029F0001EFD30B12946204605F0FAFC08B102233D
:102A0000D0E7204605F040FE78B10326164B694614
:102A100020460093019605F00AFD30B12946204674
:102A200005F0E6FC08B12E72BDE7204605F02CFE4D
:102A300078B10E4B6946009303232046019305F0BD
:102A4000F6FC30B12946204605F0EEFC08B104231F
:102A5000A8E7204605F01CFE0020A8E77A9F0000AA
:102A6000DAA20000DFA20000D6A20000E3A200006C
:102A70002DE9F0434FF001099DB004AC07460E4626
:102A800090461D4602460B4620460421CDF8009094
:102A900005F002FE204605F0CDFC70B10C230521A7
:102AA000CDE901834846114B009408F13C0205F042
:102AB000E1FC60B9204605F0D8FC0022099BD868EB
:102AC000DA60904208BF1F201DB0BDE8F0832046A9
:102AD00005F0C9FC0028F0D00DB90020F4E7049BF4
:102AE000DB1BB34294BF2B602E60F6E77929000010
:102AF00002464B1E0846D15C51B102280FD9084B43
:102B00000344012013F8023C9840C0B270472BB137
:102B10001846013BD15C0029F9D0EEE71846704712
:102B2000E7A20000F8B505460F46104619461646BE
:102B3000FFF7DEFF012804462A68E9681CD13378D4
:102B4000172B04D9931C99421AD3002325E0501C5B
:102B5000814215D300248A4212D2511C03F01F0374
:102B6000296043EA471111703444B44218D1AB686C
:102B700001200133AB6007E0431C1344994204D2A7
:102B8000082200206B69DA60F8BD08B93378E2E703
:102B9000831E062BD9D80648C35C1833DBB2DAE7AC
:102BA0002B685A1C2A6014F8012D1A70DDE700BF4B
:102BB000E7A20000014910220A60704710ED00E012
:102BC00072B6404080F31188BFF36F8FBFF34F8F11
:102BD00030BF62B6BFF36F8F704700BF72B6494017
:102BE00081F31188BFF34F8F20BF80F3118862B645
:102BF000704700BF2DE9F04107460C4686B000291A
:102C00004AD08B6828480093D1E90023452105F07C
:102C100032FA636945210093D4E90323234805F080
:102C20002AFA4521E269224805F025FA26460025C0
:102C3000DFF88880D6ED0B7AFCEEE77A96ED087A1D
:102C4000CDED057AEB1C0493D6ED0A7AFCEEE77A1B
:102C5000CDED037AAB1C0293D6ED097AFCEEE77A50
:102C6000CDED017AFCEEC77A6B1C2A460093452114
:102C700017EE903A4046043505F0FDF9102D06F1A7
:102C80001006D7D14521226E0A4805F0F4F94521F6
:102C9000A269094805F0EFF92146384606B0BDE8BB
:102CA000F04102F085B900BFEEA2000022A30000AF
:102CB00056A30000B2A30000C6A300006AA3000050
:102CC00040B2002807DB01234109034A00F01F003E
:102CD000834042F82130704700E100E0054B420993
:102CE00053F82220012300F01F0003FA00F01040E7
:102CF000704700BF00E100E040B2002801F101018F
:102D0000ACBF00F16040064B4FEA4111C9B2ABBF06
:102D100000F5614000F00F0080F80013195470476F
:102D200014ED00E030BFFFF7FDBF00BF144A08B547
:102D3000144B22F07F029A60BFF34F8FBFF36F8F67
:102D4000D3F8882022F47002C3F88820D3F88820B2
:102D500042F4A002C3F888204FF04042C3F8342266
:102D6000BFF34F8FBFF36F8F0023E1EE103A02F0F5
:102D7000A9F902F063FF00F0D5FA02F0E3F900BF11
:102D80000000000000ED00E0094A0A499368096864
:102D90005867996708494B6843F080534B6000239C
:102DA00083F31188BFF36F8F9368986F704700BFEC
:102DB000EC210020E899000000ED00E022498A683B
:102DC00082F8BDE04FF030001044EFF3098C80E84A
:102DD000F01F1EF0100F03D102F17C0080EC108A6E
:102DE000202080F31288BFF36F8F184F4FF00066DA
:102DF000CA698A603E6092F9BDE0506F0023536754
:102E000080F311881EF0100F03D00023E1EE103A7A
:102E100003E002F17C0090EC108AEFF3148323F0BE
:102E2000040383F31488BFF36F8F02F1300090E83E
:102E3000F01F8CF3098802F1000004B505F05DFC79
:102E4000BDE8044070470000EC21002004ED00E0E4
:102E50001EF0040F0CBFEFF30880EFF309808169C7
:102E600011F8021C0229FFD001B505F037FC01BDA5
:102E700042F8203C009B0D4942F81C3C019B21F08C
:102E8000010142F8183C029B42F8081C42F8143C2D
:102E90004FF0807342F8043C002343674FF47D43B6
:102EA000203A0265C0F8BC30704700BF857E000044
:102EB0000023E1EE103AEFF3148323F0040383F3CD
:102EC0001488BFF36F8FBFF36F8F094B9860436E09
:102ED00083F30B88104681F30988002163B681F3E0
:102EE0001188BFF36F8F0022002304F0CBFF00BFD7
:102EF000EC21002001B5EFF30580A0F110004FEAAE
:102F0000C0000449014409C99847BDE8014002498D
:102F100008470000D89400001D2F0000044B99685A
:102F2000D869884203D003494FF080520A60704745
:102F3000EC21002004ED00E038B5214C452121486A
:102F400005F099F8A36A9D0103D545211E4805F0B7
:102F500092F8A36ADC0103D545211C4805F08BF8E3
:102F6000174DAC6A14F4801404D04521184805F0BC
:102F700082F80224AB6A180303D54521154805F0F1
:102F80007AF80F4DAB6A590303D54521124805F075
:102F900072F8AB6A9A0303D54521104805F06BF827
:102FA000074DAB6ADB0303D545210D4805F063F8F7
:102FB000AB6A20466FEA03436FEA1343AB6238BD46
:102FC00000ED00E0F9A3000016A400002EA400000C
:102FD0004DA400007CA400009FA40000C9A4000030
:102FE000E8A4000070B5234C06460D462248452152
:102FF00005F041F8A36AD90403D545211F4805F01F
:103000003AF8A36A1A0503D545211D4805F033F89F
:10301000184CA36A9B0510D51A48452105F02BF8DA
:10302000A26BA36A180408D54521174805F023F8B8
:103030001EB1A36A23F40043A3620E4CA36A590590
:1030400003D54521114805F016F8A36ADA050BD51A
:1030500045210F4805F00FF80020064A936A43F413
:103060007F439362287070BDA36A9B04F4D5452109
:103070000848EFE700ED00E018A5000033A50000C8
:1030800049A5000061A500007FA5000099A50000EA
:10309000B9A50000D6A5000070B5264C06460D4621
:1030A0002548452104F0E7FFA36AD80603D545214A
:1030B000224804F0E0FFA36A190703D54521204800
:1030C00004F0D9FF1B4CA36A9A0710D545211D486F
:1030D00004F0D1FF626BA36A1B0608D545211A488C
:1030E00004F0C9FF1EB1A36A23F08003A362114C50
:1030F000A36ADE0703D54521144804F0BCFFA36A88
:10310000980603D54521124804F0B5FF0020094B6D
:103110009A6AD10658BF9A6A9A6A920642BF5A6A58
:1031200022F400525A629A6A42F0FF029A622870B0
:1031300070BD00BF00ED00E00AA6000025A600005B
:1031400049A500005DA600007AA6000095A6000033
:10315000D6A500002DE9F0415C4B05465F680026CE
:103160009CB0C7F3080486F31188BFF36F8F02F099
:103170007F43B3F17F4F07D102F00C03082B14D12A
:103180004521534804F077FF002635464FF00008EC
:10319000E31E8DF80780092B00F28680DFE803F03C
:1031A0000A797D7584848484848110074CBF0D4620
:1031B0000126EBE745214748444C04F05CFF8DF8BD
:1031C0000780E36A9A0705D54521434804F053FF79
:1031D000002432E0E36A002B02DA45213F48F5E79C
:1031E000E36A5B00F4D545213D4804F044FF636980
:1031F000AA6943F480736361BFF34F8FBFF36F8F8E
:10320000636932F8022C23F480736361BFF34F8F3C
:10321000BFF36F8F4DF602739A4208D0A36ADBB2F8
:103220002BB301200DF10701FFF736FF2FE04521F9
:103230002A682C4804F01FFF2C689DF807309BB9C2
:103240006822294602A805F08AFA099B002E38D088
:10325000C3F3080222B96FEA53236FEA43230993A9
:10326000204602A9FFF7C6FC1CB0BDE8F081A36AA6
:1032700013F47F4F05D001200DF10701FFF7B2FED7
:1032800005E0A36AB3F5803FA2D3FFF755FE0446DD
:10329000D3E700200DF10701C6E700200DF107017B
:1032A000ECE74521104891E7104917F4F87F104AE0
:1032B000104808BF0A46A4F11003452104F0DBFEC4
:1032C00086E723F4FF7323F00103C8E700ED00E075
:1032D000E7A6000017A7000033A7000059A70000C9
:1032E0006CA7000090A70000B1A70000B9A60000DD
:1032F000CEA60000DAA70000044B5A6942F0100283
:103300005A615A6942F480625A61704700ED00E0E8
:10331000EFF30880EFF3098101B57246FFF71AFF5A
:1033200001BD00BF002320210348C2180133412BF7
:1033300082F80013F9D1704700E100E0002080F32B
:103340001488BFF36F8F002080F30A8880F30B8806
:10335000FEF75AFD00200E490860BFF34F8F0D485D
:1033600080F3088800F03EF8202080F311880A4896
:103370004FF40061401880F30988EFF314800221B4
:10338000084380F31488BFF36F8FFFF7CFFC000072
:1033900094ED00E0F05E0020B02D0020BFF34F8FD1
:1033A0000549064BCA6802F4E0621343CB60BFF3E1
:1033B0004F8F00BFFDE700BF00ED00E00400FA05FD
:1033C000002318460649D1F89020C2F30722934201
:1033D00000DB7047C1F89830C1F8A0000133F6E770
:1033E00000ED00E010B572B6002484F31388FFF7F7
:1033F000E7FF23464FF0FF300C4A03F12001013371
:10340000102B42F82100F8D100234FF0FF30074A7B
:1034100003F160010133102B42F82100F8D162B6AC
:10342000BFF34F8FBFF36F8F10BD00BF00E100E00F
:10343000084B9B6883420BD1EFF3058343B1064BE6
:103440005A6842F080525A605A6A22F400425A6224
:1034500002F094BBEC21002000ED00E00CB410B5AC
:1034600086B009B90DF10B000024CDE9040109ABC8
:10347000089A009404A905480393FEF773FA049B85
:103480001C7006B0BDE8104002B07047878700008E
:10349000084B70B5C31A0D4607499B1004465943A3
:1034A0004022064805F098F92B4601462046BDE823
:1034B0007040184748210020B76DDBB660940000CB
:1034C000402373B50B4C0093041B0B460D460A4971
:1034D000A41061430646094A094805F0A9F9011EEE
:1034E00005DA30462B4602B0BDE87040184702B0FE
:1034F00070BD00BF48210020B76DDBB69B8800007F
:103500006094000070B50022012104460520FFF7F9
:10351000F3FB0F4801F07EF90E4B984215D105F0F0
:1035200088FD26690C49304604F007FD00280BDBB6
:10353000012535642469084904F11C0004F0FDFCF0
:10354000002801DB0020E56470BD6FF00400FBE79C
:10355000913500000000AD0B9098000001460C234F
:10356000002270B54B430848C4184033D4E90E56C6
:103570001844A26305F01DF92DB132462B46BDE873
:1035800070400248184770BD482100206094000038
:1035900010B1012804D07047034B1B6C5B0701D1AD
:1035A000FFF7DCBF704700BF4821002008B54FF08F
:1035B0002003EFF3118183F31288BFF36F8F124A58
:1035C000136843F002001060DA0708D481F3118811
:1035D000BFF36F8FBDE80840012005F038BD4FF004
:1035E0005023D3F80C24D3F80C34D307EED5074876
:1035F00005F0DFF881F31188BFF36F8FBDE8084055
:103600000020FFF7ABBF00BF9821002088210020D9
:103610001FB500220123CDE902236B46084ACDF8ED
:1036200000D0CDF804D005F031F9002805DB4FF4C7
:1036300080420023684601F091FF05B05DF804FB6D
:10364000BB88000010B54FF02003EFF3118483F323
:103650001288BFF36F8F074A136823F00201DB075C
:10366000116002D4012005F032FD84F31188BFF30C
:103670006F8F10BD982100202DE9F04101220746EF
:103680003749D1E8EF3FC1E8E02F0028F9D133B93D
:10369000344935484B60CB608A6004F061FC7B1E86
:1036A000012B2BD8012F07D14FF05023D3F81C3416
:1036B00003F00303022B21D005F071FD0546F8B994
:1036C0002A4B1B78E3B14FF0502302220646C3F881
:1036D00008234FF05024DFF89880D4F81834D4F839
:1036E0001824D20316D503F00303022B01D0012FB7
:1036F00010D175B386F31188BFF36F8FBDE8F081E9
:103700004FF02003EFF3118683F31288BFF36F8F1E
:103710000125DEE7C5B13046FFF760FAD4F8183569
:10372000DBB2012BD9D1D4F80421002AD5D0002254
:10373000C4F80421D4F804210222C4F81825202258
:10374000C8F88021A360C8E70021212002F0F6F923
:10375000E4E74FF050230222C3F80423CEE700BF72
:10376000442100203421002064210020A82D0020C5
:1037700000E100E030B5406801F01F04057BB2F5C0
:10378000001F85B044EA451405D1204601F0D8FA5F
:10379000002005B030BD0025B2F5800FCDE90255FF
:1037A00014D1B3F1007F0CBF042305238DF808303A
:1037B00000232046194602AA01F0F8F81C4B984253
:1037C00033D10121204601F077FAE1E7B3F1C06F70
:1037D00020D0B3F1007F14BF012302238DF80830FD
:1037E0008368CB40D907E3D4B2F1A07FE0D1114A7E
:1037F00004F01F03803352F82330DB07D8D40DF1D7
:1038000007052946204601F003FA0B4B984203D0E6
:103810000395CDE70323E1E7284601F047FA044B7F
:103820009842F5D06FF00B00B3E76FF01500B0E7EA
:103830000000AD0B002584500400AD0B10B501F065
:1038400025FA044668B901F0F9F9084B98420AD103
:103850002146074801F0D6F9224605210D20FFF741
:103860004BFA002010BD6FF00400FBE70000AD0B29
:1038700075380000430970B507D10B4B596821B169
:1038800001250C68094E854001B970BD8A682A403F
:1038900002D030464B6898471CB1236821461C462D
:1038A000F2E72346FAE700BF9C210020789400004D
:1038B0002DE9FF41476801F01F053B7B144645EAAF
:1038C00043150E4628460DF1030101F0A1F914F449
:1038D000403F80460BD1284601F05AFA3C4B9845B0
:1038E00003D19DF8030001F0DBF900200CE0002378
:1038F0002846194602AACDE9023301F057F8344BA5
:10390000984204D06FF0150004B0BDE8F081804506
:1039100003D19DF8030001F0C3F9A30349D540F298
:1039200006332340B3F5837F19D00CD8062B17D06C
:1039300004D8ABB1022BE5D1042311E0B3F5807FAD
:10394000E0D101230CE040F20222934226D0B3F5ED
:10395000407F25D0B3F5007FD4D1022300E00723B8
:103960008DF8043084F48033C3F30043E0068DF80F
:1039700005304CBF0323C4F3401321038DF80630F8
:1039800010D501237A68B34093600022284601A92C
:1039900001F0B8F80E4B9842A7D0B3E70523DFE754
:1039A0000323DDE7620341BF01237A68B340D3609C
:1039B000EBE7E3064FF000034CBF0324C4F34014CD
:1039C0001A46284601A98DF8044000F0EFFFE1E710
:1039D0000000AD0B10B5446804F0BFFFA06805F00F
:1039E00082FB40B9A3680F4845211A6804F043FBE5
:1039F0006FF0120010BD237C04F108009B070AD071
:103A00004FF4D01104F0B1FF0028F3DB206805F07B
:103A1000CBFC0020EEE74FF4B01104F0A6FF00EA63
:103A2000E070E7E723A8000038B54568297C11F06D
:103A3000010416D10122297BA86804F0B0FF0028F8
:103A400010DB6D686DB108494FF400408C4621468B
:103A5000E5FB00C100236046044AFCF773FB02F05B
:103A60006DF8002038BD00BF3F420F0040420F00FC
:103A7000024B0B6001231360704700BFC021002080
:103A8000004870476899000070B50D4619462846F1
:103A900016461C4604F09EFF40B9084823462A46B5
:103AA000452104F0E8FA6FF0150070BD24B12246FC
:103AB0002946304604F053FE0020F6E75AA80000DD
:103AC00010B501220648114605F08CFB05F007FBF6
:103AD000044C206005F000FB6060002010BD00BFBA
:103AE000C8210020C0210020F8B50E46144605F07C
:103AF000F3FA21460546304604F06CFF374650B3D2
:103B0000B6FBF5F305FB136323B9B4FBF5F305FB33
:103B1000134343B1234632464521114804F0ABFA22
:103B20006FF0150002E0A54201D90020F8BD4FF06A
:103B3000FF324FF0FF330B4801F010FD05F0CCFAD7
:103B40000546384601F006FA641B2F44F9D10548B2
:103B500001F0E4FCE9E72346324645210248DDE76F
:103B60007CA80000C82100205AA80000F8B50E4625
:103B70001946304617461C4604F02CFF40B9234630
:103B800032464521164804F076FA6FF01500F8BD6C
:103B900046EA040515F0030504D0234632464521C4
:103BA0001048F0E7A4B14FF0FF324FF0FF330E485A
:103BB00001F0D4FC24F00304AC4206EB050009D16B
:103BC0000A4AD2F80034DB07FBD5074801F0A6FC0F
:103BD0000020DCE7795901F0DBF90435ECE700BFA0
:103BE0005AA80000A0A80000C8210020009003509F
:103BF000F0B54B79012B26D0032B21D110258B79E1
:103C0000032B1DD1CE790EB1012E19D10A7912B133
:103C1000022A15D10E220B684468B3F5164F2768A7
:103C200067D02DD8B3F5165F66D016D8B3F5966F6A
:103C300064D00AD8B3F5967F63D0B3F5167F63D00E
:103C40006FF0850054E00025D9E7B3F5166F5ED01C
:103C5000B3F5965FF4D1384B3CE0B3F5E14F59D062
:103C600007D8B3F5615F57D0B3F5964FE8D1334B22
:103C700030E047F61224A342E2D14FF4000329E0DA
:103C8000B3F5613F4AD013D8B3F5963F49D009D870
:103C90004DF6C024A34246D0B3F5614FD0D14FF4C6
:103CA0006B0317E0B3F5E13FCAD14FF0EB7311E0BE
:103CB000B3F5612F3AD008D8214CA34239D0B3F5DF
:103CC000E12FBDD14FF0E86304E01E4CA342B7D111
:103CD0004FF080530469C7F82435436835431B68A7
:103CE0002A43C3F86C25231D03C983E80300002081
:103CF000F0BD4FF41D03EDE7134BEBE74FF49E23AC
:103D0000E8E74FF4A033E5E74FF41C33E2E74FF464
:103D10001D23DFE70D4BDDE70D4BDBE74FF06C7349
:103D2000D8E70C4BD6E74FF46503D3E74FF0706349
:103D3000D0E74FF08063CDE700B0130000A04E0045
:103D400090D0030040420F000050270000C07500D3
:103D500000F03A0000903A012DE9F7438046002236
:103D600001210820FEF7C8FF0820FEF7A9FF002167
:103D7000D8F80470D8F810603C6801AAC4F800159F
:103D8000C6F80080D7F80C90484605F01CF8051ED0
:103D90001EDB019BD9F800201979186800F09EFA03
:103DA000051E15DB4046311DFFF722FF054678B999
:103DB0007B6899071DD506F11C0000F06FFD214BB3
:103DC000984209D04521204804F055F96FF00405C8
:103DD000284603B0BDE8F083337F43F00043C4F8C6
:103DE000A031C4F88C300123327F9340174AC2F8C7
:103DF00004350823C4F800353B7A53B9C4F81031B0
:103E0000D4F81031B369C4F834350123C4F8383517
:103E100023607B689A075CBF4FF48073C4F8043357
:103E20007B68DB0644BF4FF48003C4F80433736936
:103E3000C4F844350023C4F848350123A360E36087
:103E4000C6E700BF0000AD0BE4A800000070015001
:103E5000F8B504460D46076905F0A1F9B0B9214B44
:103E60001B789BB16426606804F0F7FE00BB01205C
:103E700005F083F8013EF6D10021212001F05EFE1D
:103E8000F0E781F31188BFF36F8FF5E74FF0200360
:103E9000EFF3118183F31288BFF36F8F60680E46D2
:103EA00004F0DBFE90B981F31188BFF36F8FEDE76B
:103EB0004FF02003EFF3118183F31288BFF36F8F6C
:103EC00060680E4604F0C9FE0028DAD07B69012242
:103ED0001D702046796904F000FE86F31188BFF357
:103EE0006F8FF8BDA82D00200123834070B5DC43FF
:103EF0000B4AD2E8EF1F01EA0405C2E8E65F002E94
:103F0000F7D14FF4803282400648C0F80823BFF34F
:103F10005F8FBFF36F8F0B4214BF0120002070BD75
:103F2000DC2100200050015070B40E4922F07F4681
:103F3000D1E90034D01AC31844F10004C1E90034B7
:103F4000A6F50013B3F5400F09D2074B1B681A0AF8
:103F50001B069C19054B42F10005C3E9004570BCE6
:103F600001F052BFA0010020E0210020A8010020A4
:103F7000D9B101230D4A8340D2E8EFCF4CEA030CBC
:103F8000C2E8E1CF0029F7D14FF48033084A8340DB
:103F9000C2F80433074BD3E8AF3FC340DB0742BF4F
:103FA0004FF40012044BC3F800217047DC210020BD
:103FB00000500150D821002000E100E00D4B1868AE
:103FC000010A0006BFF35F8F0B4BD3F804351818B6
:103FD00041F10001B3F5801F0AD2084BD3E9002359
:103FE000904271EB030303D210F1807041F10001A4
:103FF000704700BFE021002000500150A8010020C0
:104000002DE9F74F16461F460446FFF76DFF009057
:10401000FFF7D4FFB04271EB070351D2384B301A8F
:1040200067EB0101984271F1000166D2354B03EB59
:104030000413D3E902239F4208BF96424AD04FF4AB
:104040008039314909FA04F9204626F07F4BC1F83E
:10405000489304F0ACFE4FF0030A584604F15005B3
:10406000AD00ADB205F1502504F5A873DFF8A0C08E
:1040700005F580350193019A20F07F4341F8223005
:10408000C1F84493D1F80485A0EB0800033820F070
:104090007F4060451ED9286868B1D1F80485A8EB37
:1040A0000B0020F07F40B0F5000F13D9204604F03C
:1040B0007EFEDFF85CC00AEB08000AF1010ADAE7CD
:1040C0000123124AA340D2E8EF0F1843C2E8E10FE0
:1040D0000029F8D100250B490C98230101EB0412AB
:1040E000C850C2E902670D9B536020460099FFF754
:1040F0003FFF284603B0BDE8F08F6FF01505F4E7E9
:10410000010080009001002000500150D8210020C3
:10411000FDFF7F0073B500244FF0FF304FF0FF31FB
:10412000164D174BC5F80845C3E902014FF480331B
:1041300002264FF40012C5F80433124B0121C5F8D2
:1041400004631520C3F880212246FEF7D5FD152013
:10415000FEF7B6FD01230C4AAB602B6013600B4BDE
:104160000B4A0093204600230194FFF749FF304695
:10417000FFF782FA204602B070BD00BF0050015028
:104180009001002000E100E0DC210020293F000038
:10419000FFFF7F002DE9F7432E4BD3F80423900750
:1041A0000BD5D3F8042142B10022C3F804212A4AD6
:1041B000D3F80431136801331360264AD2F804336C
:1041C000D90327D5254BD3E8EF1F21F00100C3E821
:1041D000E40F002CF7D1CB0702D4D2F84031CBB199
:1041E00000251C4CC4F84051D4F84031FFF7E6FEDE
:1041F0004FF02003EFF3118283F31288BFF36F8F28
:10420000174BD3E90267B042B94106D282F3118855
:10421000BFF36F8F03B0BDE8F0834FF0FF38D3E9F1
:1042200000104FF0FF391D60C3E902894FF480335D
:10423000C4F84833C4F84051D4F8403182F31188AF
:10424000BFF36F8F0029E5D0009032463B462846E9
:104250008847DFE700500150E0210020D8210020EE
:1042600090010020431C13B521D0012821DD124A02
:10427000124B9042D4BF04461C46FFF79FFE104BE2
:104280000E49D3E90023801AB0F5000F28BF00249F
:1042900004448C4228BF0C4600200A49A218019011
:1042A000009143F10003FFF7ABFE02B010BD034CD9
:1042B000E3E70124E1E700BFFEFF7F00FFFF7F008F
:1042C000A0010020293F000008B5FFF777FE024B50
:1042D0001B68C01A08BD00BFA00100202DE9F041F5
:1042E00001273F4E00EB8101814202D10020BDE851
:1042F000F081056805F07F03C5F343247F2B4FEA67
:10430000154508BF4FF0FF33192D66D8DFE805F0DB
:104310000D161B1E212D1E65656565315165656590
:10432000656565656565545C5F62C2F80C3503F0D0
:104330001F0507FA05F5B560012502E0C2F814353E
:104340000025AC461CE0C2F80835F0E7C2F810358D
:10435000F6E70025C2F8083503F01F0C07FA0CFC3D
:10436000C6F80CC04FF0010C0AE0C2F80C3501256C
:10437000F2E7C2F80835002CE2D100250624AC464D
:1043800050F804EB24020EF40058B8F1000F1CBFE3
:104390004FF0000C0125CEF3C11E44EA8E0403F059
:1043A0001F0344EA0C0444EA4504803346F82340E2
:1043B0009AE7C2F80C35DEE7C2F860350568C5F348
:1043C0008035002DD3D0B2E7C2F86435F6E7C2F8E5
:1043D0006835F3E7C2F86C35F0E76FF0850086E7E3
:1043E0000025845040EA0103C3F30E0330B58BB9B6
:1043F00040F21515094CC90BC0F3C730994201D1E1
:10440000002030BDC218D2B202F5C07244F822506A
:104410000133F3E76FF01500F3E700BF0030005001
:104420000348452108B503F026FE0020FEF7B6FF3D
:1044300022A9000030B5816885B0103921F0070449
:10444000054603F06DFE10220146684604F092F91D
:1044500010226846064904F082F910236A46214674
:10446000284603F02BFE003818BF012005B030BDF0
:104470008C9B000030B50D46816887B0102302AADE
:104480001039044603F005FE002802DA012007B0C7
:1044900030BD1022204602A904F0C7FC00283AD102
:1044A00010221E4902A804F033F900280CBF012392
:1044B00002232B70204604F0A4FC012301460DF1D9
:1044C0000702204603F0E5FD0028DFDB9DF80730FA
:1044D000204603F00F021B096A702B7101220DF1B7
:1044E000070104F0A2FC10B96B78042B03D9012357
:1044F0006B7000232B71A2682046183A22F0070245
:10450000083AA91C04F0A4FC0028BFD12046E91CED
:1045100004F0F7FCBBE70323CBE700BF8C9B000054
:104520007FB505466946032004F0F1FC044610B14E
:10453000FF2004B070BD092002A904F0E8FC0128A6
:1045400036D12A464921284803F095FD274B8DF89E
:104550000C40029300229DF800509DF80860244C06
:104560002946207804F053FC48B33146607804F0C3
:104570004EFC20B3A378042B03D09DF8031099427E
:104580001DD1E378042B03D09DF80B10994216D16E
:104590002379042B0FD16379022B1BD1154A1648BE
:1045A000492103F068FD6079831E022BC1D9BFE762
:1045B0000028CFD0BCE79DF802109942EBD0013221
:1045C000032A04F10604CBD10C48492103F053FD22
:1045D0000120AEE7032B05D0094A0A49042B08BF86
:1045E0000A46DCE7084ADAE767A90000030103038B
:1045F000DAA9000049A90000B2A90000C5A900007D
:104600004EA9000060A9000044A9000008B54FF4BD
:104610007F03D3F83021D3F83431BFF34F8F092A09
:1046200001BF4FF050230022C3F81421C3F8182112
:1046300004F092FC28B10122524BC3F8382AC3F887
:1046400078254FF47F03D3F83021D3F83431BFF30A
:104650004F8F092A05D1012B1EBF0122494BC3F8F8
:10466000782504F079FC18B10E22474BC3F8E42EEC
:104670004FF47F03D3F83021D3F83431BFF34F8F99
:10468000092A06D100223F4BC3F80C270122C3F8A8
:1046900010270022D30003F57F03D3F80013BFF3E4
:1046A0004F8F013108D0D3F800130132D3F804330F
:1046B000B2F5807F0B60EDD1344BDA69BFF34F8FD9
:1046C000D10745D5BFF34F8F314BD3F80024012AD2
:1046D000FBD1C3F80425D3F80024012AFBD12B4BCE
:1046E000DA69BFF34F8FD2070AD5DA6922F00102E7
:1046F000DA61BFF34F8F264AD2F80034012BFBD189
:10470000224A136ABFF34F8F01330CD1136A23F08F
:10471000FF0343F020031362BFF34F8F1C4AD2F80C
:104720000034012BFBD10022194BC3F80425D3F828
:104730000024012AFBD1BFF34F8F1649164BCA68DC
:1047400002F4E0621343CB60BFF34F8F00BFFDE77D
:104750001B6ABFF34F8F0133B4D00E4BD3F88C20BC
:1047600042F44062C3F88C20D3F8882042F47002EF
:10477000C3F88820BFF34F8FBFF36F8F074B084AF2
:104780001A6008BD0040005000A003500080FF00E8
:104790000090035000ED00E00400FA0564000020E2
:1047A0000090D00370B501250268B2FA82F3C3F11C
:1047B0001F03DBB205FA03F422EA0404D0E8EF6F2A
:1047C000964204D1C0E8EC4FBCF1000FF6D1EBD11A
:1047D00001480B7070BD00BF0000AD0B10B5036841
:1047E000CB40DB0710D401238B40026843EA02016F
:1047F000D0E8EF4F944204D1C0E8EC1FBCF1000FA9
:10480000F6D1F2D1014810BD0148FCE70000AD0B24
:104810000400AD0B044B1A7922B9012218601A71F9
:104820000248704702487047E42100200000AD0BA9
:104830000C00AD0B4FF0502310B5D3F8002152B14E
:104840000020C3F80001D3F800210122C3F8082397
:10485000114B1B6898474FF05023D3F804218AB1BD
:104860000022C3F80421D3F80421D3F81824D3F884
:10487000181402F00302012A4FF0020103D1C3F819
:1048800018159A6010BDC3F80813034B0120BDE84A
:1048900010401B68184700BFE42100200146014872
:1048A000FFF780BF68000020064A00F01F0002EBFF
:1048B0008002D2F8003223F4403343EA0143C2F8C5
:1048C0000032704700258450034B083033F8100045
:1048D000C0F34010704700BF6C00002070B50D4C55
:1048E00000F1080334F813300546DA050E4607D503
:1048F000C3F3432304EBC302526854F833309847A0
:10490000A3682BB131462846E268BDE870401847DD
:1049100070BD00BF6C00002010B4134A083032F89C
:104920001030D9051CD5C3F3432123F4F85322F8E2
:104930001030002002F10E0434F8023F13F4807F9F
:1049400003D0C3F3432399420AD001302028F3D186
:10495000002342F8313005485DF8044BFFF73EBFB5
:104960005DF8044B704700BF6C000020C0000020C1
:1049700038B50246FFF7A8FF0B4C02F1080560B1FD
:10498000002134F815305B0B9B0003F1A04303F5C5
:104990005043C3F81015C3F810151046FFF7BCFFBD
:1049A000002324F8153038BD6C0000202DE9F341B8
:1049B00004461D4609B34E4F00F1080837F8186049
:1049C000B30706D5FFF780FF18B14A4802B0BDE82B
:1049D000F081494804F01F0300EB8300D0F8003257
:1049E000097823F00F0326F0020643EA810346F01C
:1049F0000106C0F8003227F818609AB13C4E04F165
:104A0000080736F81710137811F0020F50680CD011
:104A10000028DAD136F8172022F01C0242EA83037C
:104A200026F81730D5BB3548D0E721F02001C9045E
:104A3000C90C26F817100028ECD0032BC5D85268F3
:104A400092F800C06246920002F1A04202F5504284
:104A500023B9C2F81035C2F81035DBE7D2F81005DB
:104A600041EA4C3120F00300C2F81005D2F81005DD
:104A700041F0200120F4473020F44070C2F81005C6
:104A80002002D2F810E500F4F85040EA034040EA72
:104A90000E00C2F8100526F81710BBE72046D5E92E
:104AA0000067FFF739FF002EBDD0114DD5E9002377
:104AB000964201D19F4218D011480DF10701FFF72E
:104AC00071FE0E4B984281D19DF8072005EBC20381
:104AD00008345F6035F8143045F8326043EA422309
:104AE00043F4807325F814309DE70022EEE700BF01
:104AF0006C0000200400AD0B002584500000AD0BBD
:104B0000C0000020F8B5044679B33A4E00F108071A
:104B100036F81750AB0704D4FFF7D6FE08B1364875
:104B2000F8BD15F01C0F4B7822D104F01F00DFF800
:104B3000CCC000F1800E5CF82EC091F802E05B0062
:104B40002CF4E16C097843EA8E032CF0070C43EA5D
:104B50000C0343EA0123294943F00103803045F067
:104B6000030541F8203026F8175022B92448D7E72A
:104B7000012BDAD1D3E71F4E04F1080736F81700EE
:104B80008307CCD592F800C00023614620F02000B6
:104B9000890001F1A041C00401F55041C00CC1F8E9
:104BA000103526F81700C1F810355578002DDDD0E6
:104BB000D1F81035927823F4981323F4F853C1F800
:104BC0001035D1F810E5230203F4F8532D0443EA1D
:104BD0000E0305F4403512052B4302F4801240EA1F
:104BE0004C30134340F02000C1F8103526F8170070
:104BF000BCE700BF6C0000200400AD0B0025845012
:104C00000000AD0B014BC3E9020170476C000020AE
:104C100008B50246FFF758FE38B1054B083233F8A5
:104C2000123004485B0B0B7008BD0348FCE700BF63
:104C30006C0000200000AD0B0400AD0B38B50F4C2C
:104C400094F85850BDB94022294604F1100003F0F1
:104C500091FD0D20FEF734F8094B0A48C3F87C514A
:104C6000D3F87C214FF00042C3F80423012384F8D9
:104C70005830636538BD0448FCE700BF6C00002075
:104C800000D000500000AD0B0500AD0B034B93F8B6
:104C90005800003818BF0120704700BF6C0000208A
:104CA00001460148FFF79ABDBC00002001460148BB
:104CB000FFF778BDBC000020024610B5FFF704FEE8
:104CC0001C4B02F1080433F81430E0B113F0020475
:104CD00019D15B0B9A0002F1A04000F5514002F19E
:104CE000A042046002F550420068D2F8100540F07E
:104CF0000100C2F8100529B1012202FA03F30E4A9D
:104D0000C2F8043310BDC3F38203042B0ED0052B6D
:104D10000ED00A4B196902F01F03D94001F00101BE
:104D200002311046BDE81040FFF7BEBD0321F8E791
:104D30000221F6E76C00002000D0005000258450CE
:104D400008B50246FFF7C0FDC0B10F4B02F10801E4
:104D500033F81130990711D401225B0B9A400B49AB
:104D60009B0003F1A043C1F8082303F55043D3F897
:104D7000102522F00302C3F8102508BD0021BDE86C
:104D800008401046FFF790BD6C00002000D0005096
:104D900010B50C4B00F1080233F812300446DB0763
:104DA0000DD5FFF7CDFF2046FFF7E2FD0222064BAF
:104DB00004F01F048034054843F8242010BD044843
:104DC000FCE700BF6C000020002584500000AD0B04
:104DD0000400AD0B2DE9F04F002501222C464D4B70
:104DE0004D484E4985B01E6836B1D0F8046316426E
:104DF0001EBF1C601E68154304338B424FEA4202FB
:104E0000F1D1454FD7F87C3193B1454E336A0393C6
:104E100033624FF0010A0DF10C09039870B9C7F81D
:104E20007C01D7F87C31336A03933362002BF0D1D5
:104E30000124002D56D105B0BDE8F08F90FAA0FBFB
:104E4000BBFA8BFB374A0BF108034FEADB0C32F855
:104E500013100BF0070419F80C300AFA04F423EAD3
:104E6000040309F80C3006EB8B03D3F80042C1F3BE
:104E70008202C9069046C4F3014418D5114658462B
:104E80000193FFF72BFD019BE4B2D3F80032C3F38B
:104E900001439C4207D100215846FFF705FD2146FA
:104EA0005846FFF701FD0AFA0BF03062B5E7022C15
:104EB0000CD103215846FFF7F7FC08F00503012B3E
:104EC000F1D141465846FFF709FDECE7022158466B
:104ED0000192FFF7E9FC019A032AF2D0032CE2D1F8
:104EE0008A42EDE795FAA5F3B3FA83F304FA03F2E5
:104EF0009B0003F1A04303F55043D3F81005D3F80A
:104F00001015C0F30420C1F3014125EA0205FFF7A3
:104F1000E5FC8EE700D1005000D0005020D10050B9
:104F2000002584506C0000200022034BC3F8842528
:104F3000C3F80425704700BF00900350044AD2F81C
:104F40000834DB07FBD50160BFF35F8F704700BFFC
:104F50000090035008B5C0F30B0383B90222094B3C
:104F6000C3F88425C3F804254FF0FF320260D3F85C
:104F70000024D207FBD5FFF7D7FF034808BD03483D
:104F8000FCE700BF009003500000AD0B0A00AD0B22
:104F9000012208B5054BC3F88425C3F80425FFF7A3
:104FA000CDFFBDE80840FFF7BFBF00BF0090035032
:104FB000F7B505460E464FF02003EFF3118783F354
:104FC0001288BFF36F8F00F0D3FD0022042D98BF2D
:104FD000184B044694BF53F82530174B00924521D7
:104FE0002A46164803F047F83EB1F369C3F30803B5
:104FF0001BB14521124803F03EF834B1204604F0BD
:10500000D4F8034608B1027802B90E4B2246452176
:105010000D4803F030F831462846FFF701FA87F3D0
:105020001188BFF36F8F204603B0BDE8F040FEF754
:10503000FFB900BFEC99000016AA00002CAA0000DE
:1050400059AA000024AA00007FAA00000F4B70B5E7
:1050500053F82040013053F82060A64200D870BDBC
:10506000D4E90035284698476DB138B10028B8BF5B
:105070004042FF28A8BFFF20EB681870EA68537809
:1050800043F0010353700834E7E700BF009A0000C3
:10509000012208B5094B03201A70FFF7D7FF00F073
:1050A00029FF0420FFF7D2FF00F026F9FBF7D0F923
:1050B000034A137B23F00103137308BDA82D0020BE
:1050C0007002002008B50348034A0021121A04F0B8
:1050D00015F808BD90010020AC2D0020C02370B54C
:1050E000134E012203FB0066002386B0CDE90423A2
:1050F0000F220193CDE902321C234FF4A0720D4D13
:105100000D4903FB0055044602FB00110B4B3046D2
:10511000009500F0C1F8737B2C7523F004037373C2
:10512000074B013403EBC423EE606B6006B070BD27
:10513000B0010020EC210020B0350020AF9100002C
:10514000B02D002080B50020B6B0FFF77FFF2B4BBD
:1051500003F5006282F3088883F30A880024E023C1
:10516000274D284E85F82230EC772C766C76AC767D
:1051700085F820406B6A244F43F4E0236B6285F886
:105180002340FEF7B9F8FDF715FD4FF0FF33AB6292
:10519000EB6240F20113ADF8243006ABB360CDE909
:1051A0001F44229403F09EFF0120FFF74FFF0220CF
:1051B000164DFFF74BFF00F033FC154BF5610593DF
:1051C000012314494FF42052CDE9034328463B46BE
:1051D000CDE90144009400F05FF806466A7B28465A
:1051E00022F004026A7304F065F82046FFF776FFA8
:1051F0003A4631462846FDF75BFE00BFB02D002041
:1052000000ED00E0EC210020915000007002002031
:10521000E6AA0000F0360020002038B5054C064D07
:10522000AC4200D338BD204603F06CFF0028F9DB08
:105230001C34F5E73A0100203A01002073B50C4612
:105240004FF02005EFF3118185F31288BFF36F8FC4
:1052500045695DB125602B684361836901338361D2
:10526000002081F31188BFF36F8F11E052EA03062B
:1052700003D16FF00B002560F3E7CDE90023024670
:10528000083000F0D7FA18B9024B9B685B692360BD
:1052900002B070BDEC2100202DE9FF410E9E00F10F
:1052A000580506730426C0E91655002504464673C2
:1052B0000D9EC0E906558673D61D0C9A26F007068A
:1052C000C0E919168560C573C56602920B9A01EB99
:1052D000060801920A9A00924246FDF7C9FD054B65
:1052E00065659B6803B11B6F4046236704B0BDE84A
:1052F000F08100BFEC2100202DE9F043294C2A4D1C
:1053000087B02646AE4204F130040FD300F058FBBC
:105310004FF4004640F2E737224CDFF89090AC4261
:1053200020D307B0BDE8F04300F05EBB54F8043C66
:10533000059354F8103C049354F8143C039354F828
:10534000183C029354F81C3C019354F8203C009301
:1053500054E90A2354E90C01FFF79EFF54F8303C4E
:105360005E65CEE7636A5A1C0DD00021384623EAF9
:10537000E373C3FB060151EAC333D4F8008004D1C0
:10538000404600F0CDFA3034C9E74FF47A7200237A
:10539000FAF7D8FE02460B4608F11800494600F01D
:1053A000B5FCF0E7E0960000E096000021920000D6
:1053B0002DE9F341044617461E464FF02003EFF354
:1053C000118883F31288BFF36F8FC368334A7BB1B0
:1053D00080689168884219D057EA060318D188F38B
:1053E0001188BFF36F8F6FF00F0002B0BDE8F0813E
:1053F000916891F90E100133E36093682161A36015
:1054000088F31188BFF36F8F0020EEE72169F2E780
:1054100091F90E1090F90E306FF07E029942A8BFFC
:1054200019469142B8BF11468B422EDD03F0CBFEE8
:10543000054622464146CDE90076194800F0FAF9C2
:105440000028E1D04FF02003EFF3118683F3128898
:10545000BFF36F8FA068D0B1236821699C420AD046
:105460004BB193F90E309942A8BF19466FF07E03F5
:105470009942B8BF194603F0A6FE40B1314608482C
:1054800000F03CFA6FF00A00AFE70025D1E7002DED
:10549000F4D186F31188BFF36F8FF3E7EC2100207E
:1054A000A92D002038B5836804466BB3194A926869
:1054B00093422CD1C368012B03D9013BC360002068
:1054C00038BD4FF02003EFF3118583F31288BFF34B
:1054D0006F8F0169806803F076FE204603F0FAFEC4
:1054E000A06058B190F90E2022610022826703F07B
:1054F000E1FE2946084800F001FAE0E7E06085F3A4
:105500001188BFF36F8FDAE76FF01500D8E74FF01F
:10551000FF30D5E7EC210020A92D002038B5044646
:105520004FF02003EFF3118583F31288BFF36F8FE1
:1055300003F0D0FE48B10022826703F0BBFE29468B
:10554000BDE83840044800F0D9B9D4E902329A42A3
:1055500018BF0133A360F2E7A92D002013B54FF067
:105560002004EFF3118184F31288BFF36F8F8468F6
:1055700044B1013C846081F31188BFF36F8F002038
:1055800002B010BD52EA030406D181F31188BFF3C3
:105590006F8F6FF00F00F3E7CDE90023024602485A
:1055A00000F048F9ECE700BFA92D002038B5074D01
:1055B0002C6854B1FEF788FE054B04441C61286832
:1055C0000021BDE8384003F0CDBE38BD20220020C8
:1055D000EC21002038B50D4D2B4653F8204F9C424E
:1055E00000D004B9EC68AB6838B95A7BD20604D154
:1055F000A26912B9DA897F2A05D89C4202D02046D6
:10560000FFF7D4FF2346EB6138BD00BFEC2100203B
:1056100070B590F90D200146002A437B04DA03F0AF
:105620007F03437303F0EAFD154A4B7B104663F09A
:105630007F034B7350F8203F546A834208BF002316
:1056400023B9C1E90004216051620CE091F90E50C8
:1056500093F90E60B5420ED0AE420CDD5868C1E938
:105660000030016059609068BDE87040431A5842AC
:105670005841FFF7AFBF9C42E3D01B68E0E700BF93
:10568000EC21002070B490F90D30427B002B29DB17
:10569000D30627D183692BBB134962F07F02427383
:1056A0000A4652F8204F944218BF23464C6A23B949
:1056B000C0E90024206048620CE090F90E5093F994
:1056C0000E60B5420AD0AE4208DD5A68C0E9003229
:1056D00010605860002070BCFFF77CBFA342E7D089
:1056E0001B68E4E770BC7047EC21002008B590F916
:1056F0000D200146002A437B04DA03F07F03437345
:1057000003F07CFD044B9868431A58425841BDE8A9
:105710000840FFF75FBF00BFEC21002070B51546C1
:105720001C46064603F09EFDB4F1FF3F08BFB5F1ED
:10573000FF3F08D02A46234606F118000249BDE87B
:10574000704000F0E3BA70BD21920000F8B5044645
:105750000D464FF02003EFF3118783F31288BFF358
:105760006F8F00264FF4004C40F2E73031464FF483
:105770007A720023E4FB0C01FAF7E4FCB44202DD88
:105780000228B8BF0220074A074B1060074A9868F2
:105790001E611560FFF70AFF87F31188BFF36F8F53
:1057A000F8BD00BF20220020EC2100201C22002098
:1057B00038B54FF02003EFF3118583F31288BFF360
:1057C0006F8F174B174A9C6811688C4207D120468F
:1057D000FFF7ECFE85F31188BFF36F8F38BD002112
:1057E0001160114A1268C2B1E2897F2A15D8627B22
:1057F000D20612D10D4A94F90E10126891420CDBB8
:105800000B4A944209D01A69824203DC2046FFF712
:10581000FFFEDCE7121A1A61DCE70022FBE700BF9B
:10582000EC21002018220020202200201C22002031
:10583000B001002070B50C480C4D86680C462E60F7
:105840001146DDE904234FF02006EFF3118586F3BE
:105850001288BFF36F8F8068FFF760FF2046BDE8B6
:105860007040FDF791BA00BFEC2100201822002003
:10587000F8B504464FF02003EFF3118683F3128846
:10588000BFF36F8F437B49B2DA0619D18569BDB981
:1058900003F07F03437303F0B1FC437B164A63F0CC
:1058A0007F0343731346817353F8200F984218BF48
:1058B0000546506A5DB9C4E900300460546211E0E5
:1058C0000020A17386F31188BFF36F8FF8BD95F99F
:1058D0000E70B9420BD08F4209DD6B68C4E90053EA
:1058E0001C606C600120FFF775FE0120EAE7A8420A
:1058F000E1D02D68DEE700BFEC21002049B9EFF3CD
:10590000058030B9054BDA699B689A4201D0FDF7F2
:105910003BBA81F31188BFF36F8F7047EC210020F1
:1059200010B54FF02002EFF3118482F31288BFF319
:105930006F8F427B510704D484F31188BFF36F8FBC
:1059400010BD22F004024273FFF79CFE2146BDE821
:1059500010400148FFF7D2BFA92D002070B50446C2
:10596000183003F0E9FC4FF02003EFF3118683F3C6
:105970001288BFF36F8F94F90D20637B002A05DA3C
:1059800003F07F032046637303F038FC0B4D637B09
:10599000A86843F010036373031B58425841FFF794
:1059A00019FE86F31188BFF36F8FAB68A34203D152
:1059B000BDE8704003F0B6BC70BD00BFEC21002014
:1059C0004FF02003EFF3118183F31288BFF36F8F41
:1059D000044B9A68D37B013BD37381F31188BFF3E7
:1059E0006F8F7047EC21002010B54FF02003EFF3CC
:1059F000118483F31288BFF36F8F084B00209A68DD
:105A0000D37B0133D373FFF7E5FD84F31188BFF334
:105A10006F8FBDE8104003F085BC00BFEC21002073
:105A20000021044B084603F12002C3E90822FFF7D6
:105A30008DBE00BFEC210020F8B54FF02003EFF33E
:105A4000118583F31288BFF36F8F19498868437BF0
:105A500003F07F03437303F0D1FB08468B685A7B46
:105A600062F07F025A7350F8202F4C6A824208BFBE
:105A7000002222B9C3E9000423604B620CE093F9D1
:105A80000E6092F90E70BE420ED0B7420CDD516826
:105A9000C3E900210B6053600120FFF79BFD2846FE
:105AA000BDE8F840FDF770B9A242E3D01268E0E724
:105AB000EC21002050EA01032DE9F04105460E4695
:105AC00003D1FFF7B9FF00202CE0831C71F1FF33F5
:105AD0002ADB03F063FC2C184FF02003EFF311884E
