:020000040000FA
:1000000000600020D92D00003B850000AD2D0000D0
:10001000AD2D0000AD2D0000AD2D0000AD2D000078
:10002000000000000000000000000000552A000051
:10003000AD2D000000000000C1290000AD2D000022
:10004000F92A0000F92A0000F92A0000F92A000024
:10005000F92A0000F92A0000F92A0000F92A000014
:10006000F92A0000F92A0000F92A0000F92A000004
:10007000F92A0000F92A0000F92A0000F92A0000F4
:10008000F92A0000F92A0000F92A0000F92A0000E4
:10009000F92A0000F92A0000F92A0000F92A0000D4
:1000A000F92A0000F92A0000F92A0000F92A0000C4
:1000B000F92A0000F92A0000F92A0000F92A0000B4
:1000C000F92A0000F92A0000F92A0000F92A0000A4
:1000D000F92A0000F92A0000F92A0000F92A000094
:1000E000F92A0000F92A0000F92A0000F92A000084
:1000F000F92A0000F92A0000F92A0000F92A000074
:10010000F92A0000F92A0000F92A0000F92A000063
:10011000F92A0000F92A0000F92A0000F92A000053
:10012000F92A0000F92A0000F92A0000F92A000043
:10013000F92A0000F92A0000F92A0000F92A000033
:10014000F92A000053B94AB9002908BF00281CBF8A
:100150004FF0FF314FF0FF3000F00CB8ADF1080C5C
:100160006DE904CE00F008F8DDF804E0DDE90223D3
:1001700004B07047704700BF2DE9F04786468C46B3
:100180000846089E154674461946002B40F0C1806B
:100190008542B2FA82F245D94AB1C2F1200300FA8F
:1001A00002FC954094402EFA03F343EA0C0C4FEA0C
:1001B000154EA8B2230CBCFBFEF80EFB18CC08FBB6
:1001C00000F943EA0C43994528D9EB1808F1FF37A9
:1001D00004D2994502D9A8F102072B44A3EB0903E5
:1001E000A4B2B3FBFEFC0EFB1C330CFB00F044EA94
:1001F0000344A04214D92C190CF1FF3304D2A042BD
:1002000002D9ACF102032C44241A43EA07401EB180
:10021000D440002334607360BDE8F0874746DDE7D3
:100220006346F1E792BB431B01214FEA154EAFB283
:10023000200CB3FBFEFC0EFB1C330CFB07F840EA62
:100240000343984561D9EB180CF1FF3004D298456F
:1002500002D9ACF102002B44A3EB0803A4B2B3FB18
:10026000FEFC0EFB1C330CFB07F744EA0344A742D9
:100270004DD92C190CF1FF3304D2A74202D9ACF1AD
:1002800002032C44E41B43EA0040C0E7C2F1200310
:100290009540944020FA03F12EFA03F34FEA154EED
:1002A0009040AFB20343B1FBFEFC0EFB1C10190CD7
:1002B0000CFB07F841EA0041884522D969180CF186
:1002C000FF3004D2884502D9ACF102002944A1EBE9
:1002D00008019BB2B1FBFEFC0EFB1C110CFB07F7E7
:1002E00043EA01439F420ED9EB180CF1FF3104D2CF
:1002F0009F4202D9ACF102012B44DB1B41EA0041D1
:1003000093E76046E3E76146F7E76046A4E76346A4
:10031000B8E7834206D916B9002108467CE7C6E94A
:1003200000E0F9E7B3FA83F78FB9834201D372454E
:1003300008D8BEEB020460EB030301209C461EB903
:10034000002169E73846FAE7C6E9004CF8E7C7F14B
:10035000200CBB400EFA07F522FA0CF42EFA0CF131
:10036000BA401C4320FA0CF3B8404FEA1449014349
:100370001FFA84FEB3FBF9F809FB18300B0C08FBDD
:100380000EFA43EA00439A4540D9E31808F1FF30DA
:1003900004D29A4502D9A8F102002344A3EB0A0330
:1003A00089B2B3FBF9F809FB183308FB0EFE41EAEA
:1003B00003418E452CD9611808F1FF3304D28E45D4
:1003C00002D9A8F10203214443EA0040A1EB0E0147
:1003D000A0FB02984145CE46434602D306D14D4587
:1003E00004D20138B9EB020E68EB0403002EA7D04B
:1003F000B5EB0E0261EB030101FA0CFC22FA07F3E4
:10040000F9404CEA0303C6E9003199E74046C5E7E5
:100410004346D9E708B5084809F0FEFB58B14FF448
:100420000031064807F05DFABDE8084000220321CC
:10043000014807F046BA08BDBC9F000040A3000079
:100440002DE9FF41504B514AC3F80026C3F804265A
:10045000C3F80826C3F80C26C3F81026C3F81426E0
:10046000C3F81826C3F81C26FFF7D4FF07F078FA64
:10047000474809F0D1FB00284AD04FF48031454865
:1004800007F02FFA0C21424807F007FA00283FD066
:10049000002140F2676005F01FFC4FF47A7709F005
:1004A0001BFD3D46A0FB070307FB0133C40B384E81
:1004B00044EA43440C21304607F0EFF9804609F046
:1004C0000BFDA0FB053207FB0122DB0B43EA424395
:1004D0001B1BB3F5E17F07D2B8F1000F18D0002144
:1004E000212005F0F9FBE5E7B8F1000F10D04FF03F
:1004F0005023D3F800340BB1DB0709D501220321C7
:10050000234807F0DEF901F007FD234802F08CF8DC
:1005100000F016FA054601A800F05EFC04462846E5
:1005200000F01EFA1D4B1B68A34201D007F030FB00
:100530004FF48031002003F097FE044600B1FEE73F
:1005400069469DF8080007F0E1F9009B039D1D44F2
:10055000019B1E8903F070FEAF1900F019FE00F038
:10056000FBFD02F07BFC84F30B8884F30A88AB5913
:1005700083F3088884F31488BFF36F8FBFF36F8F02
:100580007B689847FEE700BF008001503546526EF9
:10059000BC9F000038A3000048A300000800002012
:1005A0002DE9F04F1D46844BDBB01446DDE966783B
:1005B0001E68DDF890B1DDF8A0A100F097FD0122E2
:1005C0007E4B3AA8C3F8002506F0A0F83FB1B8F179
:1005D000000F04DD424639463AA807F0DFFD4FF030
:1005E0000008638927891F44E3681F44474557D89B
:1005F0000DA93AA806F0FCF80022704BC3F80025BC
:10060000C3F80025BAF1000F04D0202250460DA9EE
:1006100007F0CCFF00232A46009321464FF6FF73D4
:1006200007A807F09EF9804600284AD128460C9C6E
:1006300007F09FFA844244D84FF0FF34DFF884B1CA
:10064000DFF878910DF1160305AA06A907A807F0AF
:10065000D6F9002835DB40F0A680BDF81670102FC3
:1006600039D1BDF81480B8F1200F2AD1434628466D
:1006700006993AAA07F0B6FE18BB00F061F94246A7
:1006800007463AA90DA800F023F98046384600F045
:1006900067F94B4B1B68434513D14FF00108D1E775
:1006A000659BA7EB0809994528BF99465A464B46D2
:1006B0004146284607F096FE30B100223F4BC3F872
:1006C00000253D4B1E6871E04A4659463AA807F09E
:1006D00065FDC8448AE7012F3FD1BDF81430202BB7
:1006E000EFD8284606993AAA07F07CFE044600286F
:1006F000E7D19DF81430202B02930AD8DBF80030A4
:10070000DFF8C4A00393039B9C4205DB0023C9F8D8
:1007100000354FF0FF3495E700F0E8FCC9F80075AC
:100720001DA805F0F3FFDAF804201DA812685AF896
:10073000081B07F033FD15A91DA806F059F8002283
:10074000C9F80025029A3AA915A807F008FF10B9C0
:10075000C9F8000576E70134D5E7222F7FF472AFA0
:10076000631C3FF46FAFDBF80030A342D1DDBDF86E
:100770001430802BA5D8284606993AAA07F032FEF5
:1007800000289ED100F0DCF8E4B207462021BDF835
:1007900014303AAA00940DA800F018F8064638461E
:1007A00000F0DEF8B5E7B8F1000F8AD000F0D0F81D
:1007B00030465BB0BDE8F08F04000020000084509C
:1007C0000800002050A3000054A300002DE9F047CA
:1007D00096B016461D469DF87820384B074653F8CC
:1007E000321003EBC2035B6801911868DFF8DC800C
:1007F0000144302302AA01A8D8F8009007F05CFC5D
:10080000002851D1DDE901431C44214606AB03AA6F
:1008100001A807F079FC002846D1049A072A43D1A1
:100820002749059807F09BFE00283DD1079A082A22
:100830003AD12449089807F092FEA8BB214602AAA3
:1008400001A807F04DFC78BBDDE901A30AEB030228
:10085000944229D1412B27D135443023294603AA7C
:1008600002A8029607F028FCE0B9DDE90232134441
:100870009D4217D32A4602A906A807F00CF988B9A9
:100880002A4602A90EA807F006F958B99AF80030CE
:10089000042B07D12023384606AA0AF1010100F0F3
:1008A0003DFC38B1D8F8009000F052F8484616B038
:1008B000BDE8F087044BD3F80090F5E754A300009F
:1008C000DDA70000D4A700000800002004000020DD
:1008D00070B5094B04461D680023934205D1074BB0
:1008E0001D6800F035F8284670BDE65CC85C86429D
:1008F000F7D10133F1E700BF040000200800002019
:100900001FB503200C4601F023F950B920681023CD
:1009100081686A46103907F065FD28B1206807F044
:1009200060FD4FF0FF3006E010226846034907F0F3
:1009300016FE0028F2D104B010BD00BFBCA7000015
:10094000024B1868421C1A60704700BFC0030020A9
:10095000024A1368013B1360704700BFC0030020C8
:10096000034B1B68834201D007F012B9704700BFE8
:10097000C00300202DE9F04F3D4B8BB00646002010
:100980000D461C6806F0C8FF08A9C0B201F0E0F8E7
:1009900028B1FFF7DDFF20460BB0BDE8F08F2946F8
:1009A00006F0BAFF4FF02C0B09A9C0B20BFB056B88
:1009B00001F0CEF800283FD02C276F4306EB070844
:1009C000D8F8104014F0100447D1FFF7B9FF089B86
:1009D00081460793FFF7B4FF4FF480720192254AD6
:1009E00021468246CDE90344079B029400922046AB
:1009F0005A46FFF7D5FD04465046FFF7B1FFFFF713
:100A0000A7FF4846FFF7ACFF1B4BF25908989A42E4
:100A10000CD1D8F80C20B8F808309B1806D28268A0
:100A2000934203D2154B1B68A3421DD0D5B10021C0
:100A3000826807F001FD15E0099807F01AFD0446E9
:100A4000099807F0CEFC0BF1FF330BF1030213F80A
:100A5000011FA142B0D19342F9D11DB1304608998E
:100A600007F06CF9064B1C68089807F0BAFC90E791
:100A700004000020EE2400203DB8F396080000207A
:100A8000000000207FB50D46002104462846CDE930
:100A9000021107F012F9E8B1154E2368B34203D1F1
:100AA000204603AA07F09DF8E36AB34204D101216E
:100AB000204602AA07F095F8DDE90232934288BF8A
:100AC0000393039BAB6029462046039A00F02CFA5F
:100AD00004B070BD01A9FFF713FF019805F10801EB
:100AE00007F022F8AB680198039307F07AFCEAE775
:100AF0003DB8F3962DE9F84F884691469A46002670
:100B0000DFF870B0194C1A4D0B9B9E4201D30020A8
:100B10000FE00B9B40469F1BB7F5806F28BF4FF43B
:100B20008067144A3B4606EB0A0107F05BFC10B1F4
:100B30000120BDE8F88F0A993B465A46484671188D
:100B400007F065FC0028F3D1C4F800563E44C4F811
:100B50000456C4F80856C4F80C56C4F81056C4F825
:100B60001456C4F81856C4F81C56CDE7008001503E
:100B70003546526EC41300202DE9F0410E46002187
:100B8000904B86B04362904B04460365084606F0DE
:100B9000C3FE04F12001C0B200F0DAFF0121002001
:100BA00006F0BAFE04F14C01C0B200F0D1FF2046BD
:100BB00007F058F8002849D100222046114606F0D7
:100BC000FAFF002859D1204607F0E5F9002854D053
:100BD00002A807F069F80146204607F004F900284A
:100BE0004BD102A807F069F880F0010102AA204663
:100BF000C9B206F0E0FF024600283ED102A807F085
:100C00005CF80546E8BB204602A9FFF73BFF9DF8CC
:100C10000F3084F85830033B012B06D8284607F0E4
:100C200031F910B1FF2384F858309DF80F30023BA2
:100C3000022B06D8002007F013F910B1FF2384F827
:100C4000583094F85830FF2B12D1FEE70123984218
:100C500084F85830B0D194F85830042B8DF80F3008
:100C600045D8012B49D85BD0FF2384F8583057E092
:100C70000021204602AA06F09EFF012384F8583086
:100C8000E9E79DF80F70012F1ED1104603F080FB9D
:100C9000831E022B054614D8FFF752FE39468046C4
:100CA0002046FFF767FE07464046FFF759FE474BD1
:100CB0001B689F4205D0464B1D68AF4214BF0525F7
:100CC000012584F85850C6E7FFF73AFE0121074690
:100CD0002046FFF74FFE05463846FFF741FE3B4BE7
:100CE0001B689D4214BF05239DF80F30C6E7052BF6
:100CF000BAD1002007F0C6F810E0204602A9FFF79D
:100D0000C1FE94F85830DA1E012A2DD8002007F0D1
:100D1000B9F80028A8D1002007F0A2F80028A3D134
:100D200094F85830FF2B01D106F032FF002194F8DF
:100D30005830284F012B019119D0204602AA06F005
:100D40003AFFA0B13D681022002102A807F039FC4B
:100D5000E06C07F046FB206A07F043FBFFF7F8FD65
:100D6000284606B0BDE8F081022BD9D1D3E7FFF7C2
:100D7000E7FD002180462046FFF7FCFD0546404682
:100D8000FFF7EEFDDFF84480D8F800309D42D9D15E
:100D90003B689D42D6D00E4B1B689D42D2D0019B32
:100DA00001330193019B012B01D006F0F1FE206A73
:100DB00006F0BBFD3071236A5B683460D8F80050E0
:100DC000B360C0E7C40B0020C4030020080000206B
:100DD000000000200400002070B50B4E0446602285
:100DE0000021304607F0EDFBFFF7AAFD214605463E
:100DF0003046FFF7C1FE04462846FFF7B1FDFFF776
:100E0000A7FD204670BD00BFC41700202DE9F341A7
:100E100006460C4617461D460BB9002628E0184624
:100E200006F04BFF0028F8D16946FFF769FD0098EE
:100E300038B90124009807F0D4FA204602B0BDE882
:100E4000F08101A906F070FE0028F2D1009807F0A9
:100E5000C8FA3046019907F033F8736A5E686B7917
:100E6000012B21D1002CD8D12B68834298BF0026BA
:100E70002146002006F050FD6946C0B200F068FE31
:100E80000028D6D120233A463146009807F0AAFA26
:100E900004460028CDD1002DCCD03C680D4BE41A7F
:100EA00018BF4FF0FF34C5E7022BB6D12B68012BDA
:100EB00005D98342B1D8B4FA84F46409ADE7ACD162
:100EC000002CD5D0012CA8D12C79023C18BF0124CC
:100ED000A3E700BF3DB8F39673B54B681446114ABB
:100EE00003F0FF23934206460D4618D10B68012BF1
:100EF00015D16946204603F0F5F99DF80030032B23
:100F00000DD12146304606F019FF204608F0C3FAFD
:100F10002046A96806F01EFE204603F0C3F902B081
:100F200070BD00BF000100042DE9F04F054689B0F7
:100F30000C46114606F0C4FF6B6A039020465E68BB
:100F400006F0BBFE90B1E86D06F0D1FD0022AB6A61
:100F5000013B3244904201D9013BFAE7039A9A429D
:100F600004D30123E37109B0BDE8F08F06A9032083
:100F700000F0EEFD07A9092000F0EAFD2146284611
:100F8000079AFFF7A9FF6379012B4BD1039FDFF885
:100F900058B141E022680399C2F101030B449F421A
:100FA00039D86B6A012A196853F8370003EBC70375
:100FB00053F8083CA0EB0109A3EB010A11D1079BF0
:100FC0000493E368022B08D04146284606F0B6FE9B
:100FD00022464146284606F0E7FE2846049906F0D8
:100FE000ADFE32464946404606F0A6FE534642460E
:100FF00041462846CDE90096FFF77CFD214628466C
:1010000006F068FE23680133236020B1DBF800306E
:101010000133CBF80030013FDDF81880002FB9D143
:1010200001232360022301276371039BDDF81890DD
:10103000BB4206D2484607F0D4F9079807F0D1F929
:1010400091E723689F424DD36A6AFB0052F837103C
:10105000083BD2F800B00491D1582A6DDDF81CA0ED
:10106000D0581368A0EB03082379012B38D1A1EBEA
:101070000B0132464846059106F05EFE059943464F
:101080004A460091284651460196FFF733FD214616
:10109000284606F01FFE0223237118B1124A136876
:1010A0000133136032464146504606F045FE049B2C
:1010B0005246A3EB0B0349462846CDE90086FFF7CD
:1010C00019FD2146284606F005FE236801332360FA
:1010D0000123237130B1044A13680133136001E026
:1010E000022BDFD00137A0E72418002070B5094D8E
:1010F0002B780BB1002070BD0126074CC4F80065A9
:1011000005F0A6FB18B92E70C4F80005F2E74FF001
:10111000FF30F0E7EE250020000084502DE9F0417B
:10112000ACB01F4606460C461546FFF7DFFF01230D
:10113000DFF820802A46C8F800352146334600975C
:1011400003A808F0CFFE0023C8F800352CB0BDE896
:10115000F08100BF00008450BFF36F8F72B6002390
:101160004FF0FF30094A03F120010133102B42F800
:101170002100F8D100234FF0FF30044A03F1600151
:101180000133102B42F82100F8D1704700E100E054
:1011900038B501224FF0FF3400251A4B29465A601A
:1011A000C3F84843C3F8084303F580535A60C3F8B3
:1011B0004843C3F80843A3F55043C3F800558022C1
:1011C000C3F80843104807F0FCF9802229460F486D
:1011D00007F0F7F90E4B8022C3F800552946C3F8F3
:1011E00008430C4807F0EDF9802229460A4807F029
:1011F000E8F90A4BC3F808454FF05023C3F80843F9
:1012000038BD00BF004001508080005080810050F8
:10121000009000508090005080910050007001506C
:101220002DE9F043079D15B91560002012E0032455
:10123000B5FBF4F404EB4407BD4218BF0134B4F12C
:10124000804F09D2A40001348C4200D838B96FF025
:101250000B001460BDE8F0834FF0FF34F7E704465D
:101260000021DFF8B4E0B94203F1030C04F10406F5
:101270002BD3A942274623D201F1010CAC451F789C
:1012800028BF002324494FEAA70E38BF5B7811F826
:101290000EE0AC4584F800E001EB131E2EBF3D23A9
:1012A0009B0003F03C034FEA071738BFCB5C07F005
:1012B00030071EF80770A3703D2367703746E37050
:1012C0000023381A10603B70AFE71CF8034C1CF881
:1012D000023C4FEAA4091EF8099024011CF8018C75
:1012E00004F0300406F8049C0EEB131919F80440BE
:1012F0009B0006F8034C03F03C030EEB9814E35CF0
:1013000008F03F0806F8023C1EF80830344606F89C
:10131000013C03316346A6E7C0A800002DE9F04375
:1013200000273C463D46DDF81CE0DFF82881754586
:101330001FD3E4BB00201460BDE8F083013676457E
:1013400033D013F806C0BCF1200FF7D0AEEB06097E
:10135000B9F1010FA6EB05050DD0BCF10D0F0AD1B7
:1013600003EB060999F80190B9F10A0F6ED1751CCB
:10137000DDE72E46E3E7BCF10A0FF8D02DB9BCF14A
:101380003D0F05D10137022F0DD96FF01500D3E7BE
:101390001CF0800FF9D118F80C507F2DF5D03F2D9F
:1013A00001D8002FF1D10134E1E73546C1E74FF014
:1013B000060C04F00706E4080CFB06F60CFB04F42C
:1013C0000736E41B04EBD60470B18C420CD800271E
:1013D000014603263C46DFF87CE0DFF87C801D44B4
:1013E0009D4205D10C1AA5E76FF00B001460A3E72E
:1013F00013F8019BA9F10A0C5FFA8CFCBCF1160FE3
:1014000004D848FA0CFC1CF0010FE9D01EF809C002
:101410000134BCF1400F08BF013E0CF03F0C042C1E
:101420004CEA8717DCD17EB13C0C012E0C7002D146
:1014300001310024D4E7022E4FEA17244C7016BF66
:101440008F7002310331F4E73446C9E7002DA2D092
:101450009BE700BF40A80000F6FFBFFF014B1B68E1
:10146000184700BF0C00002007B50B4600210246BC
:101470000091034800F014F903B05DF804FB00BFCD
:101480005D1400002DE9F047058B044628079046BF
:1014900011D4022905F0070540F0CD80204606F062
:1014A000B1FE78B10138218B042811D8DFE800F0B3
:1014B000C3106D85950001290CBF45F0100545F05E
:1014C0002005258388F31188BFF36F8FBDE8F0876F
:1014D00001F0070AAA4500F0A6800027B9463E465B
:1014E000A368002B00F0BD8041F00801218388F340
:1014F0001188BFF36F8FA168002900F0BB800D68D1
:10150000002900F0B780334652462046D1F80480C7
:10151000C047002D76D02B6829461D46F0E701F024
:1015200007035A1F012A1BD8002221F00701062BAE
:10153000276889B2C4E9002209D13B4603E0628BE7
:10154000013262831B68002BF9D141F00201204671
:10155000218306F057FE00287BD041F0200177E080
:10156000042B0AD121F0070189B22046218306F01D
:1015700049FE10B141F020012183218B01F0070ABF
:10158000AA4550D00027B946AAE7236921F00701F0
:1015900041F00601062DD3F8009021832DD1B9F139
:1015A000000F40D041F00801218388F31188BFF378
:1015B0006F8F20463949C84729E021F00701236988
:1015C00041F0040189B2042DD3F804902183E6D0C0
:1015D00000274FF0040A3E4682E721F00701236905
:1015E00041F0050189B2052DD3F808902183D6D0AA
:1015F00000274FF0050A3E4672E700274FF0060A23
:101600003E466DE72B4687E7B9F1000FD1D14FF089
:101610002003EFF3118883F31288BFF36F8F238BBE
:1016200023F008032383258BEA062ED525F010032B
:10163000238305F007056669218B002EBFF66FAF87
:1016400000232768C4E9003321F0070141F00101BC
:101650002183218B4FF0000901F0070AAA457FF48E
:101660003FAF002F9BD041F00801218388F3118800
:10167000BFF36F8F002FC7D03D68394633465246BF
:10168000204606F0EBFD2F46F4E7AB067FF51AAFD8
:1016900025F02003238305F00705FFE6898200007B
:1016A0002DE9F04F82464FF000098DB01D46531EC4
:1016B00001910393039B58785C1C252819D10020C5
:1016C0004FF0FF381E4644460346023602903178FA
:1016D0000396392955D81F2914D8002900F0EE8126
:1016E00001992520D04701993078D04709F10209A6
:1016F000E0E7002800F0E2810199D04709F10109F3
:101700000394D7E7A1F12002192AE9D801A757F8D5
:1017100022F000BF7D170000E1160000E116000076
:101720007D170000E1160000FD170000E116000023
:10173000E1160000E1160000E11600004918000063
:101740007D170000E11600005D1800000918000078
:10175000E1160000171800003718000037180000C5
:10176000371800003718000037180000371800003D
:1017700037180000371800003718000008460136F7
:10178000A5E7582900F0EB80A1F16302D7B2172F2B
:10179000A6D8172AA4D801A757F822F0051A0000E6
:1017A00083180000E1160000E1160000E1160000B9
:1017B0006318000083180000E1160000E116000025
:1017C00063180000E1160000E1160000E1160000B9
:1017D00039190000E1160000E1160000D9190000D7
:1017E000E116000083180000E1160000E116000079
:1017F00039190000E1160000631800002520019946
:10180000D04709F1010955E7029A4FF0000802F0AC
:10181000FE020292B3E7002C0DDAB8F1000F0DDAE8
:10182000029A002A00F042810A2224EAE47402FBB0
:101830000414303CA3E7B8F1000FF5DB0A2202FBE9
:101840000812A2F130089AE7B8F1000F55F8042BFE
:1018500080F22E81002A80F22D81544202220292CF
:101860008DE7682903D1682B06D1482387E76C29C7
:1018700002D16C2B00F02081002B7FF431AF0B469E
:101880007DE77A2B06D1752955F8046B14D14FF0FA
:10189000000B0CE06C2BF6D04C2BF4D1073525F067
:1018A0000703752903F10805D3E9006B06D1202849
:1018B0003BD1844F013C09E04FEAE67BBBF1000FCE
:1018C000F5DA7642804F6BEB4B0B013C0DF12D03AB
:1018D000059300230493304659460A220023FEF75D
:1018E00031FC049B8E46591E04910599B446303252
:1018F00001F8012D5A46BCF10A0F72F100020646AA
:10190000F3460591E7D2C3F1010B30330DEB03062B
:10191000B8F1000FA6F104066DDA029BD9077CD45A
:10192000A8EB0B03A4EB0B0413E02B280ABF674FB3
:10193000674F04F1FF34C9E770290FD155F8042B24
:101940000023FAB96FF004034FF0050B614E053C1C
:101950005F4F029A92076FD4A04665E078216C2B06
:1019600003D1002355F8042B08E04C2BF9D107359F
:1019700025F007031D465B6855F8082B232825D161
:10198000880621D5544F023C002601F06001A1F1E8
:10199000390B0DF12D0E02F00F01092988BF5944B2
:1019A00030310EF8011D102A4FEA121141EA03717D
:1019B0004FEA131073F1000306F1FF3C08D2C6F1A1
:1019C000010B06F13003A1E7444FDCE7404FDBE7B2
:1019D00066460A460346DEE755F8046B304606F0D5
:1019E000B7FDB8F1000F834602DB4045A8BFC346F0
:1019F0004FF00008364FA8EB0B03002B92DDA4EB51
:101A00000804A6E755F8043B4FF0010B8DF8183099
:101A1000013C4FF0FF3306AE9AE7A046EBE7029396
:101A200020200199D047029BB8F10108F7D524EA9C
:101A3000E472013C9144A41AB84606E00493029271
:101A40000199D047029A049B9046424612F8010B36
:101A50000028F3D11A46013A15D5002BACBFC7EBCD
:101A600003077F425B46013B15D5BBF1000FA8BFC2
:101A70005F4426464F44013E14D5002CA8BF3F19B1
:101A800007EB080916E60493029230200199D0472B
:101A9000049B029ADFE70293019916F8010BD047E5
:101AA000029BE0E701992020D047E4E70122D6E637
:101AB000904664E6144662E64C2360E648460DB064
:101AC000BDE8F08F13A9000011A9000015A90000BE
:101AD0003CAB00001DA9000017A900001AA90000D6
:101AE000044608B54FF02002EFF3118382F3128809
:101AF000BFF36F8F02F0A0FB204601F09DF9034871
:101B000006F069FB00F0B0FEFCE700BF23A900006F
:101B10004FF02002EFF3118382F31288BFF36F8F2F
:101B20000121044AC2F8401583F31188BFF36F8F77
:101B3000002070470090035020B1034B800143F018
:101B400001031847704700BF30A3000002F06ABCD1
:101B500070B5114B0D461C68DCB1104B19680023A1
:101B60008B4202DB6FF0010070BD224612F8106B51
:101B7000864202D014460133F2E7E06810B96FF0F4
:101B80001200F1E708F048F80028F8D000202C6097
:101B9000EAE76FF00C00E7E71000002060A3000008
:101BA00070B588B005460C46C0B269461646FFF7C8
:101BB000CFFF00281BDB0098C8B14368226802935E
:101BC00083680195CDE903360023CDE9062305930B
:101BD000C56806F006FC6DB12846084901AA06F062
:101BE000A8FF079808B9059B236008B070BD6FF087
:101BF0001500FAE76FF01200F7E700BF81840000DC
:101C0000014804F091BA00BF04A4000038B50446AE
:101C100018B90F4B0F485B6898476168B1F5683F8A
:101C20000FD0B1F5680F0CD00B4DA94209D011F4BB
:101C3000686107D02146094808F03CF8002323607A
:101C4000656038BD1422206806F0BBFCF8E700BFD1
:101C50004001002050A900002C5F5CA9281D002035
:101C600008B500B34368B3F5683F0CD1012203689F
:101C7000D3E8EF1F002903D1C3E8E02F0028F7D1F4
:101C80000DD1002008BD094A93420AD000684FF0E8
:101C9000FF324FF0FF3303F041FC0028F1D004483D
:101CA000F0E70448EEE76FF4E040EBE72C5F5CA957
:101CB000E98FFFFFEA8FFFFF08B5B8B14368B3F5BE
:101CC000683F0CD100220368D3E8EF1F012903D13C
:101CD000C3E8E02F0028F7D10BD1002008BD074A48
:101CE000934208D0006803F093FCF6E76FF4E040FD
:101CF000F4E70348F2E70348F0E700BF2C5F5CA974
:101D0000E98FFFFFEA8FFFFF10B5044618B91D4B9E
:101D10001D485B6898476368B3F5683F2FD0B3F5FB
:101D2000680F2CD0194A934219D1236803BB4FF096
:101D3000FF324FF0FF332146154803F035FB08B959
:101D400023681BB90F4B13485B6898471422002186
:101D5000206806F036FC4FF46863636008E0B3F572
:101D6000683F0DD83A2B03D040F6BA629342DED1D9
:101D7000206807F0E2FF636843F03A03636010BD38
:101D8000054AF3E74001002050A900002C5F5CA940
:101D9000281D002076A900003A00003A08B506493F
:101DA00040231422054807F077FFBDE808400449A6
:101DB000044804F02BBA00BF28180020281D00207A
:101DC0000CA4000020A40000F7B5224E3068836800
:101DD0005B6C03B19847306883685B6B002B31D133
:101DE0001D4C1E4D306883689B69002B2DD001224D
:101DF0000DF107019847012827D1236843B92B68C3
:101E00001BB369681A688B422A6008BF6A60236046
:101E1000134A9DF8070011887F2904D823684F1CB6
:101E20000B44178018720A28DCD10020236811881F
:101E3000186059600B494D684DB9C1E900331080F5
:101E40002060CEE798470028CAD103B0F0BD2B60D0
:101E50004B60F4E79C210020441D0020541D00200D
:101E6000EC2400204C1D002010B5044B04461868DB
:101E70008368E1B25B689847204610BD9C21002032
:101E80002DE9F0410546904608464FF02003EFF358
:101E9000118783F31288BFF36F8F1C490B684BB116
:101EA0001B4C62689A4205D000221A60626872B9BF
:101EB000C4E90033174A136863B987F31188BFF385
:101EC0006F8F18460B60C8F80030BDE8F0811360D2
:101ED0006360EFE756681C68B342146008BF546043
:101EE00087F31188BFF36F8F5C680B60A042D8BF87
:101EF00000F1FF3403F108012246284606F056FBA4
:101F00000023601C2B550123DDE700BF481D002086
:101F1000541D00204C1D0020002313B51C462049F1
:101F2000204AC1E90033C2E900331F4A48681460FF
:101F300020BBC1E900220133082B02F18802F5D150
:101F40001A4C1B48206007F067FE28B3206883689E
:101F500023B19B6C13B1002216499847206883680F
:101F60005B6B0BB1984760B1206883689B69002B5D
:101F7000FAD001220DF107019847F4E702604A60A8
:101F8000D9E700220C4B20681A8083689B6A03B152
:101F90009847002002B010BD4FF0FF30FAE700BFB5
:101FA000541D00204C1D00205C1D00209C210020A1
:101FB000D49F0000C91D0000EC24002041F204431E
:101FC0002DE9F043EDB0ADF8083040F606130025DA
:101FD000ADF80C30DFF81491404BD9F800101B68B5
:101FE0003F4E0822A3EB06080B784D7001330B70AF
:101FF00098FA98F34B808B8828465BBA8B8006F062
:10200000DBF931464246ADF8100006F0D5F902275B
:102010001FFA88F440BA04F10A035BBA0222ADF851
:1020200010000DF1120106A8ADF8123006F0BEFA4C
:102030000822D9F800100DF11A00ADF8127006F060
:10204000B5FABDF8120006AB083080B23146424600
:10205000ADF81200184406F0A9FABDF812303A465D
:102060001C44A0B22C4606ABADF8120004A91844DB
:1020700006F09CFABDF81230E9213B449BB2ADF862
:102080001230009305AA06AB31A8FFF7C9F8059BEB
:10209000144E154FADF81230BDF81230A34202DCD9
:1020A0006DB0BDE8F083336802215B68A4B903A872
:1020B0009847BDF8125033682D1B7C2DA8BF7C2596
:1020C00031AA101929465B689847336801213846C0
:1020D0005B682C449847DFE702A8E9E7B4210020B9
:1020E000EF250020E82100203BAB0000E421002088
:1020F000F0B50C68164F85B002380D46C4F5806106
:102100000090144B381903AA0131FFF707F9044670
:10211000D0B92B68039A1344022B2B6011D93E8847
:10212000023B76BAB6B29E420BD13246B91C06F0DB
:1021300043F930B9022E04D92B689A1E2A60FC5448
:102140000124204605B0F0BD4FF0FF34F9E700BF91
:1021500090260020932A002007B5CDE900016946AA
:10216000024807F045FD03B05DF804FBB4210020F0
:1021700038B505460A4C0A21204607F040FD0221E9
:102180000848FFF7E9FF2946204607F018FD2046DA
:102190000A2107F03CFDBDE83840FFF70FBF00BF44
:1021A000B4210020B2A90000002307B5054A00931E
:1021B000022102F1A003044807F02BFD03B05DF8F3
:1021C00004FB00BFEF250020B42100202DE9F047DB
:1021D00007290446B8B040F2BF80037813F0FD062B
:1021E00040F0BA804388A1F108055BBA9BB2AB42CC
:1021F000C0F0B2807E4B186083885BBA8380FFF7A3
:10220000D3FFA088012840F0EF81E77947B1012F83
:1022100000F0C280082038B0BDE8F047FFF7A8BF43
:102220000146744807F0EBFC06217348FFF794FF62
:102230000521704807F0DFFC3D46DFF8E4816F4F71
:10224000DFF8E0912946002005F066FB08A9C0B23E
:10225000FFF77EFC0446002873D12023014610AA14
:10226000089806F0BFF8109B3E68434513D1FEF76F
:1022700067FB4023019328AB82462146009310AAB6
:10228000089B2046CDE903440294FEF789F90646EF
:102290005046FEF765FB0023089C009322464FF64C
:1022A000FF7310A90AA805F05CFB002859D04FF075
:1022B000FF34089806F095F8D9F80030B34240D1C1
:1022C00014214C4807F09BFC04214D48FFF744FFC4
:1022D0002946484807F07DFC5CB904214948FFF7CE
:1022E0003BFF18AB0A93202342480AA90B9307F03F
:1022F0007CFC07214448FFF72FFFBDF856304021F2
:1023000001939DF85530414A009328A89DF8543018
:1023100000F0F2FD169B4BB1421E3E2A06D828ACB7
:10232000C0F140013A4A204400F0E6FD28A806F03A
:102330000FF9014628A8FFF70FFF14212D4807F0D9
:1023400066FC65B105212B4807F05DFC0121294899
:1023500007F05DFCFFF732FE38B0BDE8F0870125DD
:1023600070E70DF11E0307AA09A90AA805F047FBAB
:1023700000289CD1BDF81E30102BF2D1BDF81C30C6
:10238000202B94D12046099918AA06F02BF8041E98
:1023900018BF012464428CE7294610AB18AA04F147
:1023A00008000A9600F01AFA00283DD003240A21FA
:1023B000104807F024FC02211648FFF7CDFE214605
:1023C0000C4807F0FCFB44B903211348FFF7C4FE97
:1023D000124B0848196807F0FCFB0A21054807F072
:1023E00016FCFFF7EBFD0A9805F0FBFFB4E700BF12
:1023F000E4210020B4210020B5A900000400002041
:10240000BCA90000C1A90000C6A90000CEA9000017
:10241000DAA90000B2A90000DDA90000B021002067
:102420003DB8F39608000020109B9D42BED14FF0AE
:10243000FF3502462C4680460746279E18ABB2421F
:102440005AD1631CB2D0002FB0D0002105F064FA3D
:102450000AA9C0B2FFF77CFB0028A7D16E4E002C62
:102460005CD1DDF8289034604846D9F808A005F022
:1024700050FB6A4A0146484605F059FA002840F0E8
:10248000B180AA4592D3664B1C60664B1D603268D2
:10249000634C013A21680A98424406F025F8002866
:1024A000206083DB0A9805F0DDFFB8FBF0F303FB47
:1024B00010803368C5B24344A8EB0505DFF864819A
:1024C000D8F80020934238BF00205FFA80F90A98BC
:1024D00005F0C8FF012805D90A9805F0C3FF0138A7
:1024E00007425FD12B463A4631680A9805F08FFFC4
:1024F00000287FF45BAF42E0197A032904D8DFE8B3
:1025000001F00206090B186801320C3397E7D3E992
:102510000078F9E71D68F7E71C68F5E73368A34220
:1025200001D0002443E73F4B44441B689C42AED992
:102530003CE7AA450A9888BF5FFA85FA05F099FF3B
:102540004022014628A806F03CF85246394628A801
:1025500006F02CF8534631680A9828AA05F057FF70
:10256000044600287FF423AF336857445344336054
:10257000A5EB0A050A9805F075FF8542D9D2B9F195
:10258000000F12D13368D8F800204B442B449342FB
:102590003360C6D1214B0A981A68114605F0A4FF92
:1025A000C40F04E74FF0400AE4E70A9805F061FF22
:1025B0000822014628A806F004F84A46791928A8F6
:1025C00005F0F4FF0A9F316838466C1805F04AFFA1
:1025D0002146034628AA384605F019FF00287FF453
:1025E000E5AECFE70124E2E600287FF413AEE379FD
:1025F000012B3FF410AE052B03D0002B7FF40AAE65
:10260000AAE6FFF7B5FD4FF40050002103F064FB8C
:102610000120FFF765FA00BFB0210020A8210020AB
:10262000A4210020A021002001232DE9F341002452
:102630000546264FDFF8A8803B70254B254E0094B9
:1026400018603B7813B902B0BDE8F081224BC4F5A5
:102650008061C3F80086C3F80486C3F80886C3F80F
:102660000C86C3F81086C3F81486C3F81886C3F81E
:102670001C862B6801AA0131301998470028019B5C
:1026800001DC002BDDD004442BB940F201439C4215
:10269000D7D10024D5E73378062B09D17378092BDD
:1026A0000BD1002300936946A01EFFF721FD04E033
:1026B000042B02D17378142BF5D00128E9D10099AD
:1026C00006480239FFF782FDE3E700BF8F260020AE
:1026D000E8210020912A002000800150922600204D
:1026E0003546526E73B504460D4607F02DF80028A6
:1026F00068D0354B6946009305232046019307F0C7
:102700008EF960B12946204607F083F938B10023DD
:102710002B72204607F01FF8012002B070BD204642
:1027200007F015F878B1294B694600930423204639
:10273000019307F074F930B12946204607F06CF98F
:1027400008B10123E4E7204607F001F878B1204BF7
:102750006946009303232046019307F060F930B1E6
:102760002946204607F055F908B10223D0E7204654
:1027700006F0EDFF78B10326164B6946204600931C
:10278000019607F04CF930B12946204607F041F98F
:1027900008B12E72BDE7204606F0D9FF78B10E4B86
:1027A0006946009303232046019307F038F930B1BE
:1027B0002946204607F030F908B10423A8E720464F
:1027C00006F0C9FF0020A8E7E1A90000E7A9000082
:1027D000ECA90000DDA90000F0A900002DE9F043FC
:1027E0004FF001099DB004AC07460E4690461D46C9
:1027F00002460B4620460421CDF8009006F0AFFFBC
:10280000204607F00FF970B10C230521CDE90183B3
:102810004846114B009408F13C0207F024F960B9D6
:10282000204607F01BF90022099BD868DA60904225
:1028300008BF1F201DB0BDE8F083204607F00CF94B
:102840000028F0D00DB90020F4E7049BDB1BB34255
:1028500094BF2B602E60F6E7E526000001491022A8
:102860000A60704710ED00E072B6404080F31188B6
:10287000BFF36F8FBFF34F8F30BF62B6BFF36F8F61
:10288000704700BF72B6494081F31188BFF34F8F84
:1028900020BF80F3118862B6704700BF40B20028A5
:1028A00007DB01234109034A00F01F00834042F87F
:1028B0002130704700E100E040B200280CDB01222B
:1028C0000649430900F01F008240203341F82320CD
:1028D000BFF34F8FBFF36F8F704700BF00E100E081
:1028E000054B420953F82220012300F01F0003FA90
:1028F00000F01040704700BF00E100E040B2002847
:1029000001F10101ACBF00F16040064B4FEA4111FB
:10291000C9B2ABBF00F5614000F00F0080F80013B2
:102920001954704714ED00E030BFFFF7FDBF00BF42
:10293000144A08B5144B22F07F029A60BFF34F8F00
:10294000BFF36F8FD3F8882022F47002C3F8882079
:10295000D3F8882042F4A002C3F888204FF0404208
:10296000C3F83422BFF34F8FBFF36F8F0023E1EE24
:10297000103A02F05DFC03F02FFA00F021FA02F0A9
:1029800097FC00BF0000000000ED00E0094A0A4982
:10299000936809685867996708494B6843F0805302
:1029A0004B60002383F31188BFF36F8F9368986F98
:1029B000704700BFDC2200202CA6000000ED00E0E4
:1029C00022498A6882F8BDE04FF030001044EFF3EE
:1029D000098C80E8F01F1EF0100F03D102F17C007B
:1029E00080EC108A202080F31288BFF36F8F184F7D
:1029F0004FF000668A698A603E6092F9BDE0506FD0
:102A00000023536780F311881EF0100F03D00023BA
:102A1000E1EE103A03E002F17C0090EC108AEFF353
:102A2000148323F0040383F31488BFF36F8F02F140
:102A3000300090E8F01F8CF3098802F1000004B523
:102A400005F082FDBDE8044070470000DC22002054
:102A500004ED00E01EF0040F0CBFEFF30880EFF36D
:102A60000980816911F8021C0229FFD001B505F027
:102A70005CFD01BD42F8203C009B0D4942F81C3C26
:102A8000019B21F0010142F8183C029B42F8081C0E
:102A900042F8143C4FF0807342F8043C0023436733
:102AA0004FF47D43203A0265C0F8BC30704700BF48
:102AB000F18100000023E1EE103AEFF3148323F0DC
:102AC000040383F31488BFF36F8FBFF36F8F094B39
:102AD0009860436E83F30B88104681F309880021C8
:102AE00063B681F31188BFF36F8F0022002305F0D6
:102AF0007FFB00BFDC22002001B5EFF30580A0F1D1
:102B000010004FEAC0000449014409C99847BDE8D4
:102B100001400249084700004CA00000212B0000A2
:102B2000044B99689869884203D003494FF080525A
:102B30000A607047DC22002004ED00E0154B9A6A21
:102B400012F0007F9A6A14BF1E201D2012F0807FB1
:102B50009A6A18BF1F2012F4801F9A6A18BF0220B9
:102B600012F4002F9A6A18BF212012F4802F9A6A5B
:102B700018BF222012F4003F9A6A18BF232012F4D3
:102B8000803F9A6A18BF24206FEA02426FEA12421D
:102B90009A62704700ED00E010B5194B0246986A42
:102BA0009C6A10F4805F14BF1720162014F4006F85
:102BB0009C6A18BF1820A40509D5986B986A000470
:102BC00004D51AB19A6A22F400429A6219200C4B79
:102BD0009A6A12F4806F9A6A18BF1A20D2050CD430
:102BE0009B6A13F4005F18BF1C20054A936A43F4E4
:102BF0007F43936200230B7010BD1B20F5E700BFDD
:102C000000ED00E010B51C4B0246986A9C6A10F07B
:102C1000100F14BF1120102014F0080F9C6A18BF69
:102C20001220A40709D5586B986A000604D51AB17A
:102C30009A6A22F080029A6213200F4B9A6A12F06D
:102C4000010F9A6A18BF142012F0200F9A6A18BF59
:102C50001520D40658BF9B6A074B9A6A920642BF5A
:102C60005A6A22F400525A629A6A42F0FF029A6249
:102C700000230B7010BD00BF00ED00E070B5444BA9
:102C800006465B6800259CB0C3F3080385F31188F2
:102C9000BFF36F8F02F07F40B0F17F4F11D102F090
:102CA0000C0008280DD010074CBF0E46012500224D
:102CB000033B8DF80720032B05D8DFE803F01E5CEB
:102CC00060592E46F3E700249DF807309BB968222F
:102CD000314602A805F06AFC099B002D53D0C3F3CE
:102CE000080222B96FEA53236FEA4323099320466F
:102CF00002A905F018FC1CB070BD254BDA6A9107DB
:102D0000E1D4DA6A002ADEDBDA6A5200DBD55A69DE
:102D1000B16942F480725A61BFF34F8FBFF36F8F76
:102D20005A6931F8021C22F480725A61BFF34F8F46
:102D3000BFF36F8F4DF60272914209D09A6AD2B2F8
:102D400042B101200DF10701FFF75CFF0446BBE72C
:102D50003468B9E79A6A12F47F4F05D001200DF16B
:102D60000701FFF719FFF1E79B6AB3F5803FAAD38C
:102D7000FFF7E4FEEAE700200DF10701E4E7002099
:102D80000DF10701EDE723F4FF7323F00103ADE735
:102D900000ED00E0044B5A6942F010025A615A6992
:102DA00042F480625A61704700ED00E0EFF3088062
:102DB000EFF3098101B57246FFF760FF01BD00BF67
:102DC000002320210348C2180133412B82F800134D
:102DD000F9D1704700E100E0002080F31488BFF3D0
:102DE0006F8F002080F30A8880F30B88FEF7AEFE19
:102DF00000200E490860BFF34F8F0D4880F308880C
:102E000000F03EF8202080F311880A484FF400615A
:102E1000401880F30988EFF314800221084380F3FF
:102E20001488BFF36F8FFFF783FD000094ED00E07F
:102E300000600020C02E0020BFF34F8F0549064BD5
:102E4000CA6802F4E0621343CB60BFF34F8F00BF48
:102E5000FDE700BF00ED00E00400FA05002318467E
:102E60000649D1F89020C2F30722934200DB704755
:102E7000C1F89830C1F8A0000133F6E700ED00E09A
:102E800010B572B6002484F31388FFF7E7FF2346DA
:102E90004FF0FF300C4A03F120010133102B42F8B0
:102EA0002100F8D100234FF0FF30074A03F1600101
:102EB0000133102B42F82100F8D162B6BFF34F8FD7
:102EC000BFF36F8F10BD00BF00E100E0084B9B68AF
:102ED00083420BD1EFF3058343B1064B5A6842F0AE
:102EE00080525A605A6A22F400425A6202F014BFB9
:102EF000DC22002000ED00E00CB410B586B009B96A
:102F00000DF10B000024CDE9040109AB089A0094EF
:102F100004A905480393FEF7C3FB049B1C7006B08D
:102F2000BDE8104002B07047D5850000084B70B571
:102F3000C31A0D4607499B100446594340220648D0
:102F400005F071FB2B4601462046BDE8704018474E
:102F500000220020B76DDBB6A49F0000402373B5AC
:102F60000B4C0093041B0B460D460A49A410614309
:102F70000646094A094805F082FB011E05DA30467B
:102F80002B4602B0BDE87040184702B070BD00BFCC
:102F900000220020B76DDBB6E9860000A49F000088
:102FA00070B50022012104460520FFF7A7FC0F4859
:102FB00001F03CFB0E4B984215D106F00DFB266943
:102FC0000C49304605F06FF900280BDB012535640C
:102FD0002469084904F11C0005F065F9002801DBAB
:102FE0000020E56470BD6FF00400FBE72D300000A9
:102FF0000000AD0B30A4000001460C23002270B588
:103000004B430848C4184033D4E90E561844A26311
:1030100005F0F6FA2DB132462B46BDE87040024865
:10302000184770BD00220020A49F000010B10128A5
:1030300004D07047034B1B6C5B0701D1FFF7DCBF6B
:10304000704700BF0022002008B54FF02003EFF3C7
:10305000118183F31288BFF36F8F124A136843F014
:1030600002001060DA0708D481F31188BFF36F8F74
:10307000BDE80840012006F0BDBA4FF05023D3F858
:103080000C24D3F80C34D307EED5074805F0B8FA72
:1030900081F31188BFF36F8FBDE808400020FFF770
:1030A000ABBF00BF50220020402200201FB50022ED
:1030B0000123CDE902236B46084ACDF800D0CDF8B4
:1030C00004D005F00AFB002805DB4FF48042002302
:1030D000684602F0F9FA05B05DF804FB09870000C4
:1030E00010B54FF02003EFF3118483F31288BFF380
:1030F0006F8F074A136823F00201DB07116002D4C7
:10310000012006F0B7FA84F31188BFF36F8F10BD6A
:10311000502200202DE9F041012207463749D1E82D
:10312000EF3FC1E8E02F0028F9D133B934493548E1
:103130004B60CB608A6005F0C9F87B1E012B2BD851
:10314000012F07D14FF05023D3F81C3403F00303B1
:10315000022B21D006F0D7FD0546F8B92A4B1B7883
:10316000E3B14FF0502302220646C3F808234FF084
:103170005024DFF89880D4F81834D4F81824D203F7
:1031800016D503F00303022B01D0012F10D175B324
:1031900086F31188BFF36F8FBDE8F0814FF02003F5
:1031A000EFF3118683F31288BFF36F8F0125DEE7FB
:1031B000C5B13046FFF766FBD4F81835DBB2012BFA
:1031C000D9D1D4F80421002AD5D00022C4F8042192
:1031D000D4F804210222C4F818252022C8F880213E
:1031E000A360C8E70021212002F076FDE4E74FF05C
:1031F00050230222C3F80423CEE700BFFC210020A5
:10320000EC2100201C220020BC2E002000E100E068
:1032100000487047A8A400002DE9F74F43680F1E2F
:1032200004461646D3F810A0C0F28280BB1853455E
:103230007ED847EA0205C5F30B05002D78D1006959
:1032400005F06DFA2946204605F0B6FA0546002E2F
:1032500064D10121204605F0AFFA002D4AD056E096
:1032600000229046344B47EA060C597861B10BFABC
:1032700001F03CEA000007D1B8F1000F3CD098F80B
:103280000100884238BF98460132042A03F1020344
:10329000EBD1B8F1000F31D00023812298F8001053
:1032A0002046CDE900333B4605F03FFA012398F86C
:1032B000012020469340F61A1F4405F0BDFA002E67
:1032C000C7D00023802206212046CDE9009905F0D1
:1032D0002CFAB245C4D1C721002380222046CDE973
:1032E000009905F022FA204605F0A6FA01212046B1
:1032F00005F062FA05460AE09846C5E7204605F063
:103300009BFA0121204605F057FA6FF01505206958
:1033100005F003FA284603B0BDE8F08F18B98146DE
:103320004FF0FF3BCDE70121204605F045FAEEE7DF
:103330006FF01505EEE700BF2CAA0000024B0B60F2
:1033400001231360704700BF6C22002000487047C3
:10335000C4A4000010B501220648114606F0F4FC92
:1033600006F090F9044C206006F089F960600020B6
:1033700010BD00BF742200206C22002070B50C46E6
:10338000154606F07CF929460646204605F075FBF1
:1033900008B3B4FBF6F306FB1343E3B9B5FBF6F34E
:1033A00006FB1353BBB9AE4201D9002070BD4FF0EC
:1033B000FF324FF0FF33094802F086F906F05FF95B
:1033C0000646204601F0D2FCAD1B3444F9D1034837
:1033D00002F05AF9E9E76FF01500E7E774220020E0
:1033E000F8B50E461946304617461C4605F045FB13
:1033F00008B344EA060515F003051CD1A4B14FF04B
:10340000FF324FF0FF330D4802F05EF924F0030461
:10341000A54206EB050009D1094AD2F80034DB07C2
:10342000FBD5064802F030F90020F8BD795901F0CB
:10343000BBFC0435ECE76FF01500F6E774220020C2
:103440000090035030B5406801F01F04057BB2F5D1
:10345000001F85B044EA451405D1204601F07CFBED
:10346000002005B030BD0025B2F5800FCDE9025532
:1034700014D1B3F1007F0CBF042305238DF808306D
:1034800000232046194602AA01F09CF91C4B9842E1
:1034900033D10121204601F01BFBE1E7B3F1C06FFE
:1034A00020D0B3F1007F14BF012302238DF8083030
:1034B0008368CB40D907E3D4B2F1A07FE0D1114AB1
:1034C00004F01F03803352F82330DB07D8D40DF10A
:1034D00007052946204601F0A7FA0B4B984203D076
:1034E0000395CDE70323E1E7284601F0EBFA044B0F
:1034F0009842F5D06FF00B00B3E76FF01500B0E71E
:103500000000AD0B002584500400AD0B10B501F098
:10351000C9FA044668B901F09DFA084B98420AD1ED
:103520002146074801F07AFA224605210D20FFF7CF
:10353000E5F9002010BD6FF00400FBE70000AD0BC3
:1035400045350000430970B507D10B4B596821B1CF
:1035500001250C68094E854001B970BD8A682A4072
:1035600002D030464B6898471CB1236821461C4660
:10357000F2E72346FAE700BF84220020BC9F000048
:103580002DE9FF41476801F01F053B7B144645EAE2
:1035900043150E4628460DF1030101F045FA14F4D7
:1035A000403F80460BD1284601F0FEFA3C4B98453F
:1035B00003D19DF8030001F07FFA00200CE0002306
:1035C0002846194602AACDE9023301F0FBF8344B34
:1035D000984204D06FF0150004B0BDE8F08180453A
:1035E00003D19DF8030001F067FAA30349D540F227
:1035F00006332340B3F5837F19D00CD8062B17D0A0
:1036000004D8ABB1022BE5D1042311E0B3F5807FE0
:10361000E0D101230CE040F20222934226D0B3F520
:10362000407F25D0B3F5007FD4D1022300E00723EB
:103630008DF8043084F48033C3F30043E0068DF842
:1036400005304CBF0323C4F3401321038DF806302B
:1036500010D501237A68B34093600022284601A95F
:1036600001F05CF90E4B9842A7D0B3E70523DFE7E2
:103670000323DDE7620341BF01237A68B340D360CF
:10368000EBE7E3064FF000034CBF0324C4F3401400
:103690001A46284601A98DF8044001F093F8E1E7A5
:1036A0000000AD0B2DE9F04101273F4E00EB8101F9
:1036B000814202D10020BDE8F081056805F07F035A
:1036C000C5F343247F2B4FEA154508BF4FF0FF3366
:1036D000192D66D8DFE805F00D161B1E212D1E657D
:1036E0006565653151656565656565656565545CEC
:1036F0005F62C2F80C3503F01F0507FA05F5B560E7
:10370000012502E0C2F814350025AC461CE0C2F8E1
:103710000835F0E7C2F81035F6E70025C2F808359D
:1037200003F01F0C07FA0CFCC6F80CC04FF0010C9C
:103730000AE0C2F80C350125F2E7C2F80835002C82
:10374000E2D100250624AC4650F804EB24020EF426
:103750000058B8F1000F1CBF4FF0000C0125CEF34C
:10376000C11E44EA8E0403F01F0344EA0C0444EA39
:103770004504803346F823409AE7C2F80C35DEE76B
:10378000C2F860350568C5F38035002DD3D0B2E7A7
:10379000C2F86435F6E7C2F86835F3E7C2F86C356D
:1037A000F0E76FF0850086E70025845038B544685F
:1037B000012294F82810606A05F0ECFA002802DB78
:1037C000246A0CB9002038BD4FF40045002105489B
:1037D0000023E4FB0501044AFCF7B4FC02F07CFA88
:1037E000F0E700BF3F420F0040420F00F0B54B79B9
:1037F000012B26D0032B21D110258B79032B1DD132
:10380000CE790EB1012E19D10A7912B1022A15D141
:103810000E220B684468B3F5164F276867D02DD881
:10382000B3F5165F66D016D8B3F5966F64D00AD894
:10383000B3F5967F63D0B3F5167F63D06FF0850044
:1038400054E00025D9E7B3F5166F5ED0B3F5965F67
:10385000F4D1384B3CE0B3F5E14F59D007D8B3F57C
:10386000615F57D0B3F5964FE8D1334B30E047F660
:103870001224A342E2D14FF4000329E0B3F5613FE3
:103880004AD013D8B3F5963F49D009D84DF6C02495
:10389000A34246D0B3F5614FD0D14FF46B0317E08C
:1038A000B3F5E13FCAD14FF0EB7311E0B3F5612FEF
:1038B0003AD008D8214CA34239D0B3F5E12FBDD17D
:1038C0004FF0E86304E01E4CA342B7D14FF08053A1
:1038D0000469C7F82435436835431B682A43C3F895
:1038E0006C25231D03C983E803000020F0BD4FF4BD
:1038F0001D03EDE7134BEBE74FF49E23E8E74FF48E
:10390000A033E5E74FF41C33E2E74FF41D23DFE774
:103910000D4BDDE70D4BDBE74FF06C73D8E70C4B3D
:10392000D6E74FF46503D3E74FF07063D0E74FF06D
:103930008063CDE700B0130000A04E0090D00300DC
:1039400040420F000050270000C0750000F03A0010
:1039500000903A012DE9F74380460022012108201A
:10396000FEF7CCFF0820FEF799FF0021D8F804707D
:10397000D8F810603C6801AAC4F80015C6F80080A9
:10398000D7F80C90484605F04DF9051E4DDB019B1C
:10399000D9F8002019791868FFF784FE051E44DB6A
:1039A0004046311DFFF722FF054600283DD17B68C8
:1039B000990713D506F11C0000F07CFE1E4B9842BF
:1039C00037D1337F43F00043C4F8A031C4F88C30C2
:1039D0000123327F9340194AC2F804350823C4F802
:1039E00000353B7A53B9C4F81031D4F81031B369BB
:1039F000C4F834350123C4F8383523607B689A074E
:103A00005CBF4FF48073C4F804337B68DB0644BFAB
:103A10004FF48003C4F804337369C4F844350023B9
:103A2000C4F848350123A360E360284603B0BDE82D
:103A3000F0836FF00405F8E70000AD0B0070015053
:103A4000F8B504460D46076906F05DF9B0B9214B9B
:103A50001B789BB16426606805F0BDFA00BB0120AD
:103A600005F05EFD013EF6D10021212002F034F97F
:103A7000F0E781F31188BFF36F8FF5E74FF0200374
:103A8000EFF3118183F31288BFF36F8F60680E46E6
:103A900005F0A1FA90B981F31188BFF36F8FEDE7BC
:103AA0004FF02003EFF3118183F31288BFF36F8F80
:103AB00060680E4605F08FFA0028DAD07B69012293
:103AC0001D702046796905F0C6F986F31188BFF3A9
:103AD0006F8FF8BDBC2E0020F0B504690646A56CBA
:103AE0004768236D85B03DB96BBB1946306905B099
:103AF000BDE8F04005F0DFBB616C03BB31BBBA8CA5
:103B0000636CAA4228BF2A460091A2651BB1A36C30
:103B1000002B18BF13460193E36C02931BB1236D76
:103B2000002B18BF1346002269463846039301F064
:103B300053FA0E4B984217D06FF00401D6E79D421E
:103B400028BF1D46DAE71D46616CD8E701F06043E7
:103B5000B3F1005FD3D0082D28BF0825206E2A4678
:103B600004F024FD216ECAE705B0F0BD0000AD0BE6
:103B70002DE9F04F984643688BB002938B88064638
:103B8000046998040D46914600F1F2804FF0FF322F
:103B90004FF0FF3304F1100001F096FD6560D6F898
:103BA00004B0D6F810A0DBF8083003939AF85D3023
:103BB00000931BB1DAF800309D4266D0AF8839051A
:103BC00000F1058117F0090F40F0FE80C7F345139F
:103BD000082B40F0F9802B680193019A8D4B9A4293
:103BE00040F2F2800DF1140C0BF10C0EBEE80F0048
:103BF000ACE80F00DEF80030019ACCF80030039BEF
:103C0000934228BF1346844A934240F2BA80834AC3
:103C1000934240F2B980824A934240F2B880814A8E
:103C2000934240F2B780804A934240F2B6807F4A86
:103C300093422CBF4FF000434FF08043BA070793E5
:103C400007F0040340F1AC80002B14BF03230223D0
:103C50008DF82030009BC7F300178DF821702BB131
:103C6000584601F071F900238AF85D3053465846F2
:103C70006F4A05A901F0C0F86E4B984240F094805D
:103C80000123CAF800508AF85D30012384F85C30C3
:103C9000B9F1000F40F09E80C4F834900023A36374
:103CA00004F1480204F1380104F1340005F042FA4D
:103CB0006064B8F1000F40F09680C4F83C800023A7
:103CC000236404F1500204F1400104F13C0005F0CA
:103CD00031FA002501212A46E0642563204605F0DB
:103CE00050FA3046FFF7F8FE2A462B46A06B834277
:103CF00040F0828000231946256CA94240F0838061
:103D0000934238BF134627464FF4FA524FF000084B
:103D100002FB03F557F8203B4FF4004C1B6841466B
:103D2000B5FBF3F540F2E730C8354FF47A72002363
:103D3000E5FB0C01FCF706FA02460B46384601F09B
:103D4000C3FC18B9256B15F1740F2FD10298C4F874
:103D5000588001F0F9F884F85D806FF073013069E4
:103D600005F0A9FA384601F0D7FC6FF073051DE0A5
:103D7000A369002B7FF40AAF636899427FF406AF12
:103D80000DE74FF0007359E74FF0806356E74FF0AF
:103D9000006353E74FF0805350E74FF000534DE777
:103DA000003B18BF012353E76FF0040523689B888D
:103DB00013F4005304D1636004F1100001F064FCBB
:103DC00028460BB0BDE8F08F6FF01505EEE76FF0F9
:103DD0008505EBE7D9F800306363002B3FF45EAF55
:103DE000D9F804305BE7D8F80030E363002B3FF4E8
:103DF00066AFD8F8043063E7616B01EBC301496833
:103E000001330A4473E7E06B00EBC1004068013105
:103E1000034472E747E801008FD003001FA10700A9
:103E20003F420F007F841E00FF083D0000127A0011
:103E3000D79200000000AD0B0123834070B5DC4336
:103E40000B4AD2E8EF1F01EA0405C2E8E65F002E44
:103E5000F7D14FF4803282400648C0F80823BFF300
:103E60005F8FBFF36F8F0B4214BF0120002070BD26
:103E7000AC2200200050015070B40E4922F07F4661
:103E8000D1E90034D01AC31844F10004C1E9003468
:103E9000A6F50013B3F5400F09D2074B1B681A0AA9
:103EA0001B069C19054B42F10005C3E9004570BC97
:103EB00002F068B810020020B02200201802002092
:103EC000D9B101230D4A8340D2E8EFCF4CEA030C6D
:103ED000C2E8E1CF0029F7D14FF48033084A83408C
:103EE000C2F80433074BD3E8AF3FC340DB0742BF00
:103EF0004FF40012044BC3F800217047AC2200209D
:103F000000500150A822002000E100E00D4B18688D
:103F1000010A0006BFF35F8F0B4BD3F80435181866
:103F200041F10001B3F5801F0AD2084BD3E9002309
:103F3000904271EB030303D210F1807041F1000154
:103F4000704700BFB022002000500150180200202E
:103F50002DE9F74F16461F460446FFF76DFF009008
:103F6000FFF7D4FFB04271EB070351D2384B301A40
:103F700067EB0101984271F1000166D2354B03EB0A
:103F80000413D3E902239F4208BF96424AD04FF45C
:103F90008039314909FA04F9204626F07F4BC1F8EF
:103FA000489305F0E4F94FF0030A584604F1500530
:103FB000AD00ADB205F1502504F5A873DFF8A0C03F
:103FC00005F580350193019A20F07F4341F82230B6
:103FD000C1F84493D1F80485A0EB0800033820F021
:103FE0007F4060451ED9286868B1D1F80485A8EBE8
:103FF0000B0020F07F40B0F5000F13D9204605F0EC
:10400000B6F9DFF85CC00AEB08000AF1010ADAE74A
:104010000123124AA340D2E8EF0F1843C2E8E10F90
:104020000029F8D100250B490C98230101EB04125B
:10403000C850C2E902670D9B536020460099FFF704
:104040003FFF284603B0BDE8F08F6FF01505F4E799
:10405000010080000002002000500150A822002032
:10406000FDFF7F0073B500254FF0FF304FF0FF31AB
:10407000184C194B0226C4F80833C4F84833174BC0
:10408000C4F80855C3E902014FF480334FF400121D
:10409000C4F80433124B0121C4F804631520C3F89B
:1040A00080212A46FEF72AFC1520FEF7F7FB0123A4
:1040B0000C4AA360236013600B4B0C4A0093284604
:1040C00000230195FFF744FF3046FFF723F8284609
:1040D00002B070BD0050015003000F00000200202C
:1040E00000E100E0AC220020793E0000FFFF7F00ED
:1040F0002DE9F7432E4BD3F8042390070BD5D3F8C3
:10410000042142B10022C3F804212A4AD3F8043121
:10411000136801331360264AD2F80433D90327D534
:10412000254BD3E8EF1F21F00100C3E8E40F002C7A
:10413000F7D1CB0702D4D2F84031CBB100251C4CCB
:10414000C4F84051D4F84031FFF7E0FE4FF02003AF
:10415000EFF3118283F31288BFF36F8F174BD3E90C
:104160000267B042B94106D282F31188BFF36F8F64
:1041700003B0BDE8F0834FF0FF38D3E900104FF0F3
:10418000FF391D60C3E902894FF48033C4F8483316
:10419000C4F84051D4F8403182F31188BFF36F8FD7
:1041A0000029E5D0009032463B4628468847DFE7A5
:1041B00000500150B0220020A82200200002002060
:1041C000431C13B521D0012821DD124A124B904225
:1041D000D4BF04461C46FFF799FE104B0E49D3E9A5
:1041E0000023801AB0F5000F28BF002404448C423D
:1041F00028BF0C4600200A49A2180190009143F103
:104200000003FFF7A5FE02B010BD034CE3E7012455
:10421000E1E700BFFEFF7F00FFFF7F0010020020EC
:10422000793E000008B5FFF771FE024B1B68C01A0B
:1042300008BD00BF10020020012310B5074C152057
:104240006360FEF739FB4FF40012054BC4F80833E6
:10425000C4F84833034BC3F8802110BD005001500F
:1042600003000F0000E100E040EA0103C3F30E0386
:1042700030B58BB940F21515094CC90BC0F3C730E6
:10428000994201D1002030BDC218D2B202F5C072ED
:1042900044F822500133F3E76FF01500F3E700BF55
:1042A0000030005030B5816885B0103921F0070426
:1042B000054604F0DEF810220146684604F081F954
:1042C00010226846064904F071F910236A46214617
:1042D000284604F09CF8003818BF012005B030BD16
:1042E000BCA7000030B50D46816887B0102302AA34
:1042F0001039044604F076F8002802DA012007B0ED
:1043000030BD1022204602A905F060F800283AD1FD
:1043100010221E4902A804F022F900280CBF012334
:1043200002232B70204605F03DF8012301460DF1D4
:104330000702204604F056F80028DFDB9DF807301E
:10434000204603F00F021B096A702B7101220DF148
:10435000070105F03BF810B96B78042B03D9012352
:104360006B7000232B71A2682046183A22F00702D6
:10437000083AA91C05F03DF80028BFD12046E91CE9
:1043800005F090F8BBE70323CBE700BFBCA7000014
:104390007FB50320694605F08BF898BB092002A978
:1043A00005F086F801282BD103238DF808308DF80D
:1043B0000B3000249DF800509DF80860184A2946EB
:1043C000107804F0F5FF18B33146507804F0F0FF90
:1043D000F0B19378042B03D09DF80310994217D1C4
:1043E000D378042B03D09DF80B10994210D1137988
:1043F000042B09D15079831E022B03D804B070BD61
:104400000028D6D0FF20F9E79DF802109942F1D09C
:104410000134032C02F10602D1D10120EEE700BFE6
:10442000B8AA00004FF47F0208B5D2F83031D2F8B4
:104430003421BFF34F8FC3F30B03092B01BF4FF0A0
:1044400050230022C3F81421C3F8182105F055F8B1
:1044500028B10122534BC3F8382AC3F878254FF40A
:104460007F02D2F83031D2F83421BFF34F8FC3F33B
:104470000B03092B05D1012A1EBF0122494BC3F8AA
:10448000782505F03AF818B10E22474BC3F8E42E10
:104490004FF47F02D2F83031D2F83421BFF34F8F7E
:1044A000C3F30B03092B06D100223E4BC3F80C27A4
:1044B0000122C3F810270022D30003F57F03D3F8AD
:1044C0000013BFF34F8F013108D0D3F8001301322E
:1044D000D3F80433B2F5807F0B60EDD1334BDA694A
:1044E000BFF34F8FD10745D5BFF34F8F304BD3F874
:1044F0000024012AFBD1C3F80425D3F80024012AA3
:10450000FBD12A4BDA69BFF34F8FD2070AD5DA699C
:1045100022F00102DA61BFF34F8F254AD2F800344E
:10452000012BFBD1214A136ABFF34F8F01330CD10A
:10453000136A23F0FF0343F020031362BFF34F8F8E
:104540001B4AD2F80034012BFBD10022184BC3F8D0
:104550000425D3F80024012AFBD1BFF34F8F15495E
:10456000154BCA6802F4E0621343CB60BFF34F8F70
:1045700000BFFDE71B6ABFF34F8F0133B4D00D4B73
:10458000D3F88C2042F44062C3F88C20D3F8882002
:1045900042F47002C3F88820BFF34F8FBFF36F8FD0
:1045A00008BD00BF0040005000A003500080FF0085
:1045B0000090035000ED00E00400FA0570B50125FD
:1045C0000268B2FA82F3C3F11F03DBB205FA03F407
:1045D00022EA0404D0E8EF6F964204D1C0E8EC4F21
:1045E000BCF1000FF6D1EBD101480B7070BD00BFDC
:1045F0000000AD0B10B50368CB40DB0710D40123DE
:104600008B40026843EA0201D0E8EF4F944204D1A4
:10461000C0E8EC1FBCF1000FF6D1F2D1014810BD8B
:104620000148FCE70000AD0B0400AD0B044B1A7908
:1046300022B9012218601A71024870470248704777
:10464000B42200200000AD0B0C00AD0B4FF0502346
:1046500010B5D3F8002152B10020C3F80001D3F8FF
:1046600000210122C3F80823114B1B6898474FF023
:104670005023D3F804218AB10022C3F80421D3F8CF
:104680000421D3F81824D3F8181402F00302012AE5
:104690004FF0020103D1C3F818159A6010BDC3F89A
:1046A0000813034B0120BDE810401B68184700BFEA
:1046B000B422002001460148FFF780BFD800002047
:1046C000064A00F01F0002EB8002D2F8003223F409
:1046D000403343EA0143C2F800327047002584505A
:1046E000034B083033F81000C0F34010704700BF90
:1046F000DC00002070B50D4C00F1080334F81330D5
:104700000546DA050E4607D5C3F3432304EBC3027F
:10471000526854F833309847A3682BB13146284685
:10472000E268BDE87040184770BD00BFDC000020A3
:1047300010B4134A083032F81030D9051CD5C3F331
:10474000432123F4F85322F81030002002F10E0424
:1047500034F8023F13F4807F03D0C3F3432399421C
:104760000AD001302028F3D1002342F83130054827
:104770005DF8044BFFF73EBF5DF8044B704700BF88
:10478000DC0000203001002038B50246FFF7A8FF0A
:104790000B4C02F1080560B1002134F815305B0BB9
:1047A0009B0003F1A04303F55043C3F81015C3F871
:1047B00010151046FFF7BCFF002324F8153038BD54
:1047C000DC0000202DE9F34104461D4609B34E4F9D
:1047D00000F1080837F81860B30706D5FFF780FF27
:1047E00018B14A4802B0BDE8F081494804F01F03FF
:1047F00000EB8300D0F80032097823F00F0326F095
:10480000020643EA810346F00106C0F8003227F8A9
:1048100018609AB13C4E04F1080736F81710137867
:1048200011F0020F50680CD00028DAD136F81720AA
:1048300022F01C0242EA830326F81730D5BB354824
:10484000D0E721F02001C904C90C26F81710002870
:10485000ECD0032BC5D8526892F800C06246920093
:1048600002F1A04202F5504223B9C2F81035C2F855
:104870001035DBE7D2F8100541EA4C3120F0030097
:10488000C2F81005D2F8100541F0200120F447309D
:1048900020F44070C2F810052002D2F810E500F4B0
:1048A000F85040EA034040EA0E00C2F8100526F82E
:1048B0001710BBE72046D5E90067FFF739FF002E48
:1048C000BDD0114DD5E90023964201D19F4218D0A9
:1048D00011480DF10701FFF771FE0E4B984281D18F
:1048E0009DF8072005EBC20308345F6035F81430EB
:1048F00045F8326043EA422343F4807325F81430CC
:104900009DE70022EEE700BFDC0000200400AD0BB5
:10491000002584500000AD0B30010020F8B504469E
:1049200079B33A4E00F1080736F81750AB0704D4B4
:10493000FFF7D6FE08B13648F8BD15F01C0F4B78CE
:1049400022D104F01F00DFF8CCC000F1800E5CF82B
:104950002EC091F802E05B002CF4E16C097843EA88
:104960008E032CF0070C43EA0C0343EA0123294988
:1049700043F00103803045F0030541F8203026F86C
:10498000175022B92448D7E7012BDAD1D3E71F4EBD
:1049900004F1080736F817008307CCD592F800C059
:1049A0000023614620F02000890001F1A041C004ED
:1049B00001F55041C00CC1F8103526F81700C1F8B8
:1049C00010355578002DDDD0D1F81035927823F4CC
:1049D000981323F4F853C1F81035D1F810E52302E9
:1049E00003F4F8532D0443EA0E0305F44035120591
:1049F0002B4302F4801240EA4C30134340F0200075
:104A0000C1F8103526F81700BCE700BFDC00002015
:104A10000400AD0B002584500000AD0B014BC3E931
:104A200002017047DC00002008B50246FFF758FE7F
:104A300038B1054B083233F8123004485B0B0B7069
:104A400008BD0348FCE700BFDC0000200000AD0B00
:104A50000400AD0B38B50F4C94F85850BDB9402246
:104A6000294604F1100003F0ACFD0D20FDF716FF00
:104A7000094B0A48C3F87C51D3F87C214FF000421F
:104A8000C3F80423012384F85830636538BD044813
:104A9000FCE700BFDC00002000D000500000AD0BA0
:104AA0000500AD0B034B93F85800003818BF0120E8
:104AB000704700BFDC00002001460148FFF79ABDA7
:104AC0002C01002001460148FFF778BD2C01002091
:104AD000024610B5FFF704FE1C4B02F1080433F840
:104AE0001430E0B113F0020419D15B0B9A0002F10B
:104AF000A04000F5514002F1A042046002F550428E
:104B00000068D2F8100540F00100C2F8100529B184
:104B1000012202FA03F30E4AC2F8043310BDC3F3B4
:104B20008203042B0ED0052B0ED00A4B196902F01C
:104B30001F03D94001F0010102311046BDE81040C9
:104B4000FFF7BEBD0321F8E70221F6E7DC000020F5
:104B500000D000500025845008B50246FFF7C0FD84
:104B6000C0B10F4B02F1080133F81130990711D48D
:104B700001225B0B9A400B499B0003F1A043C1F853
:104B8000082303F55043D3F8102522F00302C3F89D
:104B9000102508BD0021BDE808401046FFF790BD74
:104BA000DC00002000D0005010B50C4B00F10802D2
:104BB00033F812300446DB070DD5FFF7CDFF204652
:104BC000FFF7E2FD0222064B04F01F048034054883
:104BD00043F8242010BD0448FCE700BFDC0000209F
:104BE000002584500000AD0B0400AD0B2DE9F04F03
:104BF000002501222C464D4B4D484E4985B01E687C
:104C000036B1D0F8046316421EBF1C601E681543FF
:104C100004338B424FEA4202F1D1454FD7F87C3141
:104C200093B1454E336A039333624FF0010A0DF19D
:104C30000C09039870B9C7F87C01D7F87C31336A46
:104C400003933362002BF0D10124002D56D105B01F
:104C5000BDE8F08F90FAA0FBBBFA8BFB374A0BF153
:104C600008034FEADB0C32F813100BF0070419F8B5
:104C70000C300AFA04F423EA040309F80C3006EBBA
:104C80008B03D3F80042C1F38202C9069046C4F3F5
:104C9000014418D5114658460193FFF72BFD019B9F
:104CA000E4B2D3F80032C3F301439C4207D10021A0
:104CB0005846FFF705FD21465846FFF701FD0AFA61
:104CC0000BF03062B5E7022C0CD103215846FFF7F8
:104CD000F7FC08F00503012BF1D141465846FFF7D8
:104CE00009FDECE7022158460192FFF7E9FC019A21
:104CF000032AF2D0032CE2D18A42EDE795FAA5F31C
:104D0000B3FA83F304FA03F29B0003F1A04303F523
:104D10005043D3F81005D3F81015C0F30420C1F3A5
:104D2000014125EA0205FFF7E5FC8EE700D10050BE
:104D300000D0005020D1005000258450DC0000201D
:104D40000022034BC3F88425C3F80425704700BF35
:104D500000900350044AD2F80834DB07FBD5016009
:104D6000BFF35F8F704700BF0090035008B5C0F3DA
:104D70000B0383B90222094BC3F88425C3F8042529
:104D80004FF0FF320260D3F80024D207FBD5FFF7C3
:104D9000D7FF034808BD0348FCE700BF009003505D
:104DA0000000AD0B0A00AD0B012208B5054BC3F89E
:104DB0008425C3F80425FFF7CDFFBDE80840FFF7C1
:104DC000BFBF00BF00900350431C06D00222034B1C
:104DD00000F01F00803043F82020704700258450E9
:104DE000012300F01F00034A834009B9D3607047D4
:104DF00093607047002584502DE9F0470C464E4DD6
:104E0000017906464F0105EB4111087F002840F06B
:104E10009080D6F80080EA514B60E07B8A7F60F397
:104E200000028A772079D2B260F341028A77E37870
:104E3000CB77E37BD6F800A0002B38D1217B2078FC
:104E4000012994BF00210121FFF7CAFF0122237825
:104E5000DFF8F09003F01F03803349F823206378D4
:104E6000FF2B0BD003F01F039A40C9F80C2003223C
:104E7000637803F01F03803349F82320A378FF2BC6
:104E800006D0A27B03F01F039200803349F8232051
:104E9000E078FF280BD0217981F00101FFF7A0FF16
:104EA0000322E37803F01F03803349F82320237C97
:104EB00093B963782178FF2B18BF1A46A37808BFEF
:104EC0004FF0FF32FF2B08BF4FF0FF33CAF8081531
:104ED000CAF80C25CAF81035A368C8F82435637BD6
:104EE000227B003B18BF0123022A1CD0032A1DD0BD
:104EF000012A01D143F00203C8F85435A379C8F858
:104F0000C0350723C8F80035EB5923B1306840F3AA
:104F10000730FDF7C3FC00233D446B7701230748AE
:104F20002B77BDE8F08743F00403E5E743F0060381
:104F3000E2E70348F5E700BFBC2200200000AD0B0C
:104F40000500AD0B00258450F8B503791F4D5E01B7
:104F500005EB4317AB590468B3B144F30730FDF7D1
:104F6000ABFC1B4BC4F808337B7F6BB10123642778
:104F70006361D4F8043123B9012004F0D1FA013F70
:104F8000F7D10022AB195A770023A919C4F80035CC
:104F90008B7FDB0715D4D4F80805FFF715FFD4F88D
:104FA0001005FFF711FFD4F80C05FFF70DFFCB7FBD
:104FB000FF2B06D00221074A03F01F03803342F87B
:104FC0002310002335442B77F8BD00BFBC220020FE
:104FD00052010800002584502DE9F843384F037929
:104FE000154607EB431898F81D2081460C465E01D4
:104FF000002A63D1BA592AB115F0140F04BF012257
:1050000088F81D2007EB060C0CF10C0C94E80F003F
:105010008CE80F000121404604F037FB2168D9F8E5
:10502000003021B101F06042B2F1005F06D1A26808
:1050300052B102F06042B2F1005F05D000233E445D
:1050400020487377BDE8F8836268C3F84415C3F855
:105050004825D4E90212C3F83415C3F838250022D4
:10506000C3F81821D3F8182115F0010218BF012246
:10507000C3F8502515F0020218BF0122C3F84025DD
:105080002A0707D5BA5972B90021404604F0FDFA43
:105090000D48D7E701221A61BA5922B9D3F818216D
:1050A000002AFBD0F0E715F0040F4FF0400202D0C9
:1050B000C3F80823ECE7C3F80423E9E70348C1E792
:1050C000BC2200200A00AD0B0000AD0B0B00AD0BA5
:1050D00070B50C4BD3F8182192B100250A4C294623
:1050E0002046C3F81851D3F8183104F0CEFAD4E9A9
:1050F00000316577257204F10800BDE8704018475B
:1051000070BD00BF00B00050BC220020034608461E
:1051100000B97047421E995C09B91046F8E70228A9
:1051200007D90238062896BF024B00231B5C0120DA
:1051300098407047FEAA000070B51C46012C054639
:1051400003681646C06816D11278172A04D90233AC
:10515000984214D3002321E0013398420FD3002456
:10516000284604F0ACFC60B13444B44219D1AB68B9
:105170000133AB6006E0621C1344984206D26B69AF
:105180000BB9002070BD0822DA60FAE70CB932785A
:10519000E6E7A31E062BDDD8054AD35C1833DAB246
:1051A000DEE72B685A1C2A6014F8012D1A70DCE720
:1051B000FEAA0000104B70B553F82040013053F8A0
:1051C0002060A64200D870BDD4E900358DB12846D4
:1051D000984738B10028B8BF4042FF28A8BFFF2039
:1051E000EB681870EA68537843F001035370083491
:1051F000E7E79847FBE700BF30A60000012208B5AB
:10520000094B03201A70FFF7D5FF00F03FFF042081
:10521000FFF7D0FF00F026F9FBF712F9034A137BE2
:1052200023F00103137308BDBC2E0020E002002010
:1052300008B50348034A0021121A04F013FD08BD03
:1052400000020020C02E0020C02370B5134E0122A2
:1052500003FB0066002386B0CDE904230F220193EF
:10526000CDE9023218234FF4A0720D4D0D4903FB16
:105270000055044602FB00110B4B3046009500F030
:10528000C1F8737B2C7423F004037373074B013450
:1052900003EBC423EE606B6006B070BD20020020FB
:1052A000DC220020C0360020139D0000C02E00200C
:1052B00080B50020B6B0FFF77DFF2B4B03F50062F1
:1052C00082F3088883F30A880024E023274D284EC0
:1052D00085F82230EC772C766C76AC7685F8204019
:1052E0006B6A244F43F4E0236B6285F82340FDF79B
:1052F00051FDFDF7B3FA4FF0FF33AB62EB6240F2C2
:105300000113ADF8243006ABB360CDE91F442294FD
:1053100004F081FC0120FFF74DFF0220164DFFF73E
:1053200049FF00F04FFC154BB5610593012314496B
:105330004FF42052CDE9034328463B46CDE90144D2
:10534000009400F05FF806466A7B284622F00402CB
:105350006A7304F03FFD2046FFF776FF3A46314678
:105360002846FDF7A7FB00BFC02E002000ED00E09F
:10537000DC220020FD510000E002002005AB00000F
:1053800000380020002038B5054C064DAC4200D353
:1053900038BD204604F06AFC0028F9DB1C34F5E730
:1053A000AE010020AE01002073B50C464FF0200581
:1053B000EFF3118185F31288BFF36F8F45695DB1FB
:1053C00025602B684361836901338361002081F389
:1053D0001188BFF36F8F11E052EA030603D16FF01B
:1053E0000B002560F3E7CDE900230246083000F00A
:1053F000F3FA18B9024B9B685B69236002B070BD79
:10540000DC2200202DE9FF410E9E00F158050673B5
:105410000426C0E916550025044646730D9EC0E9D2
:1054200006558673D61D0C9A26F00706C0E9191694
:105430008560C573C56602920B9A01EB060801925E
:105440000A9A00924246FDF715FB054B65659B687D
:1054500003B11B6F4046236704B0BDE8F08100BF75
:10546000DC2200202DE9F043294C2A4D87B0264646
:10547000AE4204F12C040FD300F074FB4FF400464D
:1054800040F2E737224CDFF89090AC4220D307B0CF
:10549000BDE8F04300F07ABB54F8043C059354F89F
:1054A0000C3C049354F8103C039354F8143C0293BE
:1054B00054F8183C019354F81C3C009354E9092318
:1054C00054E90B01FFF79EFF54F82C3C5E65CEE7D4
:1054D000636A5A1C0DD00021384623EAE373C3FBEC
:1054E000060151EAC333D4F8008004D1404600F0ED
:1054F000E9FA2C34C9E74FF47A720023FAF722FE56
:1055000002460B4608F11800494600F0C5FCF0E7DA
:1055100054A2000054A20000399E00002DE9F3417E
:10552000044617461E464FF02003EFF3118883F31D
:105530001288BFF36F8FC368334A7BB1806891686C
:10554000884219D057EA060318D188F31188BFF3AF
:105550006F8F6FF00F0002B0BDE8F081916891F994
:105560000E100133E36093682161A36088F3118812
:10557000BFF36F8F0020EEE72169F2E791F90E107B
:1055800090F90E306FF07E029942A8BF1946914201
:10559000B8BF11468B422EDD04F0C7FB05462246FC
:1055A0004146CDE90076194800F016FA0028E1D00E
:1055B0004FF02003EFF3118683F31288BFF36F8F50
:1055C000A068D0B1236821699C420AD04BB193F9FD
:1055D0000E309942A8BF19466FF07E039942B8BFBA
:1055E000194604F0A2FB40B13146084800F058FAD1
:1055F0006FF00A00AFE70025D1E7002DF4D186F364
:105600001188BFF36F8FF3E7DC220020BD2E00204E
:1056100038B5836804466BB3194A926893422CD11B
:10562000C368012B03D9013BC360002038BD4FF094
:105630002003EFF3118583F31288BFF36F8F0169A5
:10564000806804F072FB204604F0FAFBA06058B1B9
:1056500090F90E2022610022826704F0BBFB2946EC
:10566000084800F01DFAE0E7E06085F31188BFF319
:105670006F8FDAE76FF01500D8E74FF0FF30D5E70E
:10568000DC220020BD2E002038B504464FF0200358
:10569000EFF3118583F31288BFF36F8F04F0D0FB13
:1056A00048B10022826704F095FB2946BDE83840E6
:1056B000044800F0F5B9D4E902329A4218BF013328
:1056C000A360F2E7BD2E002013B54FF02004EFF3E6
:1056D000118184F31288BFF36F8F846844B1013C59
:1056E000846081F31188BFF36F8F002002B010BD7A
:1056F00052EA030406D181F31188BFF36F8F6FF074
:105700000F00F3E7CDE900230246024800F064F9F8
:10571000ECE700BFBD2E002070B504464FF020031B
:10572000EFF3118583F31288BFF36F8F6FF00A06D2
:10573000204604F085FB18B1866704F04BFBF7E7C1
:10574000A0602946BDE87040014800F0A9B900BF3B
:10575000BD2E0020C3897F2B12D80A4B1B6863B172
:10576000094B90F90E201B689A4209DB437BDB064C
:1057700006D1064BC31A18BF012303F0010070477E
:105780000023FAE70C230020082300202002002039
:105790000122044BC01A044BC0105843034B1A5447
:1057A000704700BFA0030020ABAAAAAABD2E00200C
:1057B00070B50E4B0E4C1E7C054606EB460304EB03
:1057C000C304204604F06EFB00220A4B28469A557B
:1057D000FFF7C0FF48B1084B2046BDE870401A688B
:1057E0000649013AD31700F057BB70BDDC220020F8
:1057F000A0030020BD2E00200C23002091570000A4
:1058000038B50D4D2B4653F81C4F9C4200D004B9BF
:10581000EC68AB6838B95A7BD20604D1A26912B9D8
:10582000DA897F2A05D89C4202D02046FFF7C0FFC4
:105830002346AB6138BD00BFDC22002070B590F973
:105840000D200146002A437B04DA03F07F034373F3
:1058500004F086FA154A4B7B104663F07F034B73C6
:1058600050F81C3F146A834208BF002323B9C1E9E2
:105870000004216011620CE091F90E5093F90E6062
:10588000B5420ED0AE420CDD5868C1E9003001606F
:1058900059609068BDE87040431A58425841FFF77C
:1058A000AFBF9C42E3D01B68E0E700BFDC220020D2
:1058B00070B490F90D30427B002B29DBD30627D141
:1058C00083692BBB134962F07F0242730A4652F888
:1058D0001C4F944218BF23460C6A23B9C0E9002428
:1058E000206008620CE090F90E5093F90E60B5420A
:1058F0000AD0AE4208DD5A68C0E900321060586034
:10590000002070BCFFF77CBFA342E7D01B68E4E730
:1059100070BC7047DC22002008B590F90D200146CC
:10592000002A437B04DA03F07F03437304F018FA80
:10593000044B9868431A58425841BDE80840FFF7A5
:105940005FBF00BFDC22002070B515461C4606462E
:1059500004F018FAB4F1FF3F08BFB5F1FF3F08D0DB
:105960002A46234606F118000249BDE8704000F0BF
:1059700093BA70BD399E000038B54FF02003EFF3A5
:10598000118583F31288BFF36F8F104B104A9C6808
:105990001068A04206D1FFF70BFF85F31188BFF313
:1059A0006F8F38BD00211B7C11600A4AD35C002B2D
:1059B000F3D02046FFF7CEFE0028EED0637BDB0657
:1059C00002D12046FFF73AFF2046E4E7DC22002020
:1059D00004230020BD2E002070B50C480C4D8668B5
:1059E0000C462E601146DDE904234FF02006EFF34C
:1059F000118586F31288BFF36F8F8068FFF7A4FFCD
:105A00002046BDE87040FCF7C1BF00BFDC2200208B
:105A100004230020F8B504464FF02003EFF311866D
:105A200083F31288BFF36F8F437B49B2DA0619D133
:105A30008569BDB903F07F03437304F091F9437B9B
:105A4000164A63F07F0343731346817353F81C0FA8
:105A5000984218BF0546106A5DB9C4E90030046079
:105A6000146211E00020A17386F31188BFF36F8FD9
:105A7000F8BD95F90E70B9420BD08F4209DD6B6805
:105A8000C4E900531C606C600120FFF7B9FE0120DF
:105A9000EAE7A842E1D02D68DEE700BFDC22002063
:105AA00049B9EFF3058030B9054B9A699B689A4272
:105AB00001D0FCF76BBF81F31188BFF36F8F704784
:105AC000DC22002010B54FF02002EFF3118482F3A6
:105AD0001288BFF36F8F427B510704D484F311887F
