:020000040000FA
:10000000C8540020192200000D8D000005220000B8
:100010000522000005220000052200000522000044
:10002000000000000000000000000000D9230000D4
:1000300005220000000000005D23000005220000F2
:10004000E5250000E5250000E5250000E525000088
:10005000E5250000E5250000E5250000E525000078
:10006000E5250000E5250000E5250000E525000068
:10007000E5250000E5250000E5250000E525000058
:10008000E5250000E5250000E5250000E525000048
:10009000E5250000E5250000E5250000E525000038
:1000A000E5250000E5250000E5250000E525000028
:1000B000E5250000E5250000E5250000E525000018
:1000C000E5250000E5250000E5250000E525000008
:1000D000E5250000E5250000E5250000E5250000F8
:1000E000E5250000E5250000E5250000E5250000E8
:1000F000E5250000E5250000E5250000E5250000D8
:10010000E5250000E5250000E5250000E5250000C7
:10011000E5250000E5250000E5250000E5250000B7
:10012000E5250000E5250000E5250000E5250000A7
:10013000E5250000E5250000E5250000E525000097
:10014000E525000053B94AB9002908BF00281CBFA3
:100150004FF0FF314FF0FF3000F00CB8ADF1080C5C
:100160006DE904CE00F008F8DDF804E0DDE90223D3
:1001700004B07047704700BF2DE9F04786468C46B3
:100180000846089E154674461946002B40F0C1806B
:100190008542B2FA82F245D94AB1C2F1200300FA8F
:1001A00002FC954094402EFA03F343EA0C0C4FEA0C
:1001B000154EA8B2230CBCFBFEF80EFB18CC08FBB6
:1001C00000F943EA0C43994528D9EB1808F1FF37A9
:1001D00004D2994502D9A8F102072B44A3EB0903E5
:1001E000A4B2B3FBFEFC0EFB1C330CFB00F044EA94
:1001F0000344A04214D92C190CF1FF3304D2A042BD
:1002000002D9ACF102032C44241A43EA07401EB180
:10021000D440002334607360BDE8F0874746DDE7D3
:100220006346F1E792BB431B01214FEA154EAFB283
:10023000200CB3FBFEFC0EFB1C330CFB07F840EA62
:100240000343984561D9EB180CF1FF3004D298456F
:1002500002D9ACF102002B44A3EB0803A4B2B3FB18
:10026000FEFC0EFB1C330CFB07F744EA0344A742D9
:100270004DD92C190CF1FF3304D2A74202D9ACF1AD
:1002800002032C44E41B43EA0040C0E7C2F1200310
:100290009540944020FA03F12EFA03F34FEA154EED
:1002A0009040AFB20343B1FBFEFC0EFB1C10190CD7
:1002B0000CFB07F841EA0041884522D969180CF186
:1002C000FF3004D2884502D9ACF102002944A1EBE9
:1002D00008019BB2B1FBFEFC0EFB1C110CFB07F7E7
:1002E00043EA01439F420ED9EB180CF1FF3104D2CF
:1002F0009F4202D9ACF102012B44DB1B41EA0041D1
:1003000093E76046E3E76146F7E76046A4E76346A4
:10031000B8E7834206D916B9002108467CE7C6E94A
:1003200000E0F9E7B3FA83F78FB9834201D372454E
:1003300008D8BEEB020460EB030301209C461EB903
:10034000002169E73846FAE7C6E9004CF8E7C7F14B
:10035000200CBB400EFA07F522FA0CF42EFA0CF131
:10036000BA401C4320FA0CF3B8404FEA1449014349
:100370001FFA84FEB3FBF9F809FB18300B0C08FBDD
:100380000EFA43EA00439A4540D9E31808F1FF30DA
:1003900004D29A4502D9A8F102002344A3EB0A0330
:1003A00089B2B3FBF9F809FB183308FB0EFE41EAEA
:1003B00003418E452CD9611808F1FF3304D28E45D4
:1003C00002D9A8F10203214443EA0040A1EB0E0147
:1003D000A0FB02984145CE46434602D306D14D4587
:1003E00004D20138B9EB020E68EB0403002EA7D04B
:1003F000B5EB0E0261EB030101FA0CFC22FA07F3E4
:10040000F9404CEA0303C6E9003199E74046C5E7E5
:100410004346D9E77FB52E4B2E4A4921C3F8002623
:100420002D48C3F80426C3F80826C3F80C26C3F8E1
:100430001026C3F81426C3F81826C3F81C2608F0A3
:10044000D8FB07F073FF00F089FA054601A800F019
:100450002FFD0446284600F091FA204B1B68A3426A
:1004600005D045211E4808F0C4FB08F061F8039A46
:1004700049211C4808F0BDFB49211B4808F0B9FB85
:1004800069469DF8080000F033F8009B039C1C446B
:10049000019B1D8903F03EFD661901F079F801F01A
:1004A00049F801F063F8002383F30B8883F30A888B
:1004B000625982F3088883F31488BFF36F8FBFF308
:1004C0006F8F736898474521084808F092FBFEE754
:1004D000008001503546526E82AD000008000020B9
:1004E0009BAD0000BEAD0000EDAD000012AE0000FF
:1004F000024608B538B105480023452108F079FBCC
:100500006FF0150008BD0860FCE700BF35AE0000C5
:1005100021B1012906D06FF015007047044B53F844
:1005200030007047024B03EBC0035868704700BFB0
:1005300048A800002DE9F04FDFF844B2DDB01646C0
:10054000DDE968891C466A9FDBF8005000F0BCFFBB
:100550000122874B3CA8C3F8002506F005FEB8F140
:10056000000F07D0B9F1000F04DD4A4641463CA810
:1005700008F032FA4FF0000833897289D6F80CA0DF
:1005800013449A44C2456AD80FA93CA806F05EFEFF
:100590000022774BC3F80025C3F8002527B120229D
:1005A00038460FA908F0FBFB002331460093224692
:1005B0004FF6FF7309A807F0BAFE064600285FD180
:1005C00020460E9F00F0B4F9874259D84FF0FF370C
:1005D000DFF8B0A1DFF898810DF11E0307AA08A982
:1005E00009A807F0F2FE00284ADB40F0B98008991C
:1005F00009A807F036FF50B94FF6FF71BDF81E008D
:100600005C4A32F8023B8B423AD09842F9D1BDF8AD
:100610001E90B9F1100F3DD0B9F1220F7DD0B9F184
:10062000010FD9D1BDF81C30202B29D820460899BC
:100630003CAA08F0ECFA074610BB9DF81C30202BB2
:10064000039309D8DAF800204B4B0492049A97429E
:100650003FDB0023C8F800354FF0FF37BCE7679B4E
:10066000AAEB0809994528BF994641464B462046C2
:10067000669A08F0CCFA30B100223D4BC3F8002551
:10068000DBF800506EE04A4666993CA808F0A4F9F1
:10069000C84477E7BDF81C90B9F1200FF0D14B4664
:1006A000204608993CAA08F0B2FA0028E8D100F0E8
:1006B00055F94A4606463CA90FA800F0E7F88146DE
:1006C000304600F05BF92D4B1B684B45D8D1012615
:1006D00082E7059300F0F8FEC8F800951FA806F021
:1006E00043FD059B1FA85A6853F8081B1268059321
:1006F00008F072F917A91FA806F0A8FD0022C8F893
:100700000025039A3CA917A808F039FB059B10B9EE
:10071000C8F8000560E7013798E77B1C3FF45CAF41
:10072000DAF80030BB4297DDBDF81C30802BA7D82B
:10073000204608993CAA08F06AFA0028A0D100F0E7
:100740000DF9FFB281462021BDF81C303CAA00976C
:100750000FA800F019F80546484600F00FF97BE7AE
:10076000002E8DD000F002F928465DB0BDE8F08F74
:100770000000845054AD000054A800000800002080
:100780000400002050A800002DE9F04796B016465E
:100790001D469DF87820384B074653F8321003EB7E
:1007A000C2035B6801911868DFF8DC8001443023E4
:1007B00002AA01A8D8F8009008F09CF8002851D1AE
:1007C000DDE901431C44214606AB03AA01A808F059
:1007D000B9F8002846D1049A072A43D12749059839
:1007E00008F0CDFA00283DD1079A082A3AD12449C9
:1007F000089808F0C4FAA8BB214602AA01A808F08C
:100800008DF878BBDDE901A30AEB0302944229D1FC
:10081000412B27D135443023294603AA02A802964A
:1008200008F068F8E0B9DDE9023213449D4217D3BD
:100830002A4602A906A807F022FE88B92A4602A97C
:100840000EA807F01CFE58B99AF80030042B07D107
:100850002023384606AA0AF1010100F04DFE38B106
:10086000D8F8009000F082F8484616B0BDE8F0874E
:10087000044BD3F80090F5E754A8000064AE0000E4
:100880005BAE0000080000200400002070B5094B9A
:1008900004461D680023934205D1074B1D6800F0F4
:1008A00065F8284670BDE65CC85C8642F7D1013326
:1008B000F1E700BF0400002008000020094A4000C2
:1008C0000B7852F820108B4209D0013052F82000EA
:1008D000834214BF4FF0FF304FF4407070474FF425
:1008E000407070475CA800001FB50F4B0C4613F812
:1008F000300001F0E5F950B92068102381686A469C
:10090000103908F084F928B1206808F07FF94FF019
:10091000FF3006E010226846044908F030FA00284B
:10092000F2D104B010BD00BF5CA8000072AD0000A1
:1009300013B5044607F0D4FD6A460146204607F089
:10094000DCFC30B10448452108F053F9002002B026
:1009500010BD0098FBE700BF6CAE0000024B1868AA
:10096000421C1A60704700BF50050020024A1368FD
:10097000013B1360704700BF50050020034B1B680C
:10098000834201D007F0D4BD704700BF500500205E
:100990002DE9F043434F89B0064600200D463C68E0
:1009A000FFF7B6FD06A9C0B201F08AF928B1FFF73A
:1009B000DDFF204609B0BDE8F0832946FFF7A8FD1A
:1009C0002C2407A9C0B204FB056401F079F990B1A9
:1009D0002C236B43F2181169DDF818C0C8061AD52C
:1009E0001DB13046069907F079FE2F4B1C6806981A
:1009F00008F00CF9DBE7079808F054F980460798EF
:100A000008F004F9631EE21C13F8011F4145DFD111
:100A10009342F9D1E4E7F058244B98423ED1D06894
:100A200013891B183AD25289D21837D2DCF8083011
:100A30009A4233D240F60C6311EA03062ED1FFF737
:100A40008DFFDDF818900746FFF788FF4FF480739D
:100A50000193174B224680463146009330464B4661
:100A6000CDE903660296FFF765FD04464046FFF7B1
:100A700085FFFFF77BFF3846FFF780FF0D4B1B68B4
:100A8000A342B4D065B106980021826808F0E9F865
:100A9000094A4521094808F0ACF8A6E73C68EDE7AB
:100AA000074AF6E704000020000000203DB8F39656
:100AB0006022002008000020AFAE0000B9AE0000A8
:100AC000A7AE00007FB50D46002104462846CDE9BB
:100AD000021107F0C2FD28B32368194EB34203D1B7
:100AE000204603AA07F04DFDE36AB34204D1012179
:100AF000204602AA07F045FDDDE90232934288BF95
:100B00000393039BAB60039A2946204600F0DAFB6F
:100B10000C4B1A68002A03DD57210B4808F069F8CE
:100B200004B070BD01A9FFF7DFFE019805F10801CF
:100B300007F0E1FCAB680198039308F067F8E2E77F
:100B40003DB8F396B4190020E1AE00002DE9F84F4E
:100B5000884691469A460026DFF870B0194C1A4D27
:100B60000B9B9E4201D300200FE00B9B40469F1B36
:100B7000B7F5806F28BF4FF48067144A3B4606EBF9
:100B80000A0108F044F810B10120BDE8F88F0A9975
:100B90003B465A464846711808F04EF80028F3D1F3
:100BA000C4F800563E44C4F80456C4F80856C4F8C5
:100BB0000C56C4F81056C4F81456C4F81856C4F8A5
:100BC0001C56CDE7008001503546526E540500207A
:100BD0002DE9F0410E460021AC4B0446436203F57B
:100BE000006388B003650846FFF792FC04F120011A
:100BF0000546C0B201F064F848B100232A464521F9
:100C000001900093A24807F0F4FF07F091FC012146
:100C10000020FFF77DFC04F14C010546C0B201F055
:100C20004FF850B101232A4645210190009398487E
:100C3000002307F0DEFF07F07BFC204607F0E2FC14
:100C4000054668B900222046114607F084FC054697
:100C500008B3002257218F4807F0CBFF01239FE004
:100C60004FF4807257218C4807F0C3FF01239D4247
:100C700084F85830E6D194F85830042B8DF81730AA
:100C800000F29180012B00F2958000F0A880FF23F4
:100C900084F85830A3E0204600F026FA0028DDD082
:100CA00004A807F0D1FC0146204607F06CFD18B1FE
:100CB0002A4657217948CFE704A807F0CEFC80F0F8
:100CC000010104AA2046C9B207F045FC02460028EB
:100CD000BFD104A807F0C1FC054660BB204604A9AB
:100CE000FFF7F0FE9DF8173084F85830033B012BD6
:100CF00006D8284600F00CF910B1FF2384F85830CC
:100D00009DF81730023B022B0BD8002000F0EAF8C8
:100D100038B1FF2384F858304521614807F069FF56
:100D2000FEE794F85830FF2BF6D00021204604AAA5
:100D300007F011FC92E79DF81770012F1ED11046A5
:100D400003F076F9831E022B054614D8FFF706FE42
:100D5000394680462046FFF71BFE07464046FFF710
:100D60000DFE504B1B689F4205D04F4B1D68AF4294
:100D700014BF0525012584F858507CE7FFF7EEFDE8
:100D8000012107462046FFF703FE05463846FFF7D8
:100D9000F5FD444B1B689D4214BF05239DF8173099
:100DA00084F8583067E7052B7FF471AF002000F01E
:100DB000AFF811E0204604A9FFF784FE94F85830FC
:100DC000DA1E012A34D8002000F0A2F800287FF4AF
:100DD0005EAF002000F086F800287FF458AF94F84A
:100DE0005830FF2B05D145212D4807F002FF07F0B1
:100DF0009FFB002294F858302C4F012B03921AD0FD
:100E00001146204607F0A7FBA8B13D68102200213B
:100E10000DEB020007F0CEFFE06C07F0F7FE206A52
:100E200007F0F4FEFFF7A2FD284608B0BDE8F08108
:100E3000022BD4D1CDE7FFF791FD0021804620465B
:100E4000FFF7A6FD05464046FFF798FDDFF8548002
:100E5000D8F800309D42D8D13B689D42D5D0124B86
:100E60001B689D42D1D0039B01330393039B012B4D
:100E700001D007F05DFB206A07F03DFA3071236A6C
:100E80005B683460D8F80050B360BFE754090020B5
:100E900010AF00009FAF00005DAF0000CBAF0000BF
:100EA000F5AF000008000020000000200400002032
:100EB00070B50B4E044660220021304607F07AFFE1
:100EC000FFF74CFD214605463046FFF781FE0446FC
:100ED0002846FFF753FDFFF749FD204670BD00BFD0
:100EE0005419002013B5094B01A913F8300000F084
:100EF000E7FE48B9019808F0FBFE0446019807F0A8
:100F000085FE204602B010BD0124FAE764A8000067
:100F10001FB50F4B01A913F8300000F0D1FEA8B99E
:100F2000019802A903F02EF8044668B99DF80B3029
:100F3000032B03D1019808F0A9FE0446019807F09D
:100F400065FE204604B010BD0124F7E70124F8E750
:100F500064A800002DE9F34106460C4617461D46DD
:100F60000BB9002628E0184607F077FB0028F8D1D7
:100F70006946FFF7B9FC009838B90124009807F0DA
:100F800045FE204602B0BDE8F08101A907F0B3FAA2
:100F90000028F2D1009807F039FE3046019907F099
:100FA00040FC736A5E686B79012B21D1002CD8D18B
:100FB0002B68834298BF002621460020FFF7A8FA3D
:100FC0006946C0B200F07CFE0028D6D120233A4604
:100FD0003146009807F01BFE04460028CDD1002DB5
:100FE000CCD03C680D4BE41A18BF4FF0FF34C5E776
:100FF000022BB6D12B68012B05D98342B1D8B4FAA4
:1010000084F46409ADE7ACD1002CD5D0012CA8D173
:101010002C79023C18BF0124A3E700BF3DB8F3962A
:101020002DE9F04F07460C4685B0014600201646D4
:10103000FFF744FC051E51DB3846E46D07F050FA1B
:101040005FFA84F94FF0000A4FF0010B4FF0FF34C4
:101050006B1E09FB03089DB9BAF1010F03DD4521A1
:10106000204807F0C6FD631C06D0FF2C2ADC40F2A6
:10107000011301343460B380284605B0BDE8F08F19
:101080006B1E00934146012338460DF10F0207F015
:10109000BEFD031E019323DB012238460DF10F0133
:1010A00008F08FFD019B40B15B4501D00AF1010AB8
:1010B0009B46009DA8EB0908CDE7B4F1FF3F08BFB0
:1010C0002C46F5E70223A4F580747371631004F0D5
:1010D00001040133013433603471CDE70725CBE7D8
:1010E0000125C9E701B0000070B5866A456D044668
:1010F00007F086FBAE420AD06B1CB34207D0834296
:1011000005D05721134807F074FD002070BDB6F5D7
:10111000807F1CD957211048F5E7626A216D02EBE8
:10112000C30201EBC30152684968914202D05721C2
:101130000A48E8E701339D42EFD1AE4205D9636A20
:1011400003EBC5035B689342F1D10120DEE7002386
:101150001A46F0E724B000005CB000008BB000003D
:1011600000B589B0032004A908F09DFD9DF810206A
:10117000012A41D0254B2649032A08BF0B469DF87A
:101180001320492102929DF81220224801929DF8D5
:1011900011200092204A07F02CFD092006A908F032
:1011A00082FD9DF81820012A28D0184B1849032ADF
:1011B00008BF0B469DF81B20492102929DF81A207A
:1011C000144801929DF819200092144A07F011FD6D
:1011D0009DF81030012B13D19DF81230032B0FD145
:1011E0009DF81830012B0BD00D48492107F001FD67
:1011F000022009B05DF804FB0A4BC0E7094BD9E7B0
:101200000948492107F0F5FC0020F2E7B7B00000DB
:10121000C0B00000D4B00000C6B0000015B100009E
:1012200025B10000BBB0000044B1000070B54B68B0
:1012300014461E4A03F0FF23934206460D4686B02D
:101240002FD10B68012B2CD1204604A902F09AFE65
:101250009DF81020012A26D0154B1649032A08BFF5
:101260000B469DF81320492102929DF81220124846
:1012700001929DF811200092104A07F0BAFC9DF8E7
:101280001030032B0DD12146304607F027FA2046B7
:1012900008F0FCFC2046A96807F03BF9204602F064
:1012A00051FE06B070BD064BDBE700BF0001000435
:1012B000B7B00000C0B00000D4B0000015B100000D
:1012C000BBB000002DE9F04F1646054689B00C462C
:1012D0007448492107F08DFC3146284607F0A1FAF1
:1012E0006B6A824620465E6807F0B7F9E8B1E86DA0
:1012F00007F0F1F80023AF6A013F3344834201D283
:10130000013FFAE7BA4510D35721674807F071FC4F
:1013100007FB06F357210AFB0662644807F069FCE5
:101320000123E37109B0BDE8F08F06A9032000F0A6
:10133000C7FC07A9092000F0C3FC21462846079AEC
:10134000FFF774FF6379012B4BD15746DFF860B18B
:1013500041E02268C2F1010353449F423AD86B6ACC
:10136000012A196853F8370003EBC70353F8083C08
:10137000A0EB0109A3EB0103049311D1079B039395
:10138000E368022B08D04146284607F0A7F9224619
:101390004146284607F0D8F92846039907F09EF9F8
:1013A00032464946404607F097F9049B424641467B
:1013B0002846CDE90096FFF7C9FB2146284607F0ED
:1013C00059F923680133236020B1DBF80030013381
:1013D000CBF80030013FDDF81880002FB9D1012390
:1013E0002360022301276371BA45DDF8189006D205
:1013F000484607F00BFC079807F008FC92E72368C3
:101400009F424DD36A6AFB0052F83710083B0491A3
:101410001168DDF81CB00391D1582A6DD0581368BB
:10142000A0EB03082379012B38D1039B3246C91A5C
:101430004846059107F050F9059943464A46009100
:10144000284659460196FFF781FB2146284607F0BA
:1014500011F90223237118B1154A1368013313607F
:1014600032464146584607F037F9DDE9032349463D
:101470009B1A28465A46CDE90086FFF767FB2146AE
:10148000284607F0F7F8236801332360012323710E
:1014900030B1074A13680133136001E0022BDFD03B
:1014A0000137A1E75BB1000084B10000B3B10000D7
:1014B000B41900200A4619B1024B00211B681847D5
:1014C000704700BF0C00002070B5094D2B780BB1A0
:1014D000002070BD0126074CC4F8006505F0E6FE4B
:1014E00018B92E70C4F80005F2E74FF0FF30F0E7AE
:1014F00060230020000084502DE9F041ACB01F466D
:1015000006460C461546FFF7DFFF0123DFF8208073
:101510002A46C8F8003521463346009703A808F04C
:10152000ABFF0023C8F800352CB0BDE8F08100BF48
:1015300000008450BFF36F8F72B600234FF0FF306E
:10154000094A03F120010133102B42F82100F8D1A0
:1015500000234FF0FF30044A03F160010133102BE8
:1015600042F82100F8D1704700E100E0002318465E
:101570000649D1F89020C2F30722934200DB70475E
:10158000C1F89830C1F8A0000133F6E700ED00E0A3
:101590002DE9F8434FF0FF3501274FF00008204BAD
:1015A000DFF884905F60C3F84853C3F8085303F52D
:1015B00080535F60C3F84853C3F8085359F8044B8D
:1015C000002644F30730C4F8085300F023FF8022BC
:1015D0006760C4F84C61D4F84C31C4F81061D4F899
:1015E0001031C4F844613146D4F84431A018C4F82D
:1015F000006507F0DFFB8022314604F5C07007F07C
:10160000D9FBB8F1000F08D0064BC3F808554FF0CE
:101610005023C3F80853BDE8F8834FF00108CDE725
:10162000004001500070015070A80000014B1B6881
:10163000184700BF10000020014B1860704700BF22
:101640001000002007B50B46002102460091034818
:1016500000F006F803B05DF804FB00BF2D16000093
:101660002DE9F04F82464FF000098DB01D46531E04
:1016700001910393039B58785C1C252819D1002005
:101680004FF0FF381E46444603460236029031783A
:101690000396392955D81F2914D8002900F0EF8165
:1016A00001992520D04701993078D04709F10209E6
:1016B000E0E7002800F0E3810199D04709F1010932
:1016C0000394D7E7A1F12002192AE9D801A757F816
:1016D00022F000BF3D170000A1160000A116000077
:1016E0003D170000A1160000BD170000A116000064
:1016F000A1160000A1160000A116000009180000A4
:101700003D170000A11600001D180000C9170000B9
:10171000A1160000D7170000F7170000F717000008
:10172000F7170000F7170000F7170000F717000081
:10173000F7170000F7170000F717000008460136FA
:10174000A5E7582900F0EB80A1F16302D7B2172F6B
:10175000A6D8172AA4D801A757F822F0C519000067
:1017600043180000A1160000A1160000A1160000F9
:101770002318000043180000A1160000A116000065
:1017800023180000A1160000A1160000A1160000F9
:10179000F9180000A1160000A11600009919000018
:1017A000A116000043180000A1160000A1160000B9
:1017B000F9180000A1160000231800002520019947
:1017C000D04709F1010955E7029A4FF0000802F0ED
:1017D000FE020292B3E7002C0DDAB8F1000F0DDA29
:1017E000029A002A00F043810A2224EAE47402FBF0
:1017F0000414303CA3E7B8F1000FF5DB0A2202FB2A
:101800000812A2F130089AE7B8F1000F55F8042B3E
:1018100080F22F81002A80F22E815442022202920D
:101820008DE7682903D1682B06D1482387E76C2907
:1018300002D16C2B00F02181002B7FF431AF0B46DD
:101840007DE77A2B06D1752955F8046B14D14FF03A
:10185000000B0CE06C2BF6D04C2BF4D1073525F0A7
:101860000703752903F10805D3E9006B06D1202889
:101870003BD1854F013C09E04FEAE67BBBF1000F0D
:10188000F5DA7642814F6BEB4B0B013C0DF12D03EA
:10189000059300230493304659460A220023FEF79D
:1018A00051FC059BB446303203F8012D5A4605938E
:1018B000049BBCF10A0F8B4672F1000203F1FF3169
:1018C00006460491E7D2C3F1010B30330DEB03065A
:1018D000B8F1000FA6F104066DDA029BD9077DD49A
:1018E000A8EB0B03A4EB0B0413E02B280ABF684FF3
:1018F000684F04F1FF34C9E770290FD155F8042B64
:101900000023FAB96FF004034FF0050B614F624EEC
:10191000053C029A920770D4A04666E078216C2BB1
:1019200003D1002355F8042B08E04C2BF9D10735DF
:1019300025F007031D465B6855F8082B232825D1A1
:10194000880621D5554F023C002601F06001A1F127
:10195000390B0DF12D0E02F00F01092988BF5944F2
:1019600030310EF8011D102A4FEA121141EA0371BD
:101970004FEA131C73F1000306F1FF3008D2C6F1E1
:10198000010B06F13003A1E7454FDCE7414FDBE7F0
:1019900006460A466346DEE755F8046B304607F014
:1019A000E7F9B8F1000F834602DB4045A8BFC34604
:1019B0004FF00008374FA8EB0B03002B92DDA4EB90
:1019C0000804A6E755F8043B4FF0010B8DF81830DA
:1019D000304F4FF0FF33013C06AE9AE7A046EAE7EE
:1019E000029320200199D047029BB8F10108F7D556
:1019F00024EAE472013C9144A41AB84606E0049338
:101A000002920199D047029A049B9046424612F8EE
:101A1000010B0028F3D11A46013A15D5002BACBFB3
:101A2000C7EB03077F425B46013B15D5BBF1000FB7
:101A3000A8BF5F4426464F44013E14D5002CA8BFE2
:101A40003F1907EB080915E604930292302001992B
:101A5000D047049B029ADFE70293019916F8010B25
:101A6000D047029BE0E701992020D047E4E701221C
:101A7000D5E6904663E6144661E64C235FE64846A9
:101A80000DB0BDE8F08F00BF41B200003FB20000D2
:101A900043B2000000B000004BB2000045B20000AD
:101AA00048B200002DE9F047058B04462807904610
:101AB00011D4022905F0070540F0CC80204606F03D
:101AC000BFFF78B10138218B042811D8DFE800F07E
:101AD000C2106D85950001290CBF45F0100545F039
:101AE0002005258388F31188BFF36F8FBDE8F08749
:101AF00001F0070AAA4500F0A5800027B9463E4636
:101B0000A368002B00F0BC8041F00801218388F31A
:101B10001188BFF36F8FA168002900F0BA800D68AB
:101B2000002900F0B680334652462046D1F80480A2
:101B3000C047002D76D02B6829461D46F0E701F0FE
:101B400007035A1F012A1BD8002221F00701062B88
:101B5000276889B2C4E9002209D13B4603E0628BC1
:101B6000013262831B68002BF9D141F0020120464B
:101B7000218306F065FF00287AD041F0200176E04D
:101B8000042B0AD121F0070189B22046218306F0F7
:101B900057FF10B141F020012183218B01F0070A8A
:101BA000AA454FD00027B946AAE7236921F00701CB
:101BB00041F00601062DD3F8009021832DD1B9F113
:101BC000000F3FD041F00801218388F31188BFF353
:101BD0006F8F20463949C84729E021F00701236962
:101BE00041F0040189B2042DD3F804902183E6D09A
:101BF00000274FF0040A3E4682E721F007012369DF
:101C000041F0050189B2052DD3F808902183D6D083
:101C100000274FF0050A3E4672E700274FF0060AFC
:101C20003E466DE72B4687E7B9F1000FD1D1EFF3C0
:101C30001188202383F31288BFF36F8F238B23F047
:101C400008032383258BEA062ED525F01003238372
:101C500005F007056669218B002EBFF670AF0023E3
:101C60002768C4E9003321F0070141F00101218315
:101C7000218B4FF0000901F0070AAA457FF440AF1D
:101C8000002F9CD041F00801218388F31188BFF315
:101C90006F8F002FC8D03D683946334652462046E4
:101CA00006F0FAFE2F46F4E7AB067FF51BAF25F0F2
:101CB0002003238305F0070500E700BFC58A000065
:101CC00070B5114B0D461C68DCB1104B1968002330
:101CD0008B4202DB6FF0010070BD224612F8106BE0
:101CE000864202D014460133F2E7E06810B96FF083
:101CF0001200F1E708F0D8F90028F8D000202C6095
:101D0000EAE76FF00C00E7E71400002078A8000075
:101D100070B588B005460C46C0B269461646FFF756
:101D2000CFFF00281BDB0098C8B1436822680293EC
:101D300083680195CDE903360023CDE90623059399
:101D4000C56806F063FF6DB12846084901AA07F08F
:101D50008CFB079808B9059B236008B070BD6FF035
:101D60001500FAE76FF01200F7E700BFB38C000030
:101D700008B5054806F04DFE044806F04AFEBDE8E9
:101D80000840034806F045BE51B2000082B2000090
:101D9000B5B20000014804F0FFBE00BF4CA900002E
:101DA00038B5044618B90F4B0F485B68984761680F
:101DB000B1F5683F10D0B1F5680F0DD00B4DA942B9
:101DC0000AD011F46861206807D00146084808F07D
:101DD000C6F900232360656038BD142206F0EAFFCF
:101DE000F9E700BF28010020E3B200002C5F5CA9E6
:101DF000B81E002008B500B34368B3F5683F0CD1A6
:101E000001220368D3E8EF1F002903D1C3E8E02FC4
:101E10000028F7D10DD1002008BD094A93420AD00D
:101E200000684FF0FF324FF0FF3303F0FFFE002851
:101E3000F1D00448F0E70448EEE76FF4E040EBE748
:101E40002C5F5CA9E98FFFFFEA8FFFFF08B5B8B1EF
:101E50004368B3F5683F0CD100220368D3E8EF1F55
:101E6000012903D1C3E8E02F0028F7D10BD10020CE
:101E700008BD074A934208D0006803F04FFFF6E719
:101E80006FF4E040F4E70348F2E70348F0E700BFEF
:101E90002C5F5CA9E98FFFFFEA8FFFFF10B50446B6
:101EA00018B91D4B1D485B6898476368B3F5683FD8
:101EB0002FD0B3F5680F2CD0194A934219D123685B
:101EC00003BB4FF0FF324FF0FF332146154803F0BC
:101ED0007FFE08B923681BB90F4B13485B6898470E
:101EE00014220021206806F065FF4FF468636360E8
:101EF00008E0B3F5683F0DD83A2B03D040F6BA623C
:101F00009342DED1206808F062F9636843F03A0337
:101F1000636010BD054AF3E728010020E3B200002A
:101F20002C5F5CA9B81E002009B300003A00003AFB
:101F300008B5064940231422054808F002F9BDE817
:101F400008400449044804F099BE00BFB8190020B5
:101F5000B81E002054A9000068A9000030BFFFF798
:101F6000FDBF00BF074A936893F90E10002907DBF5
:101F7000926993421FBF044A536843F080535360F1
:101F8000704700BF4820002000ED00E0154B9A6A22
:101F900012F0007F9A6A14BF1E201D2012F0807F6D
:101FA0009A6A18BF1F2012F4801F9A6A18BF022075
:101FB00012F4002F9A6A18BF212012F4802F9A6A17
:101FC00018BF222012F4003F9A6A18BF232012F48F
:101FD000803F9A6A18BF24206FEA02426FEA1242D9
:101FE0009A62704700ED00E010B5194B0246986AFE
:101FF0009C6A10F4805F14BF1720162014F4006F41
:102000009C6A18BF1820A40509D5986B986A00042B
:1020100004D51AB19A6A22F400429A6219200C4B34
:102020009A6A12F4806F9A6A18BF1A20D2050CD4EB
:102030009B6A13F4005F18BF1C20054A936A43F49F
:102040007F43936200230B7010BD1B20F5E700BF98
:1020500000ED00E010B51C4B0246986A9C6A10F037
:10206000100F14BF1120102014F0080F9C6A18BF25
:102070001220A40709D5586B986A000604D51AB136
:102080009A6A22F080029A6213200F4B9A6A12F029
:10209000010F9A6A18BF142012F0200F9A6A18BF15
:1020A0001520D40658BF9B6A074B9A6A920642BF16
:1020B0005A6A22F400525A629A6A42F0FF029A6205
:1020C00000230B7010BD00BF00ED00E070B5444B65
:1020D00006465B6800259CB0C3F3080385F31188AE
:1020E000BFF36F8F02F07F40B0F17F4F11D102F04C
:1020F0000C0008280DD010074CBF0E460125002209
:10210000033B8DF80720032B05D8DFE803F01E5CA6
:1021100060592E46F3E700249DF807309BB96822EA
:10212000314602A806F03BFE099B002D53D0C3F3B5
:10213000080222B96FEA53236FEA4323099320462A
:1021400002A906F0D9FD1CB070BD254BDA6A9107D3
:10215000E1D4DA6A002ADEDBDA6A5200DBD55A699A
:10216000B16942F480725A61BFF34F8FBFF36F8F32
:102170005A6931F8021C22F480725A61BFF34F8F02
:10218000BFF36F8F4DF60272914209D09A6AD2B2B4
:1021900042B101200DF10701FFF75CFF0446BBE7E8
:1021A0003468B9E79A6A12F47F4F05D001200DF127
:1021B0000701FFF719FFF1E79B6AB3F5803FAAD348
:1021C000FFF7E4FEEAE700200DF10701E4E7002055
:1021D0000DF10701EDE723F4FF7323F00103ADE7F1
:1021E00000ED00E0064B5A6942F010025A615A694C
:1021F00042F480625A615A6922F008025A617047BB
:1022000000ED00E0EFF30880EFF3098101B57246BD
:10221000FFF75CFF01BD00BF002080F31488BFF30F
:102220006F8F002080F30A8880F30B8801F0BEFFD7
:1022300000200E490860BFF34F8F0D4880F30888D7
:1022400000F01AF8202080F311880A484FF400614A
:10225000401880F30988EFF314800221084380F3CB
:102260001488BFF36F8F00F00DF9000094ED00E0CB
:10227000C85400208823002072B6002383F31388FB
:102280004FF0FF300C4A03F120010133102B42F8CC
:102290002100F8D100234FF0FF30074A03F160011D
:1022A0000133102B42F82100F8D162B6BFF34F8FF3
:1022B000BFF36F8F704700BF00E100E0084B9B68E1
:1022C00083420BD1EFF3058343B1064B5A6842F0CA
:1022D00080525A605A6A22F400425A6208F06DB87D
:1022E0004820002000ED00E06FF00A01084A9368E2
:1022F0009967084958674B6843F080534B60002347
:1023000083F31188BFF36F8F9368986F704700BF96
:102310004820002000ED00E00E4A936883F8BD00DD
:10232000EFF31183202383F31288BFF36F8F4FF0F5
:102330000061936920F0FF009360074A516000211B
:1023400093F8BD2010435A6F596782F31188BFF389
:102350006F8F70474820002000ED00E01D498A681B
:1023600082F8BDE04FF030001044EFF3098C80E8B4
:10237000F01F1EF0100F03D102F17C0080EC108AD8
:1023800074467046FFF7C8FFA64612498A6886461B
:102390001EF0100F03D00023E1EE103A03E002F12B
:1023A0007C0090EC108AEFF3148323F0040383F392
:1023B0001488BFF36F8F02F1300090E8F01F8CF3A8
:1023C000098802F1000004B506F0ABFCBDE804404A
:1023D00070470000482000201EF0040F0CBFEFF3F0
:1023E0000880EFF30980816911F8021C0229FFD0EF
:1023F00001B506F087FC01BD40B2002807DB0123D0
:102400004109034A00F01F00834042F82130704721
:1024100000E100E040B200280CDB0122064943093C
:1024200000F01F008240203341F82320BFF34F8F7C
:10243000BFF36F8F704700BF00E100E0054B42091A
:1024400053F82220012300F01F0003FA00F010408F
:10245000704700BF00E100E040B2002801F1010137
:10246000ACBF00F16040064B4FEA4111C9B2ABBFAF
:1024700000F5614000F00F0080F800131954704718
:1024800014ED00E0144A08B5144B22F07F029A6064
:10249000BFF34F8FBFF36F8FD3F8882022F4700201
:1024A000C3F88820D3F8882042F4A002C3F888201B
:1024B0004FF04042C3F83422BFF34F8FBFF36F8F0A
:1024C0000023E1EE103A03F0C7FA04F0A9F900F096
:1024D0007DF803F001FB00BF0000000000ED00E00C
:1024E00042F8203C009B0D4942F81C3C019B21F026
:1024F000010142F8183C029B42F8081C42F8143CC7
:102500004FF0807342F8043C002343674FF47D434F
:10251000203A0265C0F8BC30704700BF2D8A000029
:10252000104B9B6883421AD1EFF30580B8B9EFF3E3
:102530001181202282F31288BFF36F8F1A7B22F061
:1025400002021A73EFF3148323F0040383F3148855
:10255000BFF36F8F81F31188BFF36F8F70476FF0F8
:1025600015007047482000200E461546002300B590
:10257000E1EE103AEFF3148323F0040383F314889D
:10258000BFF36F8FBFF36F8F0A4B9860436E83F377
:102590000B882C4686F309884FF00000064B9847BD
:1025A00020464FF000014FF000024FF00003034CB3
:1025B000204700BF482000202B8D00002D8A0000FE
:1025C0001022014B1A61704700ED00E0002320212A
:1025D0000348C2180133412B82F80013F9D1704728
:1025E00000E100E008B5EFF30583064A103B02EB7B
:1025F000C30152F8330049688847BDE80840FFF737
:10260000B1BC00BF0CA60000014B1860704700BFB2
:10261000380000200122024B0020C3F840257047FB
:102620000090035020B1034B800143F00103184791
:10263000704700BF40A80000084B70B5C31A0D4694
:1026400007499B10044659434022064806F0C7FB41
:102650002B4601462046BDE870401847E81E002082
:10266000B76DDBB658A50000402373B50B4C009343
:10267000041B0B460D460A49A41061430646094A4D
:10268000094806F0D7FB011E05DA30462B4602B09A
:10269000BDE87040184702B070BD00BFE81E0020C2
:1026A000B76DDBB69D8E000058A5000010B5EFF3A6
:1026B0001184202383F31288BFF36F8F074A1368B6
:1026C00023F00201DB07116002D4012007F09CFB1C
:1026D00084F31188BFF36F8F10BD00BF381F002037
:1026E00070B50022012104460520FFF7B5FE0F4812
:1026F00001F08CFE0E4B984215D101F097FE266931
:102700000C49304606F0ECF900280BDB0125356456
:102710002469084904F11C0006F0E2F9002801DBF5
:102720000020E56470BD6FF00400FBE73528000071
:102730000000AD0B78A900001FB500220123CDE9F0
:1027400002236B46084ACDF800D0CDF804D006F03D
:102750009EFB002805DB4FF480420023684603F00F
:102760003DFB05B05DF804FBBD8E00000C22104B54
:10277000014602FB0033002030B4D3E90E529863C7
:10278000EFF31180202484F31288BFF36F8F1C6C49
:1027900004F0C00444F002041C6480F31188BFF309
:1027A0006F8F1DB12B4630BC0248184730BC7047B4
:1027B000E81E002058A5000010B4EFF3118220237A
:1027C00083F31288BFF36F8F1848016841F0020449
:1027D0000460C80708D482F31188BFF36F8F01200B
:1027E0005DF8044B01F036BE4FF05021D1F80C04D7
:1027F000D1F80C14C907EED5EFF3118083F31288DA
:10280000BFF36F8F0A490B6C03F0C00343F0020360
:102810000B6480F31188BFF36F8F82F31188BFF3CD
:102820006F8F00205DF8044BFFF7A0BF381F00201A
:10283000E81E002010B1012804D07047034B1B6C28
:102840005B0701D1FFF792BF704700BFE81E002071
:102850002DE9F041012207463649D1E8EF3FC1E8B2
:10286000E02F0028F9D133B9334934484B60CB60AD
:102870008A6006F048F97B1E012B2BD8012F07D167
:102880004FF05023D3F81C3403F00303022B21D064
:1028900007F0E5FC0546F8B9294B1B78E3B14FF08A
:1028A000502302220646C3F808234FF05024DFF8D5
:1028B0009480D4F81824D4F81834D20315D503F032
:1028C0000303022B01D0012F0FD16DB386F31188C2
:1028D000BFF36F8FBDE8F081EFF31186202383F300
:1028E0001288BFF36F8F0125DFE7C5B1304606F0D0
:1028F00030FAD4F81835DBB2012BDAD1D4F8042140
:10290000002AD6D00022C4F80421D4F804210222DF
:10291000C4F818252022C8F88021A360C9E7002147
:10292000212003F0C1FEE4E74FF050230222C3F858
:102930000423CFE7E41E0020D41E0020041F002043
:102940008323002000E100E008B5074807F0ACFB56
:1029500038B10648FFF758FE0448FEF76DFE002028
:1029600008BD6FF01200FBE780A500007129000090
:102970000A2838B50446074D04D1AB680D21284616
:102980005B689847AB6803485B68E1B298472046AC
:1029900038BD00BF80A500000048704700AA0000B5
:1029A0002DE9F34743680F1E05461646D3F81890E5
:1029B0007DDBBB184B457AD847EA0204C4F30B040D
:1029C000002C74D1006906F084FA2146284606F0EE
:1029D000CDFA4FF0FF3A0446002E45D1012128469A
:1029E00006F0C4FA002C08BF0446286906F06FFA06
:1029F000204602B0BDE8F08780462E4B5A7882B15F
:102A00000AFA02F137EA01010BD101219140B142EA
:102A100007D8B8F1000F1ED098F80110914238BFC6
:102A200098460134042C03F10203E7D1B8F1000FFA
:102A300013D00023812298F800102846CDE90033F6
:102A40003B4606F04CFA012398F8012004469340D7
:102A50001F44F61A21E09846E3E76FF015040121C0
:102A6000284606F083FAC0E7002CF8D12346CDE9CA
:102A7000004480220621284606F031FA0446002848
:102A8000EDD1B145B8D10346CDE900008022C72180
:102A9000284606F024FA00260446002CDFD140F236
:102AA00067620023284606F08FFA044694E76FF029
:102AB00015049DE759B30000024B0B60012313601E
:102AC000704700BF541F0020004870471CAA000038
:102AD00010B501220648114607F080FB07F0FBF90C
:102AE000044C206007F0F4F96060002010BD00BFC6
:102AF0005C1F0020541F002070B50C46154607F0DF
:102B0000E7F929460646204606F053FC08B3B4FB15
:102B1000F6F306FB1343E3B9B5FBF6F306FB1353D9
:102B2000BBB9AE4201D9002070BD4FF0FF324FF06B
:102B3000FF33094803F052F907F0CAF90646204668
:102B400002F0ACF8AD1B3444F9D1034803F022F98C
:102B5000E9E76FF01500E7E75C1F0020F8B50E46C7
:102B60001946304617461C4606F023FC08B344EAD3
:102B7000060515F003051CD1A4B14FF0FF324FF04C
:102B8000FF330D4803F02AF924F00304A54206EBB5
:102B9000050009D1094AD2F80034DB07FBD5064805
:102BA00003F0F8F80020F8BD795902F095F80435E3
:102BB000ECE76FF01500F6E75C1F00200090035073
:102BC00038B545682B69B3B11035284601F042FF8E
:102BD000044680B90146284601F00AFF084B984296
:102BE0000BD122462846074901F0EAFE224605217C
:102BF0000D20FFF731FC002038BD6FF00400FBE72B
:102C00000000AD0B092C0000430970B507D10B4B38
:102C1000596821B101250C68094E854001B970BD84
:102C20008A682A4002D030464B6898471CB1236816
:102C300021461C46F2E72346FAE700BF701F00203A
:102C40006CA500002DE9F04340F206354668D00639
:102C500048BF0320337B02EA050558BFC2F340108A
:102C600087B001F01F07B5F5837F144647EA431785
:102C70008DF8030042D00FD8062D18D007D8B5B173
:102C8000022D3DD06FF0150007B0BDE8F083B5F51B
:102C9000807FF7D101250AE040F20222954231D02F
:102CA000B5F5407F30D0B5F5007FEBD1022501238B
:102CB000220303FA01F129D573689960326952BB86
:102CC00007F01F037F0973D13B4A84F4803102EB84
:102CD0008302D2F80032C1F30041C4F3404423F42C
:102CE000E16344EA410423F007031C4344EA8004FF
:102CF00044EA0524C2F800420020C5E70725D6E7CC
:102D00000425D4E70525D2E70325D0E7630344BFB4
:102D10007368D960D2E71036394630460DF10202A9
:102D200001F054FE14F4403F80460CD13946304641
:102D300007F0C4F8214B9845DED130469DF80210CB
:102D400001F092FED8E74FF0000901AB394630465A
:102D500003AACDE90439CDE90199CDF80C9001F031
:102D600009FD164B98428DD114F4003315D09DF80F
:102D7000033084F48034C4F300448DF80E303946B7
:102D80004B46304603AA8DF80C508DF80D4001F0EB
:102D90009FFD0A4B9842CDD074E7CDE90433394604
:102DA0000DF10303304603AA039301F0E3FCF0E7BF
:102DB000803352F82330FFDE002584500000AD0B35
:102DC000F0B5406801F01F04057B87B044EA451464
:102DD0000569002D5FD0B2F5001F00F1100506D186
:102DE0002146284607F06CF8002007B0F0BD002708
:102DF000B2F5800F01AE0197776037D1B3F1007F54
:102E000014BF052304238DF804300023CDE90463A7
:102E10000393836823FA01F111F0010118D1B2F193
:102E2000A07F15D104F01F03620903F1800338D19C
:102E30001D4A52F82330DB070AD40DF1030632464F
:102E40002146284601F0C2FD184B984219D002963F
:102E50002146284603AA01F08DFC154B98421DD14E
:102E600001222146284601F00BFEBDE7B3F1C06FF9
:102E700005D0B3F1007F14BF01230223C3E703236E
:102E8000C1E73146284601F0F5FD094B9842DED0F6
:102E90006FF00B00A9E76FF08500A6E76FF0150053
:102EA000A3E751F82330FFDE002584500400AD0B6A
:102EB0000000AD0B02780B69012A08D0022A08D065
:102EC0004AB9064A1A6203F1100002F063BF044ACD
:102ED000F8E7044AF6E7044AF4E700BF0000AD0B48
:102EE0000100AE0B0200AE0B0100AD0B2DE9F04F5F
:102EF00087B0049343680546D3F828B09B8B0C46F3
:102F00009046076903934FF0FF324FF0FF33384686
:102F100002F064FF07F11003029300260023002251
:102F2000029802F05BFF3346464501D300234EE092
:102F3000207A010775D40136464521680BD28207F5
:102F400009D4227D80EA020C0CF0010C02F004028C
:102F50005CEA020C08D023B901F06042B2F1005FD4
:102F60001BD04FF0000901E04FF00109D4F804E054
:102F7000039A03EB0E0C944556D8C20706D40BEB0C
:102F800003007246059305F00AFF059B62681A4428
:102F900093B2B9F1000F2ED113BB4FF00009D4F852
:102FA00000A0A388049A217A28460092524600F095
:102FB00061F8031E0BDB4FF480420023029802F0FD
:102FC0000DFF80B1284600F035F86FF0040302933E
:102FD000384602F0DFFE029B184607B0BDE8F08FCE
:102FE0009946DA46DEE73B6A114A9342EDD1237AED
:102FF000DB0702D400230C3496E7D345FAD12346ED
:103000000AE0A9EB0201D8681FFA81F91AFA81F1E6
:10301000059305F0C4FE059B5A680C3B9145F0D220
:10302000E8E76FF08503D2E76FF01B03CFE700BF3F
:103030000000AD0B70B5446823682046D3F80855EE
:10304000D3F80C6502F078F93146284602F00AFC04
:1030500005460021606A06F050FB204602F05CF94C
:10306000034B9D4214BF6FF00F00002070BD00BFE6
:103070000000AD0BF0B50C461D46164687B04768FC
:10308000122200210DF1060005F094FE04F0010368
:103090008DF80430BDF8303002958DF80530BB8DC9
:1030A0000496AB4214D384F00202C2F340023846C5
:1030B000520101A902F05EF9084B98420BD00B3384
:1030C000984214BF6FF004006FF00F0007B0F0BD1E
:1030D0006FF01B00FAE70020F8E700BF0000AD0B1F
:1030E00038B5044645682B6A98470121686A06F09E
:1030F00004FB23462846AA6905F1080102F0D2F82C
:10310000064B984206D10121204606F01CFB00EA3E
:10311000E07038BD6FF00400FBE700BF0000AD0BAE
:103120002DE9F041456804460669286806F0BCFFB1
:1031300018B96FF01200BDE8F081304607F047F88B
:103140007461AB68BBB904220B2120466B7C06F08E
:1031500056FB0028EFDB06220B212046AB7C06F055
:103160004EFB0028E7DB01232046BDE8F0411A466C
:103170000B2106F044BB0523062120462A7C06F0DD
:103180003EFB0028D7DBA86806F08EFF0028D0D0D1
:10319000EB89A868297B43F480320127D0F810C05E
:1031A00013F0010FDCF8003007FA01F714BF3B43BE
:1031B000BB43D0F808E0CCF80030DEF80030984788
:1031C0000028B8DB01272B7B144A07FA03F3C6E972
:1031D0000723A86806F118018368DB6913B96FF04B
:1031E0005700A8E73A4698470028A4DB0C4BB36287
:1031F000A868297B826803699669002EEFD01B6856
:103200008F401F4214BF4FF000734FF080634FF0A8
:10321000A072B047002896DA8DE700BF79970000CA
:1032200025320000262300222DE9F04F044650F8F5
:10323000100C91B0D0F804901146009306AB06F044
:10324000B5FA002805DA204602F000FF11B0BDE80B
:10325000F08F0026234F97F8008097F801A008F11F
:1032600040036B4413F8273C1AEA030F13D021697B
:1032700031B1012354F8100C0D6803FA06FB11BBA1
:1032800008F101025346002154F8100CD2B206F0A6
:10329000B6FA0028D7DB01360E2E07F10207DAD185
:1032A000D9F8080099F80C500669836805A95B688D
:1032B00098470028C7D1059B32685A400123AB408C
:1032C0001A42C3D0BFE78A681BEA020203D04B68E8
:1032D0000390984703981DB12B6829461D46CEE7F9
:1032E0002B46FAE7A5B300002DE9F04740F2FF16A0
:1032F000594FDFF868C1DFF868E100EB81018142D6
:1033000002D10020BDE8F087046814F4804FC4F3B4
:10331000C325C4F3080340F08C80240EB34208BFD9
:103320004FF0FF337D5D192C00F28680DFE804F05A
:103330000D13191C1F251C848484843660848484A6
:1033400084848484848463787B7EC2F80C355C1C1E
:103350005BD10430D3E7C2F814355C1CF9D00024EB
:103360005CE0C2F80835F2E7C2F81035F5E75C1CFE
:10337000C2F80835EDD0002404E05C1CC2F80C351E
:10338000E7D001245FEA531859D14FF00109DFF863
:10339000CC8009FA03FAC8F80CA008E0C2F8083596
:1033A000002DDAD15C1CD4D000240625A146D0F82B
:1033B00000A00AF40048B8F1000F1CBF4FF000094C
:1033C000012403F01F085B093FD10CEB8808D8F8F3
:1033D0000032CAF3412A03EA0E0343EA8A0343EAAE
:1033E000052343EA090343EA4403C8F80032B0E77F
:1033F000C2F80C35D4E7C2F86035B3F1FF3F04687A
:10340000A7D0C4F30044002CBBD05C091AD101241E
:10341000DFF8488004FA03F9C8F80890A146C6E727
:10342000C2F86435E9E7C2F86835E6E7C2F86C35FA
:10343000E3E76FF0150065E76FF0850062E70023B2
:10344000DB60FFDE00239B60FBE7002308F18008C0
:1034500053F82830F5E700BFC1B3000000258450C1
:10346000F0F8FCFF2DE9F04104460D46476806F0F0
:10347000F6FE4FF0200888B9264B1B7873B16426FE
:10348000606806F0F8F9F0B9012006F05BFC013E37
:10349000F6D10021212003F007F9F0E7EFF31186C0
:1034A000314688F31288BFF36F8F606806F0E3F946
:1034B000A8B986F31188BFF36F8FEFE786F3118801
:1034C000BFF36F8FE5E7EFF31186314688F312887B
:1034D000BFF36F8F606806F0CEF90028EED0BB69AD
:1034E00000201D706368BA691B68C3F84425012277
:1034F000C3F84825C3F82001D3F82041C3F8580188
:10350000D3F858019A6081F31188BFF36F8FBDE83B
:10351000F08100BF83230020F7B50546002201217A
:103520000820FEF799FF0820FEF766FF6A68136916
:103530001168C1F82435137D507D927D03431343F8
:10354000C1F86C356E68D6E9004313F0010348D02A
:103550002F6907F1080000F053FF304B98425AD111
:10356000387A04F10C0204F5907106F0EDFB387A1C
:10357000012707FA00F000F03DFF0823C4F80035EA
:10358000B369C4F844350023C4F84835A760D4F8BB
:103590005831002BFBD00021C4F800156B6801AA3C
:1035A000DC68204606F03AF9002805DB019B22681A
:1035B00019791868FFF798FE08216A681368C3F83C
:1035C0000015117A51B9D269C3F834250122C3F824
:1035D0003825C3F81011D3F810111A60002003B079
:1035E000F0BD0822C4F80025B269C4F84425C4F827
:1035F00048350123A360D4F82031002BFBD00023F1
:10360000C4F82031D4F820310123E3604FF48073F3
:10361000C4F80433BBE76FF00400E0E70000AD0B33
:103620002DE9FF4105690646D0F80480A86C2B6D92
:10363000002835D1002B53D0B8F830406A6C9C423A
:1036400028BF1C46EF6CEB6C53B1296D41B107F0FC
:103650006041B1F1005F03D0082C28BF08246F6ED1
:1036600000926A6CAC651AB1AA6C002A18BF224697
:10367000CDE901271BB12B6D002B18BF234600227B
:1036800069464046039301F0DFFC184B984229D06D
:103690006FF00401304604B0BDE8F04106F0F8B91F
:1036A000696CEF6C0A46B8F83040ABB1834228BF72
:1036B00003469C4228BF1C460029C4D001F0604349
:1036C000B3F1005FBFD0082C28BF0824286E224623
:1036D00005F065FB2A6EB6E7844228BF0446EBE797
:1036E0001946D7E704B0BDE8F08100BF0000AD0B7C
:1036F0002DE9F04F984643688DB001938B880F46B3
:10370000990405469146046900F10E814FF0FF329D
:103710004FF0FF3304F1100002F060FB6760D5F852
:1037200004B0D5F810A0DBF8083003939AF85D30A8
:103730001BB1DAF800309F427AD0B7F804E01EF4EB
:10374000006F40F01E811EF0090F40F01781CEF38C
:103750004513082B40F012813B680293029AA04B5C
:103760009A4240F20B8104AE0BF10C0CBCE80F0046
:103770000FC69CE80F0086E80F00DDE902329A428E
:1037800028BF1A46974B9A4215D2974B9A4200F29D
:10379000D480964B9A4200F2D280954B9A4200F226
:1037A000D080944B9A4200F2CE809348934B944938
:1037B000824288BF0B461EF0020F09930EF00403ED
:1037C00000F0C380002B14BF032302238DF82830A0
:1037D000CEF300138DF82930DBF800301EF0020F15
:1037E000D3F8082587484FF00103CEF340014FEA94
:1037F000521640F0AE80002E40F0ED809340C36042
:103800009AF85D302BB1584601F0E2FB00238AF8AC
:103810005D302B4658467C4A04A901F0A5FB7B4B42
:10382000984240F09B800123CAF800708AF85D300E
:10383000012384F85C30019B996B4A1C03D003F18F
:103840003C0000F01DF9B9F1000F40F09D80C4F874
:1038500034900023A36304F1480204F1380104F119
:10386000340006F03EF86064B8F1000F40F0958037
:10387000C4F83C800023236404F1500204F14001A9
:1038800004F13C0006F02DF8002601213246E064E8
:103890002663204606F05BF82846FFF7C1FE324655
:1038A0003346A06B834240F0818000231946266C8A
:1038B000B14240F08280934238BF134627464FF40E
:1038C000FA524FF0000802FB03F657F8203B4FF482
:1038D000004C1B684146B6FBF3F640F2E730C836B1
:1038E0004FF47A720023E6FB0C01FCF72BFC024636
:1038F0000B46384602F072FA024618B9266B16F1EA
:10390000740F61D10198C4F8588001F061FB6FF029
:103910007301284684F85D8006F0BAF8384602F054
:1039200083FA6FF073061BE0A369002B7FF4EEAE01
:1039300063689F427FF4EAAEF1E6354B3BE7354BD7
:1039400039E7354B37E7354B35E7003B18BF0123E7
:103950003CE7002E41D19340836051E76FF00406AD
:1039600023689B8813F4005304D1636004F11000B2
:1039700002F010FA30460DB0BDE8F08F6FF015067A
:10398000EEE76FF08506EBE7D9F800306363002BB4
:103990003FF45FAFD9F804305CE7D8F80030E36358
:1039A000002B3FF467AFD8F8043064E7616B01EB9C
:1039B000C301496801330A4474E7E06B00EBC100BE
:1039C00040680131034473E7002EC9D001462869DD
:1039D00005F0BDFFC4E7C960FFDE00239B60FBE785
:1039E00047E8010000127A00FF083D007F841E00B6
:1039F0003F420F001FA107008FD0030048E80100DD
:103A000090D0030000258450B39A00000000AD0B55
:103A100000093D0080841E0040420F0020A10700E5
:103A20000123F0B587B08DF80230022300248DF811
:103A300004306B4403930F4601AB0DF10301049373
:103A400005460291059401F015F80C4B0646984284
:103A50000FD13946284603AA00F08CFEB0420BD0A5
:103A600028469DF8031000F0FFFF6FF0040007B038
:103A7000F0BD6FF01200FAE72046F8E70000AD0B4A
:103A80002DE9F0410D46064606F01CFA00220746D5
:103A90002946304600F0F4FF6B0905F01F0429D1D8
:103AA000174B03EB8404D4F80022164B134043F069
:103AB0000C03C4F8003206F061F880463368DB5925
:103AC0007BB100273046294606F0FAF9D4F80022E7
:103AD0000C4B3846134043F00403C4F80032BDE8F1
:103AE000F08106F04BF8A0EB08000628E6D96FF04D
:103AF0007307E7E70023803453F82430FFDE00BF6C
:103B000000258450F0F8FCFF0123834070B5DC43AE
:103B10000B4AD2E8EF1F01EA0405C2E8E65F002E77
:103B2000F7D14FF4803282400648C0F80823BFF333
:103B30005F8FBFF36F8F0B4214BF0120002070BD59
:103B4000EC1F00200050015070B40E4922F07F4657
:103B5000D1E90034D01AC31844F10004C1E900349B
:103B6000A6F50013B3F5400F09D2074B1B681A0ADC
:103B70001B069C19054B42F10005C3E9004570BCCA
:103B800002F028BF00020020F01F002008020020E1
:103B9000D9B101230D4A8340D2E8EFCF4CEA030CA0
:103BA000C2E8E1CF0029F7D14FF48033084A8340BF
:103BB000C2F80433074BD3E8AF3FC340DB0742BF33
:103BC0004FF40012044BC3F800217047EC1F002093
:103BD00000500150E81F002000E100E00D4B186884
:103BE000010A0006BFF35F8F0B4BD3F8043518189A
:103BF00041F10001B3F5801F0AD2084BD3E900233D
:103C0000904271EB030303D210F1807041F1000187
:103C1000704700BFF01F0020005001500802002034
:103C20002DE9F04F85B016461F4604469DF840A08A
:103C3000FFF76AFF0190FFF7D1FFB04271EB070376
:103C400052D23B4B301A67EB0101984271F10001EF
:103C50004DD2384B03EB0413D3E902239F4208BF34
:103C6000964258D04FF48038334908FA04F8204679
:103C700026F07F4BC1F8488305F074FF4FF003092D
:103C8000584604F15005AD00ADB205F1502504F5DC
:103C9000A87305F580350293029A20F07F4341F81E
:103CA0002230C1F84483D1F80435244AC01A0338BD
:103CB00020F07F4090422ED9286868B1D1F80435B1
:103CC000A3EB0B0020F07F40B0F5000F039322D947
:103CD000204605F047FF039BBAF1000F07D109EB1F
:103CE000030009F10109D7E7BAF1000F09D06FF01D
:103CF000150520460199FFF74BFF284605B0BDE8A2
:103D0000F08F01230E4AA340D2E8EF0F1843C2E818
:103D1000E10F0029F8D107490E982301C8500F9BE5
:103D200001EB04120025C2E902675360E1E700BF1E
:103D300001008000F001002000500150FDFF7F00D5
:103D4000E81F00207FB500254FF0FF304FF0FF3116
:103D5000194C1A4B0226C4F80833C4F84833184BE0
:103D6000C4F80855C3E902014FF480334FF4001240
:103D7000C4F80433134B0121C4F804631520C3F8BD
:103D800080212A46FEF768FB1520FEF735FB01234C
:103D90000D4AA360236013600C4B0D4A0093284624
:103DA0000023CDE90155FFF73BFF3046FEF750FDFC
:103DB000284604B070BD00BF0050015003000F0042
:103DC000F001002000E100E0EC1F0020493B000072
:103DD000FFFF7F002DE9F7432E4BD3F80423900714
:103DE0000BD5D3F8042142B10022C3F804212A4A9A
:103DF000D3F80431136801331360264AD2F8043330
:103E0000D90326D5254BD3E8EF1F21F00100C3E8E5
:103E1000E40F002CF7D1CB0702D4D2F84031C3B164
:103E200000251C4CC4F84051D4F84031FFF7D6FEB1
:103E3000EFF31182202383F31288BFF36F8F184BA7
:103E4000D3E90267B042B94106D282F31188BFF3C9
:103E50006F8F03B0BDE8F0834FF0FF38D3E9001057
:103E60004FF0FF391D60C3E902894FF48033C4F875
:103E70004833C4F84051D4F8403182F31188BFF37D
:103E80006F8F0029E5D0009032463B462846884790
:103E9000DFE700BF00500150F01F0020E81F0020A6
:103EA000F001002030B5431C124C85B005D084428F
:103EB000A8BF0446012CB8BF0124FFF78FFE0E4BAC
:103EC0000C4DD3E90013401AB0F5000F0FD22218A1
:103ED000AA4228BF2A46002052180849CDE901000D
:103EE000009143F10003FFF79BFE05B030BD2A4669
:103EF000F1E700BFFFFF7F0000020020493B000008
:103F000008B5FFF76BFE024B1B68C01A08BD00BF67
:103F100000020020012310B5074C15206360FEF756
:103F200079FA4FF40012054BC4F80833C4F848334B
:103F3000034BC3F8802110BD0050015003000F0057
:103F400000E100E030B5816885B0103921F0070448
:103F5000054604F0A7FE10220146684604F02AFF39
:103F600010226846064904F01AFF10236A462146CB
:103F7000284604F061FE003818BF012005B030BDAE
:103F800072AD000030B50D46816887B0102302AADB
:103F90001039044604F03BFE002802DA012007B085
:103FA00030BD1022204602A905F00BFE00283AD1B0
:103FB00010221E4902A804F0E2FE00280CBF0123D3
:103FC00002232B70204605F0E8FD012301460DF188
:103FD0000702204604F01BFE0028DFDB9DF80730B7
:103FE000204603F00F021B096A702B7101220DF1AC
:103FF000070105F0E6FD10B96B78042B03D9012306
:104000006B7000232B71A2682046183A22F0070239
:10401000083AA91C05F0E8FD0028BFD12046E91C9C
:1040200005F03BFEBBE70323CBE700BF72AD00000A
:10403000F0B5354F85B046000546694657F826006D
:1040400005F031FE044610B1FF2005B0F0BD013689
:1040500057F8260002A905F026FE012837D12A4686
:1040600049212A4804F0C5FD294B8DF80C400293E4
:1040700000229DF800609DF80870264C314620789B
:1040800005F091FD50B33946607805F08CFD28B3FA
:10409000A378042B03D09DF8031099421ED1E37836
:1040A000042B03D09DF80B10994217D12379042BD0
:1040B00010D16279022A1DD1174B18482A4649218E
:1040C00004F097FD6079831E022BBED9BCE700285F
:1040D000CED0B9E79DF802109942EAD00132032A06
:1040E00004F10604CAD10E482A46492104F081FD94
:1040F0000120AAE7032A05D00A4B0B49042A08BF6E
:104100000B46DAE7094BD8E7C0AB0000FFB300006D
:104110000301030394B40000E1B300004AB40000BB
:104120006EB40000E6B30000F8B30000DCB300009A
:1041300008B5EFF31083012B0C4A07D1126ABFF3C5
:104140004F8F511C4A424A41104608BD05F0D8FD28
:1041500000B172B6126ABFF34F8F531C5A425A41D4
:1041600005F0CEFD0028EFD062B6EDE70080FF003D
:1041700008B5EFF31083012B0B4A06D1D269BFF3C8
:104180004F8F02F00102104608BD05F0B9FD00B1E5
:1041900072B6D269BFF34F8F02F0010205F0B0FD95
:1041A0000028F0D062B6EEE70080FF0010B505F001
:1041B000A7FD30B14FF050230022C3F81421C3F8FB
:1041C000182105F0ACFD28B10122644BC3F8382A50
:1041D000C3F878254FF47F02D2F83031D2F8342179
:1041E000BFF34F8FC3F30B03092B05D1012A1EBF69
:1041F00001225A4BC3F8782505F091FD18B10E2223
:10420000574BC3F8E42E05F07BFD30B10022534B31
:10421000C3F80C270122C3F810270022D30003F5AE
:104220007F03D3F80013BFF34F8F013108D0D3F8C9
:1042300000130132D3F80433B2F5807F0B60EDD167
:10424000EFF31084FFF794FF00284DD0BFF34F8F9A
:10425000444BD3F80024012AFBD1C3F80425D3F83A
:104260000024012AFBD1012C03D005F049FD00B147
:1042700072B6FFF77DFF58B13B4AD36923F00103C3
:10428000D361BFF34F8F374AD2F80034012BFBD1F3
:10429000FFF74EFF68B1344A136A23F0FF0343F07F
:1042A00020031362BFF34F8F2E4AD2F80034012B44
:1042B000FBD1012C03D005F023FD00B162B6002232
:1042C000284BC3F80425D3F80024012AFBD1BFF3FF
:1042D0004F8F2649264BCA6802F4E0621343CB6035
:1042E000BFF34F8F00BFFDE7FFF722FF0028ADD1DE
:1042F0001E4AD2F88C3043F44063C2F88C304FF43D
:104300007F03D3F83021D3F83431BFF34F8FC2F39A
:104310000B02092A16D1013B022B02D8154AD35CA5
:1043200083B11148144903680E4A8B420CBF5A23CB
:104330000023C2F8103EC36A8B420CBF5A230023ED
:10434000C2F8003E094AD2F8883043F47003C2F83C
:104350008830BFF34F8FBFF36F8F10BD0040005008
:1043600000A00350009003500080FF0000ED00E02B
:104370000400FA05A6B40000FA50FA5030B50468FB
:10438000ACB1B4FA84F30122C3F11F03DBB29A404B
:1043900024EA0202D0E8EF5FA54204D1C0E8EC2F86
:1043A000BCF1000FF6D1EAD102480B7030BD0248D3
:1043B000FCE700BF0000AD0B0200AD0B10B50368B9
:1043C000CB40DB0710D401238B40026843EA020193
:1043D000D0E8EF4F944204D1C0E8EC1FBCF1000FCD
:1043E000F6D1F2D1014810BD0148FCE70000AD0B49
:1043F0000400AD0B014BC3F8040570470070015079
:104400000146014800F0B0B8A4000020044B1A791E
:1044100022B9012218601A71024870470248704799
:10442000F41F00200000AD0B0C00AD0B08B5084BCD
:104430001B6833B10520FEF701F810B90520FDF720
:10444000DBFF4FF050230122C3F8182508BD00BF41
:10445000F41F002010B510B1012847D010BD4FF057
:104460005023D3F81814D3F81824C90322D502F026
:104470000303022B05D0012B02D0002005F06BFCBA
:1044800001234FF050220220C2F8183508224FF4C1
:104490008273002103F1502319601C68012402F18A
:1044A00050221460164A126822B34FF05023C3F80A
:1044B0000403D3E7D3F81424D207E1D5D3F81C249E
:1044C00002F00302013A012AD7D80D4A12681AB144
:1044D0000222C3F80423C1E7D3F80421002AFBD049
:1044E0000022C3F80421D3F80431B7E700224FF4C7
:1044F0008073CEE71A68002AFCD019601B68ADE70C
:10450000F41F00204FF0502310B5D3F8002152B112
:104510000020C3F80001D3F800210122C3F80823CA
:10452000104B1B6898474FF05023D3F8042182B1F9
:104530000022C3F80421D3F80421D3F81824D3F8B7
:104540001824022102F00302012A03D1C3F818152E
:104550009A6010BDC3F80813024B0120BDE810405B
:104560001B681847F41F00200079024B03EB001072
:10457000FFF704BFAC000020036803F01F025B09D3
:104580000260024818BF0020704700BF0025845019
:1045900070B50D4C00F1080334F813300546DA0508
:1045A0000E4607D5C3F3432304EBC302526854F805
:1045B00033309847A3682BB131462846E268BDE8FE
:1045C0007040184770BD00BFBC000020024611F0CB
:1045D000010004D003490B6A13600B6203B9002089
:1045E000704700BF0025845010B4134AC0B2083091
:1045F00032F81030D9051CD5C3F3432123F4F85306
:1046000022F81030002002F10E0434F8023F13F4B7
:10461000807F03D0C3F3432399420AD0013020287E
:10462000F3D1002342F8313004485DF8044BFFF722
:10463000C5BE5DF8044B7047BC000020140100208B
:10464000F0B5054600200126044607468C420BD1F2
:10465000114BD3F87C2132B10022C3F87C21D3F86E
:104660007C3140F00040F0BDE3B29B0003F5807266
:104670009B0806FA03F31D420BD002F1A04202F59B
:104680005042D2F800C0BCF1000F02D0176012688F
:1046900018430134DAE700BF00D00050064BC0B227
:1046A000083033F81000830643BF400B800000F54C
:1046B00080704FF4BE707047BC000020CBB2024641
:1046C00008460D49083331F81330990611D599077A
:1046D0000FD4012110685B0B9940C0F808131268D1
:1046E00002EB8303D3F8102522F00302C3F8102550
:1046F0007047002105F0D3BBBC000020F7B5194E70
:10470000CDB2083536F815300746DB070C4626D5FE
:10471000FFF7D4FF36F815309A0608D55A0B3B68D8
:1047200003EB82030022C3F81025C3F810252046AE
:10473000FFF75AFF002301A826F815300194FFF770
:104740001BFF019B00EB8300D0F80022064B1340B7
:1047500043F00203C0F80032044803B0F0BD04483F
:10476000FBE700BFBC000020F0F8FCFF0000AD0B31
:104770000400AD0B2DE9FF41136807460C461646B1
:10478000FBB1DFF84481CDB2083538F8152002F0CE
:104790002202222A22D000222046CDE900228DF8D2
:1047A0000E208DF80F200DF10E010DF10F0205F016
:1047B0002DFB38F8153023F0020343F0010328F8ED
:1047C000153073684BB31A785868DFF8FCC0E3B251
:1047D00008333CF813108D0702D5B0B138481FE0FC
:1047E00021F02001C904C90C2CF8131068B1032A68
:1047F000F4D870683D68406890F800E005EB8E05DD
:104800008AB9C5F81025C5F810253CF8131021F019
:104810001C0141EA82022CF81320B3682BBB294803
:1048200004B0BDE8F081D5F8108541EA4E3128F09A
:104830000308C5F810853D6841F0200105EB8E05A1
:10484000D5F810052CF8131020F4473020F44070F0
:10485000C5F810052002D5F8107500F4F85040EAAC
:1048600002403843C5F81005CFE72046D3E900677A
:10487000FFF7BAFE002ED2D0134DD5E900239642A1
:1048800003D19F4201D1002209E010480DF10F0130
:10489000FFF774FD0B4B9842C2D19DF80F20E4B294
:1048A00005EBC20308345F6035F8143045F8326018
:1048B00043EA422343F4807325F81430AFE700BF86
:1048C0000400AD0B0000AD0BBC0000201401002063
:1048D0002DE9FF4107460C461E4612B3DFF8D4808F
:1048E000CDB2083538F81530980701D4990621D48F
:1048F00013F01C0F02D05378012B1BD001238DF82D
:104900000F3000232046CDE900230DF10F01931C49
:10491000013205F07BFA38F8153043F0030328F82C
:104920001530002E44D0234DE1B2083135F8112066
:10493000930703D4204804B0BDE8F081002096F826
:1049400000E03B6822F02002D20403EB8E03D20C7D
:10495000C3F8100525F81120C3F8100596F801C01A
:104960004FEA8E08BCF1000F22D03868B678404478
:10497000D0F810354FEA0C4C23F4981323F4F85375
:10498000C0F81035230203F4F8530CF4403C36050C
:10499000D0F8107543EA0C0306F48016334342EA5C
:1049A0004E323B4342F02002C0F8103525F811206A
:1049B0000248C0E7BC0000200400AD0B0000AD0BB6
:1049C000014BC3E902127047BC000020054BC9B27D
:1049D000083133F81130990643BF5B0B024813705E
:1049E00002487047BC0000200000AD0B0400AD0B76
:1049F00070B5154D064695F860401CBB2146402217
:104A000005F1100004F0D6F9214630682E6D8E4273
:104A10000ED10023C0F87C31D0F87C3140F3073050
:104A2000FDF7EAFC0123094885F86030AB6570BDED
:104A3000CBB29B0003F580727C2B04BF845083585B
:104A40000131E4E70248F2E7BC0000200000AD0BB2
:104A50000C00AD0B034B93F86000003818BF012029
:104A6000704700BFBC0000200148FFF7A7BC00BF93
:104A7000100100200148FFF781BC00BF1001002099
:104A800073B503680C46D3F804130029A4BF4FF094
:104A90000041C3F804131E49E3B2083331F8133060
:104AA00099061AD513F0020617D15B0B05689C0016
:104AB00004F580716E50695801682144D1F81045A1
:104AC00044F00104C1F810452AB10122016802FA3C
:104AD00003F3C1F8043302B070BDC3F38203042BA7
:104AE00011D0052B11D001A80194FFF745FD019AC3
:104AF0000369D34003F00103991C204602B0BDE8CE
:104B0000704005F0CCB90321F7E70221F5E700BFBB
:104B1000BC0000202DE9F347534B544FD3F8040356
:104B2000396DC0B240F00040FFF78AFD051E18DA6B
:104B300000236846F96D00934FF00108FFF746FD2A
:104B400097F85C30DA0757D4396D4FF00040FFF723
:104B500077FD6846F96DFFF739FD0028F0D125F0A3
:104B600000450124002D66D102B0BDE8F08794FA1B
:104B7000A4F4B4FA84F4E00804F1080337F81390BD
:104B800004F007021DF8003008FA02F223EA0203DB
:104B90000DF8003001A80194FFF7EEFC019B4FEAED
:104BA0009901803350F82360C9F3820A4B07D1463C
:104BB000C6F3014624D520465146FFF7E9FC01A87B
:104BC0000194FFF7D9FC019BF6B2803350F82330F3
:104BD000C3F301439E4207D10021204605F05FF94F
:104BE0003146204605F05BF901A80194FFF7C4FCAB
:104BF000019B08FA03F30362009C002CB7D1A3E7E2
:104C0000022E0CD10321204605F049F90AF00503D4
:104C1000012BE9D149462046FFF7BAFCE4E702211F
:104C2000204605F03CF9BAF1030FF3D0032EDBD197
:104C3000BAF1020FEDE795FAA5F3B3FA83F304FA9C
:104C400003F29B0003F1A04303F55043D3F8100592
:104C5000D3F81015C0F30420C1F3014125EA020581
:104C6000FFF796FC7EE700BF00D00050BC0000209C
:104C70000022034BC3F88425C3F80425704700BF06
:104C800000900350044AD2F80834DB07FBD50160DA
:104C9000BFF35F8F704700BF0090035008B5C0F3AB
:104CA0000B0383B90222094BC3F88425C3F80425FA
:104CB0004FF0FF320260D3F80024D207FBD5FFF794
:104CC000D7FF034808BD0348FCE700BF009003502E
:104CD0000000AD0B0A00AD0B012208B5054BC3F86F
:104CE0008425C3F80425FFF7CDFFBDE80840FFF792
:104CF000BFBF00BF00900350430904D10123034A02
:104D000083409360704700239B60FFDE0025845042
:104D10000C4B984213D00AD80B4B98420FD00B4B38
:104D200098420CD00A4BC31A584258417047094B5D
:104D3000984204D0084B984201D0084BF3E7012079
:104D4000704700BF40420F0090D0030020A1070031
:104D500048E8010000093D0000127A0080841E002E
:104D6000431C14D000F01F0340090BD1084A02EB8A
:104D70008302D2F80012074B0B4043F00203C2F843
:104D8000003270470022803352F82330FFDE704734
:104D900000258450F0F8FCFF430904D10123034AA5
:104DA0008340D36070470023DB60FFDE0025845022
:104DB00038B51446421C054616D0012902D1A3B1CC
:104DC000FFF79AFF05F01F036D0911D10B4A41EA65
:104DD000840402EB8303D3F80002094A024014431F
:104DE00044EA4101C3F8001238BDFFF7D5FFE9E7F7
:104DF0000022803352F82330FFDE00BF00258450AC
:104E0000F0F8FCFF2DE9F843504B4D6906469D42F2
:104E10000C4690F8049000F0848077D84C4B9D426B
:104E200000F082804B4B9D4200F081804A4B9D42B6
:104E30000CBF4FF000754FF080452422DFF824812D
:104E4000E07E02FB0983997F60F300019977337953
:104E5000217C02FB03839A7F61F341029A77E77E0C
:104E6000EFB9237E3A46012B94BF00230123012191
:104E70002068FFF79DFF3B463A4601216068FFF737
:104E800097FF3B463946A27EA068FFF791FF237C3F
:104E90003A460121E06883F00103FFF789FF2423EC
:104EA00003FB0983E2681A62217C9A7F61F3410265
:104EB0009A77277FA07C217E637E326847B9D4E948
:104EC00000C7A468C2F808C5C2F80C75C2F810453E
:104ED000003B18BF01230229C2F8C005C2F82455BF
:104EE0002BD003292CD0012901D143F00203C2F8B1
:104EF000543524223379534358F803301BB33068B8
:104F0000BDE8F84340F30730FDF776BA134B9D42F6
:104F100010D0134B9D420CBF4FF000454FF0804521
:104F20008BE74FF0805588E74FF0806585E74FF0BD
:104F3000006582E74FF000557FE743F00403D6E7B2
:104F400043F00603D3E7BDE8F88300BF40420F00FB
:104F500090D0030020A1070048E8010080841E00D3
:104F600000127A00FC1F00202DE9F8430746242593
:104F700097F80480124C05FB08F504EB05091E4662
:104F800099F81C30C3B999B14869FFF7C1FEA8B1BF
:104F900038466251C9F80460FFF734FF242303FB4D
:104FA000084400236377012306482377BDE8F8838C
:104FB0006251C9F80460F1E70348F7E70348F5E7F1
:104FC000FC1F00200000AD0B0C00AD0B0400AD0B6E
:104FD0002DE9F041044606790068194D40F3073089
:104FE000FDF718FA24237343EB5853B12368154A8D
:104FF00006EBC601C3F80823206805EB810104F025
:10500000C0FF2368242404FB0654D3F80805D3F812
:105010000C75D3F81085A37FDB070AD4FFF7A0FE39
:105020004046FFF79DFE3846FFF79AFE206AFFF7DD
:1050300097FE242303FB065500232B77BDE8F08160
:10504000FC1F00205201080024232DE9F0430779BA
:10505000534D7B439046EA180E46517F814685B0FA
:10506000002940F09B80EB5823B118F0140F04BFC7
:1050700001235377242496E80F0004FB075404F11E
:105080000C0C8CE80F00206A421C04D0A37F9B0705
:105090001AD5FFF731FE3368D9F8004023B103F089
:1050A0006043B3F1005F06D1B36883B103F060439E
:1050B000B3F1005F0BD02423002203FB07533948D0
:1050C0005A7705B0BDE8F083FFF766FEE3E718F016
:1050D000010318BF0123C4F8503518F0020318BFAC
:1050E0000123EC46C4F8403596E80F008CE80F0029
:1050F000039BC4F84405C4F84815C4F83425C4F823
:1051000038350023C4F81831D4F818310723C4F80F
:10511000003524237B4318F0080F05EB03021DD153
:105120000121E858216158B9D4F81831002BFBD07F
:1051300062464021204604F0E6FE24237B43EA1821
:10514000EB5813BB106A461C13D107EBC707204668
:1051500005EB870104F015FF1348B2E7EB58A3B93C
:10516000106A411CF8D0937F9A070BD5FFF714FE05
:10517000F2E7937F9B0702D5FFF70EFEE5E7FFF707
:10518000BBFDE2E7FFF7B8FDE6E7402318F0040FA8
:1051900014BFC4F80833C4F80433DDE7034890E7CC
:1051A000FC1F00200A00AD0B0000AD0B0B00AD0B87
:1051B00010B540210F4A104804F0A5FEC8B10F4CAD
:1051C000206A421C04D0A37F9B070FD5FFF7E4FDA4
:1051D000637F1BB10949084804F0D3FE0023237202
:1051E0000748D4E90031BDE810401847FFF784FDB7
:1051F000EEE710BD0820002000B00050FC1F00208A
:105200000420002010B4CC7B8A6803682CB9D1E953
:105210000041C3F80845C3F80C15C3F8242528221B
:1052200003795343064AD35833B100685DF8044B01
:1052300040F30730FDF7E0B85DF8044B704700BF5E
:105240002020002070B5817BE9B9046804F01F03B9
:1052500064091AD140F20C65104A114E02EB830327
:10526000D3F8001231402943C3F80012416801F01D
:105270001F0349090DD102EB8303D3F8002232400A
:105280002A43C3F80022012070BD803351F8233037
:10529000FFDE803354F82330FAE700BF0025845046
:1052A000F0F8FCFF2DE9F041074690F80480282033
:1052B00000FB08F0144E0C46351895F82210F1B991
:1052C000A96032506B6085F8251085F824106CB108
:1052D000A37B204685F82730FFF7B4FF88B1637BB6
:1052E0002146384685F82630FFF78CFF282303FB3C
:1052F00008660123054886F82230BDE8F08104489D
:10530000FBE70448F9E700BF202000200000AD0BB8
:105310000C00AD0B0400AD0B062103680279C3F845
:1053200000152821034B01FB0233022283F82220BF
:10533000704700BF20200020282102790B4B01FB81
:1053400002330021996002680948C2F80803D2F8C4
:10535000000220F4BC50C2F80002C2F8001501227D
:1053600083F8241083F82220704700BF20200020FB
:1053700002029C012DE9F84F28239046002290F864
:105380000490AE4D046803FB095383F823204B6857
:105390000E4633B1CB6803F06043B3F1005F40F0D9
:1053A00085813378023B012B06D8336903F06043D3
:1053B000B3F1005F40F07A81A14BC4F80833282391
:1053C00003FB095393F8241001F0FF0239B19B68E5
:1053D000DFF878B2C4F804335846BDE8F88F18F007
:1053E000140F0CBF0121002183F82410317809EB40
:1053F000890783F82010717805EBC70783F821101F
:10540000F168D9607168196131695961B168C3F88F
:105410001C809961C8F3001183F825107378C4F8D3
:105420008835C4F86021D4F86031C4F84821D4F834
:105430004831C4F82421D4F82431C4F80421D4F824
:10544000043118F0010318BF0123C4F8503518F0D7
:10545000020318BF0123C4F840353378032B00F250
:10546000A480DFE803F0799962024FF48073C4F8F6
:105470000032D7E90323C4F84425C4F84835012392
:10548000A3604FF48011204604F0D3FD0028F8D12A
:10549000D7E90523C4F84425C4F8483528234FF438
:1054A000802203FB09539A60DFF8A4B1282202FB93
:1054B00009F218F0080AAB5805EB020013D1317855
:1054C000032910D0012940F086802160002B6FD085
:1054D000282202FB09F27168AA5821B9002A00F0BB
:1054E000BB8001226261282202FB09F2A918AA5896
:1054F000002A00F0B18018F0040F1CBF00228A605F
:1055000018F0400F06D1282202FB0952916841F0A1
:1055100002019160282202FB0952916841F4007156
:1055200091609268C4F8042356E7D7E90323C4F8CE
:105530004425C4F84835D7E90523C4F83425C4F810
:1055400038354FF48453C4F80032012323622823F2
:10555000022203FB0953A6E718F0200FD7E9032323
:10556000C4F8442514BF4FF480724FF40072C4F89D
:1055700048354FF0280315BFC4F80022C4F80022B4
:105580004FF48022022214BF03FB095303FB09538B
:105590009A600123236287E7D7E90323C4F83425FF
:1055A000C4F838354FF48053CDE7DFF8A8B07DE775
:1055B000026902B961612349DFF88CA0204604F03A
:1055C00038FD012210F4007F18BF626110EA0A0F53
:1055D0001C49F3D07CE70121A160002B7FF478AF58
:1055E000006918B3184B1AEA030F7FF471AF204615
:1055F000144904F01EFD10F4007F8246F2D04FF0F3
:105600008071204604F015FDD4F8001280B111F429
:10561000007003D10122824622626261CB05E1D58E
:105620004FF48021204604F004FD04E06161D9E7D5
:105630000122226262614FF0000AD3E7202000209D
:1056400002029C0102020400020004000B00AD0BE8
:105650000000AD0B0400AD0B282101FB0955002112
:10566000D4F8C424C4F8C42485F824108AB111499C
:10567000114B12F0010F14BF8B469B46013112F003
:10568000020F18BF8B4612F0040F0C4A18BF934646
:10569000A2E618F0400F7FF49FAE3946204604F092
:1056A00086FC054A002808BF934695E6DFF810B04F
:1056B00092E600BF0000AE0B0100AD0B0200AE0B86
:1056C0000A00AD0B70B55D4D022186B0284604F08E
:1056D000B0FC4FF400710646284604F0AAFC584C72
:1056E000D8B1E6B9A3684FF08071C5F8083302233A
:1056F000A360A3682846C5F8043304F09AFC18B1E7
:10570000D5F800329B0503D401224C4B1A625A6132
:10571000012384F8233006B070BD002E58D0E5690F
:105720006E060AD494F823303BB94549434804F047
:105730003EFC80F0010084F8230015F0040525D11B
:105740003E4B94F82520C3F86051D3F86011C3F89C
:105750005C51D3F85C1112B194F823205AB10022A5
:10576000C3F80022A260374AC3F808234FF48062CE
:10577000354BC3F88021238CADF80430E3680493E3
:105780002369029363690593A36903932B4AD2F8B3
:10579000C4349807C2F8C4344AD459074AD4DA0743
:1057A0004AD494F823309B00DBB28DF8003094F893
:1057B00025300BB984F82430E3695B0703D594F8EE
:1057C0002330002BA7D0D4E9003168469847A2E7E0
:1057D0004FF48021284604F02CFC94F82030ABB91B
:1057E00094F8253053B94FF48062C5F80032A360B5
:1057F000144BC5F80833144BC3F8802100238DF8EF
:10580000043094F821308DF80530B7E74FF4007379
:10581000C5F8003240F20223A36003F1CE73C5F84D
:105820000833A368C5F804330123AB602B6272E729
:105830000123BAE70223B8E70323B6E700A000502C
:105840002020002002029C0100E100E0036803F038
:105850001F025B090260024818BF0020704700BFAA
:1058600000258450F7B5064604F00DFC084604F008
:105870000AFC01A80196FFF7E9FF0C4640F20D6112
:10588000019B2B4D00EB8300D0F8003201942B409C
:105890000B43C0F8003201A8FFF7D8FF019B012796
:1058A00000EB8300D0F800322B400B43C0F80032ED
:1058B000042004F047FA092501A80194FFF7C6FF68
:1058C000019A0369D340DB0714D401A80196FFF7BE
:1058D000BDFF019B013D07FA03F3C360042004F000
:1058E00031FA304604F0CFFB042004F02BFA15F017
:1058F000FF05E1D101A80194FFF7A8FF0123019A58
:105900009340C360042004F01DFA204604F0BBFB62
:10591000042004F017FA01A80194FFF797FF019AF9
:1059200003690448D34003F00103C01A03B0F0BD7B
:10593000F0F8FCFF0100AD0B38B5EFF31185202323
:1059400083F31288BFF36F8F064B9C6804F0BFFB94
:1059500085F31188BFF36F8F2046BDE83840FCF710
:10596000ADBC00BF4820002038B5094B53F820409B
:10597000013053F82050A54200D838BD636823B1E8
:10598000204604F0A7FB0834F5E723689847FAE7B8
:10599000C8AB0000012270B52A4B032086B01A70F4
:1059A000FFF7E2FFFCF7E4F904F0B0FB0420FFF797
:1059B000DBFF254C254D2646AE4204F1300410D3C2
:1059C00000F0B4FD204C224EAC4226D300F0C2FDC4
:1059D000FAF720FD1F4A137B23F00103137306B06F
:1059E00070BD54F80C3C059354F8103C049354F8E3
:1059F000143C039354F8183C029354F81C3C019354
:105A000054F8203C009354E90A2354E90C0100F0B7
:105A100061FB54F8303C5E65CDE7D4E90A23B3F16D
:105A2000FF3F08BFB2F1FF3F05D052EA03012068F3
:105A300003D104F01DFC3034C6E73146183000F0C5
:105A40004FFFF8E78323002014A8000014A80000EB
:105A50007DA30000D002002008B50348034A0021BE
:105A6000121A04F04FFB08BDF0010020882300202B
:105A7000C02370B5134E012203FB0066002386B0DD
:105A8000CDE904230F220193CDE9023218234FF40C
:105A9000A0720D4D0D4903FB0055044602FB001199
:105AA0000B4B3046009500F015FB737B2C7423F0F4
:105AB00004037373074B013403EBC423EE606B6084
:105AC00006B070BD1002002048200020882B002066
:105AD000A9A1000088230020BFB50020FFF744FFE4
