:020000040000FA
:10C000003DB8F39600000000000200003CBD0500B2
:10C0100000000000000A0000000000000000000016
:10C02000FFFFFFFFFFFFFFFFFFFFFFFFFFFFFFFF20
:10C03000FFFFFFFFFFFFFFFFFFFFFFFFFFFFFFFF10
:10C04000FFFFFFFFFFFFFFFFFFFFFFFFFFFFFFFF00
:10C05000FFFFFFFFFFFFFFFFFFFFFFFFFFFFFFFFF0
:10C06000FFFFFFFFFFFFFFFFFFFFFFFFFFFFFFFFE0
:10C07000FFFFFFFFFFFFFFFFFFFFFFFFFFFFFFFFD0
:10C08000FFFFFFFFFFFFFFFFFFFFFFFFFFFFFFFFC0
:10C09000FFFFFFFFFFFFFFFFFFFFFFFFFFFFFFFFB0
:10C0A000FFFFFFFFFFFFFFFFFFFFFFFFFFFFFFFFA0
:10C0B000FFFFFFFFFFFFFFFFFFFFFFFFFFFFFFFF90
:10C0C000FFFFFFFFFFFFFFFFFFFFFFFFFFFFFFFF80
:10C0D000FFFFFFFFFFFFFFFFFFFFFFFFFFFFFFFF70
:10C0E000FFFFFFFFFFFFFFFFFFFFFFFFFFFFFFFF60
:10C0F000FFFFFFFFFFFFFFFFFFFFFFFFFFFFFFFF50
:10C10000FFFFFFFFFFFFFFFFFFFFFFFFFFFFFFFF3F
:10C11000FFFFFFFFFFFFFFFFFFFFFFFFFFFFFFFF2F
:10C12000FFFFFFFFFFFFFFFFFFFFFFFFFFFFFFFF1F
:10C13000FFFFFFFFFFFFFFFFFFFFFFFFFFFFFFFF0F
:10C14000FFFFFFFFFFFFFFFFFFFFFFFFFFFFFFFFFF
:10C15000FFFFFFFFFFFFFFFFFFFFFFFFFFFFFFFFEF
:10C16000FFFFFFFFFFFFFFFFFFFFFFFFFFFFFFFFDF
:10C17000FFFFFFFFFFFFFFFFFFFFFFFFFFFFFFFFCF
:10C18000FFFFFFFFFFFFFFFFFFFFFFFFFFFFFFFFBF
:10C19000FFFFFFFFFFFFFFFFFFFFFFFFFFFFFFFFAF
:10C1A000FFFFFFFFFFFFFFFFFFFFFFFFFFFFFFFF9F
:10C1B000FFFFFFFFFFFFFFFFFFFFFFFFFFFFFFFF8F
:10C1C000FFFFFFFFFFFFFFFFFFFFFFFFFFFFFFFF7F
:10C1D000FFFFFFFFFFFFFFFFFFFFFFFFFFFFFFFF6F
:10C1E000FFFFFFFFFFFFFFFFFFFFFFFFFFFFFFFF5F
:10C1F000FFFFFFFFFFFFFFFFFFFFFFFFFFFFFFFF4F
:10C20000F80B002071C8000045C90000012A010098
:10C21000212A0100412A0100812A0100612A01002E
:10C22000000000000000000000000000E9E800003D
:10C2300045C9000000000000B3F8000045C9000037
:10C2400000000000000000000000000027FB0000CC
:10C250000000000045C900000000000000000000D0
:10C2600045C9000045C9000045C9000045C9000096
:10C270000000000045C9000045C9000045C9000094
:10C2800045C9000045C90000000000000000000092
:10C2900045C9000045C90000000000000000000082
:10C2A00045C90000000000000000000045C9000072
:10C2B00045C9000045C9000045C9000045C9000046
:10C2C00045C9000045C9000045C9000045C9000036
:10C2D00045C900000000000045C900000000000042
:10C2E00045C900000000000045C900000000000032
:10C2F00045C9000000000000000000000000000030
:10C300000000000045C9000000000000000000001F
:10C31000000000000000000000000000000000001D
:10C320000000000045C900000000000000000000FF
:10C3300000000000000000000000000000000000FD
:10C3400045C9000000015F5F00000000FE0B000017
:10C35000C5E900000004000000000000000000002B
:10C36000000000000000000000000000C01F0020CE
:10C370000000000001015F5F030100001F010000D9
:10C3800099C6000000080000000000000100000045
:10C39000010000000000000000000000400C002030
:10C3A0000000000070000000342E0100800000003A
:10C3B000000F000001000000E5C4000001000000C3
:10C3C00001015F5F040100001F01000001C80000BF
:10C3D0000005000000000000000000000100000057
:10C3E00000000000000000004014002000000000D9
:10C3F0003F2E010040000000050700000100000082
:10C40000EDC6000001000000FFFFFFFFFFFFFFFF80
:10C41000FFFFFFFFFFFFFFFFFFFFFFFFFFFFFFFF2C
:10C4200038B50025054C29462046D4F80024C4F828
:10C43000045406F08EFBC4F8005438BD40190020A7
:10C4400013B511460022CDE9002242680346302A86
:10C4500004683ED194F82C20022A18D01AB900F0B2
:10C4600041F902B010BD1E482468D0F80404013A16
:10C47000CDE90040072A2FD8DFE802F004090D12A9
:10C48000171C21266A46184600F029F9E9E71846E4
:10C4900000F013F9E5E76A46184600F011F9E0E705
:10C4A0006A46184600F006F9DBE76A46184600F0CF
:10C4B0000AF9D6E76A46184600F008F9D1E76A4655
:10C4C000184600F006F9CCE76A46184600F004F971
:10C4D000C7E76FF08000C4E76FF08500C1E700BFD9
:10C4E000401900202DE9F04F056804469FB0002D4B
:10C4F00040F0AA802022294602A806F02AFB12AFAB
:10C50000202229460AA806F024FB30222946384674
:10C5100006F01FFBE26904F11C039846B2B1042641
:10C52000E26A04F12C03EAB10425EEB96FF0830648
:10C5300030461FB0BDE8F08F002EF1D053F8041D37
:10C540003246013E0029F7D01646E9E70326F5E713
:10C55000002DEAD053F8041D2A46013D0029F7D0EA
:10C560001546E2E70325F5E730233A4600216068E7
:10C5700004F0EAF83028D9D14FF00109CDE9027072
:10C58000334F0DF1080A04F1100B4E45D7F8001493
:10C590001CD10DF128094B46002008EB850EC6453D
:10C5A00033D108B1C7F80014A3683146C7F8043482
:10C5B0000AAA2B4602A8FFF743FF00270646BD4202
:10C5C00009F1080938D1FFF72BFFB1E75BF8043F09
:10C5D000C1F58062D81C20F00300904204D9FFF717
:10C5E0001FFF6FF08C06A3E70844CA19C7F80004C0
:10C5F00049466068019204F0A7F8019ACAF80C0055
:10C6000009F101094AF8082FBFE758F804CFC1F52E
:10C61000806A0CF1030222F00302524503F1080381
:10C6200005D8781843E9020C11440120B7E7002827
:10C63000D5D0C7F80014D2E7394659E9022360681B
:10C6400004F08EF80137BAE76FF0850670E700BF97
:10C650004019002008B528220021024806F079FA86
:10C66000002008BD481D002010B5044C0F222046B4
:10C67000034906F049FA204610BD00BF711D002095
:10C6800004C8000008B50121024804F0B1F90020F7
:10C6900008BD00BF701D002008B5FFF7DBFF40B9E3
:10C6A000FFF7E2FFFFF7EEFF18B9BDE8084004F01E
:10C6B0000DBA08BD6FF0850070476FF085007047B8
:10C6C0006FF0850070476FF0850070476FF0850050
:10C6D00070476FF0850070476FF0850070476FF00E
:10C6E00085007047D1E9000104F0D0B9F0B50368C6
:10C6F0000546B3F57D7FA7B007D040F2F5329342EF
:10C7000007D06FF0850027B0F0BD01F02BFE0020B0
:10C71000F9E700243C22214607A8CDE90244CDE9EF
:10C720000444069406F015FA3C22214617A81694F4
:10C7300006F00FFAEA69019405F11C0302B304261E
:10C74000EA6A05F12C033AB30424731E012B52D874
:10C75000012C50D80423002168680DEB030203F07C
:10C76000F3FF04281AD06FF08000CCE7002EE7D04A
:10C7700053F8041D3246013E0029F7D01646DFE784
:10C780000326F5E7002CE0D053F8041D2246013CB7
:10C790000029F7D01446D8E70324F5E7022E16D176
:10C7A0006E69402E29D806AF33463A4601216868A3
:10C7B00003F0CAFF8642D6D1CDE9027602A944B978
:10C7C0002246019801F09FFF044620469BE7002186
:10C7D000F5E72B6A402BC6D816AACDE904230198A9
:10C7E00004AA01F090FFDDE90423044600216868F3
:10C7F00003F0B6FFE9E7012085E76FF0890082E7E3
:10C80000002070474D62656420544C5320332E3510
:10C810002E320000000000000000000000000000B8
:10C82000543E000001000000407C0100A01D0020DB
:10C830004A000000407C0100400C00200000000085
:10C84000407C0100200C002000000000C81E0020D9
:10C850005C060000400C002058040000200C002062
:10C8600008000000000C00200800000002F0F4BFE7
:10C8700008B572B6002383F31488BFF36F8F83F378
:10C880000A8883F30B88BFF35F8F254B5A6A22F423
:10C8900080325A62D3F8942022F00102C3F8942027
:10C8A000BFF34F8FBFF36F8F1E4A9A6000F058F8A6
:10C8B0001D4B83F309881D4B83F30A8883F30B8890
:10C8C0001B4B15A1D1E90001C3E9000100F0EEF80E
:10C8D000184B19498B4212D30020184B18498B4230
:10C8E00018D303F0CBFE186850F82240586840F87F
:10C8F0002240013298688242F5D30C33EAE70022E5
:10C90000F8E71C6844F8220001325C68A242F8D3C0
:10C910000833E4E70022F8E7A5EDF5FEA5EDF5FE06
:10C9200000ED00E000C20000F80B00200004002031
:10C93000F80B002028C800004CC800004CC80000BC
:10C940006CC80000EFF30880EFF309812DE9F00FC8
:10C950006B46724600F078F908B0FFF787FFFEE7F4
:10C9600038B572B6002383F3138883F311884FF030
:10C97000FF30274A03F120010133102B42F8210038
:10C98000F8D100234FF0FF34214A03F16001013355
:10C99000102B42F82140F8D1012200251D4B2946D9
:10C9A0005A60C3F84843C3F8084303F580535A60FC
:10C9B000C3F84843C3F80843A3F55043C3F80055F0
:10C9C0008022C3F80843144806F0C3F829468022A1
:10C9D000124806F0BEF8124B2946C3F800558022D3
:10C9E000C3F808430F4806F0B4F8802229460E48E1
:10C9F00006F0AFF80D4BC3F808454FF05023C3F8CD
:10CA0000084362B6BFF34F8FBFF36F8F38BD00BFCF
:10CA100000E100E000400150808000508081005023
:10CA200000900050809000508091005000700150A4
:10CA300008B5EFF31083012B0C4A07D1126ABFF33C
:10CA40004F8F511C4A424A41104608BD01F0CCFCB0
:10CA500000B172B6126ABFF34F8F531C5A425A414B
:10CA600001F0C2FC0028EFD062B6EDE70080FF00C5
:10CA700008B5EFF31083012B0B4A06D1D269BFF33F
:10CA80004F8F02F00102104608BD01F0ADFC00B16D
:10CA900072B6D269BFF34F8F02F0010201F0A4FC1D
:10CAA0000028F0D062B6EEE70080FF005D4A10B5C6
:10CAB000D2F8D03043F00203C2F8D03001F094FC39
:10CAC00030B14FF050230022C3F81421C3F81821CD
:10CAD00001F099FC28B10122534BC3F8382AC3F85E
:10CAE00078254FF47F02D2F83031D2F83421BFF3E9
:10CAF0004F8FC3F30B03092B05D1012A1EBF01225F
:10CB0000494BC3F8782501F07EFC18B10E22474B43
:10CB1000C3F8E42E01F068FC30B10022424BC3F8A8
:10CB20000C270122C3F810270022D30003F57F034E
:10CB3000D3F80013BFF34F8F013108D0D3F800139F
:10CB40000132D3F80433B2F5807F0B60EDD1EFF3FF
:10CB50001084FFF78DFF00284DD0BFF34F8F344B6B
:10CB6000D3F80024012AFBD1C3F80425D3F800240C
:10CB7000012AFBD1012C03D001F036FC00B172B6C2
:10CB8000FFF776FF58B12B4AD36923F00103D36135
:10CB9000BFF34F8F264AD2F80034012BFBD1FFF7A9
:10CBA00047FF68B1234A136A23F0FF0343F02003D1
:10CBB0001362BFF34F8F1E4AD2F80034012BFBD112
:10CBC000012C03D001F010FC00B162B60022184B1A
:10CBD000C3F80425D3F80024012AFBD1BFF34F8FFB
:10CBE0001049154BCA6802F4E0621343CB60BFF3EF
:10CBF0004F8F00BFFDE7FFF71BFF0028ADD1094BAA
:10CC0000D3F88C2042F44062C3F88C20D3F88820FB
:10CC100042F47002C3F88820BFF34F8FBFF36F8FC9
:10CC200010BD00BF00ED00E00040005000A0035028
:10CC3000009003500080FF000400FA057C220149A7
:10CC400005F062BFDC23002038B51D46AA4BAB4C73
:10CC50005B68C3F308032360EFF30383C4E9012097
:10CC60006365C2F3801302F00C020C2AE1603BD131
:10CC70000BB9EFF389812022A148216105F044FF1F
:10CC800025B1202229469F4805F03EFF9A4B9A6A1B
:10CC9000A265D96AE165986B206602F4004060667F
:10CCA000586BA06602F08000E0669A62D962D3F801
:10CCB000E4202267D3F8E810616702F04001A16721
:10CCC000C3F8E42000F0A6F90E218F4801F0ADFB77
:10CCD0002268D31E042B00F2F380DFE813F00B0070
:10CCE0001100E800EB00EE0013B9EFF38881C2E712
:10CCF0000146C0E70C21854801F097FB002504E0C0
:10CD00001221834801F091FB01252A21814801F07D
:10CD10008CFB62681621804801F02CFD18217F48A9
:10CD200001F083FB63685A064BBF0E2112217C4839
:10CD30007C4801F07AFB63681B074BBF102111216F
:10CD400079487A4801F071FB626D0E21784801F054
:10CD500011FDA2680E21774801F00CFD0E21E2685A
:10CD6000754801F007FDEFF388820E21734801F04A
:10CD700001FDEFF389820E21714801F0FBFC1921BE
:10CD80002269704801F0F6FC1DB152216E4801F095
:10CD90004CFB0F2162696D4801F0ECFC0F21A26988
:10CDA0006B4801F0E7FC0F21E2696A4801F0E2FC00
:10CDB0000F21226A684801F0DDFC0F21626A674892
:10CDC00001F0D8FC0F21A26A654801F0D3FC0F21C5
:10CDD000E26A644801F0CEFC226B0F21624801F048
:10CDE000C9FC2121614801F020FB0F21626B6048E2
:10CDF00001F0C0FC0F21A26B5E4801F0BBFC0F21CB
:10CE0000E26B5D4801F0B6FC0F21226C5B4801F03B
:10CE1000B1FC0F21626C5A4801F0ACFC0F21A26CEE
:10CE2000584801F0A7FC0F21E26C574801F0A2FC22
:10CE30000F21226D554801F09DFC0C21A26D544834
:10CE400001F098FC0C2194F85920524801F092FC12
:10CE5000636E002B3FD00B21226E4F4801F08AFCFD
:10CE60000C2194F858204D4801F084FCE36E002B0F
:10CE700036D00C21A26E4A4801F07CFC0C21B4F89B
:10CE80005A20484801F076FC0C21E26D464801F03A
:10CE900071FC0C21226F454801F06CFCA36F23B399
:10CEA000626F0B21BDE83840414801F063BC0B21A3
:10CEB000404827E70D21404824E70E213F481BE763
:10CEC0000F2A95BF142125213D483E4888BF103ABE
:10CED00001F050FC18E717213B4801F0A6FABFE724
:10CEE00017213A4801F0A1FAC8E71621BDE83840F9
:10CEF000374801F09ABA00BF00ED00E0DC230020C3
:10CF0000F023002010240020B6FF0000C4FF000022
:10CF1000D0FF0000410001006B0001008100010012
:10CF200099000100A7000100B9000100C90001003B
:10CF3000DA000100E8000100F60001000401010030
:10CF40001201010020010100390101008B010100E3
:10CF50009A010100A9010100B8010100C701010007
:10CF6000D6010100E5010100F40101000302010006
:10CF700024020100330201004202010051020100BB
:10CF8000600201006F0201007E0201008D020100BB
:10CF90009C020100A8020100B4020100D6020100B7
:10CFA000E202010005030100110301001D0301005D
:10CFB00029030100E2FF0000EDFF0000FAFF00007E
:10CFC000080001001C000100BF020100EE02010088
:10CFD000340301002DE9F34106460F460C4DD5F808
:10CFE0002C80C04710F00104FBD1394630466B69F4
:10CFF000984740B9C047C307FCD42B6A019302B0DD
:10D00000BDE8F0411847204602B0BDE8F08100BFFE
:10D010004C03010010B5094C0020A3689847236910
:10D0200002209847A46A4FF4E1310120A04723462B
:10D03000BDE8104001211520184700BF4C03010036
:10D0400010B5044C002023699847E368BDE8104000
:10D05000184700BF4C030100064B82B0186800233C
:10D0600082B262F30F03000C60F31F43184602B054
:10D07000704700BF94030100014B1869704700BF5F
:10D08000A41D0020014B5869704700BFA41D00205B
:10D0900038B50C4D0C4695F8203013B94FF0FF30E1
:10D0A00038BD0A460146284600F050FF064B98421C
:10D0B00005D00B3B9842F1D100206C61F0E76FF096
:10D0C0000100EDE7A41D00200B00AD0BF0B51B4ED9
:10D0D000054696F820300C4691B01BB94FF0FF3052
:10D0E00011B0F0BD00F06043B3F1005F21D1002327
:10D0F0000A460146304600F031FC114B98421AD0E6
:10D100000B3B9842EAD1346111E0A71B402F28BFA6
:10D110004027A9193A46684605F0F6FC39466846A4
:10D12000FFF7D4FF0028DBD14036B442EDD8002011
:10D13000D6E70026F9E76FF00100D1E7A41D002033
:10D140000B00AD0BC3B2012B10B540F096804DF62D
:10D15000C023994270D028D8B1F5615F6FD011D843
:10D16000B1F5965F6DD008D8B1F5966F6BD0B1F57B
:10D17000166F6BD06FF007005DE0B1F5165FF9D167
:10D18000454B33E047F61223994262D007D8B1F5F8
:10D19000964F61D0B1F5E14FECD1404B26E0B1F5AF
:10D1A000164FE7D14FF41D0320E03D4B994255D077
:10D1B00011D8B1F5E13F54D007D8B1F5614F53D044
:10D1C000B1F5963FD6D1374B10E0B1F5613FD1D1E3
:10D1D0004FF06C730AE0B1F5612F48D0324B9942A1
:10D1E00048D0B1F5E12FC5D14FF0E86310F4E06FFE
:10D1F00046D110F4404103D0B1F5804F43D1102106
:10D2000010F4405203D0B2F5805F3FD10E2210F4EB
:10D21000403003D0B0F5403F3BD10120234C207675
:10D220006276E361A1760A4324681043C4F824358A
:10D23000C4F86C05002010BD4FF46503D6E71C4B05
:10D24000D4E71C4BD2E74FF49E23CFE74FF41D23C6
:10D25000CCE74FF40003C9E7174BC7E74FF08063F3
:10D26000C4E74FF0EB73C1E74FF46B03BEE74FF039
:10D270007063BBE74FF08053B8E76FF00300DAE765
:10D280006FF00800D7E76FF00A00D4E76FF00900ED
:10D29000D1E76FF00B00CEE70050270000C075000B
:10D2A00090D0030000903A0140420F00A41D0020DE
:10D2B00000F03A0000B0130000A04E0010B5124C70
:10D2C000204600F0BDFD0021206884F82010C0F346
:10D2D000073000F02DFF226842F30732002A11DBED
:10D2E000012153099B0003F1604303F56143D3F827
:10D2F000800202F01F0201FA02F20243C3F8802208
:10D30000D3F88032002010BDA41D002010B5274C9A
:10D31000002120688EB0C0F3073000F0FDFE2268C7
:10D3200042F30732002A12DB012053099B0003F16C
:10D33000604303F56143D3F8801202F01F0200FA44
:10D3400002F221EA0202C3F88022D3F880322422BA
:10D35000002105A805F0FDFBD4E902124FF0FF33D0
:10D36000CDE90133CDE903334FF0EB730B93072382
:10D3700001A88DF8363001F076F8014600220B48FE
:10D3800000F036FA0A4B98420DD10C9B0020238303
:10D390001B0CA3760B9BC4E90400E361012384F812
:10D3A00020300EB010BD6FF00100FAE7A41D002080
:10D3B0000000AD0B30B51546D0F8002285B022F044
:10D3C0002002C0F80022114A0C46C0F8082301F0E0
:10D3D0009AF8002104F14C03A1602161D3E8EF0F1A
:10D3E00020F47F0020F47040C3E8E20F002AF5D15A
:10D3F0001022684605F0ADFB042368468DF8003026
:10D400000195D4E90013984705B030BD10020A0019
:10D4100000F01F03400909D1074A02EB8303D3F848
:10D420000012064A0A40C3F80022704700228033E7
:10D4300052F82330FFDE00BF00258450F0F8FCFFD7
:10D440002DE9F04F804690F804A05020664F0E461C
:10D4500000FB0A70416885B049B113F0020304D0A3
:10D46000836B002B00F0B2800123009300E0009159
:10D470004FF0500909FB0A73DB6CD90600F1A68056
:10D480004FF0010BB3180293029BB34200F0A78048
:10D4900006F06043039398F80450D8F8004009FB65
:10D4A00005739A6B9AB9039BB3F1005F40F09980C2
:10D4B000019200F085FD09FB0572D16C204601F058
:10D4C000010100F0EEFF28B900F082FDE3E701233F
:10D4D0000193EEE7516C33460029BCBFD4F84C15DC
:10D4E0005164019A42B109FB05713078D1E90E23EC
:10D4F000D054D1E90E3213441BB1C4F84435C4F8FA
:10D5000048B50022C4F82021D4F82011C4F85821CD
:10D51000D4F85811C4F85021D4F850210822C4F886
:10D520000025009AE2B14FF48003C4F80433C4F834
:10D5300008B000F04DFD502303FB0A72516800292A
:10D540004BD1D26C120748D503FB0A734C33D3E896
:10D55000EF1F21F00801C3E8E21F002A36D0F6E7EA
:10D56000C4F808B0019300F033FD09FB0572D16CDB
:10D57000019B01F001012046019300F092FF8446D7
:10D58000019BD4F84C05D4F84425BCF1000F0DD113
:10D590009342F0D005EB850507EB0515D1B100F0FE
:10D5A0000FFD2946204600F0F3FFC2E705EB850595
:10D5B000934207EB0515F1D10028EFD100F000FDF3
:10D5C0002946204600F0E4FF00F002FD074805B0C0
:10D5D000BDE8F08FC4F80CB0E1E7013654E7044829
:10D5E000F5E70448F3E700BF582400200800AD0B1E
:10D5F0000000AD0B0400AD0B430904D10123034A25
:10D6000083409360704700239B60FFDE00258450B9
:10D6100000F01F0340090BD1084A02EB8302D2F845
:10D620000012074B0B4043F00303C2F8003270476F
:10D630000022803352F82330FFDE00BF00258450E3
:10D64000F0F8FCFF2DE9F84391F8303005460C4620
:10D6500090F804800F6853BB5023DFF85091781C7A
:10D6600003FB0893DE6C46F00072DA6404D038469F
:10D67000FFF7C2FFFFF7CCFF6068411C01D0FFF746
:10D68000C7FE94F82C30012B11D1502303FB0893D3
:10D69000E06846F02066421CDE6401D0FFF7B8FE69
:10D6A000A068431C03D0FFF7A7FFFFF7B1FF94F872
:10D6B0002F0038B950223D4B02FB0833DA6C42F0A0
:10D6C0008072DA6494F82CC094F82D1094F82EE04F
:10D6D000A26A2B6841EA0C01E668D4E90198C3F814
:10D6E00024254EEA0102C3F86C2550B9BCF1010FA4
:10D6F000C3F80C75C3F8149504BFC3F80885C3F8C4
:10D700001065D3F8682503F26458012A08BFDA606F
:10D71000D3F86425012A13D1082149F64046244F45
:10D72000C3F8001547F001075A60D8F800309BBBDA
:10D730002B68D3F88024C3F880240022C3F8002586
:10D7400000212B6894F83220C3F81011D3F810018F
:10D75000C3F82011D3F82001C3F82411D3F8240111
:10D76000C3F84411D3F84401C3F85811D3F8581141
:10D7700043F307335201002BD2B212DB0D49C81814
:10D7800080F800230122580903F01F0302FA03F373
:10D7900041F82030BDE8F8834020B847013EC4D1AD
:10D7A000C6E7054903F00F03CA54F3E758240020E5
:10D7B000A003010000E100E014ED00E000F01F0311
:10D7C00040090BD1084A02EB8302D2F80012074B42
:10D7D0000B4043F00203C2F800327047002280334E
:10D7E00052F82330FFDE00BF00258450F0F8FCFF24
:10D7F0002DE9F3479046502290F80490514C02FBDB
:10D8000009FA04EB0A070D4697F848100646002966
:10D8100040F0858009EB890004EB001005F099F9D0
:10D820002B69AA6944F80A306B69BB6302B1013AFB
:10D83000502303FB0943DA632A6A042A81BFEA6999
:10D840009A610022DA6195F83130B8F1000F37D0D3
:10D8500083F001073F0233B1502303FB0943DA6C25
:10D8600042F00102DA64502303FB09440123C4F8A7
:10D87000048084F848303468D4F84C2112BB29461F
:10D880003046FFF7DFFE0822002334688DF80730AA
:10D89000C4F800250DF10702C4F84425C4F8483542
:10D8A00001230A25A360E360D4F85831002B38D156
:10D8B000254B402043F001039847013DF4D128E077
:10D8C0004746C8E708224FF06409C4F800256360A2
:10D8D0001D4B43F0010AD4F84431F3B9D4F8243194
:10D8E000DBB94FF42070D047B9F10109F3D14B46B1
:10D8F0000022C4F84C21D4F84C11C4F81021D4F8FB
:10D900001011C4F84421D4F84411C4F80025002BA8
:10D91000B5D10E4802B0BDE8F0870123E8E70C4816
:10D92000F8E70023C4F820319845D4F82021C4F842
:10D930000035084B08BF00231F4333680648C3F86F
:10D940000473E7E758240020A00301000100AD0B99
:10D950000500AD0B10020A000000AD0B2DE9F047E9
:10D9600084460F469E4616460579002A51D04FF050
:10D97000500ADFF8BC80D0F800900AFB058ADAF87C
:10D98000044074B96BB9DAF82C50002D43D1CAF8B1
:10D990002C20FFF755FD0446CAF82C502046BDE860
:10D9A000F0871EF0030F07D0734632463946BDE8B4
:10D9B000F0476046FFF744BD07F06043B3F1005FF6
:10D9C0004FF0500414D104FB058400F0F9FAE26A28
:10D9D0001AB1134C00F0FCFAE0E7C4E90A7605EB53
:10D9E0008505484608EB051100F0DDFD0D4CF1E71B
:10D9F00004FB0584A36B83B100F0E2FAE36A002B19
:10DA0000E7D1E36C012243F00203C4E90A76E36440
:10DA1000E5E7054CC2E7024CC0E7044CBEE700BF97
:10DA20000B00AD0B0000AD0B0600AD0B0A00AD0BFB
:10DA3000582400202DE9F84350230679284D046826
:10DA400003FB0653D4F80473DA6AC4F8087322B9E6
:10DA50002448C4F80473BDE8F88306EB860005F19A
:10DA60004C024FEA001802EB0012D2E8EFCF4CF064
:10DA7000080CC2E8E0CF0028F7D10122E26031B300
:10DA8000D96C01EA02094946204600F00AFD002847
:10DA9000FAD000F095FAB9F1000F1CD1D4F820317A
:10DAA00053B10123E360D4F85831002BFBD020465A
:10DAB00005EB080100F06CFD00F08AFA0023C4F8C1
:10DAC0002031D4F82021502202FB0655EB62064893
:10DAD000C4F80473BFE7D4F85831002BE7D1EBE763
:10DAE000582400200500AD0B0000AD0B2DE9F041DE
:10DAF00007793D4E07EB87031B0103F14C050468D2
:10DB00003544D5E8EF2F42F48050C5E8EC0FBCF166
:10DB1000000FF6D1D00462D44A0705D5502202FB8B
:10DB200007629269002A5CD0304AC4F808230822B0
:10DB3000C4F800250022C4F81021D4F81001C4F85C
:10DB40004C21D4F84C01C4F844210803D4F84421F2
:10DB50008A0302F4804200F400504903024301F4B6
:10DB600000410A43D5E8EF1F1143C5E8E01F002834
:10DB7000F8D14FF0500808FB0768D8F80820BAB968
:10DB8000D8F8042062B9D5E8EF3F23F47F0323F4EB
:10DB90007043C5E8E23F002AF5D11548BDE8F081A1
:10DBA000F018032100F08AFCD8F80830002BEAD0E6
:10DBB000502303FB0763DB6CDB0401D40D48EDE766
:10DBC000D4F84C310BB901232360502303FB0763C6
:10DBD0005B68002BF2D0054BC4F80433EEE706482F
:10DBE000DCE70648DAE700BF5824002010020A00EC
:10DBF0000200AD0B0000AD0B0B00AD0B0800AD0B30
:10DC00002DE9F74F056801F06043D5F804A3B3F19F
:10DC1000005F90F8049088461746C5F808A340F0C6
:10DC20008B805023464E03FB09639A6852B15B68B0
:10DC3000002B6CD1D5F81021002A68D0C5F810311E
:10DC4000D5F81031502404FB0964E269C4E9028765
:10DC5000002A3ED009EB890B4FEA0B139742019340
:10DC600006EB0B1B23D200263A46A1694046C4E9C5
:10DC7000026604F049FFE269A069D21BC119E261A2
:10DC800004F00CFF636863B158463A46414600F021
:10DC900026FCE36C980404D5324659462846FFF723
:10DCA00089FB2848C5F804A303B0BDE8F08FA1693B
:10DCB000404604F029FFE36963620023E361D5F87D
:10DCC0000433590717D56368ABB10621584600F0F5
:10DCD000F5FB502303FB0963586ADA689968DB6C2B
:10DCE000121A0144C5F83415C5F83825DA04D8D518
:10DCF00001232B60D5E7144B019A1344D3E8EF1F9F
:10DD000041F40021C3E8E21F002AE2D0F6E75023E5
:10DD100003FB096633698BB9F36CC5F834855B0482
:10DD2000C6E90487C5F83875BBD5D5F8003243F08D
:10DD30002003C5F80032B4E70448B3E70448B1E76C
:10DD4000582400200000AD0BA42400200A00AD0BD5
:10DD50000B00AD0B50232DE9F041354D90F80480B8
:10DD6000046803FB0853DB6CD4F8000203F482233D
:10DD7000B3F5805F5AD1D4F80463C4F8086309B9D5
:10DD8000830648D4D4F8003223F02003C4F80032CC
:10DD90004FF4842308EB8801090101F14C072F445B
:10DDA000D7E8EF0F1843C7E8EC0FBCF1000FF7D12D
:10DDB00022B9502303FB08535B68A3BB1D4BC4F877
:10DDC000083301236360D4F84431002BFBD0502387
:10DDD00003FB0853DA6C12F400421FD1DA612046CB
:10DDE00000F091FB502303FB08550023AB602B612F
:10DDF000D7E8EF3F23F47F0323F47043C7E8E23F03
:10DE0000002AF5D126F4202626F404760A48C4F820
:10DE10000463BDE8F0814FF48033BBE7204629441A
:10DE200000F083FBDBE701236360EFE70348F0E7E3
:10DE30005824002010020A000000AD0B0500AD0BB5
:10DE40002DE9F8432F4A03680679C3F8082343F302
:10DE50000733002B04460DDB01215A0903F01F0391
:10DE6000994002F12003284A42F82310BFF34F8F54
:10DE7000BFF36F8F012220461146FFF76BFF012190
:10DE80002046FFF7D7FD50212279204D236801FB62
:10DE90000252D46CD3F80C05E201D3F81495D3F8F0
:10DEA0000875D3F8108509D54FF0FF32C3F80C255B
:10DEB000C3F81425C3F80825C3F81025A30116D507
:10DEC000411C01D0FFF77AFCB9F1FF3F02D0484670
:10DED000FFF774FC22010AD5B8F1FF3F02D040469B
:10DEE000FFF76CFC7B1C02D03846FFF767FC502321
:10DEF000002203FB0653DA6483F848205A60BDE829
:10DF0000F88300BF10034A0000E100E0582400201D
:10DF100010B550240279094B04FB02335B684BB9FE
:10DF20000368D3F810213AB111B1D3F83C350B6036
:10DF3000034810BD0348FCE70348FAE758240020D3
:10DF40000000AD0B0800AD0B0B00AD0BF7B505469F
:10DF50001646FFF755FE164B0446984222D1032180
:10DF600028462F79FFF7C2FD124B984201D0A042FC
:10DF70001BD15022104B02FB07335B6893B90C4C4A
:10DF8000284601A9FFF7C4FFA042F9D1019BB34283
:10DF900007D301222846114603B0BDE8F040FFF741
:10DFA000D9BE064C204603B0F0BD0446FAE700BFD8
:10DFB0000000AD0B0B00AD0B582400200800AD0B8A
:10DFC00072B6024A1368013313607047A824002018
:10DFD000034A1368013B136003B962B6704700BF80
:10DFE000A82400200722024BC3F80423704700BF77
:10DFF00000300050084BD3F80001D3F8042100385A
:10E0000018BF01200AB140F00200D3F808310BB16B
:10E0100040F00400704700BF003000500022074B62
:10E02000C3F80021D3F80011C3F80421D3F8041178
:10E03000C3F80821D3F80831704700BF0030005002
:10E04000002317200C49012B03F1010201D81346CC
:10E05000F9E703F5C073202A41F823001346F2D1F3
:10E0600000231720044A03F5E0710133202B42F806
:10E070002100F8D1704700BF0030005010B59DF866
:10E080000840C00B43EA0423064CC90B43EA0213C1
:10E09000884200D910BDC2B202F5C07244F82230E5
:10E0A0000130F5E70030005010B59DF8084000F150
:10E0B000604043EA042301F16041074C400B490BE7
:10E0C00043EA0213884200D910BDC2B202F5E072E1
:10E0D00044F822300130F5E700300050C0F30E0361
:10E0E000C3F50043B3FA83F3C3F11B03064AC0F33D
:10E0F000C730DBB240F4807043F48073C2F800058F
:10E10000C2F80435704700BF003000504303014897
:10E1100018447047FF1FF81F044B090241F03001FB
:10E1200000F5007043F82010704700BF0030005029
:10E13000034B090200F5007043F82010704700BF40
:10E1400000300050003A18BF0122003918BF0121E9
:10E1500003688900074841EA4201186359605A6818
:10E1600042F001025A60BFF34F8FBFF36F8F002060
:10E17000704700BF04AAFF0010B5FFF73BFF0F4C2C
:10E18000202120600E4800F050F92368D90703D5FC
:10E190000E210C4800F049F923685A0703D51121D4
:10E1A000094800F042F923689B0705D5BDE81040F7
:10E1B0001021064800F039B910BD00BF742F0020AF
:10E1C000A6030100C6030100D4030100E50301001A
:10E1D0000422014904F098BC742F002008B501F016
:10E1E000BDFD68B902F0ECFC58B9074AD36823F0CA
:10E1F00008031B041B0C43F0BF6343F40033D360DC
:10E2000008BD45F22350FBE700ED00E008B500F043
:10E210008FF8BFF34F8F0549054BCA6802F4E062DF
:10E220001343CB60BFF34F8F00BFFDE700ED00E06D
:10E230000400FA05024B1860024B00201960704779
:10E240007C2F0020782F002013B5374C42692368BB
:10E250005A6282699A62C269DA62026A1A63426A1F
:10E260005A63826A9A63C26ADA63026B1A64426B07
:10E270005A60826B9A60C26BDA60026C1A61426CFF
:10E280005A61826C9A61C26CDA61026D1A62826DA7
:10E290005A65C26D9A65026FDA65026E1A66826E01
:10E2A0005A66426F9A66EFF388825A64EFF3898266
:10E2B0009A644268DA64EFF394821A65026801A8EE
:10E2C0001A67FFF785FF2368019ADA6601221A7040
:10E2D000164B1C68640864002046214622462346EB
:10E2E000B7EE000AF7EE000AB7EE001AF7EE001AD2
:10E2F000B7EE002AF7EE002AB7EE003AF7EE003A42
:10E30000B7EE004AF7EE004AB7EE005AF7EE005AB1
:10E31000B7EE006AF7EE006AB7EE007AF7EE007A21
:10E3200004F07BFC02B010BD7C2F0020782F002071
:10E3300000B5A1B001A8FEF781FC029B63B15B06AA
:10E340000AD4019B23F00203052B05D1044B1B6863
:10E3500013B101A8FFF778FF21B05DF804FB00BFFF
:10E36000782F0020BFF34F8F0549064BCA6802F48F
:10E37000E0621343CB60BFF34F8F00BFFDE700BFE8
:10E3800000ED00E00400FA05F8B543680C2B26D137
:10E390004B68042B23D14FF0FF3304680E682168CB
:10E3A0003360E1B1A268D2B10623012001F0FDFA89
:10E3B000A8B961680B4BD3E9005CA9420AD3A268F3
:10E3C00065448F18AF4205D8206804F09DFB0020FB
:10E3D0003060F8BD0130042803F10803EBD10220BE
:10E3E000F7E700BFF80301004FF47F03D3F83001D3
:10E3F000D3F83431BFF34F8FC0F30B00A0F1090302
:10E400005842584170474FF47F02D2F83031D2F869
:10E410003401BFF34F8FC3F30B03092B03D1431E0A
:10E4200058425841704700207047FEF7D3BD012085
:10E4300070476FF003007047002382B0019301988A
:10E4400002B070476FF003007047002382B0019361
:10E45000019802B07047022814BF6FF0030000203B
:10E460007047FEF733BE30B501EB8202914200D116
:10E4700030BD51F8044B04F07F037F2B4FEA144466
:10E4800008BF4FF0FF33032CF0D8DFE804F002049C
:10E4900006080360EAE74360E8E78360E6E7C360F5
:10E4A000E4E70346D0F8580130B931B9D3F8200178
:10E4B000003818BF012070470120704730B504466E
:10E4C0000D4685B010220021684604F042FBD4E9D5
:10E4D000001368468DF80050984705B030BD7FB5F1
:10E4E00004460E46154600211022684604F031FB12
:10E4F000012368468DF80030CDE90165D4E90013A9
:10E50000984704B070BD10B50446FFF759FDD4F824
:10E51000583133B1D4F8043313F4800308BFC4F87E
:10E520000035BDE81040FFF753BD70B50D460446F9
:10E530000522AA21D0F83C65A86904F00AFB05224F
:10E54000AB69C4F83435C4F838250022C4F810216A
:10E55000D4F810110121E162D4F810110029FBD088
:10E56000C4F84C21D4F84C11C4F81021D4F810216F
:10E57000D4F83C259642EA6109D15A1E043312F8B8
:10E58000011FAA2903D19A42F9D10023EB6170BD82
:10E59000D0F8583133B1CB6CC3F30032DB0458BF31
:10E5A000C0F80025704770B5CE6C0D4606F001012D
:10E5B0000446FFF776FF38B94FF4800346F00406AF
:10E5C000EE64C4F8043370BDD5E90A365AB1296C3B
:10E5D000EA6B761A964228BF164619443246A86B53
:10E5E00004F092FAAB6B4FF0FF326A641BB1C4F8CF
:10E5F0004435C4F848650023C4F82031D4F82021FC
:10E60000C4F85831D4F85821C4F85031D4F85031F6
:10E610000823C4F800354FF48003C4F80433012301
:10E62000A360D0E7C0037047C00300F5FF407F3010
:10E630007047002070471F2070474FF4004070471C
:10E6400000F57F40C03040037047402070475F2096
:10E6500070474FF4005070474B6830B513F01F05FA
:10E660002DD102680C681068C0F30720844226D2BE
:10E670005068556094600C7C23F01F0304F0010483
:10E680001C438B7CDB0003F018031C434B7C5B00BA
:10E6900003F006032343D3608B68013B23F01F0480
:10E6A000CB685B0003F00E03234343F001031361C7
:10E6B0005060BFF34F8FBFF36F8F284630BD0120EE
:10E6C000FCE7036800205A68C9B258609960D860B6
:10E6D00018615A60704770B50546002403681E68CB
:10E6E000C6F30726B44201D1002070BD214628465A
:10E6F000FFF7E7FF0134F5E700207047002070477F
:10E700000020704770470B4670B5114618B10328BA
:10E7100006D0032070BD1846BDE87040FFF734BE38
:10E720005A68082A01D00220F4E74C68042CFAD178
:10E730001D684FF0FF330E68296833600029F2D05E
:10E740006B68002BEFD026237422012001F02DF9F5
:10E750000028E8D1224623230120696801F025F929
:10E7600004460028DFD1D5E90001FFF763FD3060E2
:10E770002046CFE730B50C46154685B038B139B1E3
:10E78000FFF753FE041E03DA204605B030BD0446F1
:10E7900040F60D23ADF80E3009230B4901A805F012
:10E7A0000F028A5C2D091A54013B012BF7D147F661
:10E7B00030030C21ADF80430FFF737FE0028B4BF5A
:10E7C00004462418E0E700BF1804010008B51C4BFC
:10E7D00083F30A881B4801F07BF968BBFFF7FEFC56
:10E7E00050BBFFF789FF38BBFFF788FF00BBFFF77F
:10E7F00089FF00F0C1F835211348FFF716FE01220A
:10E800001A211248FFF7B6FF17211148FFF70DFE36
:10E8100018211048FFF709FE00F08CFA21210E485C
:10E82000FFF703FE00F094F801F018F8002008BD8F
:10E83000FFF766FF0028DAD001F00EF8EEE700BF20
:10E8400000040020AC240020280401005D04010025
:10E85000770401008E040100A604010001F00C03FE
:10E8600070B50C2B0CBF154605464A060C461ED546
:10E870008B0658BF2835AB6913F8026C84F0080387
:10E88000C3F3C003C6F38012934201D000F0E4FF4B
:10E8900016F0A00F1ED176B1032E17D032461C21E0
:10E8A0000E48FFF767FF6FF083032B600CE000F06A
:10E8B000D3FF2026E2E700F069FB0446FEF7C0FB29
:10E8C0002146074801F03FF9204670BD284600F078
:10E8D00037FAF9E732461F210248E2E7C704010090
:10E8E000F80B0020E3040100EFF308807146EFF31A
:10E8F0000982EFF30B830CB406B4FFF7AFFF864633
:10E90000009900F0080001F00801401A02DC12DB57
:10E9100004B070471EF020031CBF2DE9F00FBDF1BD
:10E92000080D0A4C254626462746A046A146A24683
:10E93000A34630B4704704B030BC1EF020031CBFA7
:10E940001DF1080DBDE8F00F04B07047A5EDF5FE10
:10E95000084BDA6882F07F4282F47F0242F4804200
:10E96000DA6000221A765A76DA76DA77602283F84D
:10E970002220704700ED00E0114BD3F8882042F4CC
:10E980007002C3F88820BFF34F8FBFF36F8FD3F8A7
:10E990008C2042F44062C3F88C20D3F8342242F039
:10E9A0008042C3F83422D3F8342242F03C42C3F808
:10E9B00034224FF0E022D36843F42003D360704741
:10E9C00000ED00E0009A164B9A4227D101229043B5
:10E9D000014641EC100B41EC110B41EC120B41ECE8
:10E9E000130B41EC140B41EC150B41EC160B41ECF5
:10E9F000170BEFF3148222F0040282F31488BFF3A2
:10EA00006F8F024603460446054606460746804683
:10EA1000814682468346844686460447FEE70000D8
:10EA2000A5EDF5FE2DE9F041044618B943F6DA30BC
:10EA3000BDE8F0810029F9D08368002513F4406F08
:10EA400014BF012300234FF0180843F00203104EB7
:10EA50000B6000F13007236AAB4201D80020E7E7E2
:10EA6000A369E26907EB830308FB02330C226A43C4
:10EA700099188968090709D59B58B342D6D13068DF
:10EA800020B10121C0F30730FFF746FB0135E2E773
:10EA9000CC1D0020F0B53B4C87B03B48FFF71BFE78
:10EAA000236801255A1C0193384B2260DA681B69E0
:10EAB0004FF4407603930023334801A90292049552
:10EAC000ADF814608DF81630FFF7C6FD18B143F6A7
:10EAD000DA3007B0F0BD23688DF816005A1C019398
:10EAE0002B4B294802932B4B01A9CDE9033522601A
:10EAF000ADF81460FFF7B0FD0028E8D123688DF869
:10EB000016005A1C0193244B1F480293234B01A962
:10EB1000CDE903352260ADF81460FFF79DFD0028B4
:10EB2000D5D1022740F2011623688DF816005A1C31
:10EB300001931B4B144802931A4B01A922600393C3
:10EB40000497ADF81460FFF787FD0028BFD1236854
:10EB50008DF816005A1C0193134B0B480293134B6C
:10EB600001A92260CDE90337ADF81460FFF774FD09
:10EB700004460028ABD12A4629460348FFF7E2FAAB
:10EB80002046A6E7B4240020C81D0020200501006F
:10EB900060050100602E010020C8000020C80000B0
:10EBA000200C0020400C0020000C0020200C002035
:10EBB0000020034BD8765A6A42F470225A6270479A
:10EBC00000ED00E00349044BCA68002092B21343F1
:10EBD000CB60704700ED00E00800FA0500224FF01E
:10EBE000FF300D4B02F1A0010132102A43F8210041
:10EBF000F8D1D3F88022002022F00802C3F8802246
:10EC0000D3F88022D3F8802222F48072C3F88022C5
:10EC1000D3F88032704700BF00E100E008B5FFF78D
:10EC2000E1F90822024BC3F880211A60002008BDD8
:10EC300000E100E0064BD3F8D02022F00102C3F837
:10EC4000D020D3F8D02042F00202C3F8D020704781
:10EC500000ED00E037B50124FFF7F2F91B4D224625
:10EC600005234FF442401A490094FFF707FA224661
:10EC700007234FF0005017490094FFF715FAD5E924
:10EC80000101072300220094FFF7F8F9072300226F
:10EC9000114912480094FFF707FA2969E868013919
:10ECA000FFF71CFA062300224FF4EA200C490094D7
:10ECB000FFF7E4F9062300224FF47E20094900946F
:10ECC000FFF7DCF9002003B030BD00BF20050100D4
:10ECD000FF7F0100FF7F0020FFFF03200080002056
:10ECE000FFBF0D00FFFF0F0038B500240E4D0021BF
:10ECF00015F8010B0134FFF71BFA1D2CF7D100208A
:10ED0000012240F20111094BC3F88004C3F88424A6
:10ED1000C3F8C004C3F8C424054AC2F840154FF430
:10ED20008072C3F8402438BD020501000030005055
:10ED3000009003500122014B1A607047B824002054
:10ED400010B504460A4B22891B686168586806237F
:10ED500050F8140C00F029FE28B9064B1B68012B53
:10ED600001D100F0B3F86FF08603236010BD00BF3F
:10ED700060250020B8240020024801210160BFF373
:10ED80004F8F7047B02400200349086800220A60B2
:10ED9000BFF34F8F70470000B0240020084802687E
:10EDA000002A08D107484FF080510160BFF34F8F10
:10EDB000BFF36F8F704702220260BFF34F8F70471F
:10EDC000B024002004ED00E02DE9F84305461E467E
:10EDD0000068134B9046AA68A0F1080440E902338A
:10EDE000503890420F4601D200F036FDA4F1480998
:10EDF00048220021484603F0ACFE002344E90733D3
:10EE000044F8143C4FF0807344F8043C6FF0020364
:10EE100044E9036744F8208CC5E90093BDE8F88312
:10EE2000A5EDF5FE30B5094C0246616800230846A1
:10EE300040B105686D68954205D11BB1826860607C
:10EE40009A60816030BD03468068F1E73C25002070
:10EE500038B504462AB10B689B68DB0515D5002040
:10EE600038BD0C4B1B685D681C2D01D100F0F4FC13
:10EE7000002255F81C3C99692C338A4203D053F880
:10EE8000040FA04204D19142E9D16FF0FC00E7E702
:10EE90000132F2E76025002070B504460E461546A3
:10EEA000002130220C3003F054FE074B20461B6833
:10EEB000A6605B6865611C3B636000F0CDFA0023CF
:10EEC0002061236070BD00BF60250020064B1B68D9
:10EED0005B681C2B04D053F81C3C0BB1586870477E
:10EEE0004FF0FF30704700BF60250020084B10B581
:10EEF0001B685C681C2C01D100F0AEFC54F81C3C73
:10EF00009B6813F4406F14BF0120002010BD00BFA8
:10EF1000602500202DE9F843904607460C46FFF790
:10EF2000E5FF024624B96FF080042046BDE8F8836F
:10EF30006300F8D5144B04F01F0153F82150002D45
:10EF4000F1D02B6829465868FFF782FFB0B9C4F3A7
:10EF50000721284600F030FE04460028E3D1EFF3F5
:10EF6000108972B600F0A0FA064689F3108840B105
:10EF700042462946FFF790FF3E60D6E76FF08104D6
:10EF8000D3E76FF08204D0E7BC2400202DE9F041E4
:10EF900000F07AFA0023134E134F73607B6000F089
:10EFA0004FFADFF84880304600F022F80446A8B156
:10EFB00039468023424600F083F80546204600F09B
:10EFC00040FE206804F10801FFF72CFD08B100F0B5
:10EFD00043FC2946204600F0F3F8E4E7BDE8F041A1
:10EFE00000F048B94C2500203C250020BC2400201E
:10EFF000F8B5054608B900F02FFC2C4E346814F122
:10F00000290F50D82A4B196804F128038B424AD2A1
:10F01000D4E9063206200C3300FB0233226A02EBED
:10F0200042021344626A02EB820213449B00E3181B
:10F0300001D2994201D200F00FFC23681D4A1B0C3B
:10F040001B04934201D000F007FC2388B3F5817FB5
:10F0500001D300F001FC6368002B01DA00F0FCFB37
:10F06000154A176807F144031360144A1268934263
:10F0700001D900F0F1FBD4E9063206210C3301FB83
:10F080000233226A3C6002EB42021344626A02EBE2
:10F0900082021344326802EB83026B6832603B6485
:10F0A0006F603846F8BD0027FBE700BFDC1D00207D
:10F0B0004C05010000005F5FD81D002048050100DD
:10F0C0002DE9F04F85B0884691460746029300B17E
:10F0D00009B900F0C1FBD7F800A0DAF818100AF15E
:10F0E000300303EB81030193DAF81C40234B1D68C6
:10F0F00054B10C2101FB04541C60214B1B689C4241
:10F1000001D900F0A9FB2C4600262546B346DAF8C3
:10F110001C305B4500D91CB9304605B0BDE8F08F06
:10F120001822019B02FB0B310023AB604B69C5E940
:10F1300000171E438B689A0516D5B9F1000F02D04F
:10F14000029A802A03D0039300F086FB039B13F0FE
:10F15000E00FD9B202D159F821301BB1039100F070
:10F160007BFB039949F82150D8F804300BF1010BCF
:10F17000AB60C8F804500C35C9E700BFD41D0020AF
:10F1800044050100C3680B43C3600023C3630368E5
:10F190009A6892054CBFD86800487047390B010047
:10F1A00038B5064B144600F11C021A600368DD688E
:10F1B00000F0A8F92060284638BD00BF482500208F
:10F1C0000368F7B59A6A9D681B69044613440732C1
:10F1D00023F0070322F00702C0E90923C3610023DB
:10F1E000036280F82D30C38500F11C0303631F4BBD
:10F1F00080F82C50C5F3C02553F8253001AA984754
:10F2000025680146AA68E06912F4007214BF0C2355
:10F21000EB69AE6904BF9B000C33073323F007038F
:10F22000C31A1348E3615860E868186000209860CA
:10F2300052B9182705F1300000EB8600EE6903F1A2
:10F240000C05B2420AD19A60A3616FF00102019BE2
:10F2500004F12C0000F0D2F803B0F0BD07FB020C63
:10F26000DCF810C0013245F804CBEAE7E01D0020CD
:10F27000902C010038B50C480C4D00F07FF80C4B79
:10F280000C4A28461A6000F058FD2B6804465B685B
:10F2900053F8141C53F81C0C00F079FB08B100F073
:10F2A000DBFA204638BD00BF45FC00006025002089
:10F2B00044250020000C002038B50E4B1B685C680C
:10F2C0001C3CEFF30583C3F308030BB100F0C4FA51
:10F2D000094BE2691B689C68A24202D9D9688A423C
:10F2E00005D91D68FFF748FD2846214638BD002492
:10F2F0002546F7E760250020482500202DE9F84342
:10F30000EFF3108772B600F03FF8DFF86C80044628
:10F31000D8F80030A0F12C065D682946F0B1A5F1BF
:10F320001C09B1451AD0EFF30982AB682833934228
:10F3300001D900F091FAB168D9F8080000F0DDFBBE
:10F3400038B1B16854F82C0C00F021FB08B100F082
:10F3500083FAB0EE400A6168C8F80040054B1B68AC
:10F3600013B1B26902B11A6087F310882846BDE86C
:10F37000F88300BF4425002060250020014B186061
:10F38000704700BF54250020104B73B51C68002344
:10F390000193EFF3108572B60D4E6CB120463368C1
:10F3A00001A99847C0B2052860700AD10199606828
:10F3B00000F0CFFB0123637085F31088204602B074
:10F3C00070BD0128F8D0A468E7E700BF58250020E9
:10F3D00054250020C9B20129064B417005D11A6895
:10F3E0002AB101781278914201D3034A106818605B
:10F3F000704700BF582500205C250020F8B50F4E4F
:10F400000446306815461A4618B1237807789F429B
:10F410000BD3A060346060682B46FFF7D5FC204614
:10F42000BDE8F8400121FFF7D5BF0646806810B15E
:10F4300007789F42F9D3A060B460ECE75C25002018
:10F4400008B500F053F8034B986000F055F880F3CE
:10F45000888808BD00ED02E0054A1368013303F017
:10F4600007031360034A0133801A03EBC00070479F
:10F47000642500206825002018B1024B013803EBF9
:10F48000D00070476825002008B58822082340F284
:10F490006C41044800F0DEFC18B1BDE8084000F003
:10F4A000DBB908BD68250020014800F001BD00BFA0
:10F4B00068250020014608B5044800F00AFD002830
:10F4C0000CBF6FF0FC00002008BD00BF68250020C5
:10F4D000014610B5EFF3108472B6034800F0F3FC58
:10F4E00084F3108810BD00BF68250020014B186808
:10F4F000704700BF20050100014B1B68186870476A
:10F5000020050100014B1B68586870472005010069
:10F510000D4B70B51B6804465D680E4655F8103CEF
:10F520001C3D1BB1034201D100F096F9002E08DA10
:10F530002146284600F0A7FB002808BF6FF0FD0019
:10F5400070BD68692040FBE760250020F8B50E46D5
:10F55000054610B1431E034201D000F07DF9264B51
:10F5600030221B6831465C68062354F8140C1C3C9E
:10F5700000F01BFA08B100F06FF963690BB900F0F5
:10F580006BF963692B4201D100F066F9042D28D193
:10F59000EFF3108772B6E36B0BB900F05DF9002250
:10F5A000E36B04F13C01ABB91068D0F88030D0F8BF
:10F5B00084501360E36B1BB9636923F00403636138
:10F5C00087F3108800F10C013022304603F09CFADA
:10F5D0002846F8BD03F180000A46D3F88030014682
:10F5E000E1E72946204600F0C2FA08B10025E9E724
:10F5F0006FF08B05ECE700BF602500202DE9F04F90
:10F6000093B00093584B81461B680D465B681646C5
:10F61000A3F11C0A0BB2002BC1F30268C1F3024B29
:10F6200004DA6FF0800013B0BDE8F08F8B42C36046
:10F6300001D10020F7E708EB0B03042BF1D8CC0F26
:10F6400064014FEAC80731463A46DAF8080044F048
:10F65000020300F0AAF901460028E2D1202202A804
:10F6600003F077FA3A46314602A84FEACB0603F098
:10F670004BFA32460099DAF8080044F0060300F02D
:10F6800094F907460028CCD1014620220AA803F0AD
:10F6900060FA324600990AA802AE03F035FA334602
:10F6A0000137B84514D91A46BC460DE0D2F808E037
:10F6B000D16818687144884203D259680844864565
:10F6C000AFD30CF1010C0832C445EFD10833E7E7A2
:10F6D00015F0006F18BF202409F1180707EB880800
:10F6E00044F00203474513D1202C26D1002D02DB24
:10F6F000C5F3C0456C0109F128050AAE05EB8B0B7B
:10F7000044F006045D451AD1009BC9F87C3090E7AF
:10F710007268DAF8080056F8081B019300F045F902
:10F7200000287FF47EAF56F8042C019B47F8042F85
:10F7300056F8082C38633A62D4E70024DBE7726895
:10F74000234656F8081BDAF8080000F02EF90028C6
:10F750007FF467AF56F8043C45F8043F56F8083C80
:10F7600028642B63CEE700BF602500202DE9F0411F
:10F770001F461A4B0D461B681646D3F8048000F04E
:10F780002DFA044608B900F067F8E368002B01DAA7
:10F7900000F062F8032D01D900F05EF804EB850457
:10F7A000E569E36CED1A16D006233A46314658F85F
:10F7B000140C00F0FAF808B100F04EF8BD4228BF72
:10F7C0003D46E36CE16B2A461944304603F09CF950
:10F7D000E36C2B44E3642846BDE8F08160250020FB
:10F7E0002DE9F0411D461B4B0F461B6816465B6812
:10F7F000A3F11C0800F0F2F9044608B900F02CF857
:10F80000E368002B01DA00F027F8032F01D900F09C
:10F8100023F804EB8704E36AE26E9B1AAB4201D241
:10F8200000F01AF802232A463146D8F8080000F002
:10F83000BCF808B100F010F8E36EE06D2A463146DE
:10F84000184403F061F9E36E00202B44E366BDE841
:10F85000F08100BF60250020FEF7D8BC00DF7047B4
:10F8600070B52DE91F1072B6BFF36F8FFFF724FD3F
:10F87000EFF30B856E4600281FBF002282F30B8832
:10F88000854681F30B8862B6BFF36F8FB6E81F1011
:10F89000E04772B6BFF36F8F00F040FA4FF00002FE
:10F8A00082F30B88B54685F30B8862B6BFF36F8F82
:10F8B00070BD402010EA0E0023D001B5FFF71EFDF9
:10F8C000BDE8044088421CD072B6BFF36F8FEFF3DF
:10F8D00009821EF020031CBF22E9F00F083A80E8DD
:10F8E0000440B1E804401EF020031CBF0832B2E817
:10F8F000F00F0B6882F3098883F30B8862B6BFF3BD
:10F900006F8F704780EA0000E1EE100A00EE100AE7
:10F9100000EE900A01EE100A01EE900A02EE100AC3
:10F9200002EE900A03EE100A03EE900A04EE100AAB
:10F9300004EE900A05EE100A05EE900A06EE100A93
:10F9400006EE900A07EE100A07EE900A08EE100A7B
:10F9500008EE900A09EE100A09EE900A0AEE100A63
:10F960000AEE900A0BEE100A0BEE900A0CEE100A4B
:10F970000CEE900A0DEE100A0DEE900A0EEE100A33
:10F980000EEE900A0FEE100A0FEE900A7047EFF39A
:10F99000148381F00201C1F3400161F3000383F39A
:10F9A0001488BFF36F8F002070472DE9F0410E4699
:10F9B0001546002A4AD0C4074BD480F00204C4F391
:10F9C0004004A40003F00602062A4AD144F00104D0
:10F9D00022462946304602F07DFFB8BB46E800F2D9
:10F9E00005EB0608100E120208F1FF3747E800F396
:10F9F0004FEA136166D51B0264D5884262D046E89F
:10FA000000F547E800F7FEF714FE2D0E85424FEA99
:10FA1000176734D3FEF70FFE874230D82846FEF72B
:10FA200003FE2246C6F101010144304602F052FFB6
:10FA3000002847D00135AF4218D83846FEF7F2FD0E
:10FA40002246A8EB000102F045FFD8B30020BDE834
:10FA5000F081EFF39484A40004F0040444F0120451
:10FA6000B0E7990731D544F00804B1E72846FEF71E
:10FA7000D9FD0646FEF7E1FD22460146D5E7FEF731
:10FA8000E4FD85421ED3FEF7E2FD87421AD82846E0
:10FA9000FEF73CFB2246C6F101010144304602F06C
:10FAA00019FF78B10135AF4203D83846FEF7C8FDDB
:10FAB000C6E72846FEF7C4FD0646FEF7CAFD224605
:10FAC0000146EBE76FF07F00C1E74CF2DA20BEE7BA
:10FAD00010B50446FFF7AEF8FFF7BCF810B143F6D7
:10FAE000DA3010BDFFF700F90028F8D1FEF7D2FF99
:10FAF0000028F4D102232360F3E7884206D083076D
:10FB000006D581F00200C0F3400070470020704726
:10FB10000120704708B5FEF72FFBFEF77FFABDE81E
:10FB20000840FFF799BEEFF30880EFF309812DE954
:10FB3000F00F6B467246FDF787F808B0FFF7EAFF53
:10FB4000FEE70020704704460D46FFF7DBFEA546A2
:10FB500028470368996270470368283383F309884C
:10FB6000836883F30B88BFF36F8F40687047F0B5ED
:10FB70000346EFF3108672B60024C26B00F13C0519
:10FB800020466AB948B10568012CD5F8802002608A
:10FB9000284602BF5A698A435A6186F31088F0BD2D
:10FBA00097683F687F698F4204BF2846013402F19D
:10FBB0008005D2F88020E4E703689A68DB6812F4D5
:10FBC000806F05D18B422CBF00206FF0FA00704788
:10FBD0008B420CBF00206FF0FA00704710B5FFF7A2
:10FBE0004BFC0446FFF766FC50B9FFF76FF9A368BA
:10FBF0005B681B685B68834218BF0024204610BD09
:10FC00000024FBE738B5054648B100F0A4F8B5EB91
:10FC1000D07F044601D0FFF71FFE204638BDFFF716
:10FC200055F9F4E7002310B500F1280252F8041F3B
:10FC300019B1C16F146C19444C600833202BF5D1F5
:10FC400010BD704730B5436844781C3BEFF3108516
:10FC500072B618695A69024010D0042A07D1D868D0
:10FC600040075FBF5A6922F004025A619A6B0A602A
:10FC7000002205201A6185F3108830BD00280CBFD2
:10FC800020460220F7E738B50D46044608B9FFF7CD
:10FC9000E3FDEFF3108372B66069284008BF256169
:10FCA00083F3108838BD38B50D46044608B9FFF710
:10FCB000D3FDEFF3108272B663692B436361616910
:10FCC0002369194214BF6FF0FD00002082F31088F1
:10FCD00038BD38B50546C8B18368BBB11A68AAB14A
:10FCE000586898B1C36B5169C5F88030C563FFF798
:10FCF000DAFF042104466868FFF7C5FF01230028E6
:10FD000008BF6FF0FD042B60204638BD6FF0800403
:10FD1000FAE7406881630421FFF7C5BF10B50446C8
:10FD200000F037F8FFF730F814F1FE0F01D0022889
:10FD300001D1FFF733F8204610BD38B50546FFF76F
:10FD400023FB0446FFF72AF805B12C606068BDE884
:10FD50003840FFF701BF4FF0FF30704708B5FEF79E
:10FD600027FF10B143F6DA3008BDFEF72BFF00285D
:10FD7000F8D1FFF7E6FE0028F4D162B6FDF74AF9A4
:10FD8000FEF72CFF0028EDD1FEF748FF0028EBD04E
:10FD9000E8E78230012808B506D8FFF7A7F818B9B8
:10FDA000BDE80840FFF758BD08BD00207047F8B512
:10FDB00006460D46FFF712FF044608B9FFF74CFD53
:10FDC000A7680FB9FFF748FDE368991C20D05A1CBB
:10FDD00021D1A5B315F1820F13D102232360EFF3D4
:10FDE000108672B629462046FFF793FF054686F334
:10FDF00010882368022B24D12046FFF769FB284690
:10FE0000F8BD15F1830FEAD0FFF726FD0025E6E7E0
:10FE100002232360FAE7002BF6DB2046FFF702FF00
:10FE20003B689B689B0501D50223236015F1810F78
:10FE3000D5D16369002BD2DBFFF70EFDCFE7354646
:10FE4000F4E700232360DAE708B5FEF7DFF96FF087
:10FE5000830008BD2DE9F8430D4617461E460446AB
:10FE600018B313B302F1040903FB09F808F10C03FA
:10FE70008B421AD10A46002102F06BFE002004F1E9
:10FE80000C031A46014601318E42106002EB090C48
:10FE9000104608D10020A8EB09084344C4E9003704
:10FEA000A560BDE8F8836246EDE76FF0F800F8E77B
:10FEB000034638B1006828B102681A60002340F890
:10FEC000043B7047704702680B1F41F8042C036025
:10FED000704700F10C0399420DD3C91A83688B4215
:10FEE00009D943680433B1FBF3F203FB1210031F7B
:10FEF000584258417047002070472DE9F3410E46A3
:10FF0000174698460546FEF7F1FFFFF77BFE2946A8
:10FF1000024601A8FEF7FEFF044660B943463A4692
:10FF200031460198FFF76AFB044640B16B0002D5E9
:10FF30000198FFF7CDFA204602B0BDE8F0810198A4
:10FF4000FFF7C7FE0446F6E740F20110704770B5B0
:10FF50000546FEF7CBFF06462846FEF763FF04463C
:10FF600008B9002070BD014632462846FEF770FFF2
:10FF70000028F6D12368D868F4E770B50D46164618
:10FF8000FFF72CFE044608B9FFF766FCE368002B78
:10FF900001DAFFF761FC032D01D9FFF75DFC04EBEB
:10FFA0008504E36CE069C01A04D0B04228BF304633
:10FFB0000344E36470BD464154414C204552524FC6
:10FFC000523A2000486172644661756C740D0A00F3
:10FFD0004D656D4D616E616765206661756C740D70
:10FFE0000A004275734661756C740D0A00557361A1
:10FFF00067654661756C740D0A00536563757265BB
:020000040001F9
:100000004661756C740D0A0052657365727665649D
:1000100020457863657074696F6E2000506C617460
:10002000666F726D2065787465726E616C20696EA2
:100030007465727275707420284952516E293A2085
:10004000004865726520697320736F6D6520636F6A
:100050006E7465787420666F7220746865206578A8
:1000600063657074696F6E3A0D0A00202020204588
:1000700058435F52455455524E20284C52293A203D
:100080000020202020457863657074696F6E2063BE
:10009000616D652066726F6D0020736563757265B2
:1000A00020465720696E00206E6F6E2D7365637554
:1000B000726520465720696E00207468726561641D
:1000C000206D6F64652E0D0A002068616E646C659A
:1000D00072206D6F64652E0D0A002020202078505C
:1000E00053523A2020202000202020204D53503A07
:1000F000202020202000202020205053503A202073
:1001000020202000202020204D53505F4E533A20C5
:100110002000202020205053505F4E533A202000D2
:1001200020202020457863657074696F6E206672A8
:10013000616D652061743A2000202020202020205D
:10014000284E6F746520746861742074686520653A
:100150007863657074696F6E206672616D65206D7D
:10016000617920626520636F7272757074656420B6
:10017000666F7220746869732074797065206F6689
:10018000206572726F722E290D0A00202020202017
:1001900020202052303A2020200020202020202023
:1001A000202052313A202020002020202020202012
:1001B0002052323A20202000202020202020202001
:1001C00052333A20202000202020202020202052BE
:1001D00031323A20200020202020202020204C52A4
:1001E0003A20202000202020202020202050433AA8
:1001F0002020200020202020202020207850535232
:100200003A20002020202043616C6C6565207361DA
:1002100076656420726567697374657220737461B2
:1002200074653A00202020202020202052343A20DB
:10023000202000202020202020202052353A20207D
:100240002000202020202020202052363A2020206C
:1002500000202020202020202052373A202020007B
:10026000202020202020202052383A20202000204A
:100270002020202020202052393A20202000202039
:100280002020202020205231303A20200020202021
:1002900020202020205231313A2020002020202010
:1002A000434653523A2020002020202042465352F9
:1002B0003A20200020202020424641523A200020AF
:1002C000202020424641523A20204E6F7420566131
:1002D0006C69640D0A00202020204D4D4653523A8F
:1002E0002000202020204D4D4641523A2000202061
:1002F00020204D4D4641523A204E6F742056616C7D
:1003000069640D0A0020202020554653523A2020CF
:100310000020202020484653523A20200020202050
:1003200020534653523A202000202020205346419B
:10033000523A200020202020534641523A204E6F4E
:10034000742056616C69640D0A00000059D00000E9
:100350002FE400000DD30000BDD2000057E40000E0
:1003600063E4000091D0000033E4000079D0000085
:1003700085D0000045D1000039E4000045E40000CC
:100380004BE400001D0000001B0002001C000100E7
:100390001A00030003020202000000000000000037
:1003A0000338FDD87047506C6174666F726D2045DC
:1003B0007863657074696F6E3A20535055204661BA
:1003C000756C740D0A00202052414D414343455243
:1003D000520D0A00202050455249504841434345A0
:1003E00052520D0A002020464C4153484143434598
:1003F00052520D0A0000000000C000000002000080
:100400000002FF002C0000003001FF000800000087
:100410004001FF000C0000003031323334353637F4
:1004200038394142434445461B5B313B33346D5BB5
:10043000536563205468726561645D20536563751C
:10044000726520696D61676520696E697469616CA8
:10045000697A696E67211B5B306D0D0A0054462D69
:100460004D2069736F6C6174696F6E206C65766581
:100470006C2069733A200054462D4D20466C6F6104
:1004800074204142493A20486172640D0A004C616F
:100490007A7920737461636B696E6720656E61623F
:1004A0006C65640D0A001B5B313B33346D426F6F2A
:1004B00074696E672054462D4D2076322E302E30D2
:1004C0001B5B306D0D0A00556E6B6E6F776E20539F
:1004D000504D205356432072657175657374656481
:1004E0003A2000556E6B6E6F776E20535643206E28
:1004F000756D626572207265717565737465643AB5
:1005000020000405090A0B0E0F1011141517181BF3
:100510001C1D1E1F202122232426282A39423A008E
:100520000080010000800100FF2F0700007C010017
:100530000080010000500700FFBF0D0000E00F0029
:10054000FFFF0F00AC1F0020941F002008C4000014
:10055000FFFFFFFFFFFFFFFFFFFFFFFFFFFFFFFFAB
:10056000009A204B9A4208D110B500F0C1F802F071
:1005700017FA06BC96460C46744700F005F9009A37
:10058000184B9A4208D110B500F0BAF802F008FAF8
:1005900006BC96460C46744700F0F6F80CB4029A76
:1005A000104B9A420CD14FF0004319430CBC10B5CC
:1005B00000F0AEF802F0F4F906BC96460C4674471B
:1005C00000F0E2F8009A074B9A4202D10649086807
:1005D000744700F0D9F8009A024B9A4200D1744750
:1005E00000F0D2F8A5EDF5FEA01D00200348044B55
:1005F000834202D0034B03B118477047C81E002046
:10060000C81E0020000000000548064B1B1AD90F29
:1006100001EBA301491002D0034B03B11847704707
:10062000C81E0020C81E00200000000010B5064CA7
:10063000237843B9FFF7DAFF044B13B10448AFF353
:1006400000800123237010BDC023002000000000A3
:10065000542E010008B5044B1BB104490448AFF304
:100660000080BDE80840CFE700000000C423002060
:10067000542E0100A3F5803A704700BF174B002BA2
:1006800008BF134B9D46FFF7F5FF00218B460F4631
:100690001348144A121A02F05CFA0E4B002B00D0D9
:1006A00098470D4B002B00D09847002000210400F4
:1006B0000D000D48002802D00C48AFF3008002F076
:1006C000E5F820002900FEF781F802F0CBF800BF22
:1006D000000008000000000000000000F80B0020EF
:1006E000C81E002038380020000000000000000074
:1006F000024B1B685B689B68184700BF000C00201A
:10070000024B1B685B685B68184700BF000C002049
:1007100010B4044C246864682468A4465DF8044B53
:10072000604700BF000C0020024B1B685B68DB6861
:10073000184700BF000C0020024B1B685B681B6958
:10074000184700BF000C002010B4044C24686468F3
:100750006469A4465DF8044B604700BF000C0020AC
:1007600010B4044C24686468E469A4465DF8044B42
:10077000604700BF000C0020024B1B685B681B6ACF
:10078000184700BF000C0020024B1B685B685B6AC7
:10079000184700BF000C002001680E4A0346914232
:1007A00015D1C169A2F11022A2F1EF1291420ED12E
:1007B0008268012A0BD8C26812B101698A4206D048
:1007C000586928B19B691B1A58425841704701204B
:1007D000704700BF55AA00FF0D4B70B59E68A6B1CB
:1007E0003046FFF7D9FF044678B9F3686BB935692D
:1007F0000DB9204670BD2846FFF7CEFF28B9EB683B
:10080000B34202D12E462D69F2E70124F1E700BF81
:10081000D42900202DE9F041394E3468F368D4B171
:10082000B468C4B1002861D000295FD001FB00F595
:10083000B5FBF0F0884259D1291D57D8AA070DD031
:1008400025F0030204321C4603E0616891424FD256
:10085000A469002CF9D12046BDE8F0812A46F2E7D0
:10086000891A232904F12007D4E9050C1AD8012399
:10087000A360A0B1C0F818C0A36903B158610023F8
:10088000C4E905333369DB0702D5FFF7A5FFA0BB39
:100890002A46002138463C4602F05BF9DBE7C6F801
:1008A0000CC0E9E702F1200804EB08032039C3E992
:1008B000011E2169DFF84CE0DC60196144F808E0B2
:1008C000AEF1102EAEF1EF1EC3F81CE001B1CB600B
:1008D000C3E9050C40B18361996901B14B61012104
:1008E0002361C4E90121CAE7F360F5E70024B2E718
:1008F000D4F808E0BEF1000FB2D0012001F0B2FF41
:10090000D429002055AA00FFF8B5054600283AD0A2
:10091000364E3368002B36D0B268002A33D083427B
:1009200003D872681344984202D3012001F09AFF61
:10093000A0F120042046FFF72FFF0028F5D155F83D
:10094000183C012BF1D145F8180C55E90570DFB1C1
:10095000BB68CBB955F81C2C7B68203213447B60F4
:10096000386100B1C76020220021204602F0F1F872
:10097000386908B183682BB333699B0703D5FFF748
:100980002BFF0028D1D1F8BD40B3836833BB426848
:1009900063681344203363600369D4E9052123614C
:1009A00092B9B9B9426981696261A161A2B19461E8
:1009B000A26902B1546103B1DC602022002102F07F
:1009C000C8F8D9E73C46E2E79161A1690029E9D07E
:1009D0004A61E7E7F160F8E7F460E9E7F36845F8B2
:1009E000083C03B15C61F460C6E700BFD429002075
:1009F00038B50D46142200210446124802F0A9F829
:100A00001149124800F02CF8232D1AD914F00303D1
:100A10001FBF043DED18C3F10403E4182A4600216A
:100A2000204602F096F8074B094AC3E900459C604E
:100A30002260A2F11022203DA2F1EF126560E26176
:100A4000DC6038BDD4290020090901001508010027
:100A500055AA00FF014B1B68184700BFE81D002086
:100A6000024B1860024B002019607047EC1D0020FB
:100A7000E81D002010B50A46044619B1024B0021BA
:100A80001B68984710BD00BFF01D0020054B0A46AB
:100A9000197819B10146181D02F0ACB86FF0880042
:100AA000704700BFE829002010B5074C00F032F86D
:100AB000204602F0B0F8201F0821FFF7DBFFBDE859
:100AC000104002F094B800BFEC29002070B50C4D26
:100AD0002B787BB902F089F8044670B90126281DED
:100AE0006E7002F085F8044638B900F00BF8044641
:100AF00018B92E700024204670BDFFF7D5FFFAE725
:100B0000E82900200122024B002083F8802570474D
:100B1000F0290020F8B5074C20252646012720465D
:100B2000276202F051F8013D04F12C04F7D186F858
:100B30008055F8BDF02900202DE9F04F01251F4B0D
:100B40008DB0D3F80090D9F80820D9F8003095403E
:100B5000013D1BB1984708B1FFF716FE4FF0010A9F
:100B60004FF000412846FFF7DFFD0026044609F15B
:100B70000C07002CF4D0D9F80830B34202D8FFF7A4
:100B800003FEEDE70AFA06F814EA080F12D03B68F4
:100B90000BB9FFF7F9FD69464046FFF7CDFD3B680D
:100BA0006846DDF804B0984701465846FFF7E4FD73
:100BB00024EA080401360437DBE700BF000C0020FC
:100BC00010B50C4C236813B10B4B1B682BB900F00C
:100BD00089FC30B90122084B1A60012323600020F0
:100BE00010BD0138062801D9044810BD044B53F844
:100BF000200010BD842F0020802F0020FE8FFFFFDB
:100C0000BC2C0100144B2DE9F043002814BF04460E
:100C10001C46124F236883B0BB4219D016460D46BE
:100C200020464FF4147104F1040900F047F804F56C
:100C30008E78484600F0CEF8404600F019FA2B4670
:100C40004A4640460649009600F034FB08B9276042
:100C5000002003B0BDE8F083882F0020A5BCC95A4E
:100C6000590E010070B50D4C1D46002814BF0646F4
:100C700026460B4B306882B098420DD106F58E7037
:100C8000002633460096144600F03EFB002818BFAD
:100C900034462C6002B070BD0248FBE7882F00206C
:100CA000A5BCC95AE88FFFFF38B131B10022014419
:100CB0000346013081421A70FAD1704738B131B120
:100CC000002201440346013088421A70FAD170476D
:100CD0002DE9F043202B1D460646884691468BB0F1
:100CE00026D8DBB202AF8DF80480B04658F8041B5A
:100CF0008DF8053021B9404601F038F9044640B975
:100D0000012302224046336001A901F043F9044661
:100D100038B138462021FFF7D1FF20460BB0BDE89F
:100D2000F0832A464946404601F034F90446F0E78C
:100D300002AF1946104600233A4601F0B1FA0446C4
:100D40000028E6D12023B9461D46CCE72DE9F04125
:100D5000D0F8F830A6B0002BD8BF02AE31DD054682
:100D60000027D0F80C4102AEA4F101089022D5F87A
:100D7000FC403146D0F8000101AB0197B8FA88F881
:100D8000A0474FEA5818044620B9019B53B9B8F15F
:100D9000000F16D030469021FFF790FF204626B076
:100DA000BDE8F081014632462846FFF791FF58B969
:100DB000D5F80431019A1344C5F80431B8F1000F95
:100DC000E8D16FF03C04E5E70446204626B0BDE8D4
:100DD000F08100BF70B500250446142204F5887622
:100DE0002946C0F8F850FC3001F0B3FE082229462D
:100DF000304601F0AEFE144B30461B689847204643
:100E000040F8045B01F098F8104B30461B68984797
:100E1000C8B9D4F8F830AB420FDC03EB830204EB23
:100E200082022021C2F800010120C2E942100849D3
:100E30000133C2F8FC10C4F8F830064B3046BDE868
:100E400070401B68184770BD101E00200C1E00204B
:100E50003D1E0100081E00202DE9F047202A88B021
:100E60007AD83F4B00F5887904461B6848461746F8
:100E7000884698470546F8B940F20116D4F8F8308C
:100E8000002B65D02046FFF761FF054638B9D4F83E
:100E9000F830002B14DC013EF2D16FF03B056E46BA
:100EA00020213046FFF70AFF2E4B48461B68984723
:100EB000002818BF6FF01D05284608B0BDE8F08770
:100EC000D4E94132934203D3D4F80C21012A02D051
:100ED000013ED7D1E1E71F2BFAD96E460146202209
:100EE000304604F1040A01F034FE3146504601F068
:100EF0007BF805460028D3D1504601F031F8504622
:100F000001F01AF82946504601F030F8054600284D
:100F1000C6D150462022314601F03CF80546002853
:100F2000BED1034632462021304601F0B9F90546CC
:100F30000028B5D1D4F8F8303A46002BC8BF0023BA
:100F400040463146C8BFC4F8043101F0DDFDA7E7D3
:100F50006FF03F056E46A3E76FF03B05ACE700BFBF
:100F60000C1E0020081E002070B590B000287AD01A
:100F70003E4C0D46402236210646204601F0E9FD52
:100F800040225C21A01801F0E4FD2B1DA34203D9EF
:100F900004F144039D4252D32B68226853402360DE
:100FA0002B68226C534023646B6862685340636013
:100FB0006B68626C53406364AB68A2685340A36083
:100FC000AB68A26C5340A364EB68E2685340E360F3
:100FD000EB68E26C5340E3642B6922695340236160
:100FE000226D2B695340236562696B6953406361CD
:100FF0006B69626D53406365AB69A2695340A3613D
:10100000AB69A26D5340A365EB69E2695340E361AC
:10101000EB69E26D5340E3650021304600F0A6FF26
:10102000044628B940223046104900F0B3FF044678
:1010300040216846FFF742FE204610B070BD631E97
:1010400004F13F01013D1F3415F8010F13F8012F82
:1010500042401A7011F8012F2878A34282EA000258
:101060000A70F1D1D8E76FF07304E5E7D8310020BA
:1010700010B54FF49A720021044601F06AFD42F265
:101080001072044BC4F8202104F596701B68BDE86B
:1010900010401847101E00202DE9F04F04468846E6
:1010A000914695B0002900F0A780002A0CBF0126C8
:1010B000022600238DF80C30002C00F09F80DFF812
:1010C00044A104AF0AF1400B0021204600F04EFF7E
:1010D000034648B1384620210193FFF7EFFD019BFD
:1010E000184615B0BDE8F08F40225146204600F06A
:1010F00051FF03460028EDD104F1F40520222946D2
:10110000204600F047FF03460028E3D10122204695
:1011100003A900F03FFF03460028DBD1022E62D076
:1011200020460CA900F060FF03460028D2D10146FA
:10113000204600F01BFF03460028CBD14022594631
:10114000204600F027FF03460028C3D12022204676
:101150000CA900F01FFF03460028BBD139462046EA
:1011600000F042FF03460028B4D139462046FFF77D
:10117000FBFE03460028ADD120222946204600F080
:1011800009FF03460028A5D120460CA900F02CFF3A
:10119000034600289ED10146204600F0E7FE0346A4
:1011A000002897D140225946204600F0F3FE03461E
:1011B00000288FD1202220460CA900F0EBFE034628
:1011C000002887D12946204600F00EFF034600285C
:1011D00080D19DF80C200132D2B2B2428DF80C20A1
:1011E000FFF472AF76E74A464146204600F0D2FE51
:1011F0000346002894D06DE701265AE76FF0730389
:1012000004AF67E7D83100202DE9F0410446884655
:1012100015461F46D0F81801E0B013B100EB4000AE
:101220004008B5F5807F3ED82844B0F5C07F3AD855
:101230004FF4C0720021684601F08BFC6946D4F877
:101240002431D4F81821D4F82801984770BBD4F879
:10125000186157B1D4E9493072080DEB060198477F
:1012600020BBD4F8183106EB5306B8F1000F00D0BC
:101270008DB9324669462046FFF70EFF054610B984
:101280000123C4F8143131466846FFF717FD28469C
:1012900060B0BDE8F0810DEB060041462A462E44C1
:1012A00001F032FCE5E76FF00405F0E76FF00805A8
:1012B000EDE700BF2DE9F047044604F1F4050F46C1
:1012C00091461E46DDF8208000F036FE2946204675
:1012D000FFF74AFE08B1BDE8F08728462022012129
:1012E00001F037FCD4F81831C4F82471C4F82891FF
:1012F00013B92023C4F81831424631462046BDE8D0
:10130000F0470123FFF780BFB2F5806F00F29580B0
:101310002DE9F04F89B09A46129BB3F5807F00F219
:101320009080D0F82431164604460F464BB3D0F8CF
:101330001C31012B05D0D0F81421D0F820319A426D
:101340001FDD514600232046129AFFF75DFF01463C
:1013500098B900231293002E5ED0DFF8EC9009F1CB
:10136000400B0021204600F001FE202E35460146AC
:1013700028BF202504F1F40890B1084609B0BDE863
:10138000F08FBAF1000FE6D0129B002BE1D051464E
:101390001A462046FFF780FE01460028DBD0ECE726
:1013A00049464022204600F0F5FD01460028E4D1E0
:1013B00041462022204600F0EDFD01460028DCD108
:1013C0006946204600F010FE01460028D5D120468F
:1013D00000F0CCFD01460028CFD1594640222046DE
:1013E00000F0D8FD01460028C7D1694620222046DA
:1013F00000F0D0FD01460028BFD14146204600F054
:10140000F3FD01460028B8D138462A46414601F08E
:101410007BFB761B2F44A4D151462046129AFFF73E
:101420003BFE01460028A8D10846D4F81431013308
:10143000C4F8143109B0BDE8F08F6FF0020108461E
:1014400070476FF0040198E7D8310020002130B5D3
:101450008DB0282202A8019101F07BFB02A800F0C8
:1014600047FF044610B120460DB030BD174D4FF078
:10147000FF31286800F042F9044620B1144800F01A
:10148000D3F9012C18D0002000F068F9D0B9114A26
:1014900002A901A800F0C4FC0446012000F05EF996
:1014A00060B9286800F032F90028DCD00A4800F062
:1014B000BBF920460DB030BD0524F2E7074800F027
:1014C000B3F9EEE7064800F0AFF9E0E7F41D0020BD
:1014D000D82C010058320020302D0100102D0100C1
:1014E000F02C010030B583B000F05CF828B100F0BA
:1014F000ABF80324204603B030BD00F077F8D8B92C
:1015000000F02CF9E0B9224CD4F828391B0EF02B4E
:101510000AD1D4F8242A1F4B9A4231D000F044F863
:10152000072400F091F8E5E7062400F03DF800F00C
:101530008BF8204603B030BD0424204603B030BDF4
:1015400000F032F800F080F8FFF780FF044698B909
:10155000114D2B68002BCDD102460146FFF752FBFF
:1015600050B968220D4901ABFFF77CFB20B920463A
:101570000B4B2B6003B030BD0524204603B030BDBB
:10158000012000F0EBF80028DAD1C4F80C0ADBE700
:10159000001084500000E020783400207C340020CB
:1015A0005AEA5A5A0020704700207047430504D574
:1015B0004FF0FF32034BC3F80821024BC3F8080A6F
:1015C000704700BF00108450014BC3F8040A7047F5
:1015D0000010845008B100F06BB84FF475007047EC
:1015E00008B100F04FB84FF47500704710B51148BE
:1015F00000F070F800B110BD0F4800F06BF8002843
:10160000F9D10E4C204600F065F80028F3D10C4BC0
:101610000C481C6000F05EF801460028EBD100F099
:101620002DF8044608B1204610BD00F079F8204698
:10163000FAE700BF041E0020001E0020FC1D002051
:10164000F41D0020F81D002008B5084800F04CF8F3
:10165000074800F049F8074800F046F8064800F04F
:1016600043F8BDE8084000F00BB800BF041E00209E
:10167000001E0020FC1D0020F81D002000207047E7
:10168000704700BF024610B4084CD4F8003A134229
:10169000FBD021B1D4F804310B60C4F80831034BFE
:1016A0000020C3F8082A5DF8044B704700108450EE
:1016B000044AD2F8003A1842FBD0C2F8080A0020C7
:1016C000704700BF0010845001F0E8B90A460021BD
:1016D00001F03FBA08B5034B02681B6810689847D1
:1016E000002008BD301E002008B5034B02685B686F
:1016F00010689847002008BD301E0020024B026889
:101700009B681068184700BF301E002008B5034BC7
:101710000268DB6810689847002008BD301E002072
:1017200070B5094C094D2069AB68984718B1084B52
:1017300008485B6898470021074AEB6811602069F8
:10174000BDE87040184700BF1C1E0020301E00205E
:10175000141E0020482D0100E4340020F8B51A4D75
:101760001A4E0446B26828699047E8B9184F3B689A
:101770004CB1A3B1012B19D0013B3B602869F36840
:1017800098470020F8BD43B90121124AC2F800155C
:101790001149D1F81029002AFBD101333B60F368CD
:1017A000286998470020F8BD0C48F8BD0A4AD2F8CD
:1017B0001039002BFBD1074A6FF07E40C2F800358C
:1017C000FFF702FF3B68D7E71C1E0020301E0020F9
:1017D000E43400200000845000108450E98FFFFFA3
:1017E000014B1B68184700BF301E0020014B9B684F
:1017F000184700BF301E0020014BDB68184700BFB0
:10180000301E0020BFF34F8F0549064BCA6802F413
:10181000E0621343CB60BFF34F8F00BFFDE700BF13
:1018200000ED00E00400FA0530B44FF0FE32002570
:10183000074B084C08494968C3F80024C3F804243E
:10184000C3F80824C3F80C24C4F8005530BC08477A
:101850000010845000008450141E002010B504466F
:1018600050B1636813F0685F05D0064A934202D016
:1018700000236260236010BD034B04485B689847F7
:10188000EFE700BF2C5F5CA9141E0020682D01004B
:10189000C8B143680D4A934213D013F0685F0ED06D
:1018A000012350E8002F194640E8001C9CF0000F6F
:1018B000F7D1012AF5D0BFF35F8F002070470448AD
:1018C0007047044870476FF4E04070472C5F5CA994
:1018D000E98FFFFFEA8FFFFF034680B142680949A5
:1018E0008A420AD012F0685F05D0BFF35F8F0022F2
:1018F00010461A60704704487047044870476FF4F8
:10190000E04070472C5F5CA9E98FFFFFEA8FFFFF83
:1019100010B5044620B10023034A2360626010BD65
:101920000248FFF781FFF6E73A00003A902D0100E8
:101930002DE9F047002878D00C46002975D01D46C7
:10194000002B72D007461AB1012200232A600360DF
:101950002B68002B64D02946204600F0B7FD804656
:1019600000285FD12146286800F096FD80460028B7
:1019700058D12B68082B6CD0042B6DD0A3F1020931
:10198000B9FA89F94FEA59190121354EC6F8C4113F
:10199000C6F84011C6F8C411636AC6F83031D6F8EB
:1019A00030219342F6D14FF0000A4FF0FF30C6F8D5
:1019B0002CA1FFF7FBFD6FF01B035046C6F800316A
:1019C000FFF702FEC6F80C91D6F8040A40F48060D6
:1019D000FFF7FAFD0A23C6F83831089B012B29D0FE
:1019E0002369204AA2FB03231B09626A404602FBCB
:1019F00003F303EB43031A4ADB039B09C2F8D83114
:101A00000123C2F82C313B682A6823F07F4343EA64
:101A100002633B602A6843EA02233B60BDE8F0872B
:101A2000DFF844804046BDE8F087DFF8408040465C
:101A3000BDE8F0874FF47F03D3F80C2C013206D0B9
:101A4000D3F80C3C074AA2FB03231B09CDE716235E
:101A5000CBE74FF0030997E74FF0020994E700BF87
:101A600000108450ABAAAAAA310CF100350CF10089
:101A700058B34B1EB3F5047F27D230B54FF0000E9C
:101A8000CD00744671464B0901F01F0C50F823300D
:101A9000BCF11F0F23FA0CF306D003F0010319B9B0
:101AA00001211C468E46EEE79C4201F1010106D061
:101AB0001C464FF0010EA942E5D1002030BD0EF1C9
:101AC000010E9645F7D1024830BD0148704700BF6E
