:020000040000FA
:10000000985200201922000003730000052200000E
:100010000522000005220000052200000522000044
:10002000000000000000000000000000D9230000D4
:1000300005220000000000005D23000005220000F2
:10004000E5250000E5250000E5250000E525000088
:10005000E5250000E5250000E5250000E525000078
:10006000E5250000E5250000E5250000E525000068
:10007000E5250000E5250000E5250000E525000058
:10008000E5250000E5250000E5250000E525000048
:10009000E5250000E5250000E5250000E525000038
:1000A000E5250000E5250000E5250000E525000028
:1000B000E5250000E5250000E5250000E525000018
:1000C000E5250000E5250000E5250000E525000008
:1000D000E5250000E5250000E5250000E5250000F8
:1000E000E5250000E5250000E5250000E5250000E8
:1000F000E5250000E5250000E5250000E5250000D8
:10010000E5250000E5250000E5250000E5250000C7
:10011000E5250000E5250000E5250000E5250000B7
:10012000E5250000E5250000E5250000E5250000A7
:10013000E5250000E5250000E5250000E525000097
:10014000E525000053B94AB9002908BF00281CBFA3
:100150004FF0FF314FF0FF3000F00CB8ADF1080C5C
:100160006DE904CE00F008F8DDF804E0DDE90223D3
:1001700004B07047704700BF2DE9F04786468C46B3
:100180000846089E154674461946002B40F0C1806B
:100190008542B2FA82F245D94AB1C2F1200300FA8F
:1001A00002FC954094402EFA03F343EA0C0C4FEA0C
:1001B000154EA8B2230CBCFBFEF80EFB18CC08FBB6
:1001C00000F943EA0C43994528D9EB1808F1FF37A9
:1001D00004D2994502D9A8F102072B44A3EB0903E5
:1001E000A4B2B3FBFEFC0EFB1C330CFB00F044EA94
:1001F0000344A04214D92C190CF1FF3304D2A042BD
:1002000002D9ACF102032C44241A43EA07401EB180
:10021000D440002334607360BDE8F0874746DDE7D3
:100220006346F1E792BB431B01214FEA154EAFB283
:10023000200CB3FBFEFC0EFB1C330CFB07F840EA62
:100240000343984561D9EB180CF1FF3004D298456F
:1002500002D9ACF102002B44A3EB0803A4B2B3FB18
:10026000FEFC0EFB1C330CFB07F744EA0344A742D9
:100270004DD92C190CF1FF3304D2A74202D9ACF1AD
:1002800002032C44E41B43EA0040C0E7C2F1200310
:100290009540944020FA03F12EFA03F34FEA154EED
:1002A0009040AFB20343B1FBFEFC0EFB1C10190CD7
:1002B0000CFB07F841EA0041884522D969180CF186
:1002C000FF3004D2884502D9ACF102002944A1EBE9
:1002D00008019BB2B1FBFEFC0EFB1C110CFB07F7E7
:1002E00043EA01439F420ED9EB180CF1FF3104D2CF
:1002F0009F4202D9ACF102012B44DB1B41EA0041D1
:1003000093E76046E3E76146F7E76046A4E76346A4
:10031000B8E7834206D916B9002108467CE7C6E94A
:1003200000E0F9E7B3FA83F78FB9834201D372454E
:1003300008D8BEEB020460EB030301209C461EB903
:10034000002169E73846FAE7C6E9004CF8E7C7F14B
:10035000200CBB400EFA07F522FA0CF42EFA0CF131
:10036000BA401C4320FA0CF3B8404FEA1449014349
:100370001FFA84FEB3FBF9F809FB18300B0C08FBDD
:100380000EFA43EA00439A4540D9E31808F1FF30DA
:1003900004D29A4502D9A8F102002344A3EB0A0330
:1003A00089B2B3FBF9F809FB183308FB0EFE41EAEA
:1003B00003418E452CD9611808F1FF3304D28E45D4
:1003C00002D9A8F10203214443EA0040A1EB0E0147
:1003D000A0FB02984145CE46434602D306D14D4587
:1003E00004D20138B9EB020E68EB0403002EA7D04B
:1003F000B5EB0E0261EB030101FA0CFC22FA07F3E4
:10040000F9404CEA0303C6E9003199E74046C5E7E5
:100410004346D9E77FB52E4B2E4A4921C3F8002623
:100420002D48C3F80426C3F80826C3F80C26C3F8E1
:100430001026C3F81426C3F81826C3F81C2606F0A5
:10044000D3FE06F06FFA00F089FA054601A800F025
:100450002FFD0446284600F091FA204B1B68A3426A
:1004600005D045211E4806F0BFFE06F05DFB039A4D
:1004700049211C4806F0B8FE49211B4806F0B4FE8D
:1004800069469DF8080000F033F8009B039C1C446B
:10049000019B1D8903F018F8661901F079F801F045
:1004A00049F801F063F8002383F30B8883F30A888B
:1004B000625982F3088883F31488BFF36F8FBFF308
:1004C0006F8F736898474521084806F08DFEFEE758
:1004D000008001503546526E56850000080000200D
:1004E0006F85000092850000C1850000E685000050
:1004F000024608B538B105480023452106F074FED0
:100500006FF0150008BD0860FCE700BF0986000019
:1005100021B1012906D06FF015007047044B53F844
:1005200030007047024B03EBC0035868704700BFB0
:10053000388100002DE9F04FDFF844B2DDB01646F7
:10054000DDE968891C466A9FDBF8005000F0BCFFBB
:100550000122874B3CA8C3F8002505F001F9B8F14A
:10056000000F07D0B9F1000F04DD4A4641463CA810
:1005700006F02DFD4FF0000833897289D6F80CA0E3
:1005800013449A44C2456AD80FA93CA805F05AF909
:100590000022774BC3F80025C3F8002527B120229D
:1005A00038460FA906F0F6FE002331460093224696
:1005B0004FF6FF7309A806F0B6F9064600285FD18A
:1005C00020460E9F00F0B4F9874259D84FF0FF370C
:1005D000DFF8B0A1DFF898810DF11E0307AA08A982
:1005E00009A806F0EEF900284ADB40F0B980089926
:1005F00009A806F032FA50B94FF6FF71BDF81E0097
:100600005C4A32F8023B8B423AD09842F9D1BDF8AD
:100610001E90B9F1100F3DD0B9F1220F7DD0B9F184
:10062000010FD9D1BDF81C30202B29D820460899BC
:100630003CAA06F0E7FD074610BB9DF81C30202BB6
:10064000039309D8DAF800204B4B0492049A97429E
:100650003FDB0023C8F800354FF0FF37BCE7679B4E
:10066000AAEB0809994528BF994641464B462046C2
:10067000669A06F0C7FD30B100223D4BC3F8002555
:10068000DBF800506EE04A4666993CA806F09FFCF5
:10069000C84477E7BDF81C90B9F1200FF0D14B4664
:1006A000204608993CAA06F0ADFD0028E8D100F0EC
:1006B00055F94A4606463CA90FA800F0E7F88146DE
:1006C000304600F05BF92D4B1B684B45D8D1012615
:1006D00082E7059300F0F8FEC8F800951FA805F022
:1006E0003FF8059B1FA85A6853F8081B126805932A
:1006F00006F06DFC17A91FA805F0A4F80022C8F8A1
:100700000025039A3CA917A806F034FE059B10B9F2
:10071000C8F8000560E7013798E77B1C3FF45CAF41
:10072000DAF80030BB4297DDBDF81C30802BA7D82B
:10073000204608993CAA06F065FD0028A0D100F0EB
:100740000DF9FFB281462021BDF81C303CAA00976C
:100750000FA800F019F80546484600F00FF97BE7AE
:10076000002E8DD000F002F928465DB0BDE8F08F74
:10077000000084502885000044810000080000200B
:1007800004000020408100002DE9F04796B0164695
:100790001D469DF87820384B074653F8321003EB7E
:1007A000C2035B6801911868DFF8DC8001443023E4
:1007B00002AA01A8D8F8009006F097FB002851D1B2
:1007C000DDE901431C44214606AB03AA01A806F05B
:1007D000B4FB002846D1049A072A43D1274905983B
:1007E00006F0C8FD00283DD1079A082A3AD12449CD
:1007F000089806F0BFFDA8BB214602AA01A806F092
:1008000088FB78BBDDE901A30AEB0302944229D1FE
:10081000412B27D135443023294603AA02A802964A
:1008200006F063FBE0B9DDE9023213449D4217D3C1
:100830002A4602A906A806F01EF988B92A4602A986
:100840000EA806F018F958B99AF80030042B07D111
:100850002023384606AA0AF1010100F04DFE38B106
:10086000D8F8009000F082F8484616B0BDE8F0874E
:10087000044BD3F80090F5E744810000388600006F
:100880002F860000080000200400002070B5094BEE
:1008900004461D680023934205D1074B1D6800F0F4
:1008A00065F8284670BDE65CC85C8642F7D1013326
:1008B000F1E700BF0400002008000020094A4000C2
:1008C0000B7852F820108B4209D0013052F82000EA
:1008D000834214BF4FF0FF304FF4407070474FF425
:1008E000407070474C8100001FB50F4B0C4613F849
:1008F000300001F0E5F950B92068102381686A469C
:10090000103906F07FFC28B1206806F07AFC4FF021
:10091000FF3006E010226846044906F02BFD00284F
:10092000F2D104B010BD00BF4C810000468500002C
:1009300013B5044606F0D0F86A460146204605F095
:10094000D8FF30B10448452106F04EFC002002B02B
:1009500010BD0098FBE700BF40860000024B1868FE
:10096000421C1A60704700BF00040020024A13684E
:10097000013B1360704700BF00040020034B1B685D
:10098000834201D006F0D0B8704700BF00040020B9
:100990002DE9F043434F89B0064600200D463C68E0
:1009A000FFF7B6FD06A9C0B201F08AF928B1FFF73A
:1009B000DDFF204609B0BDE8F0832946FFF7A8FD1A
:1009C0002C2407A9C0B204FB056401F079F990B1A9
:1009D0002C236B43F2181169DDF818C0C8061AD52C
:1009E0001DB13046069906F075F92F4B1C68069824
:1009F00006F007FCDBE7079806F04FFC80460798F7
:100A000006F0FFFB631EE21C13F8011F4145DFD116
:100A10009342F9D1E4E7F058244B98423ED1D06894
:100A200013891B183AD25289D21837D2DCF8083011
:100A30009A4233D240F60C6311EA03062ED1FFF737
:100A40008DFFDDF818900746FFF788FF4FF480739D
:100A50000193174B224680463146009330464B4661
:100A6000CDE903660296FFF765FD04464046FFF7B1
:100A700085FFFFF77BFF3846FFF780FF0D4B1B68B4
:100A8000A342B4D065B106980021826806F0E4FB69
:100A9000094A4521094806F0A7FBA6E73C68EDE7AF
:100AA000074AF6E704000020000000203DB8F39656
:100AB0004C20002008000020838600008D86000066
:100AC0007B8600007FB50D46002104462846CDE90F
:100AD000021106F0BEF828B32368194EB34203D1C1
:100AE000204603AA06F049F8E36AB34204D1012183
:100AF000204602AA06F041F8DDE90232934288BF9F
:100B00000393039BAB60039A2946204600F0DAFB6F
:100B10000C4B1A68002A03DD57210B4806F064FBD2
:100B200004B070BD01A9FFF7DFFE019805F10801CF
:100B300005F0DDFFAB680198039306F062FBE2E786
:100B40003DB8F39664180020B58600002DE9F84FF3
:100B5000884691469A460026DFF870B0194C1A4D27
:100B60000B9B9E4201D300200FE00B9B40469F1B36
:100B7000B7F5806F28BF4FF48067144A3B4606EBF9
:100B80000A0106F03FFB10B10120BDE8F88F0A9979
:100B90003B465A464846711806F049FB0028F3D1F7
:100BA000C4F800563E44C4F80456C4F80856C4F8C5
:100BB0000C56C4F81056C4F81456C4F81856C4F8A5
:100BC0001C56CDE7008001503546526E04040020CB
:100BD0002DE9F0410E460021AC4B0446436203F57B
:100BE000006388B003650846FFF792FC04F120011A
:100BF0000546C0B201F064F848B100232A464521F9
:100C000001900093A24806F0EFFA05F08DFF012154
:100C10000020FFF77DFC04F14C010546C0B201F055
:100C20004FF850B101232A4645210190009398487E
:100C3000002306F0D9FA05F077FF204605F0DEFF25
:100C4000054668B900222046114605F080FF05469A
:100C500008B3002257218F4806F0C6FA01239FE00F
:100C60004FF4807257218C4806F0BEFA01239D4252
:100C700084F85830E6D194F85830042B8DF81730AA
:100C800000F29180012B00F2958000F0A880FF23F4
:100C900084F85830A3E0204600F026FA0028DDD082
:100CA00004A805F0CDFF0146204606F068F818B10B
:100CB0002A4657217948CFE704A805F0CAFF80F0FB
:100CC000010104AA2046C9B205F041FF02460028EE
:100CD000BFD104A805F0BDFF054660BB204604A9AE
:100CE000FFF7F0FE9DF8173084F85830033B012BD6
:100CF00006D8284600F00CF910B1FF2384F85830CC
:100D00009DF81730023B022B0BD8002000F0EAF8C8
:100D100038B1FF2384F858304521614806F064FA61
:100D2000FEE794F85830FF2BF6D00021204604AAA5
:100D300005F00DFF92E79DF81770012F1ED11046A8
:100D400002F050FC831E022B054614D8FFF706FE66
:100D5000394680462046FFF71BFE07464046FFF710
:100D60000DFE504B1B689F4205D04F4B1D68AF4294
:100D700014BF0525012584F858507CE7FFF7EEFDE8
:100D8000012107462046FFF703FE05463846FFF7D8
:100D9000F5FD444B1B689D4214BF05239DF8173099
:100DA00084F8583067E7052B7FF471AF002000F01E
:100DB000AFF811E0204604A9FFF784FE94F85830FC
:100DC000DA1E012A34D8002000F0A2F800287FF4AF
:100DD0005EAF002000F086F800287FF458AF94F84A
:100DE0005830FF2B05D145212D4806F0FDF905F0BF
:100DF0009BFE002294F858302C4F012B03921AD0FE
:100E00001146204605F0A3FEA8B13D68102200213E
:100E10000DEB020006F0C9FAE06C06F0F2F9206A68
:100E200006F0EFF9FFF7A2FD284608B0BDE8F08113
:100E3000022BD4D1CDE7FFF791FD0021804620465B
:100E4000FFF7A6FD05464046FFF798FDDFF8548002
:100E5000D8F800309D42D8D13B689D42D5D0124B86
:100E60001B689D42D1D0039B01330393039B012B4D
:100E700001D005F059FE206A05F039FD3071236A72
:100E80005B683460D8F80050B360BFE70408002006
:100E9000E486000073870000318700009F87000010
:100EA000C987000008000020000000200400002086
:100EB00070B50B4E044660220021304606F075FAEC
:100EC000FFF74CFD214605463046FFF781FE0446FC
:100ED0002846FFF753FDFFF749FD204670BD00BFD0
:100EE0000418002013B5094B01A913F8300000F0D5
:100EF000E7FE48B9019806F0F2FC0446019806F0B6
:100F000080F9204602B010BD0124FAE754810000A8
:100F10001FB50F4B01A913F8300000F0D1FEA8B99E
:100F2000019802A902F008FB044668B99DF80B304D
:100F3000032B03D1019806F0A0FC0446019806F0AB
:100F400060F9204604B010BD0124F7E70124F8E75A
:100F5000548100002DE9F34106460C4617461D4614
:100F60000BB9002628E0184605F073FE0028F8D1DA
:100F70006946FFF7B9FC009838B90124009806F0DB
:100F800040F9204602B0BDE8F08101A905F0AFFDAF
:100F90000028F2D1009806F034F93046019905F0A6
:100FA0003BFF736A5E686B79012B21D1002CD8D18D
:100FB0002B68834298BF002621460020FFF7A8FA3D
:100FC0006946C0B200F07CFE0028D6D120233A4604
:100FD0003146009806F016F904460028CDD1002DC0
:100FE000CCD03C680D4BE41A18BF4FF0FF34C5E776
:100FF000022BB6D12B68012B05D98342B1D8B4FAA4
:1010000084F46409ADE7ACD1002CD5D0012CA8D173
:101010002C79023C18BF0124A3E700BF3DB8F3962A
:101020002DE9F04F07460C4685B0014600201646D4
:10103000FFF744FC051E51DB3846E46D05F04CFD1E
:101040005FFA84F94FF0000A4FF0010B4FF0FF34C4
:101050006B1E09FB03089DB9BAF1010F03DD4521A1
:10106000204806F0C1F8631C06D0FF2C2ADC40F2B1
:10107000011301343460B380284605B0BDE8F08F19
:101080006B1E00934146012338460DF10F0206F016
:10109000B9F8031E019323DB012238460DF10F013D
:1010A00006F086FB019B40B15B4501D00AF1010AC5
:1010B0009B46009DA8EB0908CDE7B4F1FF3F08BFB0
:1010C0002C46F5E70223A4F580747371631004F0D5
:1010D00001040133013433603471CDE70725CBE7D8
:1010E0000125C9E7D587000070B5866A456D0446BD
:1010F00005F081FEAE420AD06B1CB34207D083429A
:1011000005D05721134806F06FF8002070BDB6F5E2
:10111000807F1CD957211048F5E7626A216D02EBE8
:10112000C30201EBC30152684968914202D05721C2
:101130000A48E8E701339D42EFD1AE4205D9636A20
:1011400003EBC5035B689342F1D10120DEE7002386
:101150001A46F0E7F8870000308800005F8800003A
:1011600000B589B0022004A906F094FB9DF8102078
:10117000012A41D0254B2649032A08BF0B469DF87A
:101180001320492102929DF81220224801929DF8D5
:1011900011200092204A06F027F8082006A906F040
:1011A00079FB9DF81820012A28D0184B1849032AEA
:1011B00008BF0B469DF81B20492102929DF81A207A
:1011C000144801929DF819200092144A06F00CF878
:1011D0009DF81030012B13D19DF81230032B0FD145
:1011E0009DF81830012B0BD00D48492105F0FCFF6C
:1011F000022009B05DF804FB0A4BC0E7094BD9E7B0
:101200000948492105F0F0FF0020F2E78B88000033
:1012100094880000A88800009A880000E9880000EF
:10122000F98800008F8800001889000070B54B68AD
:1012300014461E4A03F0FF23934206460D4686B02D
:101240002FD10B68012B2CD1204604A902F074F990
:101250009DF81020012A26D0154B1649032A08BFF5
:101260000B469DF81320492102929DF81220124846
:1012700001929DF811200092104A05F0B5FF9DF8EB
:101280001030032B0DD12146304605F023FD2046BA
:1012900006F0F3FA2046A96805F037FC204602F074
:1012A0002BF906B070BD064BDBE700BF0001000460
:1012B0008B88000094880000A8880000E98800005E
:1012C0008F8800002DE9F04F1646054689B00C4680
:1012D0007448492105F088FF3146284605F09CFDF9
:1012E0006B6A824620465E6805F0B3FCE8B1E86DA3
:1012F00005F0EDFB0023AF6A013F3344834201D286
:10130000013FFAE7BA4510D35721674805F06CFF53
:1013100007FB06F357210AFB0662644805F064FFE9
:101320000123E37109B0BDE8F08F06A9022000F0A7
:10133000C7FC07A9082000F0C3FC21462846079AED
:10134000FFF774FF6379012B4BD15746DFF860B18B
:1013500041E02268C2F1010353449F423AD86B6ACC
:10136000012A196853F8370003EBC70353F8083C08
:10137000A0EB0109A3EB0103049311D1079B039395
:10138000E368022B08D04146284605F0A3FC22461C
:101390004146284605F0D4FC2846039905F09AFCFE
:1013A00032464946404605F093FC049B424641467E
:1013B0002846CDE90096FFF7C9FB2146284605F0EF
:1013C00055FC23680133236020B1DBF80030013382
:1013D000CBF80030013FDDF81880002FB9D1012390
:1013E0002360022301276371BA45DDF8189006D205
:1013F000484605F006FF079805F003FF92E72368CB
:101400009F424DD36A6AFB0052F83710083B0491A3
:101410001168DDF81CB00391D1582A6DD0581368BB
:10142000A0EB03082379012B38D1039B3246C91A5C
:101430004846059105F04CFC059943464A46009103
:10144000284659460196FFF781FB2146284605F0BC
:101450000DFC0223237118B1154A13680133136080
:1014600032464146584605F033FCDDE90323494640
:101470009B1A28465A46CDE90086FFF767FB2146AE
:10148000284605F0F3FB2368013323600123237111
:1014900030B1074A13680133136001E0022BDFD03B
:1014A0000137A1E72F8900005889000087890000D3
:1014B000641800200A4619B1024B00211B68184726
:1014C000704700BF0C00002070B5094D2B780BB1A0
:1014D000002070BD0126074CC4F8006504F0E2F955
:1014E00018B92E70C4F80005F2E74FF0FF30F0E7AE
:1014F0004C210020000084502DE9F041ACB01F4683
:1015000006460C461546FFF7DFFF0123DFF8208073
:101510002A46C8F8003521463346009703A806F04E
:1015200062FC0023C8F800352CB0BDE8F08100BF94
:1015300000008450BFF36F8F72B600234FF0FF306E
:10154000094A03F120010133102B42F82100F8D1A0
:1015500000234FF0FF30044A03F160010133102BE8
:1015600042F82100F8D1704700E100E0002318465E
:101570000649D1F89020C2F30722934200DB70475E
:10158000C1F89830C1F8A0000133F6E700ED00E0A3
:101590002DE9F8434FF0FF3501274FF00008204BAD
:1015A000DFF884905F60C3F84853C3F8085303F52D
:1015B00080535F60C3F84853C3F8085359F8044B8D
:1015C000002644F30730C4F8085300F023FF8022BC
:1015D0006760C4F84C61D4F84C31C4F81061D4F899
:1015E0001031C4F844613146D4F84431A018C4F82D
:1015F000006505F0DAFE8022314604F5C07005F082
:10160000D4FEB8F1000F08D0064BC3F808554FF0D0
:101610005023C3F80853BDE8F8834FF00108CDE725
:10162000004001500070015060810000014B1B68B8
:10163000184700BF10000020014B1860704700BF22
:101640001000002007B50B46002102460091034818
:1016500000F006F803B05DF804FB00BF2D16000093
:101660002DE9F04F82464FF000098DB01D46531E04
:1016700001910393039B58785C1C252819D1002005
:101680004FF0FF381E46444603460236029031783A
:101690000396392955D81F2914D8002900F0EF8165
:1016A00001992520D04701993078D04709F10209E6
:1016B000E0E7002800F0E3810199D04709F1010932
:1016C0000394D7E7A1F12002192AE9D801A757F816
:1016D00022F000BF3D170000A1160000A116000077
:1016E0003D170000A1160000BD170000A116000064
:1016F000A1160000A1160000A116000009180000A4
:101700003D170000A11600001D180000C9170000B9
:10171000A1160000D7170000F7170000F717000008
:10172000F7170000F7170000F7170000F717000081
:10173000F7170000F7170000F717000008460136FA
:10174000A5E7582900F0EB80A1F16302D7B2172F6B
:10175000A6D8172AA4D801A757F822F0C519000067
:1017600043180000A1160000A1160000A1160000F9
:101770002318000043180000A1160000A116000065
:1017800023180000A1160000A1160000A1160000F9
:10179000F9180000A1160000A11600009919000018
:1017A000A116000043180000A1160000A1160000B9
:1017B000F9180000A1160000231800002520019947
:1017C000D04709F1010955E7029A4FF0000802F0ED
:1017D000FE020292B3E7002C0DDAB8F1000F0DDA29
:1017E000029A002A00F043810A2224EAE47402FBF0
:1017F0000414303CA3E7B8F1000FF5DB0A2202FB2A
:101800000812A2F130089AE7B8F1000F55F8042B3E
:1018100080F22F81002A80F22E815442022202920D
:101820008DE7682903D1682B06D1482387E76C2907
:1018300002D16C2B00F02181002B7FF431AF0B46DD
:101840007DE77A2B06D1752955F8046B14D14FF03A
:10185000000B0CE06C2BF6D04C2BF4D1073525F0A7
:101860000703752903F10805D3E9006B06D1202889
:101870003BD1854F013C09E04FEAE67BBBF1000F0D
:10188000F5DA7642814F6BEB4B0B013C0DF12D03EA
:10189000059300230493304659460A220023FEF79D
:1018A00051FC059BB446303203F8012D5A4605938E
:1018B000049BBCF10A0F8B4672F1000203F1FF3169
:1018C00006460491E7D2C3F1010B30330DEB03065A
:1018D000B8F1000FA6F104066DDA029BD9077DD49A
:1018E000A8EB0B03A4EB0B0413E02B280ABF684FF3
:1018F000684F04F1FF34C9E770290FD155F8042B64
:101900000023FAB96FF004034FF0050B614F624EEC
:10191000053C029A920770D4A04666E078216C2BB1
:1019200003D1002355F8042B08E04C2BF9D10735DF
:1019300025F007031D465B6855F8082B232825D1A1
:10194000880621D5554F023C002601F06001A1F127
:10195000390B0DF12D0E02F00F01092988BF5944F2
:1019600030310EF8011D102A4FEA121141EA0371BD
:101970004FEA131C73F1000306F1FF3008D2C6F1E1
:10198000010B06F13003A1E7454FDCE7414FDBE7F0
:1019900006460A466346DEE755F8046B304605F016
:1019A000E2FCB8F1000F834602DB4045A8BFC34606
:1019B0004FF00008374FA8EB0B03002B92DDA4EB90
:1019C0000804A6E755F8043B4FF0010B8DF81830DA
:1019D000304F4FF0FF33013C06AE9AE7A046EAE7EE
:1019E000029320200199D047029BB8F10108F7D556
:1019F00024EAE472013C9144A41AB84606E0049338
:101A000002920199D047029A049B9046424612F8EE
:101A1000010B0028F3D11A46013A15D5002BACBFB3
:101A2000C7EB03077F425B46013B15D5BBF1000FB7
:101A3000A8BF5F4426464F44013E14D5002CA8BFE2
:101A40003F1907EB080915E604930292302001992B
:101A5000D047049B029ADFE70293019916F8010B25
:101A6000D047029BE0E701992020D047E4E701221C
:101A7000D5E6904663E6144661E64C235FE64846A9
:101A80000DB0BDE8F08F00BF158A0000138A00007A
:101A9000178A0000D48700001F8A0000198A0000FE
:101AA0001C8A00002DE9F047058B04462807904664
:101AB00011D4022905F0070540F0CC80204605F03E
:101AC000BAFA78B10138218B042811D8DFE800F088
:101AD000C2106D85950001290CBF45F0100545F039
:101AE0002005258388F31188BFF36F8FBDE8F08749
:101AF00001F0070AAA4500F0A5800027B9463E4636
:101B0000A368002B00F0BC8041F00801218388F31A
:101B10001188BFF36F8FA168002900F0BA800D68AB
:101B2000002900F0B680334652462046D1F80480A2
:101B3000C047002D76D02B6829461D46F0E701F0FE
:101B400007035A1F012A1BD8002221F00701062B88
:101B5000276889B2C4E9002209D13B4603E0628BC1
:101B6000013262831B68002BF9D141F0020120464B
:101B7000218305F060FA00287AD041F0200176E058
:101B8000042B0AD121F0070189B22046218305F0F8
:101B900052FA10B141F020012183218B01F0070A94
:101BA000AA454FD00027B946AAE7236921F00701CB
:101BB00041F00601062DD3F8009021832DD1B9F113
:101BC000000F3FD041F00801218388F31188BFF353
:101BD0006F8F20463949C84729E021F00701236962
:101BE00041F0040189B2042DD3F804902183E6D09A
:101BF00000274FF0040A3E4682E721F007012369DF
:101C000041F0050189B2052DD3F808902183D6D083
:101C100000274FF0050A3E4672E700274FF0060AFC
:101C20003E466DE72B4687E7B9F1000FD1D1EFF3C0
:101C30001188202383F31288BFF36F8F238B23F047
:101C400008032383258BEA062ED525F01003238372
:101C500005F007056669218B002EBFF670AF0023E3
:101C60002768C4E9003321F0070141F00101218315
:101C7000218B4FF0000901F0070AAA457FF440AF1D
:101C8000002F9CD041F00801218388F31188BFF315
:101C90006F8F002FC8D03D683946334652462046E4
:101CA00005F0F5F92F46F4E7AB067FF51BAF25F0FD
:101CB0002003238305F0070500E700BFBB70000089
:101CC00070B5114B0D461C68DCB1104B1968002330
:101CD0008B4202DB6FF0010070BD224612F8106BE0
:101CE000864202D014460133F2E7E06810B96FF083
:101CF0001200F1E705F0EBFE0028F8D000202C6080
:101D0000EAE76FF00C00E7E71400002068810000AC
:101D100070B588B005460C46C0B269461646FFF756
:101D2000CFFF00281BDB0098C8B1436822680293EC
:101D300083680195CDE903360023CDE90623059399
:101D4000C56805F05EFA6DB12846084901AA05F09C
:101D50000FFC079808B9059B236008B070BD6FF0B1
:101D60001500FAE76FF01200F7E700BFA972000054
:101D700008B5054805F048F9044805F045F9BDE8FF
:101D80000840034805F040B9258A0000568A000043
:101D9000898A0000014803F0FBB900BF3C820000C3
:101DA00038B5044618B90F4B0F485B68984761680F
:101DB000B1F5683F10D0B1F5680F0DD00B4DA942B9
:101DC0000AD011F46861206807D00146084805F080
:101DD000D9FE00232360656038BD142205F0E5FAC2
:101DE000F9E700BFC0000020B78A00002C5F5CA9A3
:101DF000681D002008B500B34368B3F5683F0CD1F7
:101E000001220368D3E8EF1F002903D1C3E8E02FC4
:101E10000028F7D10DD1002008BD094A93420AD00D
:101E200000684FF0FF324FF0FF3302F0A9FB0028AB
:101E3000F1D00448F0E70448EEE76FF4E040EBE748
:101E40002C5F5CA9E98FFFFFEA8FFFFF08B5B8B1EF
:101E50004368B3F5683F0CD100220368D3E8EF1F55
:101E6000012903D1C3E8E02F0028F7D10BD10020CE
:101E700008BD074A934208D0006802F0F9FBF6E774
:101E80006FF4E040F4E70348F2E70348F0E700BFEF
:101E90002C5F5CA9E98FFFFFEA8FFFFF10B50446B6
:101EA00018B91D4B1D485B6898476368B3F5683FD8
:101EB0002FD0B3F5680F2CD0194A934219D123685B
:101EC00003BB4FF0FF324FF0FF332146154802F0BD
:101ED00029FB08B923681BB90F4B13485B68984767
:101EE00014220021206805F060FA4FF468636360F3
:101EF00008E0B3F5683F0DD83A2B03D040F6BA623C
:101F00009342DED1206805F075FE636843F03A0322
:101F1000636010BD054AF3E7C0000020B78A0000E7
:101F20002C5F5CA9681D0020DD8A00003A00003AA1
:101F300008B5064940231422054805F015FEBDE802
:101F400008400449044803F095B900BF6818002010
:101F5000681D0020448200005882000030BFFFF757
:101F6000FDBF00BF074A936893F90E10002907DBF5
:101F7000926993421FBF044A536843F080535360F1
:101F8000704700BF3C1E002000ED00E0154B9A6A30
:101F900012F0007F9A6A14BF1E201D2012F0807F6D
:101FA0009A6A18BF1F2012F4801F9A6A18BF022075
:101FB00012F4002F9A6A18BF212012F4802F9A6A17
:101FC00018BF222012F4003F9A6A18BF232012F48F
:101FD000803F9A6A18BF24206FEA02426FEA1242D9
:101FE0009A62704700ED00E010B5194B0246986AFE
:101FF0009C6A10F4805F14BF1720162014F4006F41
:102000009C6A18BF1820A40509D5986B986A00042B
:1020100004D51AB19A6A22F400429A6219200C4B34
:102020009A6A12F4806F9A6A18BF1A20D2050CD4EB
:102030009B6A13F4005F18BF1C20054A936A43F49F
:102040007F43936200230B7010BD1B20F5E700BF98
:1020500000ED00E010B51C4B0246986A9C6A10F037
:10206000100F14BF1120102014F0080F9C6A18BF25
:102070001220A40709D5586B986A000604D51AB136
:102080009A6A22F080029A6213200F4B9A6A12F029
:10209000010F9A6A18BF142012F0200F9A6A18BF15
:1020A0001520D40658BF9B6A074B9A6A920642BF16
:1020B0005A6A22F400525A629A6A42F0FF029A6205
:1020C00000230B7010BD00BF00ED00E070B5444B65
:1020D00006465B6800259CB0C3F3080385F31188AE
:1020E000BFF36F8F02F07F40B0F17F4F11D102F04C
:1020F0000C0008280DD010074CBF0E460125002209
:10210000033B8DF80720032B05D8DFE803F01E5CA6
:1021100060592E46F3E700249DF807309BB96822EA
:10212000314602A805F036F9099B002D53D0C3F3C0
:10213000080222B96FEA53236FEA4323099320462A
:1021400002A905F0D4F81CB070BD254BDA6A9107DE
:10215000E1D4DA6A002ADEDBDA6A5200DBD55A699A
:10216000B16942F480725A61BFF34F8FBFF36F8F32
:102170005A6931F8021C22F480725A61BFF34F8F02
:10218000BFF36F8F4DF60272914209D09A6AD2B2B4
:1021900042B101200DF10701FFF75CFF0446BBE7E8
:1021A0003468B9E79A6A12F47F4F05D001200DF127
:1021B0000701FFF719FFF1E79B6AB3F5803FAAD348
:1021C000FFF7E4FEEAE700200DF10701E4E7002055
:1021D0000DF10701EDE723F4FF7323F00103ADE7F1
:1021E00000ED00E0064B5A6942F010025A615A694C
:1021F00042F480625A615A6922F008025A617047BB
:1022000000ED00E0EFF30880EFF3098101B57246BD
:10221000FFF75CFF01BD00BF002080F31488BFF30F
:102220006F8F002080F30A8880F30B8801F098FA02
:1022300000200E490860BFF34F8F0D4880F30888D7
:1022400000F01AF8202080F311880A484FF400614A
:10225000401880F30988EFF314800221084380F3CB
:102260001488BFF36F8F00F00DF9000094ED00E0CB
:10227000985200205821002072B6002383F313885F
:102280004FF0FF300C4A03F120010133102B42F8CC
:102290002100F8D100234FF0FF30074A03F160011D
:1022A0000133102B42F82100F8D162B6BFF34F8FF3
:1022B000BFF36F8F704700BF00E100E0084B9B68E1
:1022C00083420BD1EFF3058343B1064B5A6842F0CA
:1022D00080525A605A6A22F400425A6205F048BDA0
:1022E0003C1E002000ED00E06FF00A01084A9368F0
:1022F0009967084958674B6843F080534B60002347
:1023000083F31188BFF36F8F9368986F704700BF96
:102310003C1E002000ED00E00E4A936883F8BD00EB
:10232000EFF31183202383F31288BFF36F8F4FF0F5
:102330000061936920F0FF009360074A516000211B
:1023400093F8BD2010435A6F596782F31188BFF389
:102350006F8F70473C1E002000ED00E01D498A6829
:1023600082F8BDE04FF030001044EFF3098C80E8B4
:10237000F01F1EF0100F03D102F17C0080EC108AD8
:1023800074467046FFF7C8FFA64612498A6886461B
:102390001EF0100F03D00023E1EE103A03E002F12B
:1023A0007C0090EC108AEFF3148323F0040383F392
:1023B0001488BFF36F8F02F1300090E8F01F8CF3A8
:1023C000098802F1000004B504F0A6FFBDE804404E
:1023D000704700003C1E00201EF0040F0CBFEFF3FE
:1023E0000880EFF30980816911F8021C0229FFD0EF
:1023F00001B504F082FF01BD40B2002807DB0123D4
:102400004109034A00F01F00834042F82130704721
:1024100000E100E040B200280CDB0122064943093C
:1024200000F01F008240203341F82320BFF34F8F7C
:10243000BFF36F8F704700BF00E100E0054B42091A
:1024400053F82220012300F01F0003FA00F010408F
:10245000704700BF00E100E040B2002801F1010137
:10246000ACBF00F16040064B4FEA4111C9B2ABBFAF
:1024700000F5614000F00F0080F800131954704718
:1024800014ED00E0144A08B5144B22F07F029A6064
:10249000BFF34F8FBFF36F8FD3F8882022F4700201
:1024A000C3F88820D3F8882042F4A002C3F888201B
:1024B0004FF04042C3F83422BFF34F8FBFF36F8F0A
:1024C0000023E1EE103A01F071FF02F0BFFC00F0D2
:1024D0007DF801F0ABFF00BF0000000000ED00E060
:1024E00042F8203C009B0D4942F81C3C019B21F026
:1024F000010142F8183C029B42F8081C42F8143CC7
:102500004FF0807342F8043C002343674FF47D434F
:10251000203A0265C0F8BC30704700BF237000004D
:10252000104B9B6883421AD1EFF30580B8B9EFF3E3
:102530001181202282F31288BFF36F8F1A7B22F061
:1025400002021A73EFF3148323F0040383F3148855
:10255000BFF36F8F81F31188BFF36F8F70476FF0F8
:10256000150070473C1E00200E461546002300B59E
:10257000E1EE103AEFF3148323F0040383F314889D
:10258000BFF36F8FBFF36F8F0A4B9860436E83F377
:102590000B882C4686F309884FF00000064B9847BD
:1025A00020464FF000014FF000024FF00003034CB3
:1025B000204700BF3C1E0020217300002370000054
:1025C0001022014B1A61704700ED00E0002320212A
:1025D0000348C2180133412B82F80013F9D1704728
:1025E00000E100E008B5EFF30583064A103B02EB7B
:1025F000C30152F8330049688847BDE80840FFF737
:10260000B1BC00BF047F0000014B1860704700BFE1
:10261000380000200122024B0020C3F840257047FB
:102620000090035020B1034B800143F00103184791
:10263000704700BF30810000084B70B5C31A0D46CB
:1026400007499B10044659434022064804F0C2FE45
:102650002B4601462046BDE870401847981D0020D3
:10266000B76DDBB6A07E0000402373B50B4C009322
:10267000041B0B460D460A49A41061430646094A4D
:10268000094804F0D2FE011E05DA30462B4602B09E
:10269000BDE87040184702B070BD00BF981D002013
:1026A000B76DDBB693740000A07E000010B5EFF3A9
:1026B0001184202383F31288BFF36F8F074A1368B6
:1026C00023F00201DB07116002D4012005F093F929
:1026D00084F31188BFF36F8F10BD00BFE81D002089
:1026E00070B50022012104460520FFF7B5FE0F4812
:1026F00001F066F90E4B984215D101F071F9266987
:102700000C49304604F0E7FC00280BDB012535645A
:102710002469084904F11C0004F0DDFC002801DBF9
:102720000020E56470BD6FF00400FBE73528000071
:102730000000AD0B688200001FB500220123CDE927
:1027400002236B46084ACDF800D0CDF804D004F03F
:1027500099FE002805DB4FF480420023684601F013
:10276000E7FF05B05DF804FBB37400000C22104BCA
:10277000014602FB0033002030B4D3E90E529863C7
:10278000EFF31180202484F31288BFF36F8F1C6C49
:1027900004F0C00444F002041C6480F31188BFF309
:1027A0006F8F1DB12B4630BC0248184730BC7047B4
:1027B000981D0020A07E000010B4EFF311822023AA
:1027C00083F31288BFF36F8F1848016841F0020449
:1027D0000460C80708D482F31188BFF36F8F01200B
:1027E0005DF8044B01F010B94FF05021D1F80C0402
:1027F000D1F80C14C907EED5EFF3118083F31288DA
:10280000BFF36F8F0A490B6C03F0C00343F0020360
:102810000B6480F31188BFF36F8F82F31188BFF3CD
:102820006F8F00205DF8044BFFF7A0BFE81D00206C
:10283000981D002010B1012804D07047034B1B6C79
:102840005B0701D1FFF792BF704700BF981D0020C2
:102850002DE9F041012207463649D1E8EF3FC1E8B2
:10286000E02F0028F9D133B9334934484B60CB60AD
:102870008A6004F043FC7B1E012B2BD8012F07D16B
:102880004FF05023D3F81C3403F00303022B21D064
:1028900005F0C3F90546F8B9294B1B78E3B14FF0B1
:1028A000502302220646C3F808234FF05024DFF8D5
:1028B0009480D4F81824D4F81834D20315D503F032
:1028C0000303022B01D0012F0FD16DB386F31188C2
:1028D000BFF36F8FBDE8F081EFF31186202383F300
:1028E0001288BFF36F8F0125DFE7C5B1304604F0D2
:1028F0002BFDD4F81835DBB2012BDAD1D4F8042142
:10290000002AD6D00022C4F80421D4F804210222DF
:10291000C4F818252022C8F88021A360C9E7002147
:10292000212002F0E9F9E4E74FF050230222C3F836
:102930000423CFE7941D0020841D0020B41D002037
:102940005121002000E100E008B5074805F0BFF87C
:1029500038B10648FFF758FE0448FEF76DFE002028
:1029600008BD6FF01200FBE7DC7E0000712900005B
:102970000A2838B50446074D04D1AB680D21284616
:102980005B689847AB6803485B68E1B298472046AC
:1029900038BD00BFDC7E0000024B0B6001231360DA
:1029A000704700BFEC1D002000487047BC8200004B
:1029B00010B501220648114605F023F905F07FF80D
:1029C000044C206005F078F86060002010BD00BF66
:1029D000F41D0020EC1D002070B50C46154605F0D6
:1029E0006BF829460646204604F066FD08B3B4FBA2
:1029F000F6F306FB1343E3B9B5FBF6F306FB1353FB
:102A0000BBB9AE4201D9002070BD4FF0FF324FF08C
:102A1000FF33094801F08CFE05F04EF806462046CB
:102A200001F006FCAD1B3444F9D1034801F05CFE13
:102A3000E9E76FF01500E7E7F41D0020F8B50E4652
:102A40001946304617461C4604F036FD08B344EAE2
:102A5000060515F003051CD1A4B14FF0FF324FF06D
:102A6000FF330D4801F064FE24F00304A54206EB99
:102A7000050009D1094AD2F80034DB07FBD5064826
:102A800001F032FE0020F8BD795901F0EFFB04356A
:102A9000ECE76FF01500F6E7F41D002000900350FE
:102AA00038B545682B69B3B11035284601F09CFA5A
:102AB000044680B90146284601F064FA084B984262
:102AC0000BD122462846074901F044FA2246052147
:102AD0000D20FFF7C1FC002038BD6FF00400FBE7BC
:102AE0000000AD0BE92A0000430970B507D10B4B7C
:102AF000596821B101250C68094E854001B970BDA6
:102B00008A682A4002D030464B6898471CB1236837
:102B100021461C46F2E72346FAE700BF041E0020C8
:102B2000B47E00002DE9F04340F206354668D00639
:102B300048BF0320337B02EA050558BFC2F34010AB
:102B400087B001F01F07B5F5837F144647EA4317A6
:102B50008DF8030042D00FD8062D18D007D8B5B194
:102B6000022D3DD06FF0150007B0BDE8F083B5F53C
:102B7000807FF7D101250AE040F20222954231D050
:102B8000B5F5407F30D0B5F5007FEBD102250123AC
:102B9000220303FA01F129D573689960326952BBA7
:102BA00007F01F037F0973D13B4A84F4803102EBA5
:102BB0008302D2F80032C1F30041C4F3404423F44D
:102BC000E16344EA410423F007031C4344EA800420
:102BD00044EA0524C2F800420020C5E70725D6E7ED
:102BE0000425D4E70525D2E70325D0E7630344BFD6
:102BF0007368D960D2E71036394630460DF10202CB
:102C000001F0AEF914F4403F80460CD1394630460D
:102C100004F04BFF214B9845DED130469DF8021061
:102C200001F0ECF9D8E74FF0000901AB3946304626
:102C300003AACDE90439CDE90199CDF80C9001F052
:102C400063F8164B98428DD114F4003315D09DF8DB
:102C5000033084F48034C4F300448DF80E303946D8
:102C60004B46304603AA8DF80C508DF80D4001F00C
:102C7000F9F80A4B9842CDD074E7CDE904333946D0
:102C80000DF10303304603AA039301F03DF8F0E78A
:102C9000803352F82330FFDE002584500000AD0B56
:102CA000F0B5406801F01F04057B87B044EA451485
:102CB0000569002D5FD0B2F5001F00F1100506D1A7
:102CC0002146284604F0F3FE002007B0F0BD00279F
:102CD000B2F5800F01AE0197776037D1B3F1007F75
:102CE00014BF052304238DF804300023CDE90463C9
:102CF0000393836823FA01F111F0010118D1B2F1B5
:102D0000A07F15D104F01F03620903F1800338D1BD
:102D10001D4A52F82330DB070AD40DF10306324670
:102D20002146284601F01CF9184B984219D002960A
:102D30002146284603AA00F0E7FF154B98421DD113
:102D400001222146284601F065F9BDE7B3F1C06FC5
:102D500005D0B3F1007F14BF01230223C3E703238F
:102D6000C1E73146284601F04FF9094B9842DED0C1
:102D70006FF00B00A9E76FF08500A6E76FF0150074
:102D8000A3E751F82330FFDE002584500400AD0B8B
:102D90000000AD0B2DE9F04740F2FF16594FDFF868
:102DA00068C1DFF868E100EB8101814202D10020B7
:102DB000BDE8F087046814F4804FC4F3C325C4F35E
:102DC000080340F08C80240EB34208BF4FF0FF335D
:102DD0007D5D192C00F28680DFE804F00D13191CCC
:102DE0001F251C8484848436608484848484848441
:102DF000848463787B7EC2F80C355C1C5BD1043024
:102E0000D3E7C2F814355C1CF9D000245CE0C2F8AA
:102E10000835F2E7C2F81035F5E75C1CC2F8083552
:102E2000EDD0002404E05C1CC2F80C35E7D001248E
:102E30005FEA531859D14FF00109DFF8CC8009FA45
:102E400003FAC8F80CA008E0C2F80835002DDAD162
:102E50005C1CD4D000240625A146D0F800A00AF4BA
:102E60000048B8F1000F1CBF4FF00009012403F027
:102E70001F085B093FD10CEB8808D8F80032CAF371
:102E8000412A03EA0E0343EA8A0343EA052343EA9D
:102E9000090343EA4403C8F80032B0E7C2F80C352E
:102EA000D4E7C2F86035B3F1FF3F0468A7D0C4F39C
:102EB0000044002CBBD05C091AD10124DFF8488003
:102EC00004FA03F9C8F80890A146C6E7C2F86435C9
:102ED000E9E7C2F86835E6E7C2F86C35E3E76FF07A
:102EE000150065E76FF0850062E70023DB60FFDE19
:102EF00000239B60FBE7002308F1800853F828308B
:102F0000F5E700BF448B000000258450F0F8FCFF7B
:102F10002DE9F04104460D46476804F07EFE4FF06F
:102F2000200888B9264B1B7873B16426606804F0CA
:102F3000C5FBF0B9012004F0FCFC013EF6D10021F4
:102F4000212001F0D9FEF0E7EFF31186314688F336
:102F50001288BFF36F8F606804F0B0FBA8B986F3E6
:102F60001188BFF36F8FEFE786F31188BFF36F8F80
:102F7000E5E7EFF31186314688F31288BFF36F8FD0
:102F8000606804F09BFB0028EED0BB6900201D7038
:102F90006368BA691B68C3F844250122C3F8482551
:102FA000C3F82001D3F82041C3F85801D3F85801E1
:102FB0009A6081F31188BFF36F8FBDE8F08100BF85
:102FC00051210020F7B50546426813691168C1F820
:102FD0002435137D507D927D03431343C1F86C3536
:102FE0006E68D6E9004313F0010348D02F6907F15A
:102FF000080000F0DFFC304B98425AD1387A04F1D7
:103000000C0204F5907104F096FC387A012707FA57
:1030100000F000F0C9FC0823C4F80035B369C4F817
:1030200044350023C4F84835A760D4F85831002B44
:10303000FBD00021C4F800156B6801AADC682046AB
:1030400004F00FFB002805DB019B22681979186842
:10305000FFF7A0FE08216A681368C3F80015117A0B
:1030600051B9D269C3F834250122C3F83825C3F811
:103070001011D3F810111A60002003B0F0BD08221F
:10308000C4F80025B269C4F84425C4F848350123C2
:10309000A360D4F82031002BFBD00023C4F82031EA
:1030A000D4F820310123E3604FF48073C4F8043373
:1030B000BBE76FF00400E0E70000AD0B01238340A5
:1030C00070B5DC430B4AD2E8EF1F01EA0405C2E801
:1030D000E65F002EF7D14FF4803282400648C0F8F8
:1030E0000823BFF35F8FBFF36F8F0B4214BF012024
:1030F000002070BD2C1E00200050015070B40E49FD
:1031000022F07F46D1E90034D01AC31844F10004FC
:10311000C1E90034A6F50013B3F5400F09D2074BFF
:103120001B681A0A1B069C19054B42F10005C3E9EE
:10313000004570BC01F064BF90010020301E0020EB
:1031400098010020D9B101230D4A8340D2E8EFCF86
:103150004CEA030CC2E8E1CF0029F7D14FF48033E9
:10316000084A8340C2F80433074BD3E8AF3FC3405B
:10317000DB0742BF4FF40012044BC3F80021704735
:103180002C1E002000500150281E002000E100E00D
:103190000D4B1868010A0006BFF35F8F0B4BD3F885
:1031A0000435181841F10001B3F5801F0AD2084B0D
:1031B000D3E90023904271EB030303D210F1807036
:1031C00041F10001704700BF301E00200050015047
:1031D000980100202DE9F04F85B016461F460446A1
:1031E0009DF840A0FFF76AFF0190FFF7D1FFB042C2
:1031F00071EB070352D23B4B301A67EB0101984247
:1032000071F100014DD2384B03EB0413D3E90223D3
:103210009F4208BF964258D04FF48038334908FA8D
:1032200004F8204626F07F4BC1F8488304F095FA55
:103230004FF00309584604F15005AD00ADB205F159
:10324000502504F5A87305F580350293029A20F005
:103250007F4341F82230C1F84483D1F80435244A31
:10326000C01A033820F07F4090422ED9286868B1F8
:10327000D1F80435A3EB0B0020F07F40B0F5000F30
:10328000039322D9204604F068FA039BBAF1000F99
:1032900007D109EB030009F10109D7E7BAF1000FE3
:1032A00009D06FF0150520460199FFF74BFF28461E
:1032B00005B0BDE8F08F01230E4AA340D2E8EF0F1E
:1032C0001843C2E8E10F0029F8D107490E982301FD
:1032D000C8500F9B01EB04120025C2E9026753603E
:1032E000E1E700BF01008000800100200050015094
:1032F000FDFF7F00281E00207FB500254FF0FF3026
:103300004FF0FF31194C1A4B0226C4F80833C4F8A9
:103310004833184BC4F80855C3E902014FF4803311
:103320004FF40012C4F80433134B0121C4F80463B2
:103330001520C3F880212A46FFF78EF81520FFF7E5
:103340005BF801230D4AA360236013600C4B0D4A08
:10335000009328460023CDE90155FFF73BFF304697
:10336000FFF776FA284604B070BD00BF0050015048
:1033700003000F008001002000E100E02C1E00206F
:10338000FD300000FFFF7F002DE9F7432E4BD3F8FF
:10339000042390070BD5D3F8042142B10022C3F8CF
:1033A00004212A4AD3F80431136801331360264AF2
:1033B000D2F80433D90326D5254BD3E8EF1F21F0EB
:1033C0000100C3E8E40F002CF7D1CB0702D4D2F8F8
:1033D0004031C3B100251C4CC4F84051D4F84031F1
:1033E000FFF7D6FEEFF31182202383F31288BFF399
:1033F0006F8F184BD3E90267B042B94106D282F30E
:103400001188BFF36F8F03B0BDE8F0834FF0FF3832
:10341000D3E900104FF0FF391D60C3E902894FF472
:103420008033C4F84833C4F84051D4F8403182F3B3
:103430001188BFF36F8F0029E5D0009032463B46DC
:1034400028468847DFE700BF00500150301E0020AB
:10345000281E00208001002030B5431C124C85B08E
:1034600005D08442A8BF0446012CB8BF0124FFF751
:103470008FFE0E4B0C4DD3E90013401AB0F5000F30
:103480000FD22218AA4228BF2A4600205218084903
:10349000CDE90100009143F10003FFF79BFE05B069
:1034A00030BD2A46F1E700BFFFFF7F0090010020FA
:1034B000FD30000008B5FFF76BFE024B1B68C01A19
:1034C00008BD00BF90010020012310B5074C152056
:1034D0006360FEF79FFF4FF40012054BC4F80833FA
:1034E000C4F84833034BC3F8802110BD005001508D
:1034F00003000F0000E100E030B5816885B01039AD
:1035000021F00704054603F0C8FE10220146684674
:1035100003F04BFF10226846064903F03BFF1023DF
:103520006A462146284603F082FE003818BF012073
:1035300005B030BD4685000030B50D46816887B0C6
:10354000102302AA1039044603F05CFE002802DAB8
:10355000012007B030BD1022204602A904F028F94E
:1035600000283AD110221E4902A803F003FF0028C8
:103570000CBF012302232B70204604F005F9012320
:1035800001460DF10702204603F03CFE0028DFDB78
:103590009DF80730204603F00F021B096A702B715B
:1035A00001220DF1070104F003F910B96B78042B27
:1035B00003D901236B7000232B71A2682046183AAF
:1035C00022F00702083AA91C04F005F90028BFD12F
:1035D0002046E91C04F058F9BBE70323CBE700BF02
:1035E00046850000F0B5354F85B046000546694672
:1035F00057F8260004F04EF9044610B1FF2005B03C
:10360000F0BD013657F8260002A904F043F901285D
:1036100037D12A4649212A4803F0E6FD294B8DF887
:103620000C40029300229DF800609DF80870264C23
:103630003146207804F0AEF850B33946607804F093
:10364000A9F828B3A378042B03D09DF8031099425E
:103650001ED1E378042B03D09DF80B10994217D1AB
:103660002379042B10D16279022A1DD1174B1848F7
:103670002A46492103F0B8FD6079831E022BBED98A
:10368000BCE70028CED0B9E79DF802109942EAD0F5
:103690000132032A04F10604CAD10E482A46492100
:1036A00003F0A2FD0120AAE7032A05D00A4B0B492B
:1036B000042A08BF0B46DAE7094BD8E794830000D9
:1036C000838B000003010303188C0000658B00004E
:1036D000CE8B0000F28B00006A8B00007C8B000018
:1036E000608B000008B5EFF31083012B0C4A07D163
:1036F000126ABFF34F8F511C4A424A41104608BD1F
:1037000004F0F5F800B172B6126ABFF34F8F531C84
:103710005A425A4104F0EBF80028EFD062B6EDE7C8
:103720000080FF0008B5EFF31083012B0B4A06D190
:10373000D269BFF34F8F02F00102104608BD04F0BA
:10374000D6F800B172B6D269BFF34F8F02F0010212
:1037500004F0CDF80028F0D062B6EEE70080FF005C
:1037600010B504F0C4F830B14FF050230022C3F874
:103770001421C3F8182104F0C9F828B10122644BC0
:10378000C3F8382AC3F878254FF47F02D2F83031D5
:10379000D2F83421BFF34F8FC3F30B03092B05D1AC
:1037A000012A1EBF01225A4BC3F8782504F0AEF857
:1037B00018B10E22574BC3F8E42E04F098F830B13C
:1037C0000022534BC3F80C270122C3F81027002214
:1037D000D30003F57F03D3F80013BFF34F8F0131FC
:1037E00008D0D3F800130132D3F80433B2F5807F48
:1037F0000B60EDD1EFF31084FFF794FF00284DD05C
:10380000BFF34F8F444BD3F80024012AFBD1C3F8F8
:103810000425D3F80024012AFBD1012C03D004F0A5
:1038200066F800B172B6FFF77DFF58B13B4AD36925
:1038300023F00103D361BFF34F8F374AD2F800342E
:10384000012BFBD1FFF74EFF68B1344A136A23F016
:10385000FF0343F020031362BFF34F8F2E4AD2F8C9
:103860000034012BFBD1012C03D004F040F800B14F
:1038700062B60022284BC3F80425D3F80024012A9D
:10388000FBD1BFF34F8F2649264BCA6802F4E06292
:103890001343CB60BFF34F8F00BFFDE7FFF722FF5D
:1038A0000028ADD11E4AD2F88C3043F44063C2F8F0
:1038B0008C304FF47F03D3F83021D3F83431BFF389
:1038C0004F8FC2F30B02092A16D1013B022B02D8FB
:1038D000154AD35C83B11148144903680E4A8B42E0
:1038E0000CBF5A230023C2F8103EC36A8B420CBFA0
:1038F0005A230023C2F8003E094AD2F8883043F424
:103900007003C2F88830BFF34F8FBFF36F8F10BDC5
:103910000040005000A00350009003500080FF00C2
:1039200000ED00E00400FA052A8C0000FA50FA507D
:1039300030B50468ACB1B4FA84F30122C3F11F03BB
:10394000DBB29A4024EA0202D0E8EF5FA54204D13C
:10395000C0E8EC2FBCF1000FF6D1EAD102480B70A1
:1039600030BD0248FCE700BF0000AD0B0200AD0B0C
:1039700010B50368CB40DB0710D401238B400268ED
:1039800043EA0201D0E8EF4F944204D1C0E8EC1FB3
:10399000BCF1000FF6D1F2D1014810BD0148FCE79F
:1039A0000000AD0B0400AD0B014BC3F804057047DC
:1039B000007001500146014800F0B0B83C00002002
:1039C000044B1A7922B9012218601A710248704713
:1039D00002487047341E00200000AD0B0C00AD0BF8
:1039E00008B5084B1B6833B10520FEF727FD10B959
:1039F0000520FEF701FD4FF050230122C3F81825E2
:103A000008BD00BF341E002010B510B1012847D0FA
:103A100010BD4FF05023D3F81814D3F81824C9035D
:103A200022D502F00303022B05D0012B02D0002087
:103A300003F088FF01234FF050220220C2F818350E
:103A400008224FF48273002103F1502319601C688F
:103A5000012402F150221460164A126822B34FF07A
:103A60005023C3F80403D3E7D3F81424D207E1D5D5
:103A7000D3F81C2402F00302013A012AD7D80D4AD8
:103A800012681AB10222C3F80423C1E7D3F8042153
:103A9000002AFBD00022C3F80421D3F80431B7E791
:103AA00000224FF48073CEE71A68002AFCD0196018
:103AB0001B68ADE7341E00204FF0502310B5D3F83B
:103AC000002152B10020C3F80001D3F800210122E7
:103AD000C3F80823104B1B6898474FF05023D3F8C6
:103AE000042182B10022C3F80421D3F80421D3F8C1
:103AF0001824D3F81824022102F00302012A03D16A
:103B0000C3F818159A6010BDC3F80813024B0120C2
:103B1000BDE810401B681847341E00200079024B96
:103B200003EB0010FFF704BF44000020036803F01C
:103B30001F025B090260024818BF0020704700BFE7
:103B40000025845070B50D4C00F1080334F8133093
:103B50000546DA050E4607D5C3F3432304EBC3023B
:103B6000526854F833309847A3682BB13146284641
:103B7000E268BDE87040184770BD00BF54000020E7
:103B8000024611F0010004D003490B6A13600B6276
:103B900003B90020704700BF0025845010B4134AB9
:103BA000C0B2083032F81030D9051CD5C3F3432118
:103BB00023F4F85322F81030002002F10E0434F8F8
:103BC000023F13F4807F03D0C3F3432399420AD00A
:103BD00001302028F3D1002342F8313004485DF849
:103BE000044BFFF7C5BE5DF8044B7047540000203E
:103BF000AC000020F0B5054600200126044607462B
:103C00008C420BD1114BD3F87C2132B10022C3F886
:103C10007C21D3F87C3140F00040F0BDE3B29B0042
:103C200003F580729B0806FA03F31D420BD002F1E4
:103C3000A04202F55042D2F800C0BCF1000F02D001
:103C40001760126818430134DAE700BF00D0005053
:103C5000CBB2024608460D49083331F813309906B5
:103C600011D599070FD4012110685B0B9940C0F85A
:103C70000813126802EB8303D3F8102522F0030225
:103C8000C3F810257047002103F000BF5400002046
:103C9000F7B5194ECDB2083536F815300746DB07B3
:103CA0000C4626D5FFF7D4FF36F815309A0608D50E
:103CB0005A0B3B6803EB82030022C3F81025C3F8BC
:103CC00010252046FFF76AFF002301A826F81530CB
:103CD0000194FFF72BFF019B00EB8300D0F800223B
:103CE000064B134043F00203C0F80032044803B00F
:103CF000F0BD0448FBE700BF54000020F0F8FCFFD3
:103D00000000AD0B0400AD0B2DE9FF411368074621
:103D10000C461646FBB1DFF84481CDB2083538F8C1
:103D2000152002F02202222A22D000222046CDE9CC
:103D300000228DF80E208DF80F200DF10E010DF1EF
:103D40000F0203F05AFE38F8153023F0020343F057
:103D5000010328F8153073684BB31A785868DFF8F8
:103D6000FCC0E3B208333CF813108D0702D5B0B1A4
:103D700038481FE021F02001C904C90C2CF81310A9
:103D800068B1032AF4D870683D68406890F800E094
:103D900005EB8E058AB9C5F81025C5F810253CF845
:103DA000131021F01C0141EA82022CF81320B368A1
:103DB0002BBB294804B0BDE8F081D5F8108541EA55
:103DC0004E3128F00308C5F810853D6841F0200108
:103DD00005EB8E05D5F810052CF8131020F44730AC
:103DE00020F44070C5F810052002D5F8107500F4D5
:103DF000F85040EA02403843C5F81005CFE72046A6
:103E0000D3E90067FFF7CAFE002ED2D0134DD5E9E3
:103E10000023964203D19F4201D1002209E01048BD
:103E20000DF10F01FFF784FD0B4B9842C2D19DF8B5
:103E30000F20E4B205EBC20308345F6035F814309C
:103E400045F8326043EA422343F4807325F8143086
:103E5000AFE700BF0400AD0B0000AD0B5400002025
:103E6000AC0000202DE9FF4107460C461E4612B368
:103E7000DFF8D480CDB2083538F81530980701D472
:103E8000990621D413F01C0F02D05378012B1BD0BC
:103E900001238DF80F3000232046CDE900230DF1DA
:103EA0000F01931C013203F0A8FD38F8153043F0E0
:103EB000030328F81530002E44D0234DE1B2083119
:103EC00035F81120930703D4204804B0BDE8F081F1
:103ED000002096F800E03B6822F02002D20403EBB9
:103EE0008E03D20CC3F8100525F81120C3F8100575
:103EF00096F801C04FEA8E08BCF1000F22D0386856
:103F0000B6784044D0F810354FEA0C4C23F498139F
:103F100023F4F853C0F81035230203F4F8530CF4DB
:103F2000403C3605D0F8107543EA0C0306F48016C1
:103F3000334342EA4E323B4342F02002C0F8103590
:103F400025F811200248C0E7540000200400AD0B02
:103F50000000AD0B014BC3E9021270475400002072
:103F6000054BC9B2083133F81130990643BF5B0BDA
:103F70000248137002487047540000200000AD0B47
:103F80000400AD0B70B5154D064695F860401CBB9E
:103F90002146402205F1100003F007FA214630685F
:103FA0002E6D8E420ED10023C0F87C31D0F87C31CA
:103FB00040F30730FEF720FA0123094885F8603006
:103FC000AB6570BDCBB29B0003F580727C2B04BF48
:103FD000845083580131E4E70248F2E7540000209E
:103FE0000000AD0B0C00AD0B034B93F860000038E4
:103FF00018BF0120704700BF540000200148FFF7A0
:10400000B7BC00BFA80000200148FFF791BC00BF6B
:10401000A800002073B503680C46D3F804130029E8
:10402000A4BF4FF00041C3F804131E49E3B20833A4
:1040300031F8133099061AD513F0020617D15B0B2D
:1040400005689C0004F580716E5069580168214430
:10405000D1F8104544F00104C1F810452AB10122FD
:10406000016802FA03F3C1F8043302B070BDC3F370
:104070008203042B11D0052B11D001A80194FFF766
:1040800055FD019A0369D34003F00103991C2046B2
:1040900002B0BDE8704003F0F9BC0321F7E702214C
:1040A000F5E700BF540000202DE9F347534B544F70
:1040B000D3F80403396DC0B240F00040FFF79AFD19
:1040C000051E18DA00236846F96D00934FF00108C9
:1040D000FFF756FD97F85C30DA0757D4396D4FF08B
:1040E0000040FFF787FD6846F96DFFF749FD00289E
:1040F000F0D125F000450124002D66D102B0BDE8C5
:10410000F08794FAA4F4B4FA84F4E00804F1080304
:1041100037F8139004F007021DF8003008FA02F295
:1041200023EA02030DF8003001A80194FFF7FEFC1A
:10413000019B4FEA9901803350F82360C9F3820A4A
:104140004B07D146C6F3014624D520465146FFF71A
:10415000F9FC01A80194FFF7E9FC019BF6B280335A
:1041600050F82330C3F301439E4207D1002120467B
:1041700003F08CFC3146204603F088FC01A8019432
:10418000FFF7D4FC019B08FA03F30362009C002CA8
:10419000B7D1A3E7022E0CD10321204603F076FC11
:1041A0000AF00503012BE9D149462046FFF7CAFC76
:1041B000E4E70221204603F069FCBAF1030FF3D0D3
:1041C000032EDBD1BAF1020FEDE795FAA5F3B3FAAE
:1041D00083F304FA03F29B0003F1A04303F5504379
:1041E000D3F81005D3F81015C0F30420C1F3014132
:1041F00025EA0205FFF7A6FC7EE700BF00D00050CD
:10420000540000200022034BC3F88425C3F8042582
:10421000704700BF00900350044AD2F80834DB070F
:10422000FBD50160BFF35F8F704700BF0090035064
:1042300008B5C0F30B0383B90222094BC3F88425E8
:10424000C3F804254FF0FF320260D3F80024D207F0
:10425000FBD5FFF7D7FF034808BD0348FCE700BFC5
:10426000009003500000AD0B0A00AD0B012208B511
:10427000054BC3F88425C3F80425FFF7CDFFBDE83F
:104280000840FFF7BFBF00BF0090035038B5EFF301
:104290001185202383F31288BFF36F8F064B9C6830
:1042A00003F028FC85F31188BFF36F8F2046BDE82B
:1042B0003840FEF703B800BF3C1E002038B5094B5C
:1042C00053F82040013053F82050A54200D838BDA3
:1042D000636823B1204603F010FC0834F5E7236837
:1042E0009847FAE79C830000012270B52A4B03200F
:1042F00086B01A70FFF7E2FFFDF73AFD03F019FCF4
:104300000420FFF7DBFF254C254D2646AE4204F185
:10431000300410D300F032FC204C224EAC4226D3A5
:1043200000F040FCFCF776F81F4A137B23F00103F2
:10433000137306B070BD54F80C3C059354F8103C50
:10434000049354F8143C039354F8183C029354F823
:104350001C3C019354F8203C009354E90A2354E98F
:104360000C0100F00BFA54F8303C5E65CDE7D4E95F
:104370000A23B3F1FF3F08BFB2F1FF3F05D052EA75
:104380000301206803D103F04EFC3034C6E7314608
:10439000183000F0BBFDF8E7512100200C8100002F
:1043A0000C810000337D00006002002008B5034846
:1043B000034A0021121A03F0B8FB08BD8001002057
:1043C00054210020C02370B5134E012203FB006668
:1043D000002386B0CDE904230F220193CDE90232F8
:1043E00018234FF4A0720D4D0D4903FB00550446F0
:1043F00002FB00110B4B3046009500F0BFF9737BB8
:104400002C7423F004037373074B013403EBC423B0
:10441000EE606B6006B070BDA00100203C1E002065
:1044200058290020CF7B000058210020BFB5002074
:10443000FFF744FF2A4B03F5006282F3088883F3F9
:104440000A880024E023274D274E85F82230EC7798
:104450002C766C76AC7685F820406B6A234F43F45B
:10446000E0236B6285F82340FDF7BCFEFEF7A8F859
:104470004FF0FF3340F20112AB62EB621C4B1D4D5B
:104480009A81B360C3E919441C6703F01FFB012044
:10449000FFF714FF0220FFF711FF00F0A3FB164BFC
:1044A000B5610593012315494FF42052CDE903432B
:1044B00028463B46CDE90144009400F05FF90646EA
:1044C0006A7B284622F004026A7303F0E8FB204668
:1044D000FFF778FF3A4631462846FEF745F800BF19
:1044E0005821002000ED00E03C1E0020E9420000C1
:1044F00020030020600200202D8C0000982A00205C
:10450000002038B5054C064DAC4200D338BD2046DE
:1045100003F010FB0028F9DB1C34F5E72A0100202A
:104520002A01002073B50C46EFF31181202585F395
:104530001288BFF36F8FC5685DB125602B68C360BB
:10454000836901338361002081F31188BFF36F8F8A
:1045500011E052EA030603D16FF00B002560F3E788
:10456000CDE900230246083000F054FA18B9034B95
:104570009B685B69236002B070BD00BF3C1E0020D9
:104580002DE9F341044617461E46EFF31188202318
:1045900083F31288BFF36F8FC368334A7BB180689F
:1045A0009168884219D057EA060318D188F3118818
:1045B000BFF36F8F6FF00F0002B0BDE8F08191681C
:1045C00091F90E100133E36093682161A36088F3D1
:1045D0001188BFF36F8F0020EEE72169F2E791F9B0
:1045E0000E1090F90E306FF07E029942A8BF194666
:1045F0009142B8BF11468B422DDD03F0F3FA054618
:1046000022464146CDE90076184800F003FA00281A
:10461000E1D0EFF31186202383F31288BFF36F8F6D
:10462000A068D0B1236821699C420AD04BB193F9AC
:104630000E309942A8BF19466FF07E039942B8BF69
:10464000194603F0CFFA40B13146084800F052FA5B
:104650006FF00A00B0E70025D2E7002DF4D186F311
:104660001188BFF36F8FF3E73C1E0020522100201A
:1046700038B58368044663B3194A926893422BD1D4
:10468000C368012B03D9013BC360002038BDEFF3A1
:104690001185202383F31288BFF36F8F016980682F
:1046A00003F0A0FA204603F048FBA06058B190F94F
:1046B0000E2022610022826703F0F1FA29460948A0
:1046C00000F018FAE1E7E06085F31188BFF36F8F1F
:1046D000DBE76FF01500D9E74FF0FF30D6E700BFFA
:1046E0003C1E00205221002038B50446EFF311850E
:1046F000202383F31288BFF36F8F03F01EFB48B1B2
:104700000022826703F0CBFA2946BDE8384007480B
:1047100000F0F0B9D4E902329A4218BF0133A36025
:1047200085F31188BFF36F8F38BD00BF5221002081
:1047300013B5EFF31181202484F31288BFF36F8F38
:10474000846844B1013C846081F31188BFF36F8FAA
:10475000002002B010BD52EA030406D181F3118893
:10476000BFF36F8F6FF00F00F3E7CDE90023024630
:10477000014800F04FF9ECE7522100202DE9FF41FC
:104780000E9E00F1580506730426C0E91655002553
:10479000044646730D9EC0E906558673D61D0C9AD5
:1047A00026F00706C0E919168560C573C566029232
:1047B0000B9A01EB060801920A9A00924246FDF715
:1047C0008FFE054B65659B6803B11B6F40462367F1
:1047D00004B0BDE8F08100BF3C1E002038B50D4D8F
:1047E0002B4653F81C4F9C4200D004B9EC68AB68D0
:1047F00038B95A7BD20604D1A26912B9DA897F2A64
:1048000005D89C4202D0204600F0C8FA2346AB618E
:1048100038BD00BF3C1E002008B590F90D200146B0
:10482000002A437B04DA03F07F03437303F0FDF9AE
:10483000044B9868431A58425841BDE80840FFF7B6
:10484000CDBF00BF3C1E002070B490F90D30427BFC
:10485000002B29DBD30627D183692BBB134962F0D8
:104860007F0242730A4652F81C4F944218BF2346F7
:104870000C6A23B9C0E90024206008620CE090F9BA
:104880000E5093F90E60B5420AD0AE4208DD5A6868
:10489000C0E9003210605860002070BCFFF79EBF76
:1048A0009C42E7D01B68E4E770BC70473C1E0020C8
:1048B000002A2DE9F0410E460CBF10210821427B51
:1048C000044611420FD141EA0203D20918D14373C1
:1048D00008291BD00120FFF781FFBFF35F8F637BA7
:1048E00023F0600363732C4B9B68A3424DD1EFF31D
:1048F0000583002B49D13046BDE8F041FDF7F4BCFB
:1049000003F07F03437303F090F9E1E7A36813B169
:10491000204603F092F904F1180003F04BFAA56D5C
:1049200004F15807AF4211D04FF0000875B1284686
:1049300003F083F905F1180003F03CFA2846C5F8A6
:104940007880FFF781FFA56DAF42EFD1124DAB68C4
:104950009C4206D00120FFF741FF2046FDF7E0FD15
:10496000BBE7EFF30583002BF4D00120FFF736FF00
:104970002046FDF7D5FD40F20112084B9A81002236
:10498000AB60C3E919221A67A7E786F31188BFF362
:104990006F8FBDE8F08100BF3C1E00202003002087
:1049A00070B590F90D200146002A437B04DA03F02C
:1049B0007F03437303F039F9154A4B7B104663F0CC
:1049C0007F034B7350F81C3F146A834208BF0023D7
:1049D00023B9C1E90004216011620CE091F90E5085
:1049E00093F90E60B5420ED0AE420CDD5868C1E9B5
:1049F0000030016059609068BDE87040431A584229
:104A00005841FFF7EBBE9C42E3D01B68E0E700BFD4
:104A10003C1E0020F8B5124B0C46DDE90676114627
:104A20009868104A1060EFF31182202282F31288F6
:104A3000BFF36F8F9D68284603F009F9B6F1FF3F79
:104A400008BFB7F1FF3F06D03A463346064905F1A5
:104A5000180000F05BFA2046BDE8F840FDF744BCC2
:104A60003C1E0020641E0020337D0000F8B5044683
:104A7000EFF31186202383F31288BFF36F8F437BFC
:104A800049B2DA0619D18569BDB903F07F034373D2
:104A900003F0CBF8437B164A63F07F03437313465E
:104AA000817353F81C0F984218BF0546106A5DB910
:104AB000C4E900300460146211E00020A17386F3A1
:104AC0001188BFF36F8FF8BD95F90E70B9420BD006
:104AD0008F4209DD6B68C4E900531C606C600120E3
:104AE000FFF77CFE0120EAE7A842E1D02D68DEE76F
:104AF0003C1E002049B9EFF3058030B9054B9A6997
:104B00009B689A4201D0FDF7EFBB81F31188BFF398
:104B10006F8F70473C1E002010B5EFF311842022E8
:104B200082F31288BFF36F8F427B510704D484F362
:104B30001188BFF36F8F10BD22F004024273FFF79C
:104B400083FE2146BDE810400148FFF7D3BF00BFF8
:104B500052210020034648B9EFF3058232B9064AD4
:104B600091699268914201D0FDF7BEBB83F3118831
:104B7000BFF36F8F704700BF3C1E0020EFF3118121
:104B8000202383F31288BFF36F8F054B9A68D37B82
:104B9000013BD37381F31188BFF36F8F704700BF60
:104BA0003C1E002038B5EFF31185202484F31288D1
:104BB000BFF36F8F0A4B00209A68D37B0133D37306
:104BC000FFF70CFE85F31188BFF36F8FEFF31180B1
:104BD00084F31288BFF36F8FBDE83840FFF7BABF88
:104BE0003C1E0020024B03F11C02C3E90722704760
:104BF0003C1E0020F8B5EFF31185202383F31288C3
:104C0000BFF36F8F19498868437B03F07F034373B9
:104C100003F00BF808468B685A7B62F07F025A73E8
:104C200050F81C2F0C6A824208BF002222B9C3E947
:104C3000000423600B620CE093F90E6092F90E7091
:104C4000BE420ED0B7420CDD5168C3E900210B60B3
:104C500053600120FFF7C2FD2846BDE8F840FDF78C
:104C600043BBA242E3D01268E0E700BF3C1E002035
:104C700050EA01032DE9F04105460E4603D1FFF746
:104C8000B9FF00202BE0831C71F1FF3329DB03F017
:104C9000A6F82C18EFF31188202383F31288BFF3B2
:104CA0006F8F124F124BB8681860FFF7B5FDB868E8
:104CB00010492A463346183000F028F9BA684046B1
:104CC000537B43F010035373FDF70EFB03F087F89B
:104CD000201A63EB0303012873F10003D1DBBDE865
:104CE000F0816FF00104241AD4E700BF3C1E0020BD
:104CF000641E0020337D0000B1F1FF3F08BFB0F11A
:104D0000FF3F08B506D10A4B986802F0D7FF4FF075
:104D1000FF3008BDFFF7ACFF4FF47A7147F6FF7321
:104D20000022C0FB0132D80B40EA4240F1E700BF4D
:104D30003C1E0020014B9868704700BF3C1E0020BD
:104D40000122044BC01A044BC0105843034B1A54A1
:104D5000704700BFE0030020ABAAAAAA522100209E
:104D6000C3897F2B12D80A4B1B6863B1094B90F99A
:104D70000E201B689A4209DB437BDB0606D1064BFB
:104D8000C31A18BF012303F0010070470023FAE79C
:104D90006C1E0020681E0020A001002070B50E4B84
:104DA0000E4C1E7C054606EB460304EBC30420466E
:104DB00003F000F800220A4B28469A55FFF7D0FF6F
:104DC00048B1084B2046BDE870401A680649013AD0
:104DD000D31700F09BB870BD3C1E0020E0030020FC
:104DE000522100206C1E0020414D000038B5EFF329
:104DF0001185202383F31288BFF36F8F104B114A64
:104E00009C681068A04206D1FFF7C8FF85F311889F
:104E1000BFF36F8F38BD00211B7C11600A4AD35C41
:104E2000002BF3D02046FFF79BFF0028EED0637BDA
:104E3000DB0602D12046FFF7B3FD2046E4E700BFC2
:104E40003C1E0020641E00205221002008B50648A8
:104E5000064A0749121A02F06AFEBDE80840054AF0
:104E60000549064802F063BE000000207C010020D6
:104E7000348C000000000000348C00000000002092
:104E8000034B1B680BB9FEF715BB0020704700BF32
:104E9000701E002030B570B10B4B5B6898420AD091
:104EA000036843B1D3E90421D0E90445121941EB69
:104EB0000501C3E90421D0E9003213605A600023E0
:104EC000C0E9003330BD00BFB800002010B50E4B64
:104ED0001C689C4204D1FFF7D3FF6FF0004010BD67
:104EE000FFF7CEFF002CF8D0D4E904321B1A62EB96
:104EF000E072B3F1004F72F10001EEDA002AACBFAC
:104F000018460020EBE700BFB8000020B3F1FF3FD8
:104F100008BFB2F1FF3FF8B504461D4616465ED005
:104F20008160EFF31187202383F31288BFF36F8F23
:104F3000013275F1FF3324DA6FF001032D49D1E915
:104F400000209B1A4FF0FF3262EB00009E1B60EBCB
:104F50000500012E70F1000301DA01260020C4E9EA
:104F60000460254ED6F800C07568B44508BF4FF000
:104F7000000CBCF1000F0DD1C4E900652C60746019
:104F80001CE0FFF77DFF013645F10005361845EBC3
:104F9000E070E4E7DCE90420D4E90431934271EBEA
:104FA000000E1DDAD21ADCF8043060EB0100CCE907
:104FB0000420C4E900C31C60CCF804403368B34249
:104FC00009D09C4207D10D4B1C6824B9FFF77EFF26
:104FD0002146FEF741FA87F31188BFF36F8FF8BDC2
:104FE0009B1A61EB0001AC45C4E90431C4D0DCF884
:104FF00000C0BEE7F8030020B8000020701E0020AB
:105000002DE9F84FEFF31186202383F31288BFF3C5
:105010006F8FDFF8B8902B4D4FF0000A2860D9F859
:1050200000004FF0000B484508BF0020264C3746D3
:10503000D4E9001E2B6880B3D0E904864FEAE37CF4
:1050400043457CEB060206DAB8EB030266EB0C067E
:10505000C0E9042621E018EB01014EEBE873C0E93A
:1050600004ABC4E90013FFF715FF87F31188BFF302
:105070006F8F83689847EFF31187202383F312889B
:10508000BFF36F8F2B68D9F80000A3EB08034845E6
:105090003E462B60CBD1D4E9001E59184EEBE3738A
:1050A000C4E9001300242C60FFF710FF2146FEF72F
:1050B000D3F987F31188BFF36F8FBDE8F84FFFF77F
:1050C00095BE00BF701E0020F8030020B80000202D
:1050D00010B5EFF31184202383F31288BFF36F8F91
:1050E000FFF7CEFE0346054AD2E90001181841EB4E
:1050F000E37184F31188BFF36F8F10BDF8030020B4
:1051000010B50A4C23681BB101232360002010BD99
:1051100000F0EAF80028F7D00138062803D8044B3D
:1051200053F8200010BD034810BD00BF741E0020BE
:10513000B4830000FE8FFFFFBFF34F8F0549064B7E
:10514000CA6802F4E0621343CB60BFF34F8F00BF25
:10515000FDE700BF00ED00E00400FA0530B44FF0B9
:10516000FE320025074B084C08494968C3F8002463
:10517000C3F80424C3F80824C3F80C24C4F8005569
:1051800030BC08470010845000008450C00000204C
:10519000024BD0E90012C3E900127047C0000020A2
:1051A00010B5044650B1636813F0685F05D0064A35
:1051B000934202D000236260236010BD034B044879
:1051C0005B689847EFE700BF2C5F5CA9C000002038
:1051D000D0830000C8B143680D4A934213D013F046
:1051E000685F0ED0012350E8002F194640E8001CEC
:1051F0009CF0000FF7D1012AF5D0BFF35F8F00209C
:10520000704704487047044870476FF4E0407047A7
:105210002C5F5CA9E98FFFFFEA8FFFFF034680B197
:10522000426809498A420AD012F0685F05D0BFF38C
:105230005F8F002210461A60704704487047044888
:1052400070476FF4E04070472C5F5CA9E98FFFFF67
:10525000EA8FFFFF10B5044620B10023034A236004
:10526000626010BD0248FFF779FFF6E73A00003AA6
:10527000F88300002DE9F041174C47680668676025
:105280008768C068A760E06026600868134B144D0B
:1052900018604868D5F818215860886812F0685F6F
:1052A0009860C8680969D860196112D000230D4A56
:1052B00005F58A70C5F81431C5F8B831C5F818215C
:1052C000C5F8BC21B047236805F5DC70BDE8F041A6
:1052D0001847BDE8F08100BFDC000020C8000020B6
:1052E0008C1E00202C5F5CA938B500F02FF820B18F
:1052F000032400F063F8204638BD00F031F898B977
:1053000000F0ACF898B90F4DD5F828391B0EF02BEA
:1053100008D1D5F8242A0C4B9A420AD0072400F071
:1053200017F8E6E70624FAE70424204638BD0024EF
:10533000F5E7012000F092F804460028F7D1C5F8FF
:105340000C0AD8E7001084500000E02000207047CD
:1053500000207047014BC3F8040A704700108450C6
:1053600010B5114800F048F800B110BD0F4800F02A
:1053700043F80028F9D10E4C204600F03DF80028F3
:10538000F3D10C4B0C481C6000F036F801460028A5
:10539000EBD100F02DF8044608B1204610BD00F016
:1053A0003FF82046FAE700BF1C010020180100204A
:1053B000140100200C0100201001002008B508484D
:1053C00000F024F8074800F021F8074800F01EF824
:1053D000064800F01BF8BDE8084000F00BB800BF1D
:1053E0001C010020180100201401002010010020E1
:1053F00000207047704700BF08B5034B02681B6868
:1054000010689847002008BDDC00002008B5034B59
:1054100002685B6810689847002008BDDC00002027
:1054200070B5094C094D2069AB68984718B1084B15
:1054300008485B6898470021074AEB6811602069BB
:10544000BDE87040184700BFC8000020DC00002005
:10545000C00000201C840000881E0020F8B51A4DF2
:105460001A4E0446B26828699047E8B9184F3B685D
:105470004CB1A3B1012B19D0013B3B602869F36803
:1054800098470020F8BD43B90121124AC2F800151F
:105490001149D1F81029002AFBD101333B60F36890
:1054A000286998470020F8BD0C48F8BD0A4AD2F890
:1054B0001039002BFBD1074A6FF07E40C2F800354F
:1054C000FFF748FF3B68D7E7C8000020DC0000205A
:1054D000881E00200000845000108450E98FFFFFD8
:1054E00030B10268034B04489A4208BF002070475D
:1054F00002487047DD55AABB8208F0007108F00031
:1055000038B50D460446B0B1A0220021043002F0A7
:1055100083FC95B10822294604F1640002F082FC64
:10552000082205F1200104F1840002F07BFC002038
:10553000034B236038BD0348FCE70348FAE700BF8C
:10554000DD55AABB7108F0008308F0002DE9F74390
:1055500005460E4699461146FFF7C2FF044600284D
:1055600040F08480002E00F08580002900F08480C7
:10557000B9F1200F40F0828005F14404082205F1C2
:105580000408204602F04EFC05F1240708223146AB
:10559000404602F047FC06F120010822384602F09E
:1055A00041FC02A941F8049D4FF4807002F02EFCEA
:1055B000002865D14FF48073324A01211360936053
:1055C0000823314A00F034FB0121052308462F4A05
:1055D00000F02EFB0823424601211C2000F028FB8E
:1055E00008233A460121032000F022FB224608232B
:1055F0000121022000F01CFB0823254A01211A206A
:1056000000F016FB0523234A01211B2000F010FBAC
:105610000823214A0121142000F00AFB08231F4A15
:105620000121152000F004FB082305F1640201218B
:10563000162000F0FDFA082305F18402012117204D
:1056400000F0F6FA0823164A01210B2000F0F0FAC8
:1056500000F04AFB0446019800F0D8FA114B002CE8
:1056600018BF1C46A421284602F0D8FB204603B0F0
:10567000BDE8F0830C4CF9E70C4CF7E70C4CF5E770
:10568000084CEFE7901084507C840000F484000004
:105690003C840000E0840000A0840000C08400007E
:1056A0005C8400008408F0007608F0008008F000B8
:1056B0008108F000C2690C4B1A60826943F8042C1F
:1056C000426943F8082C026943F80C2CC26843F87D
:1056D000102C826843F8142C426843F8182C026896
:1056E00043F81C2C704700BF5C1684500C4B1B68A1
:1056F000C3610C4B1B6883610B4B1B6843610B4BF5
:105700001B6803610A4B1B68C3600A4B1B688360FC
:10571000094B1B684360094B1B680360704700BF5F
:105720005C16845058168450541684505016845079
:105730004C168450481684504416845040168450A9
:1057400030B10268034B04489A4208BF00207047FA
:1057500002487047DD55AABB0202F0000002F000CB
:1057600038B5044668B1051D7021284602F056FB85
:1057700028462022044902F04DFB0020034B236001
:1057800038BD0348FCE700BF08850000DD55AABB13
:105790000002F0002DE9F04385B015466F46274B17
:1057A00004460E460FCB87E80F002DB94FF00009D5
:1057B000484605B0BDE8F0832046FFF7C1FF8146AB
:1057C0000028F5D1231D0193636AA3BB236F8BB11E
:1057D000C3F14008A84528BFA84604F1300031466F
:1057E0001844424602F016FB236F464443442367A5
:1057F000A5EB0805226F402A06D104F13001384696
:1058000000F0B4FB0023236705F03F0835F03F05A7
:1058100005D031462A46384600F0A8FB2E44B8F1A0
:10582000000FC3D04246314604F1300002F0F2FAD4
:10583000C4F87080BCE7DFF80890B9E72081000069
:105840000C02F0002DE9FF4104466F46134B0E4653
:105850000FCB87E80F002046FFF772FF8046B0B9F4
:10586000CEB1636A251D01953BB90123226F6362A6
:1058700004F13001384600F079FB2B46043E243415
:1058800053F8042B12BAA34246F8042FF8D140462D
:1058900004B0BDE8F081DFF80880F8E7208100005F
:1058A0000502F000084B1B681B0EF02B08D1074BBC
:1058B0001A68074B9A4205D10020064B18607047C2
:1058C000052070470620704728198450241A8450F8
:1058D0000000E0200C1A8450002230B5134640F638
:1058E000FC754900023802F1A15404F5823490425B
:1058F0004FEA840402F10102CABF236025605B18ED
:105900001E2AF0D1034A13600B445360024B034A32
:105910001A6030BD781084508410845020F80F0035
:105920001E4B30B51A4685B0196800910099CC0716
:10593000FAD500F1A15000F58230800001681368AB
:105940000193019BD807FAD5154B164C18682023F4
:105950001F3090FBF3F0144D0138002810DA0023BB
:105960000130400153B14FF00042A0F12001134239
:1059700004D1013888424FEA5202F8D105B030BD57
:1059800013680393039BDB07FAD5431823602B6846
:105990000293029B002BE3D10138DEE7B410845060
:1059A000AC108450E4108450DC108450F0B51D68B5
:1059B00085B001F01F040DB91F2C28D1174D2E46BC
:1059C0002F680197019FFF07FAD500F1A15000F55C
:1059D00082308000006835680395039DED07FAD595
:1059E0001F2C00EB611018BFC9430D4D18BF01F00B
:1059F0001F0128600B480068029002981CBF00FA43
:105A000001F111604FF0000108BF106019601068CB
:105A10004300C00F136005B0F0BD00BFB410845048
:105A2000E4108450DC1084500C4B890118603F3026
:105A300020F03F004030586099600948D9601961F2
:105A4000596199611C3382B0196002680192019A10
:105A5000D207FAD5196002B0704700BF9010845089
:105A6000B410845038B5A0F12003B3F5426F054659
:105A70002CD88F2826D800F1470300F16604DB06F6
:105A80004FEA541400D0013464013F34A4090134B6
:105A900011B1A1421AD30C464FF48050E300B0FB81
:105AA000F3F0202828BF202002B110600122084B0B
:105AB00021461A60FFF710FF28462146FFF7B4FF82
:105AC000002038BD00F11F046409DDE70148F8E754
:105AD0001C1884502221F000464BF0B51D4689B0B9
