:020000040000FA
:10000000000C002045010000A701000021100000A5
:100010002B10000035100000491000003F100000B8
:10002000000000000000000000000000911D000022
:10003000C301000000000000551D0000CB010000BE
:10004000000000000000000000000000CF010000E0
:1000500000000000D30100000000000000000000CC
:10006000D7010000DB010000DF010000E301000018
:1000700000000000E7010000EB010000EF010000BC
:10008000F3010000F7010000000000000000000084
:10009000FB010000FF010000000000000000000064
:1000A0000302000000000000000000000702000042
:1000B0000B0200000F0200001302000017020000F4
:1000C0001B0200001F0200002302000027020000A4
:1000D0002B020000000000002F02000000000000C2
:1000E00033020000000000003702000000000000A2
:1000F0003B020000000000000000000000000000C3
:10010000000000003F0200000000000000000000AE
:1001100000000000000000000000000000000000DF
:10012000000000004302000000000000000000008A
:1001300000000000000000000000000000000000BF
:1001400047020000114C124DAC4209DA2168626886
:10015000A368043BA2BFC858D050FAE70C34F3E7B9
:100160000C4B0D4CA34208DA19685A680020043A77
:10017000A4BF8850FBE70833F4E772B60748084984
:10018000086000F075FF00F00FFF00004C02000057
:1001900070020000700200009002000000000000E9
:1001A00008ED00E0FEE7FFF7FEBF00F039BF00F00A
:1001B0003CBF00F03FBF00F047BF00F040BF01F080
:1001C000E7BDFFF7FEBF01F0C5BDFFF7FEBFFFF7BC
:1001D000FEBFFFF7FEBFFFF7FEBFFFF7FEBFFFF753
:1001E000FEBFFFF7FEBFFFF7FEBFFFF7FEBFFFF743
:1001F000FEBFFFF7FEBFFFF7FEBFFFF7FEBFFFF733
:10020000FEBFFFF7FEBFFFF7FEBFFFF7FEBFFFF722
:10021000FEBFFFF7FEBFFFF7FEBFFFF7FEBFFFF712
:10022000FEBFFFF7FEBFFFF7FEBFFFF7FEBFFFF702
:10023000FEBFFFF7FEBFFFF7FEBFFFF7FEBFFFF7F2
:10024000FEBFFFF7FEBFFFF7FEBF00BF0C5500006B
:10025000202F0020F800000020550000401C002046
:100260000000000020550000201C002000000000BD
:1002700020300020301A0000401C0020E012000056
:10028000201C002020000000001C002004000000B2
:1002A000024B0A460146186800F05CB8AC2F0020EB
:1002B00008B5074B044613B1002100E000BF054B11
:1002C0001868836A03B19847204604F0A3FF00BF73
:1002D000000000000C05000070B50D4D00260D4C0F
:1002E000641BA410A64209D10B4D00260B4C04F050
:1002F00093FF641BA410A64205D170BD55F8043BC2
:1003000001369847EEE755F8043B01369847F2E787
:100310001030002010300020103000201430002059
:10032000024B0146186800F02DB800BFAC2F00202A
:10033000884210B501EB020402D98442234607D853
:10034000431EA14208D011F8012B03F8012FF8E752
:10035000024401468A4200D110BD13F8014D02F853
:10036000014DF7E74A4313B51146019200F056F8E4
:10037000044618B1019A002100F0AEF9204602B0FF
:1003800010BD000037B5002943D051F8043C0C1FC4
:100390000190002BB8BFE41800F0AAF81E4A01989B
:1003A000136833B96360146003B0BDE8304000F0F7
:1003B000A5B8A34208D9256861198B4201BF196805
:1003C0005B6849192160EDE71A465B680BB1A342EF
:1003D000FAD911685518A5420BD124682144541844
:1003E0001160A342E0D11C685B6821445360116036
:1003F000DAE702D90C230360D6E7256861198B423E
:1004000002BF19685B684919636008BF21605460C6
:10041000CAE703B030BD00BF3C4A0020F8B5CD1C90
:10042000064625F0030508350C2D38BF0C25002D98
:1004300001DBA94203D90C2333600020F8BD00F092
:1004400057F821490A6814469CB9204F3B6823B9E4
:100450002146304600F03CF838602946304600F02E
:1004600037F8431C23D10C233046336000F046F8A4
:10047000E3E723685B1B17D40B2B03D923601C44D1
:10048000256004E06368A2420CBF0B6053603046F5
:1004900000F034F804F10B00231D20F00700C21A0D
:1004A000CCD01B1AA350C9E722466468CCE7C41C11
:1004B00024F00304A042E3D0211A304600F008F8EB
:1004C0000130DDD1CFE700BF3C4A0020404A002088
:1004D00038B50023054D044608462B6004F08AFE1B
:1004E000431C02D12B6803B1236038BD444A00206D
:1004F000014800F009B800BF484A0020014800F058
:1005000004B800BF484A002070477047B02F002051
:10051000009A394B9A420FD1EFF314830CB41FB5F4
:1005200036486946002200F0CBFE0FBC0CBC9E464C
:100530000CBC83F3148874470FDFFEE7009A2E4B40
:100540009A420FD1EFF314830CB41FB52C486946BF
:10055000002200F0B5FE0FBC0CBC9E460CBC83F321
:10056000148874470FDFFEE70CB4029A224B9A42BC
:1005700012D10CBC9C46EFF314830CB463461FB538
:1005800020486946002200F09BFE0FBC0CBC9E4632
:100590000CBC83F3148874470FDFFEE7009A164BF8
:1005A0009A4210D1EFF314830CB463461FB516487A
:1005B0006946002200F084FE0FBC0CBC9E460CBCB9
:1005C00083F3148874470FDFFEE7009A0A4B9A42C0
:1005D0000FD1EFF314830CB41FB50C486946002209
:1005E00000F06EFE0FBC0CBC9E460CBC83F314885E
:1005F00074470FDFFEE70000A5EDF5FE15130000C0
:100600001B1300004913000055150000F9150000E8
:10061000C3438B4210B50ED332F01F030BD1013907
:1006200002F014030144102B81EA00043DD004DCE5
:1006300063B1042B32D0002041E0142BFBD11F2CDE
:1006400040E8C0F30CD941E8C0F105E01F2C40E8B8
:1006500000F305D941E800F11C460B468C42EAD173
:1006600022F01402013A0A2AE5D801A151F822F039
:10067000CD060000C7060000B906000037060000DE
:10068000370600003706000037060000D3060000DA
:10069000CD060000C1060000B90600001F2C40E88E
:1006A00040F3DDD941E840F1D6E71F2C40E880F364
:1006B000D6D941E880F1CFE713F4001FBBD010BDBD
:1006C00013F4801FFAE75B02F9D5B4E713F4002FA7
:1006D000F4E713F4802FF1E70346F0B5C9B29AB1FD
:1006E0009C0715D115460C0444EA01640C4344EA06
:1006F0000124D618032D0FD822F003052B446FF0E8
:100700000305940805FB04221A44934208D1F0BD66
:1007100003F8011B013AE2E7771B3C60043DE9E77F
:1007200003F8011BF1E7F0B504468AB341EA04057A
:1007300015F0010513D1012A23D941EA040313F06E
:10074000020312D1D618032E15D86FF003069308B2
:1007500006FB032204EB830401EB830116E011F88E
:10076000013B013A04F8013BDFE731F8023B023A72
:1007700024F8023BDFE7CE1A3768E61A3760043BFD
:10078000E0E70023DEE76B5C2B550135AA42FAD186
:10079000F0BD0000034B1B685A680AB9186870471F
:1007A00001487047001C0020B5070000FFF7F2FF6A
:1007B000004700002DE9F04F01251E4B8DB0D3F806
:1007C0000090D9E900329540013D1BB1984708B12E
:1007D00004F05EFD4FF0010A4FF00041284604F09E
:1007E00037FD0026044609F10807002CF4D0D9F89B
:1007F0000430B34202D804F04BFDEDE70AFA06F8E4
:1008000014EA080F12D03B680BB904F041FD6946A9
:10081000404604F021FD3B686846DDF804B0984787
:100820000146584604F028FD24EA0804013604373E
:10083000DBE700BF001C00200000000000000000FB
:1008400001015F5F030100001F010000A10900001A
:10085000000800000000000001000000010000008E
:100860000000000000000000102200200000000036
:1008700070000000F8520000800000000007000037
:1008800001000000C10900000100000000015F5FDD
:10089000040100001F0300000D0E00000005000011
:1008A0000000000000000000030000000000000045
:1008B00000000000102A0020000000000353000088
:1008C00040000000000500000100000000000000E2
:1008D000100000002053000041000000000500004F
:1008E000010000000000000020000000365300005E
:1008F00042000000000400000100000000000000B1
:100900004000000000015F5F00000000FE030000E7
:100910000D1F0000000400000000000000000000A7
:10092000000000000000000000000000A0310020D6
:100930000000000001015F5F01000000FF030000F4
:10094000411F000000010000000000000000000046
:10095000000000000000000000000000A0350020A2
:040960000000000093
:1009800038B50025054C29462046D4F80024C4F883
:100990000454FFF7A1FEC4F8005438BD441C0020E5
:1009A00008B500F0C9F838B90121044802F07EF812
:1009B000BDE8084002F000B908BD00BF401C00209F
:1009C0002DE9F04701680446A0B0002940F0AD8051
:1009D000202203A8019113AEFFF77EFE2022019989
:1009E0000BA8FFF779FE342230460199FFF774FE19
:1009F000042304F11C0252F804191D46013B81B383
:100A0000342332460021606804F02AFC34282AD1BD
:100A1000139B402B27D84FF00109454FCDE90360C8
:100A200004F1140803AEA94523D3042604F12C03D2
:100A300053F804293746013E002A3AD04FF0000C03
:100A40003B4A04F12001D2F800340BA801EB8708DF
:100A5000414548D1BCF1000F01D0C2F800343E46F8
:100A600029E0002BC7D16FF08305284620B0BDE8F0
:100A7000F08758F8043BD7F80024D81C20F0030076
:100A8000C2F58061884204D9FFF77AFF6FF08C05C8
:100A9000EBE7104407EB020A4946C7F80004524648
:100AA000606804F0DDFB09F10109F06046F808AF69
:100AB000B9E7002EBCD1A2681D4B2946C3F8042417
:100AC000139A1C4B03A853F8227033460BAAB8475D
:100AD000002705460DF12C08B74208F108081CD183
:100AE000FFF74EFFC1E751F804EBC3F580690EF143
:100AF000030626F003064E4500F1080007D802EB76
:100B0000030C40E902CE33444FF0010CA0E7BCF1E6
:100B1000000FB9D0C2F80034B6E7394658E90223CD
:100B2000606804F0A5FB0137D6E76FF085059CE708
:100B3000441C0020540E000008B54FF4E072002160
:100B40000248FFF7C9FD002008BD00BF502000206B
:100B50006FF0850070476FF0850070476FF085007B
:100B600070476FF0850070476FF0850070476FF039
:100B7000850070476FF0850070476FF08500704703
:100B80006FF0850070476FF0850070476FF085004B
:100B900070476FF0850070476FF0850070476FF009
:100BA000850070476FF0850070476FF085007047D3
:100BB0006FF0850070476FF0850070476FF085001B
:100BC00070476FF0850070476FF0850070476FF0D9
:100BD000850070476FF0850070476FF085007047A3
:100BE0006FF0850070476FF0850070476FF08500EB
:100BF00070476FF0850070476FF0850070476FF0A9
:100C0000850070476FF0850070476FF08500704772
:100C10006FF0850070476FF0850070476FF08500BA
:100C200070476FF0850070476FF0850070476FF078
:100C3000850070476FF0850070476FF08500704742
:100C40006FF0850070476FF0850070476FF085008A
:100C500070476FF0850070476FF0850070476FF048
:100C6000850070476FF0850070476FF08500704712
:100C70006FF0850070476FF0850070476FF085005A
:100C800070476FF0850070476FF0850070476FF018
:100C9000850070476FF0850070476FF085007047E2
:100CA0006FF0850070476FF0850070476FF085002A
:100CB00070476FF0850070476FF0850070476FF0E8
:100CC000850070476FF0850070476FF085007047B2
:100CD000012908D1012B06D84368342B03D1D2E96E
:100CE000000101F035BF6FF0800070476FF08500A4
:100CF000704708B502F0B8FA002008BD70B50024AE
:100D000005460426A6B03C22214607A8CDE90244A8
:100D1000CDE904440694FFF7DFFC3C22214617A8E6
:100D20001694FFF7D9FC019405F11C0353F804193C
:100D30003246013E09B1164601E0002EF6D10424E8
:100D400005F12C0353F804192246013C09B114465D
:100D500001E0002CF6D1731E012B38D8012C36D8B7
:100D60000423002168680DEB030204F079FA0428DB
:100D700004D06FF08006304626B070BD022E24D11C
:100D80006B69402BF5D806AE32460121686804F045
:100D900067FA6B699842ECD1CDE9026002A934B1DF
:100DA0002B6A402BE5D816AACDE9042304AC2246D1
:100DB000019802F06BFA0646002CDCD0DDE9042332
:100DC0000021686804F054FAD5E70021E7E701261E
:100DD000D1E710B58CB00C46694604F03DFA009B93
:100DE000002B04DA02330BDA04F052FA0CE003D0E1
:100DF000A3F2F233012BF7D86846A047014600E082
:100E00000021019804F038FA0CB010BD70B50E4CFA
:100E10000E4D0F4E4FF000414FF0FF3004F018FA26
:100E2000C10604D531461020FFF7D3FFF2E7820652
:100E300002D529462020F7E7430602D52146402067
:100E4000F2E704F025FAE5E7ED0C0000FD0C0000E8
:100E5000F30C0000A70C0000AD0C0000950C000086
:100E60009B0C00008F0C0000A10C0000B30C0000D4
:100E7000B90C0000BF0C0000C50C0000AB0B00005B
:100E8000B10B0000870B00008D0B0000930B0000DE
:100E9000990B00009F0B0000A50B0000DB0B00006E
:100EA000E10B0000B70B0000BD0B0000C30B0000FE
:100EB000C90B0000CF0B0000D50B00007B0B00001E
:100EC000810B00005D0B0000630B0000510B000064
:100ED000570B0000690B00006F0B0000750B000042
:100EE000E70B0000ED0B0000F30B0000F90B000016
:100EF0000B0C0000110C0000170C0000230C00006C
:100F00001D0C0000050C0000290C0000FF0B000068
:100F10002F0C0000350C00003B0C0000410C0000C1
:100F2000470C00004D0C0000530C0000590C000051
:100F30005F0C0000650C0000710C0000830C0000C9
:100F40006B0C0000770C00007D0C0000890C000089
:100F5000D10C0000CB0C00000000000000000000DD
:100F600010B5054C237833B9044B13B1044800E0A5
:100F700000BF0123237010BD80310020000000005D
:100F80000055000008B5034B1BB10349034800E0BE
:100F900000BF08BD000000008431002000550000A3
:100FA000A3F5803A704700BF174B002B08BF134BC7
:100FB0009D46FFF7F5FF00218B460F461348144A64
:100FC000121AFFF789FB0E4B002B00D098470D4BF0
:100FD000002B00D098470020002104000D000D4890
:100FE000002802D00C4800E000BFFFF775F9200090
:100FF000290000F00FF9FFF75BF900BF00000800BF
:101000000000000000000000000C00202030002044
:10101000504A0020000000000000000000F0FEBD6B
:10102000FFF7FCFFFEE700F0F9BDFFF7FCFFFEE76E
:1010300000F0F4BDFFF7FCFFFEE700F0EFBDFFF7A7
:10104000FCFFFEE700F0EABDFFF7FCFFFEE74FF410
:101050007F03D3F83021D3F83401BFF34F8F092A2F
:1010600003D1431E5842584170470020704700008A
:10107000604A08B5D2F8D03043F00203C2F8D0304D
:101080004FF47F03D3F83021D3F83431BFF34F8FBF
:10109000092A01BF4FF050230022C3F81421C3F8DE
:1010A0001821FFF7D4FF28B10122534BC3F8382A87
:1010B000C3F878254FF47F03D3F83021D3F83431C7
:1010C000BFF34F8F092A05D1012B1EBF01224A4BC6
:1010D000C3F87825FFF7BBFF18B10E22474BC3F8C2
:1010E000E42E4FF47F03D3F83021D3F83431BFF32B
:1010F0004F8F092A06D100223F4BC3F80C2701224B
:10110000C3F810270022D30003F57F03D3F80013A0
:10111000BFF34F8F013108D0D3F800130132D3F859
:101120000433B2F5807F0B60EDD1354BDA69BFF344
:101130004F8FD10743D5334BD3F80024012AFBD17D
:10114000C3F80425D3F80024012AFBD12C4BDA691B
:10115000BFF34F8FD2070AD5DA6922F00102DA61B4
:10116000BFF34F8F274AD2F80034012BFBD1244A1A
:10117000136ABFF34F8F01330CD1136A23F0FF03BF
:1011800043F020031362BFF34F8F1E4AD2F800349E
:10119000012BFBD100221B4BC3F80425D3F80024FC
:1011A000012AFBD1BFF34F8F1249174BCA6802F4D3
:1011B000E0621343CB60BFF34F8F00BFFDE71B6AB4
:1011C000BFF34F8F0133B6D00A4BD3F88C2042F4D3
:1011D0004062C3F88C20D3F8882042F47002C3F830
:1011E0008820BFF34F8FBFF36F8F084B084A1A60F8
:1011F00008BD00BF00ED00E00040005000A003501B
:101200000080FF00009003500400FA05202F00200A
:101210000090D00308B5124B83F30A8801F07EFEDC
:1012200058B902F001F840B902F016F828B902F0F6
:1012300015F828B102F014F820B100F006FF05E01F
:1012400002F010F800F0E2FD00F084FE00F0CAFDAC
:1012500000F007FE00F0FCFD00F0DEFC002008BD01
:1012600000040020084B094A1B6810B55B6804465F
:1012700019615A61D1E90223D1E90001A04704466E
:1012800000F03AF8204610BDAC360020EDEEEEEE50
:1012900010B5094C23685B685A69084B9A4208BF2D
:1012A000086000F0BDFC2368834203D0BDE8104015
:1012B00000F0E0BE10BD00BFAC360020EDEEEEEE5B
:1012C00013B51446EFF30583C3F308032BB1CDE93F
:1012D000000100F0BAFEDDE900014CB1054B1B68CE
:1012E000D3E90024234602B0BDE8104000F008BD59
:1012F0002246F7E7A03600208230012808B506D83C
:1013000001F056F818B9BDE8084000F09EBE08BDCF
:101310000020704740F20110704737B5054601F0D4
:1013200047F80190284600F049FF019A044610B999
:10133000002003B030BD0146284600F075FF0028AC
:10134000F6D12368D868F4E72DE9F04F2DED028B34
:101350000C469BB008EE103A0546914601F028F87D
:10136000C4F307230793E3B208932314804608EEDF
:10137000903A06D56FF080001BB0BDEC028BBDE843
:10138000F08F079B042BF5D8089B042BF2D8DDE9DE
:1013900007321344042BEDD8002DEBD001F01AF8DE
:1013A0006B00099040F1858015F0E00FEAB2E1D1C1
:1013B000664B53F82270002FDCD03B68424639461A
:1013C000586800F031FF002840F0B9803846C5F376
:1013D000072100F017FF0028CCD1EFF3108572B67B
:1013E00000F098FE044685F31088002800F0AA80DB
:1013F0000023036000F076FE0546079B42464FEA55
:10140000C30B012359464846009300F0B1FF002862
:10141000B0D1089B42464FEAC30A012351460093CC
:1014200018EE100A022300F0A3FF06460028A1D1FF
:10143000014620220AA800F0E1FD2022314612A830
:1014400000F0DCFD5A4649460AA800F0A1FD0DF166
:101450002809524618EE101A12A800F099FDCB4642
:10146000B246079B9A4534D10023079A01339A422A
:101470003ED84FF0010A0DF14809089B9E424FD11A
:1014800018EE103ACDE9046312AB0393079B39467B
:1014900002930AAB0193099B204600932A4618EE5B
:1014A000903A00F0F5FE2A4B214638469B68984753
:1014B00062E72846099900F0DBFE044600283FF465
:1014C00059AF4368002B7FF455AFC768002F94D104
:1014D00050E701230093DBF8041042465BF8080B49
:1014E00000F046FF00287FF445AF0AF1010AB8E793
:1014F0004A461946D9F800C0D2E902E07044844552
:1015000005D2D9F8040060448645FFF433AF07984C
:101510000131884202F10802EED809F10809A4E776
:10152000CDF800A0D9F804100223424659F8080B60
:1015300000F01EFF00287FF41DAF01369DE76FF01D
:10154000810019E76FF0820016E700BF5C3B0020C6
:10155000545300002DE9F04188B005460F4600F0D5
:1015600027FF0646284600F029FE044620B96FF002
:10157000810008B0BDE8F08103689B689B0532D408
:1015800001463246284600F04FFE0028EFD139468A
:10159000204600F037FE05460028E8D1304600F02E
:1015A00019FF0746EFF3108872B600F0B3FD064648
:1015B00088F31088D0B100F095FD214602464FF027
:1015C000FF333046CDE90455CDE90255CDE900752C
:1015D00000F05EFE31462046064B9B68079308B03C
:1015E000BDE8F04118476FF08000C2E76FF082005D
:1015F000BFE700BF545300002DE9F041044688B016
:1016000000F0D6FE24B114F0804605D06FF08004BF
:10161000204608B0BDE8F08100F0DCFE0146074638
:10162000204600F025FE05460028EFD0D0F80C80BB
:10163000B8F1000FEAD04368012BE7D041466FF0C4
:1016400001032246CDE90466CDE90266CDE90076C4
:1016500000F01EFE29464046034B9B68079308B0E6
:10166000BDE8F041184700BF545300000D4B73B55F
:101670001B6804465D680E46AB69103D184201D1F7
:1016800000F0E3FC002E08DA21462846064B1B69D1
:10169000019302B0BDE870401847286B204002B0AB
:1016A00070BD00BFAC3600205453000073B50E4629
:1016B000044610B1431E034201D000F0C6FC144B97
:1016C00000221B6830215D6801233046009302230D
:1016D000103D00F04DFE08B100F0B7FC2B6B0BB9CC
:1016E00000F0B3FC2B6B234201D100F0AEFC21468D
:1016F000284600F03BFD40B100F114013022304695
:1017000000F046FC002002B070BD6FF08B00FAE7DD
:10171000AC3600202DE9F7430E469046994600F07E
:1017200013FE044608B900F090FC6369002B01DA4F
:1017300000F08BFC032E01D900F087FC04EB860738
:101740007D6ADDB101230022009349460223404611
:1017500000F00EFE08B100F078FC7D6A04EBC604D0
:101760004D4528BF4D4640462A46616C00F010FCAE
:10177000636C2B4463647B6A5B1B7B62284603B00B
:10178000BDE8F08370B50E46154600F0DDFD044659
:1017900008B900F05AFC6369002B01DA00F055FC2F
:1017A000032E01D900F051FC04EB8601486A58B1C0
:1017B00085422A4628BF024604EBC604636C801AA1
:1017C000134463644862104670BD2DE9F3410F462F
:1017D00090461D4600F0B8FD044608B900F035FCFF
:1017E0006369002B01DA00F030FC032F01D900F00F
:1017F0002CFC04EBC70604EB8704636BB26E9B1AE8
:10180000AB4201D200F021FC0123002229464046D0
:10181000009300F0ADFD08B100F017FCD6E9190304
:101820002A464146184400F0B3FBB36E2B44B3661E
:1018300002B0BDE8F0810000F8B506460D4600F0A4
:1018400083FD044608B900F000FCE7680FB900F01A
:10185000FCFB6369991C22D05A1C23D1002D35D082
:1018600015F1820F14D102236360EFF3108672B674
:10187000194B29462046DB689847054686F31088B1
:101880006368022B24D1204600F062FC2846F8BD94
:1018900015F1830FE9D000F0D8FB0025E5E702231E
:1018A0006360FAE7002BF6DB204600F031FE3B6870
:1018B0009B689B0501D50223636015F1810FD4D18C
:1018C000E369002BD1DB00F0C0FBCEE73546F4E73F
:1018D00000236360DAE700BF5453000008B500F04E
:1018E00083FCBDE80840082100F026BE094B10B576
:1018F0001B685C68236A103C1B0701D400F0A5FB41
:10190000EFF3108272B6236B23F00803236382F394
:10191000108810BDAC36002001F0C0BC38B50D46B3
:1019200000F012FD044608B900F08FFBE3681B6865
:101930009B689B0501D500F088FB2562256038BDBA
:10194000C36A016B10B519400446343000F0C4F985
:101950000023E36210BD08B5103000F0BDF900208F
:1019600008BD000038B5EFF3108572B6046B0C406B
:1019700005D1054BC1621968343000F0A1F985F337
:101980001088204638BD00BFAC360020F8B50D46A3
:1019900041B338B303682BB344681CB35E69EFF3FB
:1019A000108772B6636CC1F88830236B616433436F
:1019B0002363E36A334209D0216B04F134001940F8
:1019C00000F08AF9E36A23EA0603E36287F31088EA
:1019D000064B05F11000196800F072F90123002090
:1019E0006B60F8BD6FF08000FBE700BFAC360020F5
:1019F00038B5084D284600F055F92B6804465B6859
:101A000053E9040101F050F908B100F01EFB204633
:101A100038BD00BFAC360020836A0268194341F02C
:101A20000801F0B513698162916A96680B44073129
:101A300023F0070521F00701234B416116F40071E3
:101A4000436218BF08234FF0000408BFD369C0E900
:101A5000074404BF9B00083307334463446423F006
:101A60000703D46897698361EB1A03611C60002443
:101A70005C6059B94FF0180C02F13004D56904EBE1
:101A8000870403F108078D4216D15D60C36000230F
:101A9000526880F83930438700F1100380F83860CD
:101AA000C3630AB9094A13606FF00102BDE8F04050
:101AB0000749383000F0D4B80CFB014EDEF810E0D6
:101AC000013147F804EBDEE7EDEEEEEEA036002044
:101AD000AD07000001F00C03F7B50C2B14BF044652
:101AE000144611F0400607460D4619D0A36913F8B5
:101AF000026C85F00803C3F3C003B3EBD61F01D01B
:101B000000F0A3FA402E0ED0412E10D100F072FC4E
:101B1000054601463E4800F09BFA284603B0F0BD5A
:101B200000F093FAE5E7204600F01AFAF5E73848A6
:101B3000C71B082F01D900F088FA102E64D8DFE8FF
:101B400006F0091546194B5E544F242B3159393D87
:101B500063404300FFF7DEFB206000F061F82D4B8F
:101B60001B688342D9D000F085FAD6E72068FFF7DA
:101B7000D4FBF1E7D4E90223D4E90001FFF7E4FB49
:101B80000190FFF7B9FB0198E6E7D4E90223D4E915
:101B90000001FFF7BFFDDFE72068D4E90112FFF77E
:101BA000F1FDD9E7D4E90223D4E90001FFF70DFEE6
:101BB0000020E5E72068FFF791FEF9E7FFF796FEC2
:101BC000F6E7FFF7A9FEF3E7FFF7A2FBC4E7D4E9C6
:101BD0000001FFF7BFFCD3E72068FFF70DFDCFE75B
:101BE000D4E90001FFF79AFEE2E7D4E90001FFF72C
:101BF0005DFDB1E7D4E90001FFF71EFED8E7D4E9A7
:101C00000001FFF733FDA7E76FF08300A4E700BFF3
:101C1000000C0020AC36002041DF704700F015BA00
:101C2000044B186810B14378012B00D170478068CD
:101C3000F8E700BFB0360020C9B20129064B417059
:101C400005D11A682AB101781278914201D3034A6A
:101C500010681860704700BFB0360020B43600200E
:101C600070B50F4D04462868134618B122780678DF
:101C700096420BD3A0602C606068002200F006FA48
:101C80002046BDE870400121FFF7D6BF05468068B9
:101C900010B106789642F9D3A060AC60ECE700BFC3
:101CA000B436002038B50546FFF7BAFF044600F009
:101CB000E1F905B12C606068BDE8384000F008BA71
:101CC000022301604B70024B1A68024B1A60704786
:101CD000B4360020B036002038B5044600680D4602
:101CE00060B14378022B09D10121FFF7A5FF2368DA
:101CF0002946586800F0B4F90023236038BD00007D
:101D000070B572B61446EFF30B855FF0000C002A35
:101D10001FBF8CF30B886C46954683F30B880C4AE7
:101D20000123136062B60E46FFF79CFA72B6314685
:101D3000FFF7AEFA5FF0000C002C1EBF8CF30B888F
:101D4000A54685F30B88024C0025256062B670BD60
:101D5000B8360020402010EA0E0018D001B500F07F
:101D600097FBBDE80440884211D072B6EFF30982B8
:101D7000EFF30B8322E9F00F80E81C4091E81C4050
:101D8000B2E8F00F82F3098883F30B8862B67047DC
:101D9000EFF308807146EFF30982EFF30B830CB485
:101DA00006B4FFF797FE864606BC0CBC00F00800A0
:101DB00001F00801401A01DC0DDB70470CB42DE97D
:101DC000F00F074C254626462746A046A146A246C8
:101DD000A34630B4704730BCBDE8F00F06BC704776
:101DE000A5EDF5FE084BDA6882F07F4282F47F02AF
:101DF00042F48042DA6000221A765A76DA76DA778E
:101E0000602283F82220704700ED00E00E4BD3F8EB
:101E1000882042F47002C3F888200C4A516B41F0CC
:101E200080415163516B41F03C415163D3F88C20A8
:101E300042F44062C3F88C204FF0E022D36843F4B0
:101E40002003D360704700BF00ED00E000EF00E02A
:101E5000EFF3148030F0040080F31488BFF36F8F29
:101E6000704780EA000000EE100A00EE900A01EED2
:101E7000100A01EE900A02EE100A02EE900A03EE3A
:101E8000100A03EE900A04EE100A04EE900A05EE22
:101E9000100A05EE900A06EE100A06EE900A07EE0A
:101EA000100A07EE900A08EE100A08EE900A09EEF2
:101EB000100A09EE900A0AEE100A0AEE900A0BEEDA
:101EC000100A0BEE900A0CEE100A0CEE900A0DEEC2
:101ED000100A0DEE900A0EEE100A0EEE900A0FEEAA
:101EE000100A0FEE900AE1EE100A704708B501F0F3
:101EF00039F8054B986001F03BF880F38888BDE81D
:101F0000084001F03BB800BF00ED02E0FFF7EEFF34
:101F1000009A0A4B9A4210D104460122944320466B
:101F2000214622462346254626462746A046A14668
:101F3000A246A346A446A6460447FEE7A5EDF5FE45
:101F400008B500214FF0FF3003F082F90028F8D1E6
:101F500030BFF6E70122014B1A607047BC36002003
:101F6000012313B50093044601890223002240682F
:101F700000F0FEF918B10323236002B010BD034B3B
:101F80001B68012BF7D100F0CFF9F4E7BC36002035
:101F9000F0B504468AB341EA040515F0010513D1F2
:101FA000012A23D941EA040313F0020312D1D618FF
:101FB000032E15D86FF00306930806FB032204EBEB
:101FC000830401EB830116E011F8013B013A04F8A8
:101FD000013BDFE731F8023B023A24F8023BDFE73E
:101FE000CE1A3768E61A3760043BE0E70023DEE7E5
:101FF0006B5C2B550135AA42FAD1F0BD0346F0B512
:10200000C9B29AB19C0715D115460C0444EA016483
:102010000C4344EA0124D618032D0FD822F00305FF
:102020002B446FF00305940805FB04221A449342E5
:1020300008D1F0BD03F8011B013AE2E7771B3C60D1
:10204000043DE9E703F8011BF1E701F027B90000BF
:102050008546024A014B0CB408470000A5EDF5FE89
:10206000036923B119604FF0EE3343617047036891
:102070001962704704484FF080510160BFF34F8FE1
:10208000BFF36F8F7047000004ED00E02DE9F843C7
:1020900004681F460D4BA4F1080644E90233483C8E
:1020A000054688469146002140222046FFF7A6FFBC
:1020B0004FF0807346F8043C6FF0020346E9037862
:1020C00046F8209CEB602C60BDE8F883A5EDF5FE9A
:1020D000436883F30B880368203383F30988C0685F
:1020E00070470000054A1368013303F007031360CB
:1020F000034A0133801A03EBC00070474C3B0020B9
:10210000C036002018B1024B013803EBD0007047F5
:10211000C036002010B5064800F068FB044628B120
:102120008C220021FFF76AFF00236360204610BD68
:10213000C0360020014608B5034800F068FB0028BF
:10214000024818BF002008BDC036002005000080EE
:1021500010B50146EFF3108472B6034800F051FB4E
:1021600084F31088002010BDC0360020F0B5EFF3D6
:10217000108672B600242346426C00F1440572B901
:10218000CBB11A68012CD2F888501D6003D1036BC3
:1021900023EA0101016386F310881046F0BDD76879
:1021A0003F687F698F4204BF2B46013402F18805E6
:1021B000D2F88820E3E71A46EDE7000030B5094C75
:1021C000024661680023084640B105686D68954283
:1021D00005D11BB1826860609A60816030BD0346A2
:1021E0008068F1E7543B0020054A0346506800B977
:1021F0007047026852689A42FAD0806CF7E700BFD5
:10220000A4360020036807489A68DB6812F4806FE0
:1022100003D18B4228BF002070478B4208BF0020AB
:10222000704700BF0300008038B504462AB10B6830
:102230009B68DB050FD5002038BD0B4B1B685D6824
:10224000102D01D1FFF701FF002255F8103C9969CC
:102250002C338A4201D10548EEE753F8040FA0421F
:10226000E9D00132F5E700BFAC3600200500008060
:1022700038B5FFF747FF0D460446FFF75BFF28B967
:10228000E369AB4218BF0024204638BD0024FBE7B9
:102290002DE9F84A044689461746002130221430B9
:1022A0009B46099E0B9DFFF7A9FE00201D4BC4E92C
:1022B00003901B6804F124025B6804F1440C103B9A
:1022C000A3600D9BC4F814B0C4F88430089BE3618C
:1022D0000346301D0A998B420FD100239C4604F11E
:1022E000340204F164012E1D0C98083183420ED192
:1022F0002368A7612362BDE8F88A50F8331042F8DA
:10230000041B56F833104CF833100133E2E756F84B
:10231000330042F8040B55F83300013341E9020C55
:10232000E2E700BFAC360020064B1B685B68102B51
:1023300004D053F8103C0BB1586870474FF0FF3091
:10234000704700BFAC36002010B5FFF7DBFE044637
:10235000FFF7F0FE50B9FFF7E7FFE3685B681B6823
:102360005B68834218BF0024204610BD0024FBE7B1
:1023700038B5049D144699B1A0B1CA43824201D236
:10238000094838BD022B0CBF062202220DB942F0CB
:1023900008020CB142F0200200F095FC0028EFD1B9
:1023A0000020EEE70148ECE7040000800100008017
:1023B000074B10B51B685C68102C01D1FFF745FE78
:1023C00054F8103C5868B0FA80F0400910BD00BFC6
:1023D000AC36002038B5054648B100F030FAB5EB10
:1023E000D07F044601D0FFF730FE204638BDFFF70E
:1023F0009BFFF4E72DE9F743002508238C2240F2E8
:102400008C411C4800F0C4F91B4F1C4B7D605D6083
:1024100000F018FA1A4EDFF87490384600F0A4F86D
:102420000446E0B1D0F80080D8F81C302BB18023EE
:102430004A46124900F004F90546D8F8243013B191
:10244000204600F065F92068211D00F00EFC08B15F
:10245000FFF7FBFD2946204633689847DDE7094B27
:102460001A68094B1A607368019303B0BDE8F04322
:10247000184700BFC0360020A4360020543B00207F
:1024800054530000342F0020503B00205C3B0020C0
:102490002DE9F843FFF7C4FB1A4F04463B68A0F14F
:1024A00038065D68184B29461B68012B21D000B304
:1024B000A5F11008B0451CD0EFF309826B682033FA
:1024C000934201D9FFF7C1FDEFF3108972B671682D
:1024D000D8F804308B4206D054F8380C00F0E4FBF6
:1024E00008B1FFF7B2FDB0EE400A61683C6089F3C5
:1024F0001088064B1B6813B1F26802B11A602846B7
:10250000BDE8F883AC360020B8360020503B0020F0
:1025100030B56FF00704002300F13402241A52F89A
:10252000041B29B1D0F8841054F8125019444D609E
:102530000833202BF3D130BD70B50D46044608B9E1
:10254000FFF783FDEFF3108672B6236B2B432363F3
:10255000E36A1D4203D0034B20465B69984786F32C
:10256000108870BD54530000F8B5054608B9FFF750
:102570006CFD2E4E346814F1290F54D82C4B196879
:1025800004F128038B424ED2D4E9063206200C33E4
:1025900000FB0233E043226A02EB42021344626A08
:1025A00002EB82021344B0EB830F4FEA830202D3A3
:1025B000A318994201D2FFF748FD23681D4A1B0C5E
:1025C0001B04934201D0FFF740FD2388B3F5817FC0
:1025D00001D3FFF73AFD6368002B01DAFFF735FD01
:1025E000154A176807F14C031360144A12689342A6
:1025F00001D9FFF72AFDD4E9063206210C3301FB8D
:102600000233226A3C6002EB42021344626A02EB2C
:1026100082021344326802EB830333606B68BB644D
:102620006F603846F8BD0027FBE700BF242F00206D
:102630006C53000000005F5F282F002070530000E3
:102640002DE9F04F85B00F4690460646029300B143
:1026500009B9FFF7FAFCD6F800A0DAF818200AF159
:10266000300303EB82030193DAF81C40264BD3F8C6
:10267000009094B10C2000FB04941C60234B1B6859
:102680009C4201D9FFF7E1FC00242546DAF81C3012
:10269000AB4202D9B9F1000F03D1204605B0BDE825
:1026A000F08F0C23182103FB05F2019B02EB090BB1
:1026B00001FB0530002342F809004269CBF80830DD
:1026C00014438268CBF80460930516D5B8F1000F67
:1026D00002D0029B802B03D00392FFF7B6FC039A33
:1026E00012F0E00FD0B202D158F820201AB10390B6
:1026F000FFF7ABFC039848F820B07A680135CBF8B7
:102700000820C7F804B0C1E72C2F00207453000044
:102710002DE9F047054608B9FFF797FC18222E6807
:102720000027B36906F1300404EB8304F3694FF02A
:10273000140902FB03440C2240F2011A336A02FB23
:10274000034409FB07F1736A01EB0408BB4201D89B
:10275000BDE8F087AB6AD8F8102028461343AB6277
:102760000B594146984708B1FFF76FFC3388B3F522
:10277000807F05D1D8F80C0000F006FC0137E0E7B7
:102780005345FBD1D8F80C0000F00EFCF6E7000032
:102790002DE9F04116461D46044610B30BB302F175
:1027A000040803FB08F707F10C028A4219D1002143
:1027B000FFF724FC002004F10C031A460146013106
:1027C0008D42106002EB080C104608D10020A7EBE8
:1027D00008073B44C4E90036A560BDE8F0816246C5
:1027E000EDE70148F9E700BF01000080034638B17A
:1027F000006828B102681A60002340F8043B704763
:10280000704702680B1F41F8042C0360704700F109
:102810000C02914210B5D0E901340ED3181D04FB0F
:102820000023994209D20439891AB1FBF0F300FB65
:102830001310B0FA80F0400910BD0020FCE74FF003
:10284000FF3070477047000002680E4B9A4215D166
:10285000C269A3F11023A3F1EF139A420ED183684A
:10286000012B0BD8C36813B10269934206D04369A8
:1028700033B18069C31A58425841704701207047EC
:102880001846704755AA00FF38B50D4B9D68A5B195
:102890002846FFF7D9FF014678B9EB686BB92C6978
:1028A0000CB9084638BD2046FFF7CEFF28B9E368CB
:1028B000AB4202D125462469F2E70121F1E700BFCE
:1028C000DC3B00202DE9F041394E3468D4B1B468C6
:1028D000C4B1002861D000295FD001FB00F5B5FB31
:1028E000F0F0884259D1291D57D8AA070DD025F0FC
:1028F00003020432F46803E0616891424FD2A46994
:10290000002CF9D12046BDE8F0812A46F2E7891A69
:10291000232904F12007D4E9050C1AD80123A36068
:10292000A0B1C0F818C0A36903B158610023C4E97D
:1029300005333369DB0702D5FFF7A6FFA0BB2A46A4
:10294000002138463C46FDF7C7FEDBE7C6F80CC061
:10295000E9E702F1200804EB08032039C3E9011E6E
:102960002169DFF850E0DC60196144F808E0AEF15D
:10297000102EAEF1EF1EC3F81CE001B1CB60C3E92D
:10298000050C40B18361996901B14B61012123615B
:10299000C4E90121CAE7F360F5E70024B2E7D4F8FF
:1029A00008E0BEF1000FB2D00120FDF781FC00BFAE
:1029B000DC3B002055AA00FF014670B500285DD021
:1029C000394E3368002B59D0B268002A56D0834262
:1029D00003D872681344984202D30120FDF768FCC3
:1029E000A0F120042046FFF72FFF0028F5D151F871
:1029F000183C012BF1D151F8145C41F8180CB5B119
:102A0000AB68002B3BD151F81C3C03F120026B68F2
:102A100013446B6051F8103C2B6103B1DD6020461C
:102A200020220021FDF758FE23462C461D46206932
:102A3000002830D08368002B2DD163684268203392
:102A4000134463600369D4E905212361CAB9F1B96C
:102A5000426981696261A161DAB19461A26902B1DE
:102A6000546103B1DC6020220021FDF735FE33699B
:102A70009B0703D5FFF708FF0028AED170BD0546C0
:102A8000D5E79161A1690029E2D04A61E0E7F160F0
:102A9000F8E7F460E2E7002DE9D1F368A36103B140
:102AA0005C61F460E3E700BFDC3B002038B50D4615
:102AB0001422002104461248FDF70EFE1149124867
:102AC00002F08EFB232D1AD914F003031FBF043D1F
:102AD000ED18C3F10403E4182A4600212046FDF74F
:102AE000FBFD074B094AC3E900459C602260A2F147
:102AF0001022203DA2F1EF126560E261DC6038BD7A
:102B0000DC3B0020B9290000C528000055AA00FFC1
:102B100010B50446406A10B1A16A00F081FD606AF8
:102B200002F058FB0020C4E9090010BD38B5044686
:102B3000FFF7EEFF236A2C22012B0CBF05466FF036
:102B4000960500212046FDF7C7FD284638BD000048
:102B500037B50C4D0C462B78DB070FD500230A4602
:102B60000193014601AB281D00F06FF820B9019BCD
:102B7000A34218BF6FF0930003B030BD6FF0880020
:102B8000FAE700BFF03B002008B500F045F809481F
:102B9000037813F0060F04D0082200210430FDF75B
:102BA0009BFD0C21034800F03BFDBDE8084000F010
:102BB0004BB800BFF03B002038B5104D297811F01C
:102BC000010116D10822281DFDF786FD02222B786F
:102BD00062F342032B7000F013F8044658B900F07A
:102BE00031F8044638B92B7843F001032B702046A6
:102BF00038BD0024FBE7FFF7C7FFF8E7F03B0020F4
:102C0000044A002092F8803543F0010382F88035B1
:102C1000704700BFFC3B0020F8B5094C2025264634
:102C2000012720462762FFF781FF013D04F12C04B4
:102C3000F7D196F8803565F3000386F88035F8BD46
:102C4000FC3B002000207047704738B50020144638
:102C50001D4600F0B7FC28B92B68A34218BF6FF0DF
:102C6000930038BD6FF09200FBE7F0B510B943F662
:102C7000DA30F0BD0029FAD0012300220C241825F7
:102C80000B60016A8A4201D10020F2E704FB02F3E3
:102C9000D0E9067603EB870305FB063303449B6B01
:102CA0001B07E4D40132EDE7EFF3148311F00F0FAB
:102CB0000CBF0122002262F3000383F31488BFF3E8
:102CC0006F8F0020704712F020032DE9F041064677
:102CD000884609D0EFF39483DD074FF012034CBF11
:102CE00042F0080222F00802140702F0060148BF71
:102CF00043F0040306293ED143F001052A4641462C
:102D00003046FDF785FC002814BF012300232BD19A
:102D100046E800F1B044080E090208F1FF3747E821
:102D200000F24FEA12641FD512021DD584421BD057
:102D300046E800F447E800F700F08BFB240E8442DD
:102D40004FEA176734D300F086FB874230D820461D
:102D500000F07AFB2A46C6F1010101443046FDF736
:102D600057FCB0B900200346002B14BF00206FF0C1
:102D70007F00BDE8F08190073ED543F00805BDE730
:102D8000204600F05FFB064600F067FB2A4601463E
:102D9000E4E70134A742F3D8384600F053FB2A4653
:102DA000A8EB0001FDF734FC003818BF0120DAE77A
:102DB00000F062FB8442D5D300F060FB8742D1D89B
:102DC000204600F053FB2A46C6F10101014430467B
:102DD000FDF71EFC0028C5D00134A74203D83846B1
:102DE00000F03EFBDBE7204600F03AFB064600F031
:102DF00047FB2A460146EAE74CF2DA20B9E7000031
:102E0000F0B53B4C87B03B4800F0AEFA2368012593
:102E10005A1C0193384B2260DA681B694FF44076E4
:102E200003930023334801A902920495ADF814607E
:102E30008DF8163000F05CFA18B143F6DA3007B0BE
:102E4000F0BD23688DF816005A1C01932B4B2948BE
:102E500002932B4B01A9CDE903352260ADF8146034
:102E600000F046FA0028E8D123688DF816005A1CB5
:102E70000193244B1F480293234B01A9CDE903354D
:102E80002260ADF8146000F033FA0028D5D1022793
:102E900040F2011623688DF816005A1C01931B4B53
:102EA000144802931A4B01A9226003930497ADF8CA
:102EB000146000F01DFA0028BFD123688DF81600B9
:102EC0005A1C0193134B0B480293134B01A9226028
:102ED000CDE90337ADF8146000F00AFA0446002883
:102EE000ABD12A462946034800F0EAF92046A6E776
:102EF00080410020302F002078530000A002000005
:102F000040080000600F0000600F0000201C00203F
:102F1000401C0020001C0020041C002008B500F00C
:102F200095F800F0A3F828B900F0BAF810B9FFF747
:102F300067FF08B143F6DA3008BD08B500F04AF87B
:102F400060B900F051F848B900F05AF830B962B6EB
:102F500000F058F810B900F06DF808B143F6DA3017
:102F600008BD0000014B1868704700BF785300008F
:102F7000014B1B681868704778530000014B1B68B1
:102F8000586870477853000043B2002B08DB0122D9
:102F900000F01F0002FA00F0024A5B0942F8230029
:102FA0000020704700E100E043B2002B0DDB01225E
:102FB00000F01F0002FA00F05B09054A203342F8D6
:102FC0002300BFF34F8FBFF36F8F0020704700BF08
:102FD00000E100E00020034BD8765A6A42F47022E8
:102FE0005A62704700ED00E00349044BCA680020B4
:102FF00092B21343CB60704700ED00E00800FA0581
:103000000020704700224FF0FF30094B02F1A00171
:103010000132102A43F82100F8D1D3F88022002091
:1030200022F00802C3F88022D3F88032704700BF34
:1030300000E100E008B500F0A7F90822024BC3F850
:1030400080211A60002008BD00E100E0064BD3F8A3
:10305000D02022F00102C3F8D020D3F8D02042F0D3
:103060000202C3F8D020704700ED00E010B5094C13
:1030700000F092F9D4E9010100F0A4F906490748EB
:1030800000F0B2F92169E068013900F0C3F90020CD
:1030900010BD00BF78530000FFFF03200080002018
:1030A00010B50021434800F0EFF900214FF0502007
:1030B00000F0EAF90021404800F0E6F900213F481D
:1030C00000F0E2F900213E4800F0DEF900213D4821
:1030D00000F0DAF900213C4800F0D6F900213B4825
:1030E00000F0D2F900213A4800F0CEF90021394829
:1030F00000F0CAF90021384800F0C6F9002137482D
:1031000000F0C2F90021364800F0BEF90021354830
:1031100000F0BAF90021344800F0B6F90021334834
:1031200000F0B2F90021324800F0AEF90021314838
:1031300000F0AAF90021304800F0A6F900212F483C
:1031400000F0A2F900212E4800F09EF900212D4840
:1031500000F09AF900212C4800F096F900212A4845
:1031600000F092F90021294800F08EF9284C002146
:10317000284800F089F90021274800F085F9204609
:10318000002100F081F90021244800F07DF90021A0
:10319000234800F079F901220020224BC3F8800473
:1031A000C3F88424C3F8C004C3F8C424C4F8402579
:1031B00010BD00BF00400050008000500090005043
:1031C00000A0005000B0005000E0005000F000509F
:1031D000000001500010015000400150005001500B
:1031E000007001500080015000B0015000C001503B
:1031F00000D0015000E0015000F0015000000250EA
:1032000000100250002002500030025000600250B6
:10321000009003500080025000A0025000A0035014
:10322000002584500030005008B5FFF786FE68B9CD
:1032300000F072F958B9074AD36823F008031B0459
:103240001B0C43F0BF6343F40033D36008BD45F269
:103250002350FBE700ED00E000207047002070479E
:103260000020704770470000BFF34F8F0549064BA1
:10327000CA6802F4E0621343CB60BFF34F8F00BF14
:10328000FDE700BF00ED00E00400FA050346084634
:1032900011460BB900F008B903207047BFF34F8FF8
:1032A0000549064BCA6802F4E0621343CB60BFF3E2
:1032B0004F8F00BFFDE700BF00ED00E00400FA05FE
:1032C000002918BF0421002A18BF022203680748FA
:1032D0001143186359605A6842F001025A60BFF303
:1032E0004F8FBFF36F8F0020704700BF04AAFF000D
:1032F0004A6830B512F01F042AD10B680F2B27D86B
:10330000006822F01F024568446083600B7C03F074
:10331000010313438A7CD20002F018021A434B7C4B
:103320005B0003F006031343C3608B68013B23F08B
:103330001F02CB685B0003F00E03134343F001034D
:1033400003614560BFF34F8FBFF36F8F204630BDE1
:103350000120FCE7036800205A68C9B258609960F0
:10336000D86018615A60704738B5054603681C6814
:10337000C4F307240CB9204638BD013C2146284639
:10338000FFF7E8FFF6E700000722024BC3F804232B
:10339000704700BF0030005000231720084A03F593
:1033A000C0710133202B42F82100F8D100231720EF
:1033B00003F5E0710133202B42F82100F8D170476A
:1033C0000030005010B540F20714064AC00BC90B7C
:1033D000884200D910BDC3B203F5C07342F8234040
:1033E0000130F5E70030005010B540F2071400F14D
:1033F000604001F16041064A400B490B884200D908
:1034000010BDC3B203F5E07342F823400130F5E785
:1034100000300050C0F30E03C3F50043B3FA83F34A
:10342000C3F11B03064AC0F3C730DBB240F480701F
:1034300043F48073C2F80005C2F80435704700BF3A
:1034400000300050C0037047C00300F5FF407F30DC
:103450007047002070471F2070474FF400407047AE
:1034600000F57F40C030400370470000430301482F
:1034700018447047FF1FF81F402070475F207047B7
:103480004FF4005070470000002914BF4FF48072C1
:103490000022044BC0F3073000F5007043F82020F1
:1034A000704700BF0030005038B543680C2B01D086
:1034B000022038BD4B68042BFAD14FF0FF3304686B
:1034C0000D6820682B600028F2D0A1680029EFD099
:1034D0002622FFF7F8FB0028EAD161680B4B9942DE
:1034E0000AD9A2682D338818984208D82068FDF7B9
:1034F0001AF900202860DCE7054B9942D8D9A26868
:10350000044B88189842D3D8F0E700BFFF01FF00B2
:103510002F01FF003801FF0010B50C4C236813B1D8
:103520000B4B1B682BB900F08BFC30B90122084B08
:103530001A6001230020236010BD0138062801D93C
:10354000044810BD044B53F8200010BD84410020F6
:1035500088410020FE8FFFFF8C5300002DE9F041D1
:10356000154C164F002818BF0446236884B0BB4290
:103570001ED016460D4620464FF4147100F050F848
:10358000221D104604F58E78039200F047FB40465A
:10359000CDF8088000F0D2F8DDE902022B46084998
:1035A000009600F0EDF900B9276004B0BDE8F081A5
:1035B000002004B0BDE8F0818C410020A5BCC95AB0
:1035C000993C000070B50E4D82B0002814BF8446AF
:1035D000AC461D46DCF800000A4B98420DD100268F
:1035E0000CF58E7033460096144600F0F3F900286F
:1035F00018BF34462C6002B070BD0348FBE700BF23
:103600008C410020A5BCC95AE88FFFFF38B131B109
:10361000002201440346013081421A70FAD17047FA
:1036200038B131B1002201440346013088421A709A
:10363000FAD1704770B590B000287AD03E4C0D4654
:103640004022362106462046FDF746F840225C21FE
:10365000A018FDF741F82B1D9C4203D204F144034E
:103660009D4252D32B682268534023602B68226C02
:10367000534023646B686268534063606B68626C9C
:1036800053406364AB68A2685340A360AB68A26C0C
:103690005340A364EB68E2685340E360EB68E26C7C
:1036A0005340E3642B69226953402361226D2B69E7
:1036B0005340236562696B69534063616B69626D56
:1036C00053406365AB69A2695340A361AB69A26DC6
:1036D0005340A365EB69E2695340E361EB69E26D36
:1036E0005340E3650021304601F0ECF8044628B968
:1036F00040223046104901F0F9F80446402168465E
:10370000FFF78EFF204610B070BD631E04F13F012D
:10371000013D1F3415F8010F13F8012F42401A70B4
:1037200011F8012F2878A34282EA00020A70F1D131
:10373000D8E76FF07304E5E7DC43002010B54FF4E1
:103740009A7200210446FCF7C7FF42F21072044B44
:10375000C4F8202104F596701B68BDE81040184796
:103760004C2F00202DE9F04F04468946924695B033
:10377000002900F0A780002A14BF02270127002398
:103780008DF80C30002C00F09F80DFF8448104AEEF
:1037900008F1400B0021204601F094F8034648B19F
:1037A000304620210193FFF73BFF019B184615B0DF
:1037B000BDE8F08F40224146204601F097F80346CD
:1037C0000028EDD104F1F40520222946204601F01D
:1037D0008DF803460028E3D10122204603A901F019
:1037E00085F803460028DBD1022F62D020460CA9C1
:1037F00001F0A6F803460028D2D11946204601F070
:1038000061F803460028CBD140225946204601F0FA
:103810006DF803460028C3D1202220460CA901F0F0
:1038200065F803460028BBD13146204601F088F8F0
:1038300003460028B4D131462046FFF7FBFE03467D
:103840000028ADD120222946204601F04FF803463A
:103850000028A5D120460CA901F072F803460028E3
:103860009ED10146204601F02DF80346002897D14D
:1038700040225946204601F039F8034600288FD1EE
:10388000202220460CA901F031F80346002887D1F8
:103890002946204601F054F80346002880D19DF8BF
:1038A0000C200132D2B2BA428DF80C20FFF472AF74
:1038B00076E752464946204601F018F803460028AC
:1038C00094D06DE701275AE76FF0730304AE67E702
:1038D000DC4300202DE9F0410446884615461F468A
:1038E000D0F81801E0B013B100EB40004008B5F586
:1038F000807F3ED82844B0F5C07F3AD84FF4C072DC
:1039000000216846FCF7E8FE6946D4F82431D4F873
:103910001821D4F82801984770BBD4F8186157B122
:10392000D4E9493072080DEB0601984720BBD4F862
:10393000183106EB5306B8F1000F00D08DB93246AE
:1039400069462046FFF70EFF054610B90123C4F86B
:10395000143131466846FFF763FE284660B0BDE883
:10396000F0810DEB060041462A462E44FCF7DBFEB3
:10397000E5E76FF00405F0E76FF00805EDE700BF3D
:103980002DE9F047044604F1F4050F4691461E4622
:10399000DDF8208000F07CFF29462046FFF74AFE34
:1039A00008B1BDE8F087284620220121FCF794FEEB
:1039B000D4F81831C4F82471C4F8289113B920231D
:1039C000C4F81831424631462046BDE8F04701238D
:1039D000FFF780BFB2F5806F00F295802DE9F04FC0
:1039E00089B09A46129BB3F5807F00F29080D0F8A0
:1039F00024311646044688464BB3D0F81C31012BBF
:103A000005D0D0F81421D0F820319A421FDD51465C
:103A100000232046129AFFF75DFF014698B9002364
:103A20001293002E5ED0DFF8EC9009F1400B0021DC
:103A3000204600F047FF202E3546014628BF2025AE
:103A400004F1F40790B1084609B0BDE8F08FBAF16F
:103A5000000FE6D0129B002BE1D051461A462046BB
:103A6000FFF780FE01460028DBD0ECE74946402204
:103A7000204600F03BFF01460028E4D139462022D1
:103A8000204600F033FF01460028DCD1694620467D
:103A900000F056FF01460028D5D1204600F012FF65
:103AA00001460028CFD159464022204600F01EFF93
:103AB00001460028C7D169462022204600F016FFA3
:103AC00001460028BFD13946204600F039FF0146A3
:103AD0000028B8D140462A463946FCF724FE761B1A
:103AE000A844A4D151462046129AFFF73BFE014656
:103AF0000028A8D10846D4F814310133C4F8143191
:103B000009B0BDE8F08F6FF00201084670476FF012
:103B1000040198E7DC4300202DE9F043202B1D46EB
:103B20000646884691468BB026D8DBB202AF8DF8A8
:103B30000480B04658F8041B8DF8053021B9404682
:103B400000F0C0FE044640B9012302224046336023
:103B500001A900F0CBFE044638B138462021FFF71A
:103B60005FFD20460BB0BDE8F0832A46494640463B
:103B700000F0BCFE0446F0E702AF194610460023F1
:103B80003A4601F03BF804460028E6D12023B94626
:103B90001D46CCE72DE9F041D0F8F830A6B0002B57
:103BA000D8BF02AE31DD05460027D0F80C4102AE89
:103BB000A4F101089022D5F8FC403146D0F800016C
:103BC00001AB0197B8FA88F8A0474FEA58180446A5
:103BD00020B9019B53B9B8F1000F16D0304690219F
:103BE000FFF71EFD204626B0BDE8F08101463246B3
:103BF0002846FFF791FF58B9D5F80431019A1344CC
:103C0000C5F80431B8F1000FE8D16FF03C04E5E7E6
:103C10000446204626B0BDE8F08100BF70B50025FF
:103C2000044614222946C0F8F850FC30FCF754FD35
:103C3000154B04F588761B6830469847204640F8B7
:103C4000045B00F025FE114B30461B689847C8B94D
:103C5000D4F8F830AB420FDC03EB830204EB8202B2
:103C60002021C2F800010120C2E9421008490133B5
:103C7000C2F8FC10C4F8F830064B3046BDE870407E
:103C80001B68184770BD00BF4C2F0020502F00202C
:103C90008D470000542F00202DE9F047202A88B0DE
:103CA00078D83E4B00F5887904461B68484617468D
:103CB00088469847054640BB40F20116D4F8F830D4
:103CC000002B63D02046FFF765FF054600285FD133
:103CD000D4F8F830002B07DDD4E94102904203D339
:103CE000D4F80C21012A14D0013EE9D16FF03B0534
:103CF0006E4620213046FFF793FC294B48461B684F
:103D00009847002818BF6FF01D05284608B0BDE889
:103D1000F0871F28E8D96E4629462022304604F154
:103D2000040AFCF7D9FC3146504600F009FE05466E
:103D30000028DED1504600F0BFFD504600F0A8FD3F
:103D40002946504600F0BEFD05460028D1D1504618
:103D50002022314600F0CAFD05460028C9D103469D
:103D600032462021304600F049FF05460028C0D1E8
:103D7000D4F8F8303A46002BC8BF002340463146FD
:103D8000C8BFC4F80431FCF7CEFCB2E76FF03F05C2
:103D90006E46AEE76FF03B05B7E700BF502F00203F
:103DA000542F0020002130B58DB0282202A80191A7
:103DB000FCF792FC02A800F049FF044610B120462F
:103DC0000DB030BD184D4FF0FF31286800F044F9B8
:103DD0000446C0B9002000F06FF900BB134A02A9E5
:103DE00001A800F0C5FC0446012000F065F990B977
:103DF000286800F039F90028E1D00D4800F0C2F938
:103E000020460DB030BD0B4800F0BCF9012C08BFB6
:103E10000524EDD0DEE7084800F0B4F9E8E70748EC
:103E200000F0B0F9DAE700BF482F0020C8440020B6
:103E300000540000A8530000E0530000C0530000ED
:103E400030B583B000F05CF828B100F0ABF8032483
:103E5000204603B030BD00F077F8D8B900F02CF957
:103E6000E0B9224CD4F828391B0EF02B0AD1D4F833
:103E7000242A1F4B9A4231D000F044F8072400F066
:103E800091F8E5E7062400F03DF800F08BF82046B5
:103E900003B030BD0424204603B030BD00F032F83A
:103EA00000F080F8FFF77EFF044698B9114D2B68AB
:103EB000002BCDD102460146FFF750FB50B96822D6
:103EC0000D4901ABFFF77EFB20B920460B4B2B6061
:103ED00003B030BD0524204603B030BD012000F002
:103EE000EBF80028DAD1C4F80C0ADBE700108450A4
:103EF0000000E020C44400205C4400205AEA5A5AE2
:103F00000020704700207047430504D54FF0FF3272
:103F1000034BC3F80821024BC3F8080A704700BFDF
:103F200000108450014BC3F8040A704700108450FD
:103F300008B100F06BB84FF47500704708B100F09D
:103F40004FB84FF47500704710B5114800F070F885
:103F500000B110BD0F4800F06BF80028F9D10E4CED
:103F6000204600F065F80028F3D10C4B0C481C608B
:103F700000F05EF801460028EBD100F02DF8044671
:103F800008B1204610BD00F079F82046FAE700BFDE
:103F9000442F0020382F0020402F0020482F0020E1
:103FA0003C2F002008B5084800F04CF8074800F006
:103FB00049F8074800F046F8064800F043F8BDE825
:103FC000084000F00BB800BF442F0020382F00201D
:103FD000402F00203C2F002000207047704700BF7A
:103FE000024610B4084CD4F8003A1342FBD021B179
:103FF000D4F804310B60C4F80831034B0020C3F837
:10400000082A5DF8044B704700108450044AD2F827
:10401000003A1842FBD0C2F8080A0020704700BFDF
:1040200000108450FCF784B90A460021FCF754BB09
:1040300008B5034B02681B6810689847002008BD4C
:10404000682F002008B5034B02685B68106898472A
:10405000002008BD682F0020024B02689B68106892
:10406000184700BF682F002008B5034B0268DB68C3
:1040700010689847002008BD682F002070B5094CD3
:10408000094D2069AB68984718B1084B08485B6830
:1040900098470021074AEB6811602069BDE870402D
:1040A000184700BF782F0020682F0020582F0020CD
:1040B00018540000E8460020F8B51A4D1A4E044680
:1040C000B26828699047E8B9184F3B684CB1A3B172
:1040D000012B19D0013B3B602869F3689847002009
:1040E000F8BD43B90121124AC2F800151149D1F8AF
:1040F0001029002AFBD101333B60F36828699847F7
:104100000020F8BD0C48F8BD0A4AD2F81039002B3F
:10411000FBD1074A6FF07E40C2F80035FFF702FF7F
:104120003B68D7E7782F0020682F0020E846002062
:104130000000845000108450E98FFFFF014B1B6882
:10414000184700BF682F0020014B9B68184700BF2D
:10415000682F0020014BDB68184700BF682F002044
:10416000BFF34F8F0549064BCA6802F4E062134360
:10417000CB60BFF34F8F00BFFDE700BF00ED00E055
:104180000400FA0530B44FF0FE320025074B084C0E
:1041900008494968C3F80024C3F80424C3F8082474
:1041A000C3F80C24C4F8005530BC084700108450F4
:1041B00000008450582F002010B5044630B16368C9
:1041C000DB0602D500232360636010BD024B034869
:1041D0005B689847F3E700BF582F00203854000071
:1041E000B0B1436893B1DB060ED5012350E8002F30
:1041F000194640E8001C9CF0000FF7D1012AF5D0C9
:10420000BFF35F8F00207047034870470348704733
:104210006FF4E040704700BFE98FFFFFEA8FFFFFB8
:10422000034668B142683AB1D20607D5BFF35F8F43
:10423000002210461A6070470348704703487047D1
:104240006FF4E040704700BFEA8FFFFFE98FFFFF88
:1042500010B5044620B1002211232260636010BD16
:104260000148FFF78FFFF6E760540000002800F0D8
:1042700084802DE9F0430C4683B0002978D01D4698
:10428000002B75D007461AB1012200232A60036073
:104290002B68002B67D02946204600F0CDFD034651
:1042A000002861D12146286800F0A8FD03460028B7
:1042B0005AD12A68082A72D0042A73D0A2F10208BF
:1042C000B8FA88F84FEA58180120384EC6F8C401E9
:1042D000C6F84001C6F8C401626AC6F83021D6F8B3
:1042E00030118A42F6D14FF0000901934FF0FF30B0
:1042F000C6F82C91FFF708FE6FF01B024846C6F87F
:104300000021FFF70FFEC6F80C81D6F8040A40F42E
:104310008060FFF707FE0A22C6F838210A9B012BAE
:10432000019B2DD022692249A1FB02121209616A68
:10433000184601FB02F202EB42021C49D203920929
:10434000C1F8D8210122C1F82C213A68296822F04D
:104350007F4242EA01623A60296842EA01223A60F9
:1043600003B0BDE8F083134B184603B0BDE8F083FB
:10437000114B184603B0BDE8F0830F4B1846704749
:104380004FF47F02D2F80C1C013106D0D2F80C2C6D
:104390000749A1FB02121209C9E71622C7E74FF02D
:1043A000030891E74FF002088EE700BF0010845029
:1043B000ABAAAAAA310CF100350CF10070B50024AB
:1043C000C9004FF0010C2546A6464E1E08E09E454A
:1043D00014D00125B44516D89E4601340CF1010CC9
:1043E000630950F8233004F01F01CB401F2918BF88
:1043F00003F00103002CEAD10125EDE701359542D8
:10440000E8D1024870BD002070BD00BF360CF1003D
:1044100000283FD02DE9F0414C1EB4F5047F28D28E
:104420003BB332B34FF0000E764675467446CF006C
:1044300003F1FF38610950F8211004F01F0C21FA34
:104440000CF1BCF11F0F18BF01F00101A4B1AB4288
:1044500018D08E4208BF0EF1010EA84515D0314686
:1044600001350134BC4201D00E46E3E70020BDE82F
:10447000F0810948BDE8F0814FF0010E0E46744608
:104480007546D7E70125AE46EBE77245F1D33146D5
:104490001D46E6E700487047370CF1002DE9F04F64
:1044A00091B08346DDE91B460D46002E4ED10969C9
:1044B00006911C6000231A990B60002A00F02681E7
:1044C0009E4B6A6AD3F83811D3F830319A4249D1F9
:1044D0000A2947D19BF80330089304F10803069A90
:1044E0000793042311460593954B944CA3FB0113AA
:1044F0009B0803EB4303A2EB430303931A9B069E23
:104500001E60002E34D04FF000084FF0010ADDF895
:104510001C9000F0A1FC00230993BBF1000F00F0F8
:10452000DF80002D00F0DC80089BEBB1284608A955
:1045300000F082FC00283ED0824B984218D10390B4
:1045400000F08AFC039811B0BDE8F08F4FF47F01B2
:10455000D1F80C0C01300CBF4FF40471D1F80C1CD5
:104560000691A6E77848EAE77848764B9842E6D085
:10457000089B082B00F0C88000225B0008932946A6
:1045800008AB58460092FFF771FE704B984200F05E
:10459000B7800028D3D1DBF80020130A03F47F038F
:1045A000134323F07F43CBF80030059B013B059379
:1045B000A4D10020C3E72946089800F01FFC00287A
:1045C000BAD1089B082B00F09580042B00F0958051
:1045D000A3F10203B3FA83F35B090493C4F8C4A103
:1045E000C4F840A1C4F8C4A16B6AC4F83031D4F84F
:1045F00030219342F6D100234FF0FF30C4F82C3124
:10460000FFF782FC002318466FF01B03C4F800314B
:10461000FFF788FC049B4A4FC4F80C31D4F8040A15
:1046200040F48060FFF77EFC0A23C4F838312B6920
:1046300009A8A7FB03236A6A1B0902FB03F303EB28
:104640004303DB039B09C4F8D831C4F82CA10899B3
:10465000DBF800200B0222F07F4243EA01631343A0
:10466000CBF8003000F0BAFB099B03F01A030343B8
:104670007FF47EAFA7FB0637D4F81431B8EB970F61
:104680000A93D4F818310B93D4F81C310C93D4F856
:1046900020310D93D4F824310E93D4F828310F93A0
:1046A00001D1039BF3B9484618220AA9183E09F123
:1046B0001809FFF7B7FC08F10108002E7FF429AFB5
:1046C000069BB3F5047F36D8079E194630466A69C3
:1046D0001F46FFF773FE20B300231A9A13602BE7DF
:1046E0001B4829E71A4648460AA9F61A9944FFF7D3
:1046F00099FCE0E70323049370E7022304936DE73A
:104700002B6A002B3FF41BAF124818E70122294601
:104710005846009608ABFFF7A9FD00283FF4DDAE30
:104720000DE74FF4806339463046AA69FFF770FE03
:104730000028D1D13DE71A9B1E6019E70010845074
:10474000ABAAAAAA020CF100300CF100310CF10066
:10475000350CF100320CF10030B4DDE90234029482
:104760000024049DCDE9035430BCFFF797BE00BF81
:1047700030B51546012487B005AB00930022CDE982
:10478000015404ABFFF78AFE07B030BD2DE9F041BC
:1047900088B00592002968D01C46002B65D01546CC
:1047A000002A62D0DFF8E4800E46D8F800004FF00F
:1047B000FF31FFF751FC00284CD10020FFF77CFCB3
:1047C000002843D12A4800F041FAE8B101204FF017
:1047D000FF37FFF771FC002834D14FF408712548EA
:1047E000FEF714FF04212448FEF710FF204828217B
:1047F000FEF70CFFD8F80000FFF736FC00282DD19B
:10480000384608B0BDE8F0811A4B0246029307AB68
:104810000390009316491848019405ABFFF79CFFDD
:104820000028D3D12368AB42D0D3079907462A4644
:1048300030460831FFF7F6FB01202560FFF73CFC0E
:104840000028CAD00D48FFF79DFCC6E70C48FFF7CB
:1048500099FCB7E70B48FFF795FCAEE70A48FFF76E
:1048600091FC384608B0BDE8F0814FF0FF37C7E74C
:104870002049002000470020FC460020E0530000B3
:10488000C0530000A853000084540000482F0020AB
:1048900010B5044628B12046BDE81040F421FFF7CA
:1048A000C3BB0448FFF76EFC2046BDE81040F4216E
:1048B000FFF7BABB9C54000010B1F421FEF7A6BE6E
:1048C000704700BF08B561B1012907D1022100F08E
:1048D0005BF8002818BF6FF0360008BD6FF0360097
:1048E00008BD012100F050F8F3E700BF30B50546E0
:1048F0008818B0F5801F0B461446A1B001D8802A55
:104900000CD9B3F5801F17D922461946284600F066
:104910007DF8044684B9204621B030BD6846FFF7D3
:1049200081FB22466946284600F070F88021044643
:104930006846FFF779FBEDE76FF03604EBE700BF61
:1049400070B5E8B10E46D9B1044600F031F805461D
:10495000B0B92368012B0BD0022B01D0284670BDC3
:104960001C22304604F10801FFF75CFB284670BDAD
:104970002022304604F10801FFF754FB284670BDA1
:104980006FF03605EAE700BF78B138B50D46F02183
:104990000446FFF749FB402320462560E36500F00D
:1049A0009BFA003818BF012038BD0120704700BFB6
:1049B000F0B5056EA5B0044604AEE5B900230127A5
:1049C000019330466760294602AA009300F050FA2E
:1049D00010B1012025B0F0BD2A46204602A900F002
:1049E000A5FA0028F5D1204600F0B6FB0028F0D14A
:1049F000206625B0F0BD802D2A46304628BF802293
:104A000004F16401FFF70EFB256ED7E7002800F0E4
:104A1000CD802DE9F04F1546A5B0002A00F0B480F6
:104A20000F46002900F0AC80B2F5803F0646006ECC
:104A30007DD34FF6FF7806F1640914E08342BA464D
:104A40004FF6FF7429D0B4FBF3FB03FB0BFBBBF168
:104A5000000F44D1A5F57F454744FF3D002C59D1B7
:104A6000B5F5803F63D3F36D1C1AB4FBF3F203FB7F
:104A70001244002CE2D0444528BF44463946224621
:104A80004844FFF7CFFA306EF36D2044834207EBC2
:104A9000040A3066A8EB0404D5D1802B28BF8023FC
:104AA00049461A4604A8FFF7BDFA0023F16D02AA91
:104AB000CDE9003304A800F0DBF9002860D13046CE
:104AC000F26D02A900F032FA002859D1F36D306678
:104AD000B4FBF3FB03FB0BFBBBF1000FBAD00023CD
:104AE00059465046CDE9003302AA00F0C1F900282A
:104AF00046D15A46304602A900F018FA00283FD1A4
:104B0000A5F57F45A4EB0B04306EDA444744FF3D26
:104B1000002CA5D019305146224606EB8000FFF745
:104B200081FA306EB5F5803F204430669BD2F26D3D
:104B3000141AB4FBF2F302FB1344AC4228BF2C4618
:104B400034BB904234D0B5FBF2F402FB04F46CB9F0
:104B5000D5B1336E2A46193306EB83003946FFF789
:104B600061FA336E00202B4433660AE000232146AD
:104B70003846CDE9003302AA00F07AF9002833D094
:104B8000012025B0BDE8F08F284625B0BDE8F08FA4
:104B900006F16403394622461844FFF743FA306EA3
:104BA000F26D20442D1B27443066CAE70120704770
:104BB000802A28BF802206F1640104A8FFF732FA98
:104BC0000023F16D04A8CDE9003302AA00F050F9EA
:104BD0000028D5D13046F26D02A900F0A7F90028CF
:104BE000CED1F26D3066AEE72246304602A900F023
:104BF0009DF90028C4D127442D1BA9E7F8B51C4610
:104C00000546114816460F46FFF742FE21460E485C
:104C1000FFF758FE044620B10B48FFF74DFE204633
:104C2000F8BD3A4629460848FFF760FE04460028CA
:104C3000F2D131460448FFF783FE04460248FFF7ED
:104C40003BFE2046F8BD00BF484900201C2330B57C
:104C500083B001A90446019300F036F8054638B93F
:104C6000019B1C2B07D0164D1C212046FFF7DCF9B9
:104C7000284603B030BD0121D4E90032003B18BF03
:104C80000123E1610AB143F00203A26832B9E2688C
:104C900042B9C4E908328BB90A4DE5E7E26843F04E
:104CA00004033AB10022284643F00803C4E908325D
:104CB00003B030BD1546C4E90832D9E71546D7E739
:104CC000370CF0000E0CF0000346002866D00029D7
:104CD00064D00A681C2A61D14FF47F023B49D2F8A4
:104CE000100C88425CD0D2F8101C013158D0D2F898
:104CF000101C4FF47F021960D2F8140C344988421A
:104D000060D0D2F8141C01315CD0D2F8141C4FF4DE
:104D10007F025960D2F8181C11F5947F4FD0D2F859
:104D2000181C01314BD0D2F8181C4FF47F02996047
:104D3000D2F81C0C274988423ED0D2F81C1C013105
:104D40003AD0D2F81C1C4FF47F02D960D2F8001C74
:104D500070312FD0D2F8001C01312BD0D2F8001CBA
:104D60004FF47F021961D2F8041CAF3120D0D2F881
:104D7000041C01311CD0D2F8041C4FF47F0259618D
:104D8000D2F8080C144988420DD0D2F8081C013121
:104D900009D0D2F8082C00209A6170470120704792
:104DA00040F6FC01A5E740F2373200209A617047D7
:104DB0005121E2E79021D3E742F60411C3E740F620
:104DC000D861B2E742F2D001A1E700BFFCF8FFFFD3
:104DD000D020FFFF0429FFFF37F3FFFF014608B58E
:104DE0004FF48060FFF7AAF80022034BC3F8C821F4
:104DF000C3F82C2108BD00BF0010845001380728DB
:104E000005D8DFE800F0120E040A0404040609487D
:104E10007047CB6800204B6270478B6800204B6264
:104E200070474B6800204B6270470B6800204B6254
:104E3000704700BF310CF1000B6802E0082B0B60DB
:104E400006D8026A13424FEA4303F7D000207047A6
:104E500000487047310CF1000022044B4FF4806091
:104E6000C3F82C21C3F8C421FFF74EB800108450BA
:104E7000F0B5002483B0B0F1005F8DF8074025D372
:104E80008C468444BCF1804F04461FD817461D460B
:104E900001220DF1070300F099F90646B0B99DF81B
:104EA0000730099A3C603B7192B14DB102460899B6
:104EB00028460DF1070300F089F938B99DF807304D
:104EC0003046099A1560137103B0F0BD4FF47506B2
:104ED000304603B0F0BD00BFE8B110B50468012C46
:104EE00004D0022C10D044B10C4810BD20220C4933
:104EF0000830FFF797F8002010BD14220949083048
:104F0000FFF790F8204610BD202207490830FFF730
:104F100089F8002010BD4FF4730070470100F300C2
:104F2000E0540000AC540000C05400002DE9F843E8
:104F3000002900F0F9800446002800F0F980036899
:104F40000F469046002B00F0C380013B012B00F27E
:104F5000D7804FF0FF3178484FF00209FFF77CF817
:104F6000002840F0BF800020FFF7A6F80646002882
:104F700040F0C280714AD2F81C39002BFBD16F4D32
:104F8000D5F8203C002BFBD14FF0FF30FEF7BCFFE3
:104F9000D5F8040A20F04000FEF7C4FF01230722E1
:104FA000C5F81838C5F80029C5F8C437A36CC5F88A
:104FB000CC37E36CC5F8D037C5F8C09723685BB130
:104FC000013B012B18D8636AC5F85C36236AC5F823
:104FD0005836E369C5F85436A269584BC3F85026D1
:104FE0006269C3F84C262269C3F84826E268C3F810
:104FF0004426A268C3F84026504AD2F81039002B44
:10500000FBD1B8F1000F5FD063684020012B08BFCF
:10501000C2F884363A68494BC3F8282CC3F82C8C64
:10502000FEF786FF0646454AD2F81039002BFBD121
:10503000424AD2F8203C002BFBD123685BB1013BF4
:10504000012B18D8D2F85C366362D2F85836236246
:10505000D2F85436E361394BD3F85026A261D3F825
:105060004C266261D3F848262261D3F84426E260D8
:10507000D3F84036A36000230121304AD2F8CC0790
:10508000A064D2F8D007E064C2F8C417C2F884362E
:10509000C2F8C837D2F81039002BFBD1C2F8183843
:1050A000002E3BD1254BD3F8040A40F04000FEF718
:1050B00039FF0120FFF700F860BB1F48FEF7D4FF5F
:1050C00010BB3046BDE8F8830423C2F8C837AAE70E
:1050D0004FF0FF3118484FF00109FEF7BDFF0028DF
:1050E0003FF441AF1648FFF74DF80020FEF7E4FF0C
:1050F000064600283FF43EAF1248FFF743F839E771
:10510000114E3046BDE8F8831048FFF73BF83046B3
:10511000BDE8F8830E48FFF735F8CEE7102104F11B
:105120000800FEF781FFBDE70A4E3046BDE8F88370
:105130004FF47306C5E700BF442F002000108450D1
:10514000A8530000C05300000100F3000054000009
:10515000E05300000300F300A0B3034670B4D0E9AD
:105160000240D3E9041226BA05BA0CBA10BAC3E950
:105170000440D3E90612986A09BAC3E9026512BA73
:10518000996100BAD3E9084125BA0CBAC3E90725E9
:10519000D3E90B12C3E9094009BAD86B12BAD96234
:1051A000D3E90D4125BAC3E90C250CBA00BAD3E9FD
:1051B000101209BA12BAC3E90E40196400205A64E9
:1051C00070BC70474FF47300704700BF0020187028
:1051D000704700BF014B1B68184700BFA82F002075
:1051E000024B1860024B002019607047A42F00206A
:1051F000A82F0020054A0346106810B1034413602D
:105200007047034803441360704700BF4C4A0020B6
:10521000000C0020FEE700BFF8B500BFF8BC08BCDA
:105220009E467047F8B500BFF8BC08BC9E46704764
:105230000122FCF745F81FBD1FB51F486946F7E777
:105240001FB51E486946F3E71FB51D486946EFE7DD
:105250001FB51C486946EBE71FB51B486946E7E7E1
:105260001FB51A486946E3E71FB519486946DFE7E5
:105270001FB518486946DBE71FB517486946D7E7E9
:105280001FB516486946D3E71FB515486946CFE7ED
:105290001FB514486946CBE71FB513486946C7E7F1
:1052A0001FB512486946C3E71FB511486946BFE7F5
:1052B0001FB510486946BBE7151300001B1300001B
:1052C000491300006D160000AD1600001517000010
:1052D00085170000CB17000039180000DD1800000A
:1052E000ED180000191900001113000055150000F9
:1052F000F91500001D19000054464D5F43525950E6
:10530000544F0054464D5F53505F504C4154464FEC
:10531000524D5F53595354454D5F524553455400C8
:1053200054464D5F53505F504C4154464F524D5F71
:10533000494F43544C0054464D5F53505F504C41CD
:1053400054464F524D5F4E565F434F554E54455253
:1053500000000000191A0000F11900008D1900006A
:105360005719000065190000411900006409000088
:1053700050310020803100200080000000800000BB
:10538000FFFF0F00007C000000800000FF8FFFFF88
:10539000FF8FFFFFFE8FFFFFFE8FFFFFFD8FFFFFE1
:1053A000FC8FFFFFFC8FFFFF4661696C20746F204C
:1053B00061637175697265206D757465780A0000A6
:1053C0004661696C20746F20696E637265617365F4
:1053D00020504D20636F756E7465720A00000000E6
:1053E0004661696C20746F206465637265617365E2
:1053F00020504D20636F756E7465720A00000000C6
:105400004661696C20746F2072656C6561736520FC
:105410006D757465780A0000436F756C64206E6F5B
:1054200074206C6F636B20706F7765722073617688
:1054300065206D75746578006D757465785F66724A
:1054400065652063616C6C65642077697468204EC3
:10545000554C4C20706172616D657465720000007E
:1054600043616E277420696E697469616C697A653D
:10547000206D757465782C20776173204E554C4CE7
:105480000D0A00004661696C20746F20756E6C6FA8
:10549000636B206D757465780A0000000A63747888
:1054A000206973204E554C4C0A00000001234567CB
:1054B00089ABCDEFFEDCBA9876543210F0E1D2C35E
:1054C000D89E05C107D57C3617DD703039590EF7E7
:1054D000310BC0FF11155868A78FF964A44FFABEAD
:1054E00067E6096A85AE67BB72F36E3C3AF54FA575
:1054F0007F520E518C68059BABD9831F19CDE05BA1
:10550000000000009CBAFF7F010000000090D00363
:1055100040080000203000205031002090ED00E0D5
:10552000001C00207C2F0020882F0020802F0020CE
:10553000782F0020402F00203D410000494100000D
:10554000554100000000000061410000EC460020D1
:105550001100000051420000B9410000E14100008B
:10556000214200009C2F0020602F0020942F00205B
:10557000000000008C2F0020F046002011000000E9
:10558000F446002011000000F84600201100000041
:10559000A102000021030000B02F00200000000045
:1055A00000000000000000000000000000000000FB
:1055B00000000000000000000000000000000000EB
:1055C00000000000000000000000000000000000DB
:1055D00000000000000000000000000000000000CB
:1055E00000000000000000000000000000000000BB
:1055F000000000000000000000000000850F000017
:04560000610F000036
:107C00007FE97FE9F8F784BC7FE97FE9F8F796BC64
:107C10007FE97FE9F8F7D9BC7FE97FE9F8F7BEBCD7
:107C20007FE97FE9F8F7A0BC000000000000000039
:107C30000000000000000000000000000000000044
:1080000020720120BD4A0100EB900200414A0100AC
:10801000414A0100414A0100414A0100414A010030
:108020000000000000000000000000000543010007
:10803000414A01000000000071420100414A010074
:10804000A9430100A9430100A9430100A94301007C
:10805000A9430100A9430100A9430100A94301006C
:10806000A9430100A9430100A9430100A94301005C
:10807000A9430100A9430100A9430100A94301004C
:10808000A9430100A9430100A9430100A94301003C
:10809000A9430100A9430100A9430100A94301002C
:1080A000A9430100A9430100A9430100A94301001C
:1080B00015960200A9430100A9430100A94301004C
:1080C000A9430100A9430100A9430100A9430100FC
:1080D000A9430100A9430100A9430100A9430100EC
:1080E000A9430100A9430100A9430100A9430100DC
:1080F000A9430100A9430100A9430100A9430100CC
:10810000A9430100A9430100A9430100A9430100BB
:10811000A9430100A9430100A9430100A9430100AB
:10812000A9430100A9430100A9430100A94301009B
:10813000A9430100A9430100A9430100A94301008B
:10814000A9430100FFFFFFFF81F0004102E000BFF3
:1081500083F0004330B54FEA41044FEA430594EA07
:10816000050F08BF90EA020F1FBF54EA000C55EA42
:10817000020C7FEA645C7FEA655C00F0E2804FEA13
:108180005454D4EB5555B8BF6D420CDD2C4480EAF5
:10819000020281EA030382EA000083EA010180EA25
:1081A000020281EA0303362D88BF30BD11F0004F73
:1081B0004FEA01314FF4801C4CEA113102D04042A9
:1081C00061EB410113F0004F4FEA03334CEA1333E4
:1081D00002D0524263EB430394EA050F00F0A780FC
:1081E000A4F10104D5F1200E0DDB02FA0EFC22FAF7
:1081F00005F2801841F1000103FA0EF2801843FAEB
:1082000005F359410EE0A5F120050EF1200E012ADB
:1082100003FA0EFC28BF4CF0020C43FA05F3C01819
:1082200051EBE37101F0004507D54FF0000EDCF192
:10823000000C7EEB00006EEB0101B1F5801F1BD33B
:10824000B1F5001F0CD349085FEA30004FEA3C0C3F
:1082500004F101044FEA445212F5800F80F09A8035
:10826000BCF1004F08BF5FEA500C50F1000041EB39
:10827000045141EA050130BD5FEA4C0C404141EB3D
:108280000101013C28BFB1F5801FE9D291F0000F38
:1082900004BF01460020B1FA81F308BF2033A3F1E7
:1082A0000B03B3F120020CDA0C3208DD02F1140CDE
:1082B000C2F10C0201FA0CF021FA02F10CE002F119
:1082C0001402D8BFC2F1200C01FA02F120FA0CFC12
:1082D000DCBF41EA0C019040E41AA2BF01EB04515B
:1082E000294330BD6FEA04041F3C1CDA0C340EDC59
:1082F00004F11404C4F1200220FA04F001FA02F39C
:1083000040EA030021FA04F345EA030130BDC4F159
:108310000C04C4F1200220FA02F001FA04F340EA4E
:108320000300294630BD21FA04F0294630BD94F0FF
:10833000000F83F4801306BF81F480110134013DE6
:108340004EE77FEA645C18BF7FEA655C29D094EA57
:10835000050F08BF90EA020F05D054EA000C04BFD5
:108360001946104630BD91EA030F1EBF00210020C0
:1083700030BD5FEA545C05D14000494128BF41F05F
:10838000004130BD14F580043CBF01F5801130BDC3
:1083900001F0004545F0FE4141F470014FF000004E
:1083A00030BD7FEA645C1ABF194610467FEA655CFF
:1083B0001CBF0B46024650EA013406BF52EA0335A1
:1083C00091EA030F41F4002130BD00BF90F0000F8F
:1083D00004BF0021704730B54FF4806404F13204CB
:1083E0004FF000054FF0000150E700BF90F0000F84
:1083F00004BF0021704730B54FF4806404F13204AB
:1084000010F0004548BF40424FF000013EE700BF7A
:1084100042004FEAE2014FEA31014FEA02701FBF0A
:1084200012F07F4393F07F4F81F06051704732F03C
:108430007F4208BF704793F07F4F04BF41F4002193
:10844000704730B54FF4607401F0004521F00041F1
:108450001CE700BF50EA010208BF704730B54FF07B
:1084600000050AE050EA010208BF704730B511F07C
:10847000004502D5404261EB41014FF4806404F1B4
:1084800032045FEA915C3FF4D8AE4FF003025FEA3A
:10849000DC0C18BF03325FEADC0C18BF033202EBBE
:1084A000DC02C2F1200300FA03FC20FA02F001FA18
:1084B00003FE40EA0E0021FA02F11444BDE600BFBB
